:100000000C9446000C9466000C9466000C946600F8
:100010000C9466000C9466000C9466000C946600C8
:100020000C9466000C9466000C9466000C946600B8
:100030000C9466000C9466000C9466000C946600A8
:100040000C9466000C9466000C94870E0C94660069
:100050000C9466000C9466000C9466000C94660088
:100060000C9466000C9466000C9466000C94660078
:100070000C9466000C9466000C9466000C94660068
:100080000C9466000C9466000C94660011241FBE4C
:10009000CFEFD0E1DEBFCDBF15E0A0E0B1E0ECEFE7
:1000A000F5E400E00BBF02C007900D92A835B10740
:1000B000D9F71BBE16E0A8E5B5E001C01D92AA3332
:1000C000B107E1F70E94CE0D0C94FC220C940000C5
:1000D000F89410926A001ABE19BE18BE80EC85BF53
:1000E00080E480936D007894089528B3482F50E001
:1000F0004C5F5F4F30E0042E02C0359527950A947F
:10010000E2F720FF0BC028B381E090E002C0880F27
:10011000991F4A95E2F7282B28BB089528B381E060
:1001200090E002C0880F991F4A95E2F780958223DC
:1001300088BB089548B390E0049621E030E002C007
:10014000220F331F8A95E2F7422B48BB089548B32C
:1001500090E0049621E030E002C0220F331F8A9520
:10016000E2F72095242328BB089528B330E090E0DF
:10017000049602C0359527958A95E2F72095822F3F
:100180008170089583B1806683B982B18F7982B915
:10019000089541B190E0059621E030E002C0220FC1
:1001A000331F8A95E2F7422309F041E0842F089536
:1001B000982F823018F020E030E006C081E1989F4F
:1001C00090011124285A3A4FC901089517B885E8BB
:1001D00086B90895877087B9369A349BFECF24B1CB
:1001E00030E045B1942F80E0282B392BC9010895C8
:1001F0000C9400000895DF92EF92FF920F931F93EB
:10020000F82EE62ED72E81E08F15D8F1A62FB72F26
:10021000FD0101900020E9F73197EA1BFB0B719774
:1002200080F501E1F09E80011124085A1A4FC8019F
:1002300060E270E040E150E00E94621E8F2D90E08D
:10024000FC0124E0EE0FFF1F2A95E1F7E80FF91FEC
:10025000E85AFA4F108AEE2DFD2DDF010D90002097
:10026000E9F71197AE1BBF0BC8016E2D7D2DAD01B7
:100270000E94591E80E06F2D0E94E016C8010E9466
:1002800065171F910F91FF90EF90DF9008950F93E6
:100290001F93CF93DF9387B3806F87BBC4E0D0E019
:1002A00001E010E0C49AC59AC69AC79A28B3C8015B
:1002B0000C2E02C0880F991F0A94E2F780958223C2
:1002C00088BB88E290E00E94790E2196C830D10563
:1002D00049F7C49AC59AC69AC79ADF91CF911F91E0
:1002E0000F91089517B885E886B9F89410926A00BE
:1002F0001ABE19BE18BE80EC85BF80E480936D00E5
:1003000078940E94FF1680E090E060E071E00E9427
:10031000FB0081E090E061E171E00E94FB0080E081
:1003200067E00E94941083B1806683B982B18F79AF
:1003300082B90E944701089590E026E0880F991F36
:100340002A95E1F78D5F9D4768E00E94D6050895E4
:10035000CF92DF92EF92FF920F931F93CF93DF9391
:10036000E82EEB016A0168816F3F51F489818F3F6C
:1003700091F48A818F3F79F48B818F3F61F43DC086
:10038000662349F48981882331F48A81882319F40A
:100390008B81882391F1C114D10479F1FF2488E085
:1003A00092E0E80EF91E870136E0000F111F3A9522
:1003B000E1F7C80144960E94D605C80145966981B7
:1003C0000E94D605C80146966A810E94D605C801DA
:1003D00047966B810E94D605C80142966D2D0E94FA
:1003E000D605C80143966C2D0E94D605C801039618
:1003F00064E00E94D60581E001C080E0DF91CF91EA
:100400001F910F91FF90EF90DF90CF90089590E0B3
:1004100046E0880F991F4A95E1F78D5F9D4760E19F
:100420000E94D6050895BF92CF92DF92EF92FF927D
:100430000F931F93CF93DF93B82ED62E7A01C22E3F
:10044000862F8150843010F080E042C08B2D0E94B6
:100450000702CB2DD0E0C85FDD4F8E0166E0000FB4
:10046000111F6A95E1F7DC28C80101966D2D0E94E5
:10047000D605C8010A96055F1F4FE114F10431F05B
:100480006F2D0E94D605C8016E2D10C02091E60583
:100490003091E7052F5F3F4F3093E7052093E60546
:1004A000632F0E94D605C8016091E6050E94D6051B
:1004B00056E0CC0FDD1F5A95E1F7CE01039661E0BF
:1004C0000E94D605EB2DF0E0E252FA4F81E08083E6
:1004D000DF91CF911F910F91FF90EF90DF90CF9020
:1004E000BF900895FF920F931F93CF93DF93F82E41
:1004F0008B01EA010E94B40A9E0140E050E06217BD
:1005000073078407950720F48F2D0E94B40AEB012E
:10051000209791F1AE0160E070E08F2D0E946C0891
:100520009E01217030702C0F3D1F40E050E08F2D58
:10053000B8010E94520A8F2D90E076E0880F991F33
:100540007A95E1F78D5F9D4760E20E94D60507C06E
:100550008F2D0E948F07882349F003FD07C08F2D40
:100560000E947907082F84FFF3CF02C0C0E0D0E0DB
:100570008F2D60E10E948407CE01DF91CF911F9102
:100580000F91FF9008956F927F928F929F92BF92EA
:10059000CF92DF92EF92FF920F931F93CF93DF934F
:1005A000B82E3B016A01E90148010E94B40A960194
:1005B00040E050E0621773078407950720F48B2D05
:1005C0000E94B40A6B016881662351F489818823F3
:1005D00039F48A81882321F48B81882309F45CC053
:1005E0008114910409F458C0C114D10409F454C011
:1005F000EB2CFF2488E092E0E80EF91E8701E6E08C
:10060000000F111FEA95E1F7C80144960E94D60534
:10061000C801459669810E94D605C80146966A813F
:100620000E94D605C80147966B810E94D605C80175
:100630004296692D0E94D605C8014396682D0E94F6
:10064000D605A60160E070E08B2D0E946C08960133
:10065000217030702C0D3D1D40E050E08B2DB3011A
:100660000E94520AC801039660E20E94D60507C0A4
:100670008B2D0E948F07882349F0C3FD07C08B2D67
:100680000E947907C82F84FFF3CF02C0CC24DD2459
:100690008B2D60E10E948407C601DF91CF911F91ED
:1006A0000F91FF90EF90DF90CF90BF909F908F9031
:1006B0007F906F900895CF92DF92FF920F931F93D8
:1006C000DF93CF9300D0CDB7DEB7F82E6B011A823F
:1006D0001982082F10E0085F1D4FC801A6E0880F9F
:1006E000991FAA95E1F701960E94D3058F2DBE01AF
:1006F0006F5F7F4F22E030E040E050E00E94830ACD
:1007000099818A819C0140E050E080FF04C02F5F06
:100710003F4F4F4F5F4F9A8389838F2DB6010E94C1
:10072000830AF6E0000F111FFA95E1F7C80103965E
:1007300060E40E94D60529813A8140E050E0B90189
:10074000CA010F900F90CF91DF911F910F91FF90F1
:10075000DF90CF9008957F928F929F92AF92BF9239
:10076000CF92DF92EF92FF920F931F93DF93CF937D
:10077000CDB7DEB72C970FB6F894DEBF0FBECDBF56
:10078000782E6B017901452B19F400E010E01AC1B5
:10079000882E992488E092E0880E991E540186E004
:1007A000AA0CBB1C8A95E1F70894A11CB11CC501D9
:1007B0000E94D30590E0877090708330910569F1B5
:1007C0008430910509F445C0029719F000E010E06B
:1007D00050C0872DBE016B5F7F4F28E030E040E0C6
:1007E00050E00E94830A8D81D7018C938E811196EF
:1007F0008C9311978F8112968C93129788851396FC
:100800008C93998580E02A85820F911DF801918350
:1008100080839B8580E02C8529C0872DBE016B5F7E
:100820007F4F26E030E040E050E00E94830A8D8157
:10083000D7018C938E8111968C9311978F8112968C
:100840008C931297888513968C93998580E02A85DE
:100850000DC0872DBE016B5F7F4F22E030E040E08E
:1008600050E00E94830A9D8180E02E818C01020F5E
:10087000111D980121703070200F311F40E050E0B1
:10088000872DB6010E94830AC5010E94D305877097
:10089000843009F08DC082E291E00E94D11EEDB754
:1008A000FEB73E970FB6F894FEBF0FBEEDBF319670
:1008B00087E391E0ADB7BEB712969C938E931197E4
:1008C000D6018C918283138211968C911197848327
:1008D000158212968C9112978683178213968C91AB
:1008E00013978087118614968C91149782871386AC
:1008F00015968C91848715860E94BC1EEDB7FEB7B5
:10090000319680E691E0ADB7BEB712969C938E9378
:100910001197D60116968C9116978283138217969B
:100920008C9117978483158218968C9118978683DB
:10093000178219968C911997808711861A968C9137
:100940001A97828713861B968C91848715860E943E
:10095000BC1EEDB7FEB738960FB6F894FEBF0FBEBB
:10096000EDBF319689E891E0ADB7BEB712969C9382
:100970008E931197D6011C968C911C9782831382BB
:100980001D968C91848315820E94BC1EEDB7FEB724
:1009900036960FB6F894FEBF0FBEEDBF872DBE0191
:1009A0006F5F7F4F24E030E040E050E00E94830A18
:1009B000B6E0880C991CBA95E1F7C401039660E48F
:1009C0000E94D605C8012C960FB6F894DEBF0FBE64
:1009D000CDBFCF91DF911F910F91FF90EF90DF90EE
:1009E000CF90BF90AF909F908F907F900895EF929F
:1009F000FF920F931F93F82E0E948F07833111F0FF
:100A0000EE240EC08F2D90E026E0880F991F2A95C6
:100A1000E1F78D5F9D4762E00E94D605EE24E394E6
:100A20000F2D10E0085F1D4F96E0000F111F9A95E3
:100A3000E1F7C8010A960E94D30500D000D000D08B
:100A4000EDB7FEB731962DE931E0ADB7BEB71296DE
:100A50003C932E931197F2821382848315820E9415
:100A6000BC1E8DB79EB706960FB6F8949EBF0FBEFC
:100A70008DBFC8010B960E94D30500D000D000D0D6
:100A8000EDB7FEB7319625EB31E0ADB7BEB71296A4
:100A90003C932E931197F2821382848315820E94D5
:100AA000BC1E8DB79EB706960FB6F8949EBF0FBEBC
:100AB0008DBF8E2D1F910F91FF90EF9008959F9203
:100AC000AF92BF92CF92DF92EF92FF920F931F935C
:100AD000CF93DF93982EEB0179018A010E94B40A2B
:100AE0006E157F058007910728F4892D0E94B40AAE
:100AF0007B018C01892D0E9482085B016C01892D8C
:100B00000E948F07873111F08C31E1F5AE14BF04DC
:100B1000C006D10678F3C70181709070892B49F027
:100B2000A80197012F5F3F4F4F4F5F4F892DBE01A7
:100B300004C0892DBE01A80197010E94520AE92D27
:100B4000F0E0E252FA4F8081882331F00FC0892D06
:100B50000E948F078823B1F0892D0E94790784FFB6
:100B6000F6CF892D60E10E94840701C01082892D93
:100B7000B801A7010E946C08892D60E270E00E9414
:100B8000520703C0EE24FF248701B701C801DF919B
:100B9000CF911F910F91FF90EF90DF90CF90BF907A
:100BA000AF909F900895FC0180810895FC016083BF
:100BB00008954091008020910180942F80E030E0E2
:100BC000282B392BC90108959093008080930180D0
:100BD00008954091028020910380942F80E030E0BE
:100BE000282B392BC9010895109202800895409155
:100BF000048020910580942F80E030E0282B392B51
:100C0000C901089590930480809305800895FC01A4
:100C100080910880808380910980818380910A80FF
:100C2000828380910B80838380910C808483809168
:100C30000D8085830895DC01E8E0F0E88D918193D3
:100C400080E8EE30F807D1F70895FC01809110801C
:100C50008083809111808183809112808283809132
:100C6000138083830895FC018081809310808181AB
:100C7000809311808281809312808381809313807E
:100C80000895FC0180911480808380911580818378
:100C90008091168082838091178083830895FC0160
:100CA00080818093148081818093158082818093DC
:100CB00016808381809317800895FC0180911880AD
:100CC000808380911980818380911A8082838091B2
:100CD0001B8083830895FC0180818093188081812B
:100CE00080931980828180931A80838180931B80F6
:100CF000089540911C8020911D80942F80E030E069
:100D0000282B392BC901089590931C8080931D8056
:100D1000089580911F80089580931F8008954091C9
:100D2000328020913380942F80E030E0282B392BC3
:100D3000C901089580913680089580933680089582
:100D400080913880089580933880089540913C8048
:100D500020913D80942F80E030E0282B392BC90171
:100D60000895DC01E0E4F0E880811C928081119616
:100D70008C931197E2E4F0E8808112961C9212970E
:100D8000808113968C931397E4E4F0E880811496A5
:100D90001C921497808115968C930895FC01A8E409
:100DA000B0E88C9110828C918183AAE4B0E88C9198
:100DB00012828C918383089540914C8020914D80C4
:100DC000942F80E030E0282B392BC9010895409101
:100DD0004E8020914F80942F80E030E0282B392BDB
:100DE000C9010895E82FF0E0E85EFF4DEE0FFF1F08
:100DF000EE0FFF1F80810895E82FF0E0E85EFF4DC1
:100E0000EE0FFF1FEE0FFF1F60830895E82FF0E045
:100E1000EE0FFF1FEE0FFF1FEE59FF47BE2FAA2751
:100E20009C918181892B90E00895E82FF0E0EE0FEE
:100E3000FF1FEE0FFF1FEE59FF4770836183089578
:100E40004091FE802091FF80942F80E030E0282B9D
:100E5000392BC9010895E82FF0E0E85FFD4F66E007
:100E6000EE0FFF1F6A95E1F7BE2FAA279C918181A3
:100E7000892B90E00895E82FF0E0E85FFD4FA6E0B1
:100E8000EE0FFF1FAA95E1F7708361830895E82FA5
:100E9000F0E0B6E0EE0FFF1FBA95E1F7EE5FFD4719
:100EA00081810895E82FF0E086E0EE0FFF1F8A951C
:100EB000E1F7EE5FFD47DF011196718361838C914D
:100EC0008823E9F70895E82FF0E096E0EE0FFF1F82
:100ED0009A95E1F7EC5FFD4781810895E82FF0E0F6
:100EE00026E0EE0FFF1F2A95E1F7EC5FFD476183D7
:100EF0000895E82FF0E0E85FFD4F36E0EE0FFF1FAA
:100F00003A95E1F787810895E82FF0E0E85FFD4F1B
:100F100046E0EE0FFF1F4A95E1F767830895E82F3B
:100F2000F0E056E0EE0FFF1F5A95E1F7E85FFD474E
:100F3000DF01119681819C91891711F0892FFBCFD8
:100F40000895CF93DF939B01E82FF0E0E85FFD4F1A
:100F5000DF0166E0AA0FBB1F6A95E1F71C968C9132
:100F60001C97E90118821C968C911C9789831E9608
:100F70008C911E971A821E968C911E978B83FD0171
:100F8000709680811C8280818D83DF91CF9108953E
:100F9000CF93DF93DB01E82FF0E0E85FFD4F9F0187
:100FA00076E0220F331F7A95E1F711968C91119715
:100FB000E9018C8713968C9113978E8715968C91E7
:100FC000F90170968083DF91CF910895E82FF0E0CA
:100FD000E85FFD4FA6E0EE0FFF1FAA95E1F7728BC9
:100FE000638B0895DB01E82FF0E0E85FFD4F86E0BA
:100FF000EE0FFF1F8A95E1F784891C928489119670
:101000008C931197868912961C9212978689139653
:101010008C930895DB01E82FF0E0E85FFD4F96E048
:10102000EE0FFF1F9A95E1F711968C911197848B23
:1010300013968C91868B0895E82FF0E0E85FFD4FC2
:1010400026E0EE0FFF1F2A95E1F7208D922F80E01A
:10105000218D30E0282B392BC9010895E82FF0E0CD
:10106000E85FFD4F36E0EE0FFF1F3A95E1F7708F16
:10107000618F0895E82FF0E0E85FFD4F46E0EE0F46
:10108000FF1F4A95E1F7838D80E00895E82FF0E097
:10109000E85FFD4F56E0EE0FFF1F5A95E1F7238DF5
:1010A000962F80E0820F911D838F0895E82FF0E046
:1010B000EE0FFF1FEF5EFB4FDF0165E0AA0FBB1FC6
:1010C0006A95E1F79C9111968C911197FD013296EA
:1010D000708113966C910895E82FF0E0EE0FFF1FDA
:1010E000EF5EFB4FDF01E5E0AA0FBB1FEA95E1F7DA
:1010F0007C9311966C931197FD0132965083139651
:101100004C9308956F927F928F929F92AF92BF926D
:10111000CF92DF92EF92FF920F931F93CF93DF93C3
:1011200090E0885F9D4F56E0880F991F5A95E1F730
:1011300044E2842E912C880E991EBC016B5D7F4F7A
:10114000EC01A69637E2632E712C680E791EAA2454
:10115000BB246501D4018C9190E0A0E0B0E0BA2FEF
:10116000A92F982F8827FB012081820F911DA11D97
:10117000B11DBA2FA92F982F88272881820F911D82
:10118000A11DB11DEE24F82E092F1A2FD3018C9129
:10119000E80EF11C011D111DEA14FB040C051D05D0
:1011A00029F0C701D8015C016D01D4CFB501C6019A
:1011B000DF91CF911F910F91FF90EF90DF90CF9033
:1011C000BF90AF909F908F907F906F9008956F9297
:1011D0007F928F929F92AF92BF92CF92DF92EF92C7
:1011E000FF920F931F93CF93DF9390E0885F9D4F03
:1011F00046E0880F991F4A95E1F738E2832E912C3B
:10120000880E991EBC01675D7F4FEC01AA962BE208
:10121000622E712C680E791E01E0A02EB12CC12C1B
:10122000D12CD4018C9190E0A0E0B0E0BA2FA92F8E
:10123000982F8827FB012081820F911DA11DB11DD0
:10124000BA2FA92F982F88272881820F911DA11DC1
:10125000B11DEE24F82E092F1A2FD3018C91E80E20
:10126000F11C011D111DEA14FB040C051D0529F0DC
:10127000C701D8015C016D01D4CFB501C601DF9172
:10128000CF911F910F91FF90EF90DF90CF90BF9083
:10129000AF909F908F907F906F900895E82FF0E02F
:1012A000E85FFD4F56E0EE0FFF1F5A95E1F776A776
:1012B00067A70895E82FF0E0E85FFD4F66E0EE0FC6
:1012C000FF1F6A95E1F720A9922F80E021A930E065
:1012D000282B392BC9010895E82FF0E0E85FFD4F76
:1012E00076E0EE0FFF1F7A95E1F7838D0895E82FE2
:1012F000F0E0E85FFD4FA6E0EE0FFF1FAA95E1F7D3
:10130000838D638F0895E82FF0E0E85FFD4FB6E02E
:10131000EE0FFF1FBA95E1F7848D0895E82FF0E0F6
:10132000E85FFD4F86E0EE0FFF1F8A95E1F7648FBF
:101330000895E82FF0E0E85FFD4F96E0EE0FFF1F05
:101340009A95E1F7868D0895E82FF0E0E85FFD4F6C
:1013500026E0EE0FFF1F2A95E1F7668F0895E82F2C
:10136000F0E0E85FFD4F36E0EE0FFF1F3A95E1F742
:1013700084A50895E82FF0E0E85FFD4F46E0EE0F0A
:10138000FF1F4A95E1F764A70895CF92DF92EF928D
:10139000FF920F931F93CF93DF936C019B017B010F
:1013A000B601E90100E010E040E050E020E030E06C
:1013B000DB018C91813408F06BC09881913408F086
:1013C00067C0080F111D490F511DF901E05FF94F6A
:1013D00090E0A0E0B0E0072E7AE0880F991FAA1FE6
:1013E000BB1F7A95D1F7702D80839183A283B3833D
:1013F000F901E051FA4F899190E0A0E0B0E0072EAA
:101400007AE0880F991FAA1FBB1F7A95D1F7702D1C
:1014100080839183A283B3836F5F7F4F2C5F3F4FA5
:101420002032310529F6C80187709070892B81F52B
:10143000400F511F4038510559F5E0E2F0E8D60160
:101440008D916D018193B0E8E832FB07C1F7D701B8
:101450008D917D018193B0E8E033FB07C1F7C801AE
:1014600073E0969587957A95E1F740E050E020E0AB
:1014700030E005C0220F331F21604F5F5F4F4817D8
:101480005907C0F3309330802093318081E001C050
:1014900080E0DF91CF911F910F91FF90EF90DF904F
:1014A000CF900895EF92FF920F931F93CF93DF9306
:1014B00079018A0190E0885F9D4F26E0880F991F8F
:1014C0002A95E1F7EC01AE96DC019F96FB0120E046
:1014D00030E040E050E009C08081888381818C93B6
:1014E0002E5F3F4F4F4F5F4F32962E153F054007FF
:1014F000510790F3B701C801DF91CF911F910F9170
:10150000FF90EF900895EF92FF920F931F93CF9368
:10151000DF9379018A0190E0885F9D4F36E0880F64
:10152000991F3A95E1F7EC01E096DC01D196FB01B9
:1015300020E030E040E050E009C0888180838C9159
:1015400081832E5F3F4F4F4F5F4F32962E153F05E1
:101550004007510790F3B701C801DF91CF911F9168
:101560000F91FF90EF900895E82FF0E0EE0FFF1F2E
:10157000EE0FFF1FE05FF94F6081718182819381DF
:101580000895E82FF0E0EE0FFF1FEE0FFF1FE05170
:10159000FA4F6081718182819381089580E8809300
:1015A000018085E090E00E946B0E08957F928F92FB
:1015B0009F92AF92BF92CF92DF92EF92FF920F93E2
:1015C0001F93DF93CF93CDB7DEB7CA5BD5400FB67D
:1015D000F894DEBF0FBECDBF782E8B010E948F071F
:1015E000882309F477C0823209F07EC0872D0E94DB
:1015F000E7089B01AC01611571058105910509F4AE
:1016000073C097E0E92EF12CEC0EFD1E83E0C82E8E
:10161000D12CCC0EDD1E872DB701A90196018E01BC
:101620000F5F1F4F0E94AB03AC014C01AA24BB24E7
:1016300009811A81872DB70196010E94C302A0E09B
:10164000B0E088169906AA06BB0609F44DC08DB70E
:101650009EB708970FB6F8949EBF0FBE8DBFEDB72B
:10166000FEB731968FEC91E0ADB7BEB712969C9362
:101670008E9311977282138284829582A682B7829A
:101680000E94BC1E00D000D0EDB7FEB7319689EEA7
:1016900091E0ADB7BEB712969C938E9311978B8154
:1016A000828313828C81848315828D818683178245
:1016B0008E818087118689819A81938782870E9493
:1016C000BC1E8DB79EB70C960FB6F8949EBF0FBE8A
:1016D0008DBF0AC0872D0E940702872D62E0A801F6
:1016E00020E030E00E941302C654DA4F0FB6F8949F
:1016F000DEBF0FBECDBFCF91DF911F910F91FF9045
:10170000EF90DF90CF90BF90AF909F908F907F90A1
:101710000895FF920F931F93DF93CF93CDB7DEB75A
:10172000C45BD5400FB6F894DEBF0FBECDBFF82E18
:101730008B010E948F078331C9F1843118F488230B
:1017400051F153C0873121F08C3109F04EC01FC0D8
:101750008F2D0E94E7086115710509F446C09B01B1
:1017600085E0253B380710F024EB35E040E050E001
:101770008F2D8E010F5F1F4FB8010E945B039B01ED
:1017800040E050E08F2DB8010E945F052EC08F2DE4
:101790000E949C012AC08F2D0E9407028F2D61E0BC
:1017A000A80120E030E00E9413021FC08F2D0E948C
:1017B000F70400D000D000D0EDB7FEB731968BEF24
:1017C00091E0ADB7BEB712969C938E931197F282BB
:1017D0001382158304830E94BC1E8DB79EB70696A4
:1017E0000FB6F8949EBF0FBE8DBFCC54DA4F0FB624
:1017F000F894DEBF0FBECDBFCF91DF911F910F9147
:10180000FF9008958AE192E00E94D11E08950F93FF
:101810001F93CF93DF938AE192E00E94D11E8EE462
:1018200092E00E94D11E8AE192E00E94D11E00D077
:101830008FE692E0ADB7BEB712969C938E93119748
:101840000E94BC1EC8E0D0E80F900F9003E812E0A1
:10185000CE010E94D30500D000D0EDB7FEB731967F
:10186000ADB7BEB712961C930E9311978283138265
:101870000E94BC1E21960F900F900F900F90B0E821
:10188000CE30DB0729F700D08BE892E0EDB7FEB74A
:10189000928381830E94BC1E0F900F9084E190E898
:1018A0000E94D30500D000D0EDB7FEB7319601EA13
:1018B00012E0ADB7BEB712961C930E9311978283B8
:1018C00013820E94BC1E0F900F900F900F9085E125
:1018D00090E80E94D30500D000D0EDB7FEB7319656
:1018E000ADB7BEB712961C930E93119782831382E5
:1018F0000E94BC1E0F900F900F900F9086E190E811
:101900000E94D30500D000D0EDB7FEB73196ADB739
:10191000BEB712961C930E931197828313820E9476
:10192000BC1E0F900F900F900F9087E190E80E94DF
:10193000D30500D000D0EDB7FEB73196ADB7BEB736
:1019400012961C930E931197828313820E94BC1EE1
:101950000F900F9085EA92E0EDB7FEB792838183F6
:101960000E94BC1E0F900F9080E190E80E94D3056A
:1019700000D000D0EDB7FEB73196ADB7BEB7129626
:101980001C930E931197828313820E94BC1E0F90AA
:101990000F900F900F9081E190E80E94D30500D046
:1019A00000D0EDB7FEB73196ADB7BEB712961C9317
:1019B0000E931197828313820E94BC1E0F900F908A
:1019C0000F900F9082E190E80E94D30500D000D0E4
:1019D000EDB7FEB73196ADB7BEB712961C930E9316
:1019E0001197828313820E94BC1E0F900F900F905C
:1019F0000F9083E190E80E94D30500D000D0EDB7AE
:101A0000FEB73196ADB7BEB712961C930E931197E1
:101A1000828313820E94BC1E0F900F908BEB92E08A
:101A2000EDB7FEB7928381830E94BC1E0F900F908A
:101A300088E190E80E94D30500D000D0EDB7FEB752
:101A40003196ADB7BEB712961C930E931197828351
:101A500013820E94BC1E0F900F900F900F9089E18F
:101A600090E80E94D30500D000D0EDB7FEB73196C4
:101A7000ADB7BEB712961C930E9311978283138253
:101A80000E94BC1E0F900F900F900F908AE190E87B
:101A90000E94D30500D000D0EDB7FEB73196ADB7A8
:101AA000BEB712961C930E931197828313820E94E5
:101AB000BC1E0F900F900F900F908BE190E80E944A
:101AC000D30500D000D0EDB7FEB73196ADB7BEB7A5
:101AD00012961C930E931197828313820E94BC1E50
:101AE0000F900F900F900F908AE192E00E94D11E0C
:101AF000DF91CF911F910F910895DF93CF93CDB7D1
:101B0000DEB76A970FB6F894DEBF0FBECDBFDE0119
:101B10001D96E2E1F3E086E001900D928150E1F73D
:101B20008FEF89838A838B831C8220EC2D8398EA34
:101B30009E831F8281E0888729879A871B8683E09E
:101B40008C87DE015396EAE0F3E088E001900D9285
:101B50008150E1F70E94CE0ACE010D960E941B062D
:101B6000CE0105960E943306CE0101960E944F06D3
:101B7000CE0109960E946B06BE016D5E7F4FCB01C0
:101B80000E94C509882309F4FFCF6A960FB6F8941E
:101B9000DEBF0FBECDBFCF91DF9108950E947201CD
:101BA00000D081ED92E0EDB7FEB7928381830E9471
:101BB000BC1E0F900F900E947D0D0E94070C80E0CC
:101BC00068E873E10E94890B81E068EB7BE00E948A
:101BD000D60AF5CFAF92BF92CF92DF92EF92FF92EB
:101BE0000F931F93A0E0B0E0BC01CD010E94EB1B5E
:101BF0005B016C012BEA3AEA4AEA5EE30E94611952
:101C00007B018C0120E030E040E85FE30E94671B2D
:101C1000882314F461E054C0C801B70120E030E02B
:101C20004FE753E40E94071B18160CF045C0C6018D
:101C3000B50120E030E04AE754E40E945B1A5B0102
:101C40006C0120E030E04AE753E40E9461197B0117
:101C50008C0120E030E040E85FE30E94671B8823AE
:101C60001CF461E070E024C0C801B70120E03FEF40
:101C70004FE757E40E94071B1816B4F4C601B501DC
:101C800020E030E040E251E40E9461190E948B178D
:101C900089E190E005C0FC013197F1F76150704097
:101CA00061157105C1F70EC0C801B7010E948B17FD
:101CB000CB010197F1F706C0C801B7010E948B174D
:101CC0006A95F1F71F910F91FF90EF90DF90CF9001
:101CD000BF90AF900895CF93DF93EC0105C088EEDD
:101CE00093E00E94EA0D21972097C9F7DF91CF91E9
:101CF0000895CF93DF93EC0105C08AE090E00E9445
:101D00006B0E21972097C9F7DF91CF9108951F920D
:101D10000F920FB60F920BB60F9211242F933F9391
:101D20004F938F939F93EF93FF93E091AA05F091C8
:101D3000AB058CB1E657FA4F80834091AE05442342
:101D4000E1F0E091AA05F091AB05E657FA4F8081EA
:101D5000833121F48091AF0582600CC0E091AA0527
:101D6000F091AB05E657FA4F8081813131F48091D3
:101D7000AF058D7F8093AF0509C08091AA05909132
:101D8000AB0501969093AB058093AA052091AA0517
:101D90003091AB058091AC059091AD0528173907BE
:101DA000A1F4442349F05D9BFECF83E18CB980917F
:101DB000AF0581608093AF058091AA059091AB0536
:101DC00001979093AB058093AA058091AA05909105
:101DD000AB058097ACF01092AB051092AA0520914C
:101DE000AA053091AB058091AC059091AD052817FF
:101DF000390731F480E290E09093AB058093AA0517
:101E0000FF91EF919F918F914F913F912F910F9063
:101E10000BBE0F900FBE0F901F901895882391F462
:101E200080919500886080939500662331F48091BD
:101E300095008D7F80939500089580919500826034
:101E4000809395000895882369F4662331F4809186
:101E50009500877F80939500089580919500886014
:101E6000809395000895882399F4662321F4809146
:101E700095008F7C05C0613031F4809195008F7E94
:101E800080939500089580919500806380939500DC
:101E90000895882311F46093AE050895882319F0FE
:101EA00020E030E020C02091AA053091AB05809160
:101EB000AC059091AD05281739074CF02091AA0583
:101EC0003091AB058091AC059091AD050AC0209191
:101ED000AA053091AB058091AC059091AD05205ECF
:101EE0003F4F281B390BC9010895982F8091AF05EA
:101EF000282F30E0227030708091AE05882319F0D1
:101F000021153105E9F75D9BFECF9CB9089520911D
:101F1000AA053091AB058091AC059091AD052817CD
:101F20003907A9F38091AC059091AD05FC01E65706
:101F3000FA4FE08101969093AD058093AC058091B6
:101F4000AE05882359F09091AF0590FF07C05D9BC7
:101F5000FECF81E18CB99E7F9093AF058091AC0557
:101F60009091AD05809724F01092AD051092AC05CC
:101F70008E2F0895CF93DF93882361F4EB0107C080
:101F8000E091B205F091B30560E070E009958991A8
:101F90008823B1F7DF91CF9108957F928F929F921E
:101FA000AF92BF92CF92DF92EF92FF920F931F9367
:101FB000CF93DF935B01742E4901882319F0CC2461
:101FC000DD2498C07B0101E0CC24DD2481C0002306
:101FD00091F0113281F40AC00894E11CF11CE091E7
:101FE000B205F091B30560E070E00995F7018081DA
:101FF000882391F769C0183019F5AE14BF0409F4AD
:1020000047C0E091B205F091B30588E060E070E070
:102010000995E091B205F091B30580E260E070E0CF
:102020000995E091B205F091B30588E060E070E0B9
:1020300009950894E108F1080894C108D10848C03E
:102040001B3131F5E70119C0E091B205F091B305FC
:1020500088E060E070E00995E091B205F091B30589
:1020600080E260E070E00995E091B205F091B3057F
:1020700088E060E070E009952197AC16BD0621F775
:10208000C5018E199F09C80ED91E750101E020C037
:10209000812F80528F3510F01930D1F4C814D90433
:1020A000BCF4772031F0E091B205F091B3058AE2FB
:1020B00005C0E091B205F091B305812F60E070E0BA
:1020C0000995F70111937F010894C11CD11C00E010
:1020D000E091B005F091B10580E090E00995182FEE
:1020E0008D3009F074CFF701108280E068E173E071
:1020F0000E94BA0FC601DF91CF911F910F91FF90FF
:10210000EF90DF90CF90BF90AF909F908F907F9097
:102110000895882341F48091AC059091AD0590938A
:10212000AB058093AA050895662319F42FEC30E0DF
:1021300033C0613019F427E630E02EC0623019F464
:1021400023E330E029C0633019F422E230E024C0F8
:10215000643019F429E130E01FC0653019F420E142
:1021600030E01AC0663019F42CE030E015C067305A
:1021700019F428E030E010C0683019F426E030E0AF
:102180000BC0693019F423E030E006C020E030E0F5
:102190006A3011F421E030E0882321F583B18360B7
:1021A00083B91098119A88E98AB91092900029B9D8
:1021B00067E87FE07093B1056093B00585E79FE025
:1021C0009093B3058093B2050E94701E1092AB05E8
:1021D0001092AA051092AD051092AC051092AE05B2
:1021E0001092AF050895282F30E02A30310510F401
:1021F000805D08952A5030402630310508F4895C0E
:102200000895982F80538A3068F08153863010F4F7
:10221000865F0895892F8154863010F0892F0895A4
:10222000892F87530895FC0140E050E01CC0822FA5
:1022300080538A3010F4282F0BC0822F81568630AD
:1022400010F4275505C0822F8154863008F4275397
:102250003196CA01869FA001879F500D969F500D11
:102260001124420F511D2081222309F7CA0108952C
:10227000CF93DF93DC01EA01009731F18C91882341
:1022800019F1FD0116C0822F80538A3068F0815306
:10229000863010F4865F08C0822F8154863010F09B
:1022A000822F02C0822F875390E08617970764F42D
:1022B00031962081222339F7CD010E941311998391
:1022C000888321E030E002C020E030E0C901DF91E6
:1022D000CF9108951F93162FDC0140E050E00AC013
:1022E000681729F0319680818823D1F70BC04F5FA2
:1022F0005F4F11966C91662329F0812F972F9C01D7
:10230000F901F1CFCA011F910895DC0109C04817F6
:1023100011F49D010CC0319680818823C1F711967C
:102320004C91442311F0FB01F7CF20E030E0C901CC
:1023300008951F93CF93DF93162F009711F0DC01C0
:1023400007C0A091D405B091D505109709F441C0FC
:10235000ED0140E050E00AC0681729F03196808115
:102360008823D1F70BC04F5F5F4F219668816623AA
:1023700029F0812F972F9C01F901F1CFA40FB51FF0
:102380008C91882311F0ED0112C01092D5051092A6
:10239000D405A0E0B0E01DC0481721F4FE0120974D
:1023A00089F413C0319680818823B1F72196488142
:1023B000442319F4E0E0F0E008C0812F972F9C013E
:1023C000F901F1CF888181111192F093D505E09345
:1023D000D405CD01DF91CF911F910895FC0104C078
:1023E000861709F44083319680818823C9F70895C0
:1023F000582F40E0292F30E0242B352BC9010895B8
:10240000EF92FF920F931F93562F442733272227D3
:10241000E92EFF2400271127E22AF32A042B152B8B
:10242000272F30E040E050E0A90133272227E22A9D
:10243000F32A042B152B672F782F892F992760708B
:1024400080709070E62AF72A082B192BB701C80173
:102450001F910F91FF90EF900895EF92FF920F93CD
:102460001F93562F442733272227E92EFF240027C6
:102470001127E22AF32A042B152B272F30E040E006
:1024800050E0A90133272227E22AF32A042B152B37
:10249000672F782F892F9927607080709070E62AB7
:1024A000F72A082B192BB701C8011F910F91FF9034
:1024B000EF900895582F40E0292F30E0242B352B42
:1024C000C9010895782F60E0292F30E0262B372BA3
:1024D000B90180E090E00895EF92FF920F931F936F
:1024E000562F442733272227E92EFF2400271127C0
:1024F000E22AF32A042B152B272F30E040E050E08E
:10250000A90133272227E22AF32A042B152B672F50
:10251000782F892F9927607080709070E62AF72AAB
:10252000082B192BB701C8011F910F91FF90EF9055
:102530000895CF92DF92EF92FF920F931F93CF9364
:10254000DF936C01EB01D695C795F60140E050E0B2
:10255000EE24FF24870110C0308120E08181D90161
:10256000A80FB11DCD01A0E0B0E0E80EF91E0A1FD2
:102570001B1F4F5F5F4F32964C175D0768F360FF7C
:102580000CC0CC0FDD1FCC0DDD1D988180E0A0E0DC
:10259000B0E0E80EF91E0A1F1B1F980144275527BB
:1025A0002E0D3F1D20953095C901DF91CF911F91D0
:1025B0000F91FF90EF90DF90CF900895EF92FF92F0
:1025C0000F931F93CF93DF937B0190E0885F9D4F24
:1025D00026E0880F991F2A95E1F7EC012C968C01D3
:1025E0000E5E1F4FCE010E94D305F70181937F013C
:1025F0002196C017D107B1F7DF91CF911F910F91AD
:10260000FF90EF9008950F931F93CF93DF938C016A
:10261000C8E0D0E8CE010E94D305F80181938F0174
:102620002196F0E8CE30DF07A9F7DF91CF911F9117
:102630000F910895EF92FF920F931F93CF93DF9323
:1026400020E030E040E050E0C4E1D0E8EE24F22E9B
:10265000032F142FCE010E94D305A8019701280F44
:10266000311D411D511D219680E8C831D80771F7F1
:10267000B901CA01DF91CF911F910F91FF90EF90A7
:102680000895EF92FF920F931F93CF93DF9320E073
:1026900030E040E050E0C0E1D0E8EE24F22E032F1D
:1026A000142FCE010E94D305A8019701280F311DD8
:1026B000411D511D219680E8C431D80771F7B90139
:1026C000CA01DF91CF911F910F91FF90EF90089574
:1026D000EF92FF920F931F93CF93DF9320E030E0B0
:1026E00040E050E0C8E1D0E8EE24F22E032F142F92
:1026F000CE010E94D305A8019701280F311D411D6D
:10270000511D219680E8CC31D80771F7B901CA0173
:10271000DF91CF911F910F91FF90EF900895AF92AD
:10272000BF92CF92DF92EF92FF920F931F93DF93AE
:10273000CF9300D000D0CDB7DEB769837A838B8387
:102740009C836E010894C11CD11CA4E1EA2EA0E870
:10275000FA2EF5E0AF2EB12CAC0EBD1EC7010E94C3
:10276000D305082FC70104960E94D305182FC7016F
:102770000E94D305F601908190231823911711F040
:1027800081E00AC00894C11CD11C0894E11CF11C12
:10279000CA14DB0419F780E00F900F900F900F9090
:1027A000CF91DF911F910F91FF90EF90DF90CF902D
:1027B000BF90AF900895EF92FF920F931F93E82E72
:1027C000FF2488E092E0E80EF91EB6E0EE0CFF1C54
:1027D000BA95E1F7C70142960E94D305182F00E091
:1027E000C70143960E94D305080F111DC8011F9110
:1027F0000F91FF90EF900895CF92DF92EF92FF92AA
:102800000F931F93CF93DF9390E0885F9D4F26E057
:10281000880F991F2A95E1F7EC01649620E030E0DB
:1028200040E050E008E1C02ED12CC80ED91EEE24A5
:10283000F22E032F142FCE010E94D305A801970179
:10284000280F311D411D511D2196CC15DD0579F74D
:10285000B901CA01DF91CF911F910F91FF90EF90C5
:10286000DF90CF9008950F931F93082F643010F0DE
:1028700010E001C0162F812F0E948F07801721F0D2
:102880001F5F1830C0F318E0812F1F910F9108953A
:10289000EF92FF920F931F93DF93CF93CDB7DEB7E5
:1028A000E4970FB6F894DEBF0FBECDBFBC018E011A
:1028B0000D5F1F4FC8010E94691EEE24FF24C8014E
:1028C0008E010F5F1F4F6BE173E00E949911FC01B5
:1028D000009721F18081803341F48181883729F488
:1028E000CF01029660E170E003C0CF016AE070E0C2
:1028F000A8010E943811892B89F089819A818F3F24
:10290000910509F058F40894E11CF11C80E090E076
:1029100024E0E216F104B9F681E001C080E0E4961B
:102920000FB6F894DEBF0FBECDBFCF91DF911F91E0
:102930000F91FF90EF900895EF92FF920F931F93E6
:10294000DF93CF93CDB7DEB76E970FB6F894DEBFA7
:102950000FBECDBF9C017B018E010F5F1F4FC801D1
:10296000B9010E94691EC80100E010E06BE173E04C
:102970000E949911FC018081803341F48181883764
:1029800029F4CF01029660E170E003C0CF016AE054
:1029900070E00E941311F701E00FF11F80830F5FB9
:1029A0001F4F80E090E00430110501F76E960FB6DE
:1029B000F894DEBF0FBECDBFCF91DF911F910F9175
:1029C000FF90EF9008950F931F9304EB15E020E123
:1029D000D8011D922A95E9F7EDB7FEB73C970FB6DF
:1029E000F894FEBF0FBEEDBF3196ADB7BEB71296DD
:1029F0001C930E9311972DE133E033832283292F0B
:102A0000332744275527358324839C0144275527A2
:102A1000307037832683272F382F492F5527307062
:102A2000318720877070738762870E94061FEDB719
:102A3000FEB73C960FB6F894FEBF0FBEEDBFC801BF
:102A40001F910F9108950F931F9304EC15E020E15F
:102A5000D8011D922A95E9F7EDB7FEB73C970FB65E
:102A6000F894FEBF0FBEEDBF3196ADB7BEB712965C
:102A70001C930E93119721E333E033832283292F94
:102A8000332744275527358324839C014427552722
:102A9000307037832683272F382F492F55273070E2
:102AA000318720877070738762870E94061FEDB799
:102AB000FEB73C960FB6F894FEBF0FBEEDBFC8013F
:102AC0001F910F9108950F931F93DF93CF9300D021
:102AD00000D000D0CDB7DEB78DE393E00E94D11EC9
:102AE00081E793E00E94D11E00E913E0C8010E9433
:102AF000D11ECE0101960E9403138DB79EB70E978B
:102B00000FB6F8949EBF0FBE8DBFEDB7FEB73196DE
:102B100082EC93E0ADB7BEB712969C938E9311975B
:102B20008981828313828A81848315828B81868343
:102B300017828C81808711868D81828713868E8192
:102B4000848715860E94BC1EEDB7FEB73E960FB671
:102B5000F894FEBF0FBEEDBF0E941A130E9423150A
:102B600000D000D021E034E0ADB7BEB712963C9360
:102B70002E93119714969C938E9313970E94BC1ECC
:102B80000F900F900F900F900E9441130E942315F9
:102B900000D000D029E134E0EDB7FEB732832183C5
:102BA000948383830E94BC1E0F900F900F900F9010
:102BB0000E9468130E94231500D000D021E334E066
:102BC000ADB7BEB712963C932E93119714969C9373
:102BD0008E9313970E94BC1E0F900F900F900F9032
:102BE000C8010E94D11E26960FB6F894DEBF0FBE14
:102BF000CDBFCF91DF911F910F910895DF93CF93B8
:102C000000D000D000D0CDB7DEB788E790E01BC081
:102C10001A82198211C01C821B8205C08B819C8183
:102C200001969C838B838B819C81892BB9F389814D
:102C30009A8101969A83898389819A81039758F3AF
:102C40008D819E8101979E838D838D819E81892BAD
:102C5000F9F681E026960FB6F894DEBF0FBECDBF21
:102C6000CF91DF910895DF93CF9300D000D0CDB7FF
:102C7000DEB79C011AC01A82198211C01C821B8205
:102C800005C08B819C8101969C838B838B819C8169
:102C9000892BB9F389819A8101969A8389838981E5
:102CA0009A81039758F3215030402115310519F7C7
:102CB0000F900F900F900F90CF91DF910895DF93B9
:102CC000CF9300D000D0CDB7DEB7482F28E730E053
:102CD0001A82198211C01C821B8205C08B819C81C3
:102CE00001969C838B838B819C81892BB9F389818D
:102CF0009A8101969A83898389819A81039758F3EF
:102D00002150304029F71A981B9882B3942F907F56
:102D10008F70982B92BB1F9A1F9882B34295407F69
:102D20008F70842B82BB1F9A1F980F900F900F906B
:102D30000F90CF91DF9108950E94FE1581E090E001
:102D40000E945F160895DF93CF9300D000D0CDB7D7
:102D5000DEB7482F28E730E01A82198211C01C82A2
:102D60001B8205C08B819C8101969C838B838B8108
:102D70009C81892BB9F389819A8101969A838983F1
:102D800089819A81039758F32150304029F71A9A84
:102D90001B9882B3942F907F8F70982B92BB1F9AB1
:102DA0001F9882B34295407F8F70842B82BB1F9AFD
:102DB0001F980F900F900F900F90CF91DF91089573
:102DC0000F931F93082F162F0E94FE15113051F0FC
:102DD000113028F0123049F0133071F409C0802FFF
:102DE000805808C0802F805405C0802F8C5602C0A8
:102DF000802F8C520E945F161F910F910895DF93D0
:102E0000CF9300D000D0CDB7DEB7139A129A179A9D
:102E100081B3806F81BB1F981A981B982CE632E013
:102E20001C821B8211C01A82198205C089819A8175
:102E300001969A83898389819A81892BB9F38B8141
:102E40009C8101969C838B838B819C81039758F393
:102E50002150304029F788E20E945F168CE10E94E1
:102E60005F168CE00E945F1681E00E945F1682E090
:102E70000E945F1628E130E11A82198211C01C827B
:102E80001B8205C08B819C8101969C838B838B81E7
:102E90009C81892BB9F389819A8101969A838983D0
:102EA00089819A81039758F32150304029F70E9475
:102EB0009C1680E060E00E94E01681E00F900F9089
:102EC0000F900F90CF91DF910895FF920F931F9372
:102ED000CF93DF93EC01FF2407C00E94FE15F80199
:102EE00080810E94A316F3948E010F0D111DF8012D
:102EF0008081882391F7CE01DF91CF911F910F91AF
:102F0000FF9008951F93182F0E94FE15812F0E9495
:102F1000A3161F910895EF92FF920F931F937B01C9
:102F20008C0120E030E040E05FE40E94371B882302
:102F30008CF0C801B70120E030E040E05FE40E947F
:102F400003190E94971B9B01AC0120503040404068
:102F5000504806C0C801B7010E94971B9B01AC01F5
:102F6000B901CA011F910F91FF90EF900895A0E061
:102F7000B0E0EDEBF7E10C94C522DC012B01FA0186
:102F80009C91923008F439C1EB018881823008F4B9
:102F900033C1943069F4843009F02FC111969C91AB
:102FA00011978981981709F428C1A9E4B4E025C1D3
:102FB000843009F421C18230A9F4923009F01DC196
:102FC0009A01AD0188E0EA010990AE01E901099298
:102FD0009E018150C1F7E201898111969C9189235C
:102FE000818308C1923009F407C112962D903C905C
:102FF0001397EB018A819B811496AD90BD90CD9083
:10300000DC901797EC80FD800E811F819101281BB9
:10301000390BB90137FF04C066277727621B730B92
:10302000603271050CF061C0121613066CF53701A1
:103030004801062E04C096948794779467940A9466
:10304000D2F721E030E040E050E004C0220F331F0F
:10305000441F551F6A95D2F72150304040405040E0
:103060002E213F21402351232115310541055105D2
:1030700021F021E030E040E050E079018A01E628CB
:10308000F728082919293CC0232BD1F1260E371E19
:1030900035014601062E04C0969487947794679470
:1030A0000A94D2F721E030E040E050E004C0220F63
:1030B000331F441F551F6A95D2F7215030404040BE
:1030C00050402A213B214C215D212115310541052C
:1030D000510521F021E030E040E050E059016A0163
:1030E000A628B728C828D9280BC0821593052CF02C
:1030F0001C01AA24BB24650103C0EE24FF24870120
:1031000011969C91D20111968C91981709F445C0A3
:10311000992339F0A80197012A193B094C095D0947
:1031200006C0A60195012E193F09400B510B57FD12
:1031300008C01182338222822483358346835783D9
:103140001DC081E081833382228288279927DC0198
:10315000821B930BA40BB50B84839583A683B78343
:103160000DC0220F331F441F551F24833583468310
:103170005783828193810197938382832481358150
:1031800046815781DA01C9010197A109B1098F5F11
:103190009F4FAF4FBF4328F30BC0918333822282EE
:1031A000EA0CFB1C0C1D1D1DE482F58206831783AF
:1031B00083E08083248135814681578157FF1AC07F
:1031C000C901AA2797FDA095BA2F81709070A070B1
:1031D000B0705695479537952795822B932BA42B46
:1031E000B52B84839583A683B783828193810196CF
:1031F00093838283DF0101C0D201CD01CDB7DEB759
:10320000E2E10C94E122A0E2B0E0E9E0F9E10C9403
:10321000D12269837A838B839C832D833E834F8362
:103220005887E9E0EE2EF12CEC0EFD1ECE01019642
:10323000B7010E94881D8E010F5E1F4FCE010596BB
:10324000B8010E94881D8A8991E089278A8BC7016D
:10325000B801AE01475E5F4F0E94B7170E94B31CD2
:10326000A096E6E00C94ED22A0E2B0E0EAE3F9E1FA
:103270000C94D12269837A838B839C832D833E8334
:103280004F835887F9E0EF2EF12CEC0EFD1ECE0196
:103290000196B7010E94881D8E010F5E1F4FCE015F
:1032A0000596B8010E94881DC701B801AE01475EAE
:1032B0005F4F0E94B7170E94B31CA096E6E00C94E3
:1032C000ED22A0E2B0E0E7E6F9E10C94C5226983C3
:1032D0007A838B839C832D833E834F835887CE01D3
:1032E0000196BE01675F7F4F0E94881DCE01059643
:1032F000BE016F5E7F4F0E94881D9985923088F0D5
:1033000089898230C8F0943019F4823051F404C0B5
:10331000843029F4923081F489E494E0C6C092307C
:1033200049F420E09A858A89981321E02A87CE0102
:103330000996BBC0823049F420E09A858A899813A7
:1033400021E02A8BCE014196B0C02D843E844F846B
:1033500058886D887E888F88988CEE24FF2487019A
:10336000AA24BB24650140E050E060E070E0E0E0AA
:10337000F0E0C10181709070892BE9F0E60CF71C38
:10338000081D191D9A01AB012A0D3B1D4C1D5D1D29
:1033900080E090E0A0E0B0E0E614F704080519052D
:1033A00020F481E090E0A0E0B0E0BA01A901480F6C
:1033B000591F6A1F7B1FAA0CBB1CCC1CDD1C97FE6F
:1033C00008C081E090E0A0E0B0E0A82AB92ACA2AAB
:1033D000DB2A3196E032F10549F0660C771C881C37
:1033E000991C5694479437942794C3CFFA85EA8959
:1033F0002B893C898B859C85280F391F2E5F3F4F79
:1034000017C0CA0181709070892B61F016950795DD
:10341000F794E79480E090E0A0E0B0E8E82AF92A89
:103420000A2B1B2B76956795579547952F5F3F4F36
:1034300077FDE7CF0CC0440F551F661F771F17FDA0
:103440004160EE0CFF1C001F111F21503040403026
:1034500090E0590790E0690790E4790760F32B8FBB
:103460003C8FDB01CA018F779070A070B070803400
:103470009105A105B10561F447FD0AC0E114F1040D
:103480000105110529F0405C5F4F6F4F7F4F407879
:103490001A8EFE1711F081E08A8F4D8F5E8F6F8F2D
:1034A00078A383E0898FCE0149960E94B31CA09631
:1034B000E2E10C94E122A8E1B0E0E1E6FAE10C944B
:1034C000CD2269837A838B839C832D833E834F83B4
:1034D0005887B9E0EB2EF12CEC0EFD1ECE010196C3
:1034E000B7010E94881D8E010F5E1F4FCE01059609
:1034F000B8010E94881D2985223008F47EC03989D0
:10350000323010F4B8017CC08A859A8989278A876D
:10351000243011F0223031F4231709F06EC069E431
:1035200074E06EC0343039F41D861E861F86188AFA
:103530001C861B8604C0323021F484E08987B701E1
:103540005FC02B853C858B899C89281B390B3C8768
:103550002B87ED84FE840F851889AD88BE88CF88BF
:10356000D88CEA14FB040C051D0540F4EE0CFF1C7E
:10357000001F111F215030403C872B8720E030E096
:1035800040E050E080E090E0A0E0B0E460E070E077
:10359000EA14FB040C051D0540F0282B392B4A2B9F
:1035A0005B2BEA18FB080C091D09B695A7959795A2
:1035B0008795EE0CFF1C001F111F6F5F7F4F6F314F
:1035C000710531F7DA01C9018F779070A070B07082
:1035D00080349105A105B10561F427FD0AC0E1140D
:1035E000F1040105110529F0205C3F4F4F4F5F4F5B
:1035F00020782D873E874F87588BBE01675F7F4FAE
:10360000CB010E94B31C6896EAE00C94E922A8E181
:10361000B0E0EDE0FBE10C94D12269837A838B83E7
:103620009C832D833E834F83588789E0E82EF12CBD
:10363000EC0EFD1ECE010196B7010E94881D8E0181
:103640000F5E1F4FCE010596B8010E94881D898527
:10365000823040F08989823028F0C701B8010E9489
:10366000001E01C08FEF6896E6E00C94ED22A8E101
:10367000B0E0EDE3FBE10C94D12269837A838B8384
:103680009C832D833E834F83588789E0E82EF12C5D
:10369000EC0EFD1ECE010196B7010E94881D8E0121
:1036A0000F5E1F4FCE010596B8010E94881D8985C7
:1036B000823040F08989823028F0C701B8010E9429
:1036C000001E01C08FEF6896E6E00C94ED22A8E1A1
:1036D000B0E0EDE6FBE10C94D12269837A838B8321
:1036E0009C832D833E834F83588789E0E82EF12CFD
:1036F000EC0EFD1ECE010196B7010E94881D8E01C1
:103700000F5E1F4FCE010596B8010E94881D898566
:10371000823040F08989823028F0C701B8010E94C8
:10372000001E01C081E06896E6E00C94ED22ACE05A
:10373000B0E0EDE9FBE10C94D52269837A838B83B9
:103740009C83CE010196BE016B5F7F4F0E94881D56
:103750008D81823061F1823050F1843021F48E818C
:10376000882351F12EC02F81388537FD20C06E810E
:103770002F3131051CF06623F9F023C08EE190E073
:10378000821B930B29853A854B855C8504C0569531
:103790004795379527958A95D2F76623B1F05095CE
:1037A0004095309521953F4F4F4F5F4F0EC020E021
:1037B00030E040E050E009C02FEF3FEF4FEF5FE710
:1037C00004C020E030E040E050E8B901CA012C9686
:1037D000E2E00C94F122A8E0B0E0E1EFFBE10C9410
:1037E000CD227B018C01611571058105910519F4CC
:1037F00082E0898360C083E089838EE1C82ED12C6A
:10380000DC82CB82ED82FE820F831887C801B7016C
:103810000E94641CFC013197F7FF3BC0222733272D
:103820002E1B3F0B57016801022E04C0D694C7948B
:10383000B794A7940A94D2F740E050E060E070E0BB
:1038400081E090E0A0E0B0E004C0880F991FAA1FBB
:10385000BB1F2A95D2F70197A109B1098E219F219B
:10386000A023B1230097A105B10521F041E050E06C
:1038700060E070E04A295B296C297D294D835E83D5
:103880006F8378878EE190E08E1B9F0B9C838B83E8
:1038900012C0309781F00E2E04C0EE0CFF1C001FEA
:1038A000111F0A94D2F7ED82FE820F831887CE1A79
:1038B000DF0ADC82CB821A82CE0101960E94B31C01
:1038C0002896EAE00C94E922EF92FF920F931F935F
:1038D0007B018C0180E0E81680E0F80681E00807B3
:1038E00080E0180788F48FEFE816F1040105110550
:1038F00031F028F088E090E0A0E0B0E017C080E070
:1039000090E0A0E0B0E012C080E0E81680E0F806A9
:1039100080E0080781E0180728F088E190E0A0E047
:10392000B0E004C080E190E0A0E0B0E020E230E050
:1039300040E050E0281B390B4A0B5B0B04C0169586
:103940000795F794E7948A95D2F7F701EF5AFB4F62
:103950008081281B310941095109C9011F910F912B
:10396000FF90EF900895DF92EF92FF920F931F93D5
:10397000FC01E480F58006811781D180808182304E
:1039800048F480E090E0A0E1B0E0E82AF92A0A2BB0
:103990001B2BA5C0843009F49FC0823021F4EE2493
:1039A000FF24870105C0E114F1040105110519F494
:1039B000E0E0F0E096C0628173819FEF62387907A2
:1039C0000CF05BC022E83FEF261B370B2A31310594
:1039D0002CF020E030E040E050E02AC0B801A70120
:1039E000022E04C076956795579547950A94D2F7AD
:1039F00081E090E0A0E0B0E004C0880F991FAA1F0A
:103A0000BB1F2A95D2F70197A109B1098E219F21E9
:103A1000A023B1230097A105B10521F081E090E03A
:103A2000A0E0B0E09A01AB01282B392B4A2B5B2B8D
:103A3000DA01C9018F779070A070B0708034910561
:103A4000A105B10539F427FF09C0205C3F4F4F4F56
:103A50005F4F04C0215C3F4F4F4F5F4FE0E0F0E00D
:103A60002030A0E03A07A0E04A07A0E45A0710F08F
:103A7000E1E0F0E079018A0127C06038710564F562
:103A8000FB01E158FF4FD801C7018F779070A070FC
:103A9000B07080349105A105B10539F4E7FE0DC081
:103AA00080E490E0A0E0B0E004C08FE390E0A0E00C
:103AB000B0E0E80EF91E0A1F1B1F17FF05C0169580
:103AC0000795F794E794319687E016950795F79454
:103AD000E7948A95D1F705C0EE24FF248701EFEF24
:103AE000F0E06E2F679566276795902F9F77D794A4
:103AF000DD24D7948E2F8695492F462B582F5D298C
:103B0000B701CA011F910F91FF90EF90DF900895C8
:103B1000FC01DB01408151812281622F6F7770E0CF
:103B2000221F2227221F9381892F880F822B282F63
:103B300030E0991F9927991F11969C931197211591
:103B40003105A9F5411551056105710511F482E0B2
:103B500037C082E89FEF13969C938E9312979A0139
:103B6000AB0167E0220F331F441F551F6A95D1F741
:103B700083E08C930DC0220F331F441F551F1296F4
:103B80008D919C911397019713969C938E93129706
:103B9000203080E0380780E0480780E4580758F379
:103BA00014962D933D934D935C93179708952F3F53
:103BB000310579F4411551056105710519F484E069
:103BC0008C93089564FF03C081E08C9312C01C9213
:103BD00010C02F57304013963C932E93129783E0DA
:103BE0008C9387E0440F551F661F771F8A95D1F786
:103BF000706414964D935D936D937C93179708951D
:103C00001F93DC01FB019C91923008F447C0808136
:103C1000823008F443C0943051F411961C918430E2
:103C200099F58181682F70E0611B71093FC0843074
:103C300021F0923031F48230B9F18181882389F109
:103C40002DC011961C9111978230F1F081811817C7
:103C5000D9F412962D913C9113978281938182170A
:103C6000930794F028173907BCF014968D919D9115
:103C70000D90BC91A02D2481358146815781281754
:103C800039074A075B0718F4112341F00AC082176D
:103C90009307A407B50740F4112319F061E070E021
:103CA00005C06FEF7FEF02C060E070E0CB011F91B5
:103CB0000895FB01DC0102C001900D92415050407B
:103CC000D8F70895DC0101C06D9341505040E0F7F2
:103CD0000895FB01DC0101900D920020E1F70895A9
:103CE0000F931F93CF93DF938C01EB01009731F477
:103CF0006115710519F420E030E038C081E090E0F2
:103D00006EE070E00E940721FC019C01009771F1B8
:103D100080E88383209771F0D387C28781E883830B
:103D20008091300690913106892B21F4F093310671
:103D3000E093300601151105C9F0118700878381D2
:103D4000826083838091320690913306892B71F4CF
:103D5000F0933306E0933206809134069091350655
:103D6000892B21F4F0933506E0933406C901DF91E5
:103D7000CF911F910F910895A0E0B0E0E2ECFEE139
:103D80000C94D522FE013596619171918091320695
:103D900090913306AF010E942A1F2096E2E00C9416
:103DA000F1220F931F93CF93DF938C01E0913206A2
:103DB000F0913306838181FF21C0C0E0D0E00DC0C7
:103DC000E0913206F091330620853185BF01F9017B
:103DD0000995892B11F0CFEFDFEFF80181918F0169
:103DE000882371F7E0913206F09133062085318502
:103DF0008AE0BF01F9010995892B11F0CFEFDFEFC0
:103E0000CE01DF91CF911F910F910895AEE0B0E008
:103E1000ECE0FFE10C94D3220D891E8986E08C83AF
:103E20001A8309838FEF9FE79E838D839E01275E10
:103E30003F4FCE0101966F89788DA9010E942A1FFC
:103E40002F813885020F131FF80110822E96E4E0AF
:103E50000C94EF22ABE0B0E0E0E3FFE10C94C5226C
:103E60003C012B015A01FC0117821682838181FDDE
:103E700003C06FEF7FEFC6C19AE0892E1E01089440
:103E8000211C311CF3012381F20123FD859123FFC5
:103E900081912F01882309F4B2C1853239F423FDC1
:103EA000859123FF81912F01853229F490E0B301A0
:103EB0000E943B22E7CF982FFF24EE249924FFE1B4
:103EC000FF15D0F09B3269F09C3228F4903259F003
:103ED000933291F40EC09D3249F0903369F441E081
:103EE00024C052E0F52A84E0F82A28C098E0F92A94
:103EF00025C0E0E1FE2A22C0F7FC29C0892F8053AB
:103F00008A3070F4F6FE05C0989C902C1124980E0F
:103F100015C0E89CE02C1124E80EF0E2FF2A0EC048
:103F20009E3229F4F6FC6BC140E4F42A07C09C36AB
:103F300019F450E8F52A02C0983649F4F20123FD3D
:103F4000959123FF91912F01992309F0B8CF892FE3
:103F50008554833018F08052833038F444E050E0C8
:103F6000A40EB51E5FE359830FC0933631F093372B
:103F700079F0933509F056C020C0F501808189831E
:103F800042E050E0A40EB51E610101E010E012C055
:103F9000F501C080D180F6FC03C06FEF7FEF02C057
:103FA000692D70E042E050E0A40EB51EC6010E94EB
:103FB00030228C015FE7F52214C0F501C080D1806A
:103FC000F6FC03C06FEF7FEF02C0692D70E042E0A6
:103FD00050E0A40EB51EC6010E9425228C0150E8B7
:103FE000F52AF3FE07C01AC080E290E0B3010E94F8
:103FF0003B22EA948E2D90E008171907A8F30EC013
:10400000F601F7FC8591F7FE81916F0190E0B30115
:104010000E943B22E110EA94015010400115110565
:1040200079F7EAC0943611F0993669F5F7FE08C0C1
:10403000F501208131814281538184E090E00AC002
:10404000F501808191819C01442737FD4095542FD3
:1040500082E090E0A80EB91E9FE6F92257FF09C042
:1040600050954095309521953F4F4F4F5F4FE0E879
:10407000FE2ACA01B901A1012AE030E00E946722AC
:10408000D82ED21840C0953729F41F2D1F7E2AE064
:1040900030E01DC01F2D197F9F3661F0903720F44E
:1040A000983509F0ACC00FC0903739F0983709F057
:1040B000A6C004C028E030E00AC0106114FD1460FE
:1040C00020E130E004C014FD166020E132E017FF6B
:1040D00008C0F501608171818281938144E050E0E4
:1040E00008C0F50180819181BC0180E090E042E050
:1040F00050E0A40EB51EA1010E946722D82ED2184E
:104100008FE7F82EF122F6FE0BC05EEFF522D914F0
:1041100038F4F4FE07C0F2FC05C08FEEF82202C0AE
:104120001D2D01C0192DF4FE0DC0FE01ED0DF11D78
:104130008081803319F499EEF92208C01F5FF2FEE6
:1041400005C003C08F2D867809F01F5F0F2DF3FC8B
:1041500014C0F0FE0FC01E1510F09D2C0BC09D2C3E
:104160009E0C911A1E2D06C080E290E0B3010E94C1
:104170003B221F5F1E15C0F304C01E1510F4E11A88
:1041800001C0EE2404FF0FC080E390E0B3010E9461
:104190003B2202FF1DC001FD03C088E790E00EC076
:1041A00088E590E00BC0802F867891F001FF02C077
:1041B0008BE201C080E2F7FC8DE290E0B3010E9447
:1041C0003B2206C080E390E0B3010E943B229A9418
:1041D000D914C0F3DA94F101ED0DF11D808190E066
:1041E000B3010E943B22DD20A9F706C080E290E0E7
:1041F000B3010E943B22EA94EE20C1F743CEF301C3
:1042000066817781CB012B96E2E10C94E1220F933A
:104210001F93CF93DF93689F8001699F100D789F54
:10422000100D1124C8010E942321EC01009729F0F0
:1042300060E070E0A8010E94621ECE01DF91CF9184
:104240001F910F910895CF93DF93BC0182309105A8
:1042500010F462E070E0A0913806B0913906ED01EB
:10426000E0E0F0E040E050E021C0888199818617CD
:10427000970769F48A819B81309719F09383828331
:1042800004C09093390680933806FE0134C0681745
:10429000790738F44115510519F08417950708F48A
:1042A000AC01FE018A819B819C01E9012097E9F61E
:1042B00041155105A9F1CA01861B970B049708F413
:1042C000BA01E0E0F0E02AC08D919C91119784172B
:1042D0009507F9F46417750781F412968D919C91F6
:1042E0001397309719F09383828304C09093390613
:1042F00080933806FD0132964CC0CA01861B970B8D
:10430000FD01E80FF91F6193719302978D939C93C0
:1043100040C0FD01828193819C01D9011097A1F6D3
:104320008091360690913706892B41F48091530590
:104330009091540590933706809336064091550529
:10434000509156054115510541F44DB75EB7809126
:10435000510590915205481B590B2091360630911A
:104360003706CA01821B930B8617970780F0AB01B3
:104370004E5F5F4F8417950750F0420F531F5093C5
:10438000370640933606F9016193719302C0E0E06D
:10439000F0E0CF01DF91CF910895CF93DF930097A5
:1043A00009F450C0EC0122971B821A82A0913806B2
:1043B000B0913906109709F140E050E0AC17BD0705
:1043C00008F1BB83AA83FE0121913191E20FF31F13
:1043D000AE17BF0779F48D919C911197280F391F63
:1043E0002E5F3F4F3983288312968D919C911397AE
:1043F0009B838A834115510571F4D0933906C0938C
:10440000380620C012968D919C911397AD010097AC
:1044100011F0DC01D3CFFA01D383C2832191319112
:10442000E20FF31FCE17DF0769F488819981280F07
:10443000391F2E5F3F4FFA01318320838A819B8190
:1044400093838283DF91CF910895FC0105906150A1
:1044500070400110D8F7809590958E0F9F1F08959A
:10446000FC016150704001900110D8F78095909543
:104470008E0F9F1F08950F931F93CF93DF938C018F
:10448000EB018B8181FF1BC082FF0DC02E813F811C
:104490008C819D812817390764F4E881F9810193A3
:1044A000F983E88306C0E885F985802F0995892B73
:1044B00031F48E819F8101969F838E8302C00FEF1E
:1044C0001FEFC801DF91CF911F910F910895FA015D
:1044D000AA27283051F1203181F1E8946F936E7F43
:1044E0006E5F7F4F8F4F9F4FAF4FB1E03ED0B4E034
:1044F0003CD0670F781F891F9A1FA11D680F791F75
:104500008A1F911DA11D6A0F711D811D911DA11D85
:1045100020D009F468943F912AE0269F1124301995
:10452000305D3193DEF6CF010895462F4770405D30
:104530004193B3E00FD0C9F7F6CF462F4F70405DDF
:104540004A3318F0495D31FD4052419302D0A9F73A
:10455000EACFB4E0A6959795879577956795BA9534
:10456000C9F700976105710508959B01AC010A2EFA
:1045700006945795479537952795BA95C9F7620FD1
:10458000731F841F951FA01D08952F923F924F9275
:104590005F926F927F928F929F92AF92BF92CF92D3
:1045A000DF92EF92FF920F931F93CF93DF93CDB7DC
:1045B000DEB7CA1BDB0B0FB6F894DEBF0FBECDBF54
:1045C00009942A88398848885F846E847D848C8425
:1045D0009B84AA84B984C884DF80EE80FD800C812E
:1045E0001B81AA81B981CE0FD11D0FB6F894DEBF11
:0C45F0000FBECDBFED010895F894FFCF81
:1045FC00576562536572626572414B2076312E317C
:10460C0000496E697469616C697A652E2E2E2020C2
:10461C0020004D414320524157206D736720617239
:10462C0072697665640D0064657374206D61633D19
:10463C00252E32582E252E32582E252E32582E2528
:10464C002E32582E252E32582E252E32580D0A0079
:10465C0073726320206D61633D252E32582E252EFA
:10466C0032582E252E32582E252E32582E252E32EB
:10467C00582E252E32580D0A007479706520202092
:10468C00203D252E3258252E32580D0A00536E5FD0
:10469C00504F52545228256429203A203078253026
:1046AC0032780D0A00536E5F504F525452282564D5
:1046BC00292B31203A203078253032780D0A00250C
:1046CC0064203A2053656E64746F204661696C2EC9
:1046DC006C656E3D256C642C0025642E25642E259E
:1046EC00642E2564282564290D0A002564203A20AF
:1046FC0054435020536572766572282564292053E3
:10470C007461727465642E0D0A000D0A3D3D3D3DC9
:10471C003D3D3D3D3D3D3D3D3D3D3D3D3D3D3D3DBD
:10472C003D3D3D3D3D3D3D3D3D3D3D3D3D3D3D3DAD
:10473C003D3D3D3D3D3D3D3D3D3D3D3D0D00202044
:10474C0020202020204E657420436F6E6669672000
:10475C00496E666F726D6174696F6E2E2E0D004D11
:10476C0041432041444452455353202020202020D3
:10477C003A20003078253032582E000D0A5355421D
:10478C004E4554204D41534B2020202020203A20D0
:10479C000025642E000D0A472F5720495020414414
:1047AC0044524553532020203A20000D0A4C4F43CD
:1047BC00414C2049502041444452455353203A2007
:1047CC00000D0A57495A2D456D6265646465642075
:1047DC00576562536572766572202D2053696D7032
:1047EC006C65205443502C205544502054657374F0
:1047FC002050726F6772616D2E0008080808080857
:10480C0008080008DC0000000D0A002E00253033DB
:10481C00642E253033642E253033642E25303364DA
:10482C000025642E25642E25642E2564000D0A3D7A
:10483C003D3D3D3D3D3D3D3D3D3D3D3D3D3D3D3D9C
:10484C003D3D3D3D3D3D3D3D3D3D3D3D3D3D3D3D8C
:10485C003D3D3D3D3D3D3D3D3D3D3D3D3D3D3D0DAC
:10486C0000202020202020204E657420436F6E668F
:10487C00696720496E666F726D6174696F6E0D00A9
:10488C003D3D3D3D3D3D3D3D3D3D3D3D3D3D3D3D4C
:10489C003D3D3D3D3D3D3D3D3D3D3D3D3D3D3D3D3C
:1048AC003D3D3D3D3D3D3D3D3D3D3D3D3D3D3D3D2C
:1048BC000D004D4143204144445245535320202088
:1048CC002020203A203078253032582E3078253070
:1048DC0032582E3078253032582E307825303258D8
:1048EC002E3078253032582E3078253032580D0A3B
:1048FC00005355424E4554204D41534B202020200F
:10490C0020203A2025730D0A00472F5720495020AC
:10491C00414444524553532020203A2025730D0A1C
:10492C00004C4F43414C2049502041444452455384
:10493C0053203A2025730D0A0000000000000000EF
:10494C00000001020203030303040404040404042E
:10495C0004050505050505050505050505050505FC
:10496C0005060606060606060606060606060606DC
:10497C0006060606060606060606060606060606CB
:10498C0006070707070707070707070707070707AC
:10499C00070707070707070707070707070707079B
:1049AC00070707070707070707070707070707078B
:1049BC00070707070707070707070707070707077B
:1049CC00070808080808080808080808080808085C
:1049DC00080808080808080808080808080808084B
:1049EC00080808080808080808080808080808083B
:1049FC00080808080808080808080808080808082B
:104A0C00080808080808080808080808080808081A
:104A1C00080808080808080808080808080808080A
:104A2C0008080808080808080808080808080808FA
:104A3C0008080808080808080808080808080808EA
:084A4C000820003A06000000FA
:00000001FF
