:100000000C940A010C9429010C9429010C942901E7
:100010000C9429010C9429010C9429010C942901B8
:100020000C9429010C9429010C948C220C94290124
:100030000C9429010C9429010C9429010C94290198
:100040000C9429010C9429010C948E1A0C9429010A
:100050000C9429010C9429010C9429010C94290178
:100060000C9429010C9429010C9429010C94290168
:100070000C9429010C9429010C9429010C94290158
:100080000C9429010C9429010C94290148545450D2
:100090002F312E3120343030204F4B0D0A436F6EFC
:1000A00074656E742D547970653A20746578742F78
:1000B00068746D6C0D0A436F6E74656E742D4C65BB
:1000C0006E6774683A2035300D0A0D0A3C48544D6D
:1000D0004C3E0D0A3C424F44593E0D0A496E766132
:1000E0006C696420726571756573742E0D0A3C2FFE
:1000F000424F44593E0D0A3C2F48544D4C3E0D0A88
:100100000000485454502F312E3120323030204FCF
:100110004B0D0A436F6E74656E742D547970653A99
:1001200020746578742F68746D6C0D0A436F6E745B
:10013000656E742D4C656E6774683A2035390D0A0A
:100140000D0A3C48544D4C3E0D0A3C424F44593E2A
:100150000D0A43474920636F6D6D616E64206973BA
:1001600020636F6D706C657465642E0D0A3C2F42C0
:100170004F44593E0D0A3C2F48544D4C3E0D0A0049
:1001800000485454502F312E3120323030204F4B04
:100190000D0A436F6E74656E742D547970653A2044
:1001A000746578742F68746D6C0D0A436F6E746596
:1001B0006E742D4C656E6774683A2037380D0A0DE1
:1001C0000A3C48544D4C3E0D0A3C424F44593E0DAA
:1001D0000A536F7272792C207468652070616765AC
:1001E00020796F7520726571756573746564207709
:1001F0006173206E6F7420666F756E642E0D0A3CFD
:100200002F424F44593E0D0A3C2F48544D4C3E0D51
:100210000A00000011241FBECFEFD0E1DEBFCDBF2A
:1002200019E0A0E0B1E0E2E7FBE600E00BBF02C0AE
:1002300007900D92A43DB107D9F71BE0A4EDB9E0FA
:1002400001C01D92AB33B107E1F70E94E0180C9496
:10025000B8350C940000F89410926A001ABE19BECA
:1002600018BE80EC85BF80E480936D00789408957B
:1002700048B390E0049621E030E002C0220F331F23
:100280008A95E2F7422B48BB089548B390E0049664
:1002900021E030E002C0220F331F8A95E2F720955B
:1002A000242328BB089528B330E090E0049602C0D0
:1002B000359527958A95E2F720952170822F90E059
:1002C000089583B1806683B982B18F7982B9089528
:1002D00041B160E070E090E0059621E030E002C0BE
:1002E000220F331F8A95E2F7422311F061E070E09C
:1002F000CB010895982F823018F080E090E00895A7
:1003000081E1989FC00111248C52964F089517B82F
:1003100085E886B90895877087B9369A349BFECFF1
:1003200024B130E085B190E0982F8827822B932B61
:1003300008950C9400000895FF920F931F93CF939C
:10034000DF93F82EEB0181E08F15B0F1FB010190F6
:100350000020E9F73197E61BF70B719768F501E18B
:10036000F09E800111240C52164F40E150E060E2F3
:1003700070E0C8010E9477308F2D90E0FC0154E0BE
:10038000EE0FFF1F5A95E1F7E80FF91FEC52F64FF9
:10039000108AFE0101900020E9F73197EC1BFD0B5C
:1003A000AF01BE01C8010E946E306F2D80E00E9437
:1003B000F321C8010E943722DF91CF911F910F9145
:1003C000FF900895CF93DF9387B3806F87BBC0E022
:1003D000D0E080E00E94380181E00E94380182E094
:1003E0000E94380183E00E9438018C2F0E94450151
:1003F00088E290E00E94761A2196C430D10549F730
:1004000080E00E94380181E00E94380182E00E9471
:10041000380183E00E943801DF91CF91089528B31D
:10042000482F50E04C5F5F4F30E0042E02C03595FE
:1004300027950A94E2F720FD0CC028B381E090E0F4
:1004400002C0880F991F4A95E2F78095822388BBE6
:10045000089528B381E090E002C0880F991F4A9563
:10046000E2F7282B28BB089517B885E886B90E94C3
:100470002B010E94122267E080E00E948E1C83B153
:10048000806683B982B18F7982B90E94F7170E9482
:10049000E2010895B89AC09AB99AC19ABA9ABB98DB
:1004A0006E9A6C9A6B986A98709A8DB18C7F8DB9A0
:1004B00008958FB9779BFECF8FB190E008958FB9E3
:1004C000779BFECF0895CF93DF93CDB7DEB76897C4
:1004D0000FB6F894DEBF0FBECDBFDE011996E8E07F
:1004E000F1E080E101900D928150E1F7DE0111967B
:1004F000E0E0F1E088E001900D928150E1F7809119
:1005000065008F7E8093650087E58FB9779BFECF6E
:100510008FB11FB8779BFECF8FB190E0FC01E873DD
:10052000F07033E0F695E7953A95E1F7AE014F5F4D
:100530005F4FDA01AE0FBF1F2C912093910AEE0F8F
:10054000FF1FE40FF51F208531853093930A209318
:10055000920A2091650020612093650068960FB68D
:10056000F894DEBF0FBECDBFDF91CF910895E4E6D2
:10057000F0E0808180618083E5E6F0E08081806149
:1005800080830E944A026B9A6A9A0E9463020895CD
:10059000AC01809165008F7E8093650088E68FB9FD
:1005A000779BFECF8FB18091910A282F30E080E1B8
:1005B00090E0821B930BFA0102C0F695E7958A95AD
:1005C000E2F7EFB9779BFECF8FB1872F992728509D
:1005D000304002C0440F551F2A95E2F7840F8FB9AF
:1005E000779BFECF8FB16FB9779BFECF8FB11FB8CE
:1005F000779BFECF8FB11FB8779BFECF8FB11FB80F
:10060000779BFECF8FB11FB8779BFECF8FB18091C4
:1006100065008061809365000895F90190916500FF
:100620009F7E90936500813009F584E88FB9779BB0
:10063000FECF8FB11FB8779BFECF8FB1872F992741
:100640008FB9779BFECF8FB16FB9779BFECF8FB1FC
:1006500020E030E008C080818FB9779BFECF8FB15A
:1006600031962F5F3F4F24173507A9F7809165001A
:100670008061809365000895909165009F7E9093BE
:100680006500813099F484E88FB9779BFECF8FB1F4
:100690001FB8779BFECF8FB1872F99278FB9779B94
:1006A000FECF8FB16FB9779BFECF8FB18091650080
:1006B0008061809365000895F901909165009F7EA7
:1006C00090936500813021F584E58FB9779BFECF4B
:1006D0008FB11FB8779BFECF8FB1872F99278FB926
:1006E000779BFECF8FB16FB9779BFECF8FB11FB8CD
:1006F000779BFECF8FB120E030E007C01FB8779B1B
:10070000FECF8FB181932F5F3F4F24173507B1F78D
:1007100080916500806180936500089590916500E7
:100720009F7E90936500813031F583E88FB9779B88
:10073000FECF8FB18091910A282F30E080E190E0C8
:10074000821B930BAB0102C0569547958A95E2F741
:100750004FB9779BFECF8FB12850304002C0660F53
:10076000771F2A95E2F76FB9779BFECF8FB11FB83D
:10077000779BFECF8FB1809165008061809365008B
:10078000809165008F7E809365000E94630287FFE1
:10079000FCCF809165008061809365000895909101
:1007A00065009F7E90936500813031F583E58FB9B8
:1007B000779BFECF8FB18091910A282F30E080E1A6
:1007C00090E0821B930BAB0102C0569547958A952A
:1007D000E2F74FB9779BFECF8FB12850304002C06F
:1007E000660F771F2A95E2F76FB9779BFECF8FB11F
:1007F0001FB8779BFECF8FB1809165008061809399
:100800006500809165008F7E809365000E94630281
:1008100087FFFCCF8091650080618093650008951B
:10082000909165009F7E909365008130B9F484E8D3
:100830008FB9779BFECF8FB11FB8779BFECF8FB15B
:10084000872F99278FB9779BFECF8FB16FB9779B91
:10085000FECF8FB14FB9779BFECF8FB180916500EE
:100860008061809365000895909165009F7E9093CC
:100870006500813011F090E01BC084E58FB9779B53
:10088000FECF8FB11FB8779BFECF8FB1872F9927EF
:100890008FB9779BFECF8FB16FB9779BFECF8FB1AA
:1008A0001FB8779BFECF8FB11FB8779BFECF9FB14C
:1008B00080916500806180936500892F90E00895A4
:1008C0001092F7091092F6091092F9091092F8099E
:1008D00008954F925F926F927F928F929F92AF9204
:1008E000BF92CF92DF92EF92FF920F931F93CF931D
:1008F000DF937B018C012A015901C90168E071E095
:100900000E942D354B01E114F1040105110529F474
:10091000CC24DD24C0E0D0E012C0C801B70128E03B
:1009200031E040E050E00E9441356901C801B70163
:1009300028E031E040E050E00E944135EB01B60193
:1009400081E00E94CF0388E0E82E81E0F82EEC1AC7
:10095000FD0AAE14BF0408F475019201A701BE019F
:1009600081E00E945C0336010894611C711CE20165
:10097000CE0DDF1DB301CC24DD2414C08B010F5F2D
:100980001F4F81E00E94CF039E0148E051E060E0EC
:1009900070E081E00E945C030894C11CD11CC85F18
:1009A000DE4FB801C814D90449F788E091E0889E69
:1009B000E001899ED00D989ED00D1124CE0DDF1D33
:1009C000B301680D791DCA15DB0580F485010C1B88
:1009D0001D0B61F081E00E94CF03C40DD51D9E0167
:1009E000A80160E070E081E00E945C03DF91CF919C
:1009F0001F910F91FF90EF90DF90CF90BF90AF903D
:100A00009F908F907F906F905F904F9008954F923E
:100A10005F926F927F928F929F92BF92CF92DF925E
:100A2000EF92FF920F931F93CF93DF93CDB7DEB773
:100A30006F970FB6F894DEBF0FBECDBF7C014B01A0
:100A40006A01BB24B39400E010E02E010894411C1D
:100A5000511C9CE0692E712C6C0E7D1EB80180E04B
:100A600090E02FE130E0A2010E94690489818F3F6C
:100A700019F48A818F3FF9F0B301C7010E949430C5
:100A8000892BA9F489819A81AB81BC81F60180838D
:100A90009183A283B3838D819E81AF81B885F40158
:100AA00080839183A283B3838B2D90E006C0015E87
:100AB0001F4FB394D3CF80E090E06F960FB6F894B9
:100AC000DEBF0FBECDBFDF91CF911F910F91FF9081
:100AD000EF90DF90CF90BF909F908F907F906F901E
:100AE0005F904F900895EF92FF920F931F93CF93D3
:100AF000DF937B018C01611571058105910529F456
:100B0000C0E0D0E000E010E010C028E031E040E0BC
:100B100050E00E944135E901C801B70128E031E009
:100B200040E050E00E9441358B0180911801909186
:100B30001901C817D90721F0BE0181E00E94CF0337
:100B4000D0931901C0931801B80181E00E943404C8
:100B500090E0DF91CF911F910F91FF90EF9008955A
:100B60006091F8097091F90981E00E948E0308955F
:100B70006091F6097091F709482F81E00E941004F6
:100B80008091F6099091F70901969093F709809367
:100B9000F60988509140C0F01092F7091092F609BA
:100BA0006091F8097091F90988E06030780760F485
:100BB00081E00E948E038091F8099091F9090196D5
:100BC0009093F9098093F80908950E94B702109252
:100BD000F7091092F6091092F9091092F809089590
:100BE00090E026E0880F991F2A95E1F768E08D5F75
:100BF0009D470E94B2090895EF92FF920F931F93B1
:100C0000CF93DF93082FEB017A0168816F3F51F496
:100C100089818F3F91F48A818F3F79F48B818F3F57
:100C200061F441C0662349F48981882331F48A81C3
:100C3000882319F48B818823B1F1E114F10499F12F
:100C400010E046E0000F111F4A95E1F7C8018C5EE5
:100C50009D470E94B2096981C8018B5E9D470E9431
:100C6000B2096A81C8018A5E9D470E94B2096B8100
:100C7000C801895E9D470E94B2096F2D7727C80180
:100C80008E5E9D470E94B2096E2DC8018D5E9D4704
:100C90000E94B20964E0C8018D5F9D470E94B209BD
:100CA00081E090E002C080E090E0DF91CF911F9161
:100CB0000F91FF90EF90089590E056E0880F991FF4
:100CC0005A95E1F760E18D5F9D470E94B209089552
:100CD000AF92BF92CF92DF92EF92FF920F931F934A
:100CE000CF93DF93082F162FEA015901862F8150E9
:100CF000843010F080E040C0802F0E945C06C02E3F
:100D0000DD247601A6E0EE0CFF1CAA95E1F71A2976
:100D1000612FC7018F5F9D470E94B209C701865F9F
:100D20009D478701055F1D47209731F06D2F77277D
:100D30000E94B2096C2F10C06091A40A7091A50A9C
:100D40006F5F7F4F7093A50A6093A40A672F772780
:100D50000E94B2096091A40AC8010E94B20961E030
:100D6000C7018D5F9D470E94B2098CE99AE0C80EC9
:100D7000D91E81E0F601808390E0DF91CF911F9131
:100D80000F91FF90EF90DF90CF90BF90AF900895BC
:100D90001F93182F0E94AA0B833111F080E00DC021
:100DA000812F90E0B6E0880F991FBA95E1F762E0D5
:100DB0008D5F9D470E94B20981E090E01F910895E8
:100DC000FF920F931F93CF93DF93F82E8B01EA01CD
:100DD0000E941E0A9E0140E050E0621773078407DC
:100DE000950720F48F2D0E941E0AEB01209799F1A0
:100DF000AE0160E070E08F2D0E94C70DCE018170C2
:100E00009070C80FD91F9E0140E050E0B8018F2DAF
:100E10000E94BC098F2D90E016E0880F991F1A954B
:100E2000E1F760E28D5F9D470E94B20907C08F2DF8
:100E30000E94AA0B882349F003FD07C08F2D0E9452
:100E4000BB0B082F84FFF3CF02C0C0E0D0E060E10D
:100E50008F2D0E942D0ECE01DF91CF911F910F910A
:100E6000FF9008958F929F92BF92CF92DF92EF9260
:100E7000FF920F931F93CF93DF93B82E4B017A010C
:100E8000E90168010E941E0A970140E050E06217E4
:100E900073078407950720F48B2D0E941E0A7B019F
:100EA0006881662351F48981882339F48A818823F3
:100EB00021F48B81882309F460C0C114D10409F4A2
:100EC0005CC0E114F10409F458C00B2D10E096E069
:100ED000000F111F9A95E1F7C8018C5E9D470E9493
:100EE000B2096981C8018B5E9D470E94B2096A817F
:100EF000C8018A5E9D470E94B2096B81C801895E64
:100F00009D470E94B2096D2D7727C8018E5E9D47CF
:100F10000E94B2096C2DC8018D5E9D470E94B209E6
:100F2000A70160E070E08B2D0E94C70DC7018170A2
:100F30009070E80EF91E970140E050E0B4018B2D4F
:100F40000E94BC0960E2C8018D5F9D470E94B20902
:100F500007C08B2D0E94AA0B882349F0C3FD07C050
:100F60008B2D0E94BB0BC82F84FFF3CF02C0EE2451
:100F7000FF2460E18B2D0E942D0EC701DF91CF91E0
:100F80001F910F91FF90EF90DF90CF90BF909F90B7
:100F90008F900895CF92DF92FF920F931F93CF937C
:100FA000DF93CDB7DEB722970FB6F894DEBF0FBE42
:100FB000CDBFF82E6B011A821982082F10E046E08F
:100FC000000F111F4A95E1F7C8018F5F9D470E94EE
:100FD000AE0922E030E040E050E0BE016F5F7F4F9D
:100FE0008F2D0E94ED0989819A81692F7727982F8B
:100FF0008827682B792B9B0140E050E060FF04C0FC
:101000002F5F3F4F4F4F5F4F7A836983B6018F2D1C
:101010000E94ED0960E4C8018D5F9D470E94B209FE
:1010200069817A8180E090E022960FB6F894DEBF65
:101030000FBECDBFDF91CF911F910F91FF90DF9039
:10104000CF9008956F927F929F92AF92BF92CF926E
:10105000DF92EF92FF920F931F93CF93DF93CDB761
:10106000DEB72C970FB6F894DEBF0FBECDBF982E1B
:101070006B017901452B19F400E010E0E8C0A82EBF
:10108000BB24A6E0AA0CBB1CAA95E1F7F1E06F2EE9
:10109000F2E87F2E6A0C7B1CC3010E94AE0990E02F
:1010A000877090708330910561F18430910509F467
:1010B00041C0029719F020E030E04DC028E030E058
:1010C00040E050E0BE016B5F7F4F892D0E94ED092B
:1010D0008D81F70180838E8181838F8182838885D2
:1010E0008383898590E0982F88272A85820F911D18
:1010F000F801918380838B8590E0382F22278C859F
:1011000028C026E030E040E050E0BE016B5F7F4F3A
:10111000892D0E94ED098D81F70180838E81818365
:101120008F81828388858383898590E0382F222769
:101130008A850FC022E030E040E050E0BE016B5FE6
:101140007F4F892D0E94ED098D8190E0382F222755
:101150008E81280F311D890101701070020F131F3D
:10116000980140E050E0B601892D0E94ED09C301CD
:101170000E94AE098770843009F063C08AE191E073
:101180000E942331F601858190E09F938F938481A3
:1011900090E09F938F93838190E09F938F938281C0
:1011A00090E09F938F93818190E09F938F938081B4
:1011B00090E09F938F938FE291E09F938F930E9493
:1011C0000C31F601838590E09F938F93828590E0A8
:1011D0009F938F93818590E09F938F93808590E07C
:1011E0009F938F93878190E09F938F93868190E068
:1011F0009F938F9388E591E09F938F930E940C318A
:10120000F601858590E09F938F93848590E09F936E
:101210008F9381E891E09F938F930E940C318DB75B
:101220009EB782960FB6F8949EBF0FBE8DBF24E086
:1012300030E040E050E0BE016F5F7F4F892D0E949B
:10124000ED0960E4C5018D5F9D470E94B209C801A8
:101250002C960FB6F894DEBF0FBECDBFDF91CF91B5
:101260001F910F91FF90EF90DF90CF90BF90AF90C4
:101270009F907F906F9008959F92AF92BF92CF9270
:10128000DF92EF92FF920F931F93CF93DF93982EED
:10129000EB0179018A010E941E0A6E157F05800705
:1012A000910728F4892D0E941E0A7B018C01892D4B
:1012B0000E94E00A5B016C01892D0E94AA0B873114
:1012C00011F08C31D1F5AE14BF04C006D10678F30D
:1012D000C70181709070892B39F0A80197012F5FA9
:1012E0003F4F4F4F5F4F02C0A8019701BE01892DAC
:1012F0000E94BC09E92DF0E0E456F54F8081882377
:1013000081F405C0892D0E94AA0B8823B1F0892D94
:101310000E94BB0B84FFF6CF60E1892D0E942D0E49
:1013200001C01082B801A701892D0E94C70D60E29B
:1013300070E0892D0E94430E03C0EE24FF24870134
:10134000C801B701DF91CF911F910F91FF90EF90EE
:10135000DF90CF90BF90AF909F900895FC01808167
:1013600090E00895FC0160830895292F332720938E
:101370000080809301800895EF92FF920F931F9356
:10138000CF93DF9379018A0190E036E0880F991FAF
:101390003A95E1F7EC01C25DDD47DC01A15DBD4797
:1013A000FB0120E030E040E050E009C0808188830C
:1013B00081818C932E5F3F4F4F4F5F4F32962E159A
:1013C0003F054007510790F3C801B701DF91CF9166
:1013D0001F910F91FF90EF900895EF92FF920F935E
:1013E0001F93CF93DF9379018A0190E046E0880F45
:1013F000991F4A95E1F7EC01C05DDD47DC01AF5C68
:10140000BD47FB0120E030E040E050E009C08881AA
:1014100080838C9181832E5F3F4F4F4F5F4F329679
:101420002E153F054007510790F3C801B701DF9122
:10143000CF911F910F91FF90EF900895E82FF0E06A
:10144000EE0FFF1FEE0FFF1FE253F54F608171811A
:10145000828193810895E82FF0E0EE0FFF1FEE0FD9
:10146000FF1FE255F54F608171818281938108955C
:1014700080E88093018085E090E00E94631A0895DF
:10148000E82FF0E076E0EE0FFF1F7A95E1F7E45DDC
:10149000FD47808190E00895E82FF0E0A6E0EE0F90
:1014A000FF1FAA95E1F7E25EFD47808190E0089575
:1014B000E82FF0E0B6E0EE0FFF1FBA95E1F7E45E2B
:1014C000FD47808190E00895E82FF0E086E0EE0F80
:1014D000FF1F8A95E1F7E55EFD47808190E0089562
:1014E000E82FF0E036E0EE0FFF1F3A95E1F7E05D00
:1014F000FD47819190E0982F8827208130E0822B52
:10150000932B0895AF92BF92CF92DF92EF92FF920A
:101510000F931F93CF93DF9390E016E0880F991FEE
:101520001A95E1F7B8E2CB2EB2E8DB2EC80ED91E31
:10153000BC01675D7D47EC01C65DDD47ABE2AA2ECD
:10154000A2E8BA2EA80EB91EF1E0EF2EF12C012D63
:10155000112DD6018C9190E0A0E0B0E0BA2FA92F18
:10156000982F8827FB012081820F911DA11DB11D9D
:10157000BA2FA92F982F88272881820F911DA11D8E
:10158000B11D2227382F492F5A2FD5018C91280FB2
:10159000311D411D511D2E153F054007510719F002
:1015A00079018A01D6CFC801B701DF91CF911F9190
:1015B0000F91FF90EF90DF90CF90BF90AF90089584
:1015C000AF92BF92CF92DF92EF92FF920F931F9351
:1015D000CF93DF9390E076E0880F991F7A95E1F73B
:1015E00064E2C62E62E8D62EC80ED91EBC016B5D21
:1015F0007D47EC01CA5DDD4757E2A52E52E8B52EC6
:10160000A80EB91EEE24FF248701D6018C9190E02C
:10161000A0E0B0E0BA2FA92F982F8827FB012081E6
:10162000820F911DA11DB11DBA2FA92F982F8827B8
:101630002881820F911DA11DB11D2227382F492F0E
:101640005A2FD5018C91280F311D411D511D2E158A
:101650003F054007510719F079018A01D6CFC8012B
:10166000B701DF91CF911F910F91FF90EF90DF9025
:10167000CF90BF90AF900895E82FF0E0A6E0EE0F76
:10168000FF1FAA95E1F7E05EFD478191582F8191F8
:10169000482F8191382F8081282FCA01B9010895E0
:1016A000E82FF0E0B6E0EE0FFF1FBA95E1F7E55E38
:1016B000FD47808180E090E00895E82FF0E036E07B
:1016C000EE0FFF1F3A95E1F7E85EFD47819190E04C
:1016D000982F8827208130E0822B932B0895CF9379
:1016E000DF93E82FF0E046E0EE0FFF1F4A95E1F7A9
:1016F000DF01AC5EBD478C91EB0118828C91898330
:10170000EA5EFD4780811A8280818B83DF91CF91D1
:101710000895CF93DF93E82FF0E056E0EE0FFF1F20
:101720005A95E1F7DF01A45FBD478C91EB01188268
:101730008C918983DF01A25FBD478C911A828C91C5
:101740008B83E05FFD4780811C8280818D83DF91E8
:10175000CF910895E82FF0E066E0EE0FFF1F6A9545
:10176000E1F7E75FFD4780819081891711F0892FAC
:10177000FBCF90E00895E82FF0E076E0EE0FFF1F3A
:101780007A95E1F7E95FFD47808190E00895E82FC1
:10179000F0E0A6E0EE0FFF1FAA95E1F7EB5FFD4733
:1017A000808190E00895E82FF0E0B6E0EE0FFF1F93
:1017B000BA95E1F7ED5FFD47808190E00895E82F4D
:1017C000F0E096E0EE0FFF1F9A95E1F7BE2FAA27F3
:1017D0008C91EF5FFD479081892B90E00895809177
:1017E000FE802091FF8090E0982F882730E0822BA8
:1017F000932B0895E82FF0E0EE0FFF1FEE0FFF1F71
:10180000EE59FF47BE2FAA278C9131969081892BE4
:1018100090E00895E82FF0E0EE0FFF1FEE0FFF1F9E
:10182000E05AFF47808190E0089580914E8020919A
:101830004F8090E0982F882730E0822B932B0895DB
:1018400080914C8020914D8090E0982F882730E047
:10185000822B932B0895FC01A8E4B0E88C911082B0
:101860008C918183AAE4B0E88C9112828C9183835D
:101870000895CF93DF93DC01E0E4F0E880811C92CF
:101880008081ED018983E2E4F0E880811A82808121
:101890008B83E4E4F0E880811C8280818D83DF917A
:1018A000CF91089580913C8020913D8090E0982FC9
:1018B000882730E0822B932B08958091388090E028
:1018C00008958091368090E0089580913280209133
:1018D000338090E0982F882730E0822B932B089557
:1018E00080911F8090E0089580911C8020911D8040
:1018F00090E0982F882730E0822B932B0895FC01ED
:1019000080911880808380911980818380911A80D2
:10191000828380911B8083830895FC0180911480D1
:10192000808380911580818380911680828380914D
:10193000178083830895FC018091108080838091BB
:1019400011808183809112808283809113808383B0
:101950000895FC01809108808083809109808183B3
:1019600080910A80828380910B80838380910C8098
:10197000848380910D8085830895809104802091D7
:10198000058090E0982F882730E0822B932B0895D4
:10199000809102802091038090E0982F882730E08A
:1019A000822B932B0895809100802091018090E0FC
:1019B000982F882730E0822B932B08959C01A0E07C
:1019C000B0E0F901EA0FFB1F8081A85FBF478C934D
:1019D000A750B048A630B105A1F70895292F3327A5
:1019E00020930480809305800895109202800895CA
:1019F000CF92DF92EF92FF920F931F93CF93DF93DB
:101A00007C016B0120E030E000E010E060E070E07D
:101A100040E050E0F701E20FF31F8081813408F0CD
:101A200070C0E601C20FD31F9881913408F069C0DD
:101A3000080F111D690F711DFA01E253F54F90E077
:101A4000A0E0B0E0072E7AE0880F991FAA1FBB1F05
:101A50007A95D1F7702D80839183A283B383888197
:101A6000FA01E255F54F90E0A0E0B0E0072E7AE0F1
:101A7000880F991FAA1FBB1F7A95D1F7702D8083FD
:101A80009183A283B3832F5F3F4F4C5F5F4F28301A
:101A9000310509F0BFCFC80187709070892B89F597
:101AA000600F711F6038710561F5F701A0E2B0E8C1
:101AB00081918D9380E8A832B807D1F7F601819122
:101AC0008D9380E8A033B807D1F740E050E020E0E4
:101AD00030E0C801F3E096958795FA95E1F705C0E7
:101AE000220F331F21604F5F5F4F48175907C0F324
:101AF000832F9927809330802093318081E090E07C
:101B000002C080E090E0DF91CF911F910F91FF9094
:101B1000EF90DF90CF900895E82FF0E086E0EE0F91
:101B2000FF1F8A95E1F7E45DFD4760830895E82F84
:101B3000F0E096E0EE0FFF1F9A95E1F7E25EFD47B9
:101B400060830895E82FF0E026E0EE0FFF1F2A954E
:101B5000E1F7E45EFD4760830895E82FF0E036E0AA
:101B6000EE0FFF1F3A95E1F7E55EFD478081608348
:101B70000895272F3327E82FF0E046E0EE0FFF1FF0
:101B80004A95E1F7E25DFD47219360830895E82FD0
:101B9000F0E0A6E0EE0FFF1FAA95E1F7E05EFD473B
:101BA00071936193519340830895E82FF0E086E0AC
:101BB000EE0FFF1F8A95E1F7E55EFD47808170E03B
:101BC000762F6627680F711D60830895272F3327AE
:101BD000E82FF0E096E0EE0FFF1F9A95E1F7E85E40
:101BE000FD47219360830895CF93DF93EB019981A3
:101BF000E82FF0E036E0EE0FFF1F3A95E1F7EC5EDC
:101C0000FD4790838B8132968083DF91CF91089539
:101C1000272F3327E82FF0E046E0EE0FFF1F4A950D
:101C2000E1F7EE5EFD47219360830895CF93DF9344
:101C3000EB019981E82FF0E066E0EE0FFF1F6A9557
:101C4000E1F7E45FFD4790838B81329680838D813D
:101C500032968083DF91CF910895E82FF0E076E00F
:101C6000EE0FFF1F7A95E1F7E95FFD476083089566
:101C7000E82FF0E0A6E0EE0FFF1FAA95E1F7EB5F7B
:101C8000FD4760830895272F3327E82FF0E0B6E063
:101C9000EE0FFF1FBA95E1F7ED5FFD4720836083EC
:101CA00080818823E9F70895272F3327E82FF0E074
:101CB00036E0EE0FFF1F3A95E1F7E050FE47219323
:101CC00060830895272F3327E82FF0E0EE0FFF1FE2
:101CD000EE0FFF1FEE59FF47219360830895E82F11
:101CE000F0E0EE0FFF1FEE0FFF1FE05AFF4760838B
:101CF0000895809338800895809336800895809366
:101D00001F800895292F332720931C8080931D80E6
:101D10000895FC01808180931880818180931980CF
:101D2000828180931A80838180931B800895FC01B7
:101D3000808180931480818180931580828180933B
:101D400016808381809317800895FC0180818093A1
:101D500010808181809311808281809312808381A1
:101D60008093138008950F931F93CF93DF93CDB784
:101D7000DEB7CE5FD3400FB6F894DEBF0FBECDBF47
:101D8000BC01892B19F480E090E015C08E010F5F33
:101D90001F4FC8010E949D3065E971E0C8010E9493
:101DA000911D8C0168E971E00E949430892B11F03B
:101DB0000F5F1F4FC801C250DC4F0FB6F894DEBF53
:101DC0000FBECDBFDF91CF911F910F9108950F935B
:101DD0001F93CF93DF938C01CB016AE971E00E94DE
:101DE000911DEC01009709F446C06CE971E00E9476
:101DF0009430892B39F060EA71E0CE010E94943072
:101E0000892B11F481E00FC064EA71E0CE010E94D9
:101E10009430892B39F069EA71E0CE010E94943048
:101E2000892B59F482E0F80180836AE971E080E04F
:101E300090E00E94911DEC011CC06EEA71E0CE01A1
:101E40000E949430892B39F063EB71E0CE010E943F
:101E50009430892B59F468EB71E080E090E00E94A7
:101E6000911DEC0183E0F801808303C0F80110822A
:101E700005C0209719F4F801108205C0BE01C80101
:101E800002960E949D30DF91CF911F910F9108958E
:101E90000F931F93CF93DF938C01EB016AEB71E0FB
:101EA000CE010E94A430892B11F081E05AC06FEB63
:101EB00071E0CE010E94A430892B11F082E051C064
:101EC00064EC71E0CE010E94A430892B39F46AECF5
:101ED00071E0CE010E94A430892B11F083E041C053
:101EE0006FEC71E0CE010E94A430892B39F465EDCE
:101EF00071E0CE010E94A430892B11F084E031C042
:101F00006AED71E0CE010E94A430892B11F085E0CA
:101F100028C06FED71E0CE010E94A430892B39F406
:101F200065EE71E0CE010E94A430892B11F086E0AD
:101F300018C06AEE71E0CE010E94A430892B11F026
:101F400087E00FC06FEE71E0CE010E94A430892BB4
:101F500039F464EF71E0CE010E94A430892B21F0A6
:101F600088E0F801808302C0F8011082DF91CF91F0
:101F70001F910F910895CF92DF92EF92FF920F93EE
:101F80001F93CF93DF93CDB7DEB72A970FB6F894A0
:101F9000DEBF0FBECDBF6C01613029F4A9EFEA2E80
:101FA000A1E0FA2E29C0623029F4F4E3EF2EF2E02A
:101FB000FF2E22C0633029F4EFE6EE2EE2E0FE2E83
:101FC0001BC0643029F47BEAE72E72E0F72E14C0C0
:101FD000653029F467EEE62E62E0F62E0DC066301D
:101FE00029F496E3E92E93E0F92E06C0673021F438
:101FF00082E7E82E83E0F82E5F934F933F932F9371
:1020000083EB93E09F938F938E010F5F1F4F1F937E
:102010000F930E945631B701C6010E949D30B8014E
:10202000C6010E947E3067EB73E0C6010E947E30DD
:102030008DB79EB708960FB6F8949EBF0FBE8DBFA2
:102040002A960FB6F894DEBF0FBECDBFDF91CF91B9
:102050001F910F91FF90EF90DF90CF9008958F9296
:102060009F92AF92BF92CF92DF92EF92FF921F9317
:10207000CF93DF936C017C0188249924AA24BB248C
:102080001DC0F7018083853281F489810E94011D82
:10209000182F8A810E94011D1295107F180FF701D9
:1020A000108382E090E0A80EB91E0894811C911C58
:1020B0000894A11CB11C0894E11CF11CE601CA0D96
:1020C000DB1D88818823E9F68C0C9D1CF4011082AD
:1020D000DF91CF911F91FF90EF90DF90CF90BF9055
:1020E000AF909F908F900895EF92FF920F931F9360
:1020F000CF93DF93CDB7DEB7CE5FD3400FB6F89462
:10210000DEBF0FBECDBF7B01009761F1672B51F1A0
:10211000BC018E010F5F1F4FC8010E949D30B701A7
:10212000C8010E94A4308C01892BD1F00F5F1F4F92
:10213000F70101900020E9F73197EE19FF096CEBE8
:1021400073E0C8018E0F9F1F0E94911D8C010097A4
:1021500039F00E942F1040E26BE2C8010E94C41DBA
:10216000C80102C080E090E0C250DC4F0FB6F89486
:10217000DEBF0FBECDBFDF91CF911F910F91FF90BA
:10218000EF9008952F923F924F925F926F927F92BD
:102190008F929F92AF92BF92CF92DF92EF92FF9277
:1021A0000F931F93CF93DF93CDB7DEB768970FB62A
:1021B000F894DEBF0FBECDBF2B011A821982F8ED55
:1021C0002F2EF4E03F2EE0E96E2EE4E07E2E7CE53B
:1021D000A72E74E0B72E61E5862E64E0962E6DC3BF
:1021E00063EC73E0C8010E94A4307C01892BC1F02C
:1021F0006091FB0A7091FC0A8091FD0A9091FE0AA1
:102200006B837C838D839E830E94101E0E94A3207B
:10221000D701FC018FE001900D928150E1F75FC082
:1022200063ED73E0C8010E94A4307C01892BC1F0EA
:102230006091030B7091040B8091050B9091060B3C
:102240006B837C838D839E830E94101E0E94A3203B
:10225000D701FC018FE001900D928150E1F73FC062
:1022600063EE73E0C8010E94A4307C01892BC1F0A9
:102270006091FF0A7091000B8091010B9091020B0D
:102280006B837C838D839E830E94101E0E94A320FB
:10229000D701FC018FE001900D928150E1F71FC042
:1022A00063EF73E0C8010E94A4307C01892BD1F058
:1022B0006091FB0A7091FC0A8091FD0A9091FE0AE0
:1022C0006B837C838D839E830E94101E0E94A320BB
:1022D000D701FC018FE001900D928150E1F7C70119
:1022E0000F96EBC263E074E0C8010E94A4307C0149
:1022F000892B09F450C08E01095F1F4F8091F60AA7
:1023000090E09F938F938091F50A90E09F938F9335
:1023100025E134E03F932F931F930F930E94563192
:102320008091F80A90E09F938F938091F70A90E054
:102330009F938F9380E294E09F938F93CE010D96AD
:102340009F938F930E9456318091FA0A90E09F9359
:102350008F938091F90A90E09F938F93EBE2F4E0E2
:10236000FF93EF93CE0143969F938F930E94563134
:10237000F701D80181E10D9001928150E1F7C70189
:1023800041962DB73EB7285E3F4F0FB6F8943EBF3B
:102390000FBE2DBF92C265E374E0C8010E94A43055
:1023A0007C010097A1F040E150E060E270E00E9403
:1023B000773081E090E00E947A01D701FC0180E152
:1023C00001900D928150E1F7C701409676C266E414
:1023D00074E0C8010E94A4307C01892BD9F08AE006
:1023E000F70111928A95E9F780E00E94530181304C
:1023F00049F4D701F4018AE001900D92815009F46B
:102400006FC0FACFD701F5018AE001900D9281509B
:10241000E1F766C067E674E0C8010E94A4307C0161
:10242000892BD9F08AE0F70111928A95E9F781E0CA
:102430000E945301813049F4D701F4018AE00190F0
:102440000D92815009F44CC0FACFD701F5018AE012
:1024500001900D928150E1F743C062E774E0C8013A
:102460000E94A4307C01892BD1F08AE0F7011192FF
:102470008A95E9F782E00E945301813041F4D70147
:10248000F4018AE001900D92815051F1FBCFD70108
:10249000F5018AE001900D928150E1F721C06DE7CE
:1024A00074E0C8010E94A4307C01892BE1F08AE02D
:1024B000F70111928A95E9F783E00E945301813078
:1024C00041F4D701F4018AE001900D92815041F06E
:1024D000FBCFD701F5018AE001900D928150E1F721
:1024E000C7010A96EAC168E874E0C8010E94A430F6
:1024F0007C010097A1F047E050E060E270E00E94AC
:10250000773080E00E945301813009F0D4C1D701B7
:10251000F30187E001900D928150E1F7CCC168E9A9
:1025200074E0C8010E94A4307C010097A1F047E04C
:1025300050E060E270E00E94773081E00E94530139
:10254000813009F0B8C1D701F30187E001900D9205
:102550008150E1F7B0C160EA74E0C8010E94A43084
:102560007C010097A1F047E050E060E270E00E943B
:10257000773082E00E945301813009F09CC1D7017D
:10258000F30187E001900D928150E1F794C168EA70
:1025900074E0C8010E94A4307C010097A1F047E0DC
:1025A00050E060E270E00E94773083E00E945301C7
:1025B000813009F080C1D701F30187E001900D92CD
:1025C0008150E1F778C160EB74E0C8010E94A4304B
:1025D0007C01892B39F180E00E948B0120E034E0FE
:1025E000281B390B3A83298387E0F70111928A95DA
:1025F000E9F78E01095F1F4F89819A81969587952A
:102600009F938F9328EB34E03F932F931F930F9367
:102610000E945631F701D80187E00D900192815058
:10262000E1F723C06CEB74E0C8010E94A4307C0188
:10263000892B31F187E0F70111928A95E9F78E0134
:10264000095F1F4F89819A819F938F9328EB34E014
:102650003F932F931F930F930E945631F701D80198
:1026600087E00D9001928150E1F7C7010796EDB721
:10267000FEB736960FB6F894FEBF0FBEEDBF1DC174
:1026800064EC74E0C8010E94A4307C01892BD9F06D
:1026900089E0F70111928A95E9F780E00E946801CC
:1026A000882349F0D701EEECF4E089E001900D9227
:1026B000815059F1FBCFD701F10189E001900D92D2
:1026C0008150E1F722C062EE74E0C8010E94A4309C
:1026D0007C01892BE9F089E0F70111928A95E9F7ED
:1026E00081E00E946801882349F0D701EEECF4E014
:1026F00089E001900D92815041F0FBCFD701F101AB
:1027000089E001900D928150E1F7C7010996D5C08B
:102710006CEE74E0C8010E94A4307C01892B09F49E
:1027200042C086E0F70111928A95E9F7CE01019641
:102730000E946222882371F569817A81605170401C
:1027400080E090E00E94F22D20E030E040E25FE384
:102750000E946A2C0E94A02A9B017A83698343E02D
:10276000369527954A95E1F7265F3F4F3F932F9384
:1027700023EF34E03F932F93CE0107969F938F93DF
:102780000E9456318DB79EB706960FB6F8949EBF3D
:102790000FBE8DBFF701DE01179686E00D90019206
:1027A0008150E1F788C069EF74E0C8010E94A4304D
:1027B0007C01892B09F489C086E0F70111928A9582
:1027C000E9F7CE0101960E94622297E0C92ED12C32
:1027D000CC0EDD1E29813A81882399F160E070E1F9
:1027E000621B730B80E090E00E94F22D20E030E04D
:1027F00040E25FE30E946A2C0E94A02A8B019C01A8
:102800007A836983CB016AE070E00E942D359F9343
:102810008F93C8016AE070E00E942D357F936F931B
:1028200020E035E03F932F93DF92CF920E94563104
:102830008DB79EB708960FB6F8949EBF0FBE8DBF9A
:1028400032C020513040B90180E090E00E94F22D6A
:1028500020E030E040E25FE30E946A2C0E94A02A60
:102860008B019C017A836983CB016AE070E00E944E
:102870002D359F938F93C8016AE070E00E942D353B
:102880007F936F93E9E0F5E0FF93EF93DF92CF92B0
:102890000E9456312DB73EB7285F3F4F0FB6F894D0
:1028A0003EBF0FBE2DBFF701DE01179686E00D90EB
:1028B00001928150E1F7C701079664E270E00E943F
:1028C00089308C01892B09F08BCCC20168960FB638
:1028D000F894DEBF0FBECDBFDF91CF911F910F9156
:1028E000FF90EF90DF90CF90BF90AF909F908F9030
:1028F0007F906F905F904F903F902F9008958091C0
:10290000160A9091170A61E175E002960E94741010
:10291000009721F06BEF7AE00E9421208091160A47
:102920009091170A65E175E002960E947410009775
:1029300021F063E07BE00E9421208091160A9091B3
:10294000170A6AE175E002960E947410009721F060
:102950006FEF7AE00E9421208091160A9091170A69
:102960006DE175E002960E94741089E1EFEEFAE0E5
:10297000A0E0B0E0182E0E94B33581E0A4E0B0E002
:10298000082E0E94A73580E0A5E0B0E0082E0E9446
:10299000A7350895BF92CF92DF92EF92FF920F93E7
:1029A0001F93CF93DF93CDB7DEB728970FB6F89478
:1029B000DEBF0FBECDBFB82E04EB16E11093170A91
:1029C0000093160A0E94AA0B873139F08C3109F462
:1029D000EFC1882309F4F1C115C28091EE0A81305C
:1029E00019F482E08093EE0A8B2D0E94820A9B01EB
:1029F000161617060CF006C282E0293D380710F0C3
:102A000028ED32E0442737FD4095542F6091160A97
:102A10007091170A8B2D0E94CA072091160A3091D7
:102A2000170AF901E60FF71F10821D821E821F820E
:102A300018861093150A0093140A80E091E1909390
:102A4000170A8093160AB9010E94E70EE091160A50
:102A5000F091170A8081882321F0843008F095C115
:102A600005C046E750E06CE870E0E9C0CF0102968F
:102A70000E94B30E6C0161E275E00E949430892BD4
:102A800029F463E275E0C6010E949D308091160A28
:102A90009091170AB60101960E94480F0091160AFC
:102AA0001091170AF8018181883009F0B9C06EE2EF
:102AB00075E0C6010E94A430892B89F069E375E0B6
:102AC000C80102960E947410FC01009709F46DC0C1
:102AD000108ABC0181E090E00E949C0166C067E41E
:102AE00075E0C6010E94A4307C01892B09F46BC0FB
:102AF00062E575E0C80102960E947410009751F0DB
:102B000067E575E00E949430892B21F480E00E94F3
:102B1000450103C080E00E9438018091160A90911F
:102B2000170A6AE575E002960E947410009751F04A
:102B300067E575E00E949430892B21F481E00E94C2
:102B4000450103C081E00E9438018091160A9091EE
:102B5000170A6FE575E002960E947410009751F015
:102B600067E575E00E949430892B21F482E00E9491
:102B7000450103C082E00E9438018091160A9091BD
:102B8000170A64E675E002960E947410009751F0EF
:102B900067E575E00E949430892B21F483E00E9460
:102BA000450103C083E00E9438016EE375E0C60171
:102BB0000E949D308091160A9091170AB6010196E5
:102BC0000E94480F2DC069E675E0C6010E94A4303E
:102BD000892B31F10E947F144FE750E062E071E0F1
:102BE0008091140A9091150A0E945830E091140ABD
:102BF000F091150ADF010D900020E9F7CD01019752
:102C00008E1B9F0BA0E0B0E09C01AD01BF018B2D9E
:102C10000E943C0980E00E94F005F7010995B5C0CB
:102C2000AE014F5F5F4FBE016B5F7F4FC6010E94D9
:102C300007058823F9F442E950E061E871E08091EA
:102C4000140A9091150A0E945830E091140AF091EC
:102C5000150ADF010D900020E9F7CD0101978E1BC9
:102C60009F0BA0E0B0E09C01AD01BF018B2D0E9445
:102C70003C098BC0E091160AF091170A6181683017
:102C800009F46FC029813A814B815C818091140ADB
:102C90009091150A0E94BB0FE091140AF091150A59
:102CA000DF010D900020E9F7CD0101978E1B9F0BEE
:102CB000A0E0B0E09C01AD01BF018B2D0E943C095A
:102CC00050C0233BB5E03B07B0E04B07B0E05B07EB
:102CD00018F003EB15E001C089014091140A5091EE
:102CE000150A6D817E818F81988598010E94690403
:102CF0008091140A9091150AFC01E00FF11F1182D6
:102D0000E091160AF091170A2181213011F0283044
:102D100021F4B8010E94C2108C01780100E010E09B
:102D20006091140A7091150AA80197018B2D0E94D9
:102D30003C098D819E81AF81B8858E0D9F1DA01F9E
:102D4000B11F8D839E83AF83B88789819A81AB81C0
:102D5000BC818E199F09A00BB10B89839A83AB8329
:102D6000BC8329813A814B815C8121153105410564
:102D7000510509F0A6CF09C0EDEDCE16E5E0DE065F
:102D800099F00894C11CD11C02C0CC24DD248B2DE9
:102D90000E94E00A7B018C018B2D0E941E0AE61620
:102DA000F7060807190741F78B2D0E94F0052AC086
:102DB0008B2D0E94F0051092EE0A8091EE0A882376
:102DC00089F48B2D90E09F938F9387E795E09F93F5
:102DD0008F930E940C3181E08093EE0A0F900F9048
:102DE0000F900F9020E030E040E550E061E08B2D47
:102DF0000E946806882319F41092EE0A03C08B2DF6
:102E00000E94C80628960FB6F894DEBF0FBECDBF4D
:102E1000DF91CF911F910F91FF90EF90DF90CF90B6
:102E2000BF900895EF92FF920F931F93CF93DF937C
:102E30008C017B01C0E0D0E05AC080910B0A88234E
:102E400009F454C08091100A9091110AA091120ABD
:102E5000B091130A83309105A105B10571F4F80111
:102E600080819181A281B38180930C0A90930D0A95
:102E7000A0930E0AB0930F0A0AC00497A105B105EA
:102E800030F0F801EC0FFD1F80810E94B805209101
:102E9000100A3091110A4091120A5091130A2F5FC3
:102EA0003F4F4F4F5F4F2093100A3093110A4093CA
:102EB000120A5093130A80910C0A90910D0AA09166
:102EC0000E0AB0910F0A0496A11DB11D28173907EB
:102ED0004A075B0759F40E94B00510920B0A80E084
:102EE0000E94F005E0E0F0E0099505C02196CE15BE
:102EF000DF0509F0A2CFDF91CF911F910F91FF90D5
:102F0000EF9008951F93182F0E94AA0B833199F117
:102F1000843118F4882319F131C0873119F08C31CC
:102F200069F519C0812F0E94820A6115710531F17E
:102F30009B0185E0253B380710F024EB35E040E0AD
:102F400050E068E67CE1812F0E94CA0788E69CE198
:102F50000E94121713C0812F0E94F0050FC0812F0D
:102F60000E945C0620E030E04BE45EEB61E0812FE4
:102F70000E94680603C0812F0E94C8061F91089511
:102F8000CF93DF93CDB7DEB724970FB6F894DEBFAB
:102F90000FBECDBF1A8219821C821B828DE895E07C
:102FA0009F938F930E940C31AE014D5F5F4FBE0126
:102FB0006F5F7F4F83E295E00E9407050F900F90AF
:102FC000882319F086EA95E002C08BEA95E00E941A
:102FD000233124960FB6F894DEBF0FBECDBFDF912C
:102FE000CF91089582EB95E00E9423310895CF930D
:102FF000DF93CDB7DEB724970FB6F894DEBF0FBED0
:10300000CDBF0E94D22160E080E00E94F32166EEF5
:1030100075E080E090E00E949C016091FB0A709155
:10302000FC0A8091FD0A9091FE0A69837A838B8362
:103030009C830E94101E0E946E20BC0181E090E0E3
:103040000E949C0124960FB6F894DEBF0FBECDBF40
:10305000DF91CF9108950F931F93CF93DF930E9439
:10306000F21787EF95E00E9423310E94F21788E162
:1030700096E09F938F930E940C31C8E0D0E80F90A8
:103080000F900CE216E0CE010E94AE0990E09F93F3
:103090008F931F930F930E940C3121960F900F90E6
:1030A0000F900F9080E8CE30D80769F784E396E060
:1030B0009F938F930E940C31C4E1D0E80F900F9042
:1030C0000AE416E0CE010E94AE0990E09F938F9330
:1030D0001F930F930E940C3121960F900F900F9029
:1030E0000F9080E8C831D80769F78EE496E09F9387
:1030F0008F930E940C31C0E1D0E80F900F900AE44A
:1031000016E0CE010E94AE0990E09F938F931F932B
:103110000F930E940C3121960F900F900F900F90FB
:1031200080E8C431D80769F784E696E09F938F93CF
:103130000E940C31C8E1D0E80F900F900AE416E02D
:10314000CE010E94AE0990E09F938F931F930F933F
:103150000E940C3121960F900F900F900F9080E8F5
:10316000CC31D80769F70E94F217DF91CF911F91F8
:103170000F910895CF93DF93CDB7DEB728970FB6A1
:10318000F894DEBF0FBECDBFDE011196E1EAF6E096
:1031900088E001900D928150E1F70E94380ACE013B
:1031A0000196BC010E94F80C882309F4FFCF2896F1
:1031B0000FB6F894DEBF0FBECDBFDF91CF9108955B
:1031C0000E9434028AE796E09F938F930E940C310D
:1031D0000E94BA180E94171A0E94272A0E94F71705
:1031E0000E942B180E94E5050E94C0170E945F22D2
:1031F0000F900F9080E090E00E94821781E00E9483
:103200002E1983E00E94CA1484E00E94CA1485E04B
:103210000E94CA1486E00E94CA1487E00E94CA1461
:10322000E9CFAFEEBAE0E9EAF6E099E101900D925C
:103230009150E1F789E1EFEEFAE0A0E0B0E0182E5E
:103240000E94B33581E0A4E0B0E0082E0E94A735CB
:10325000A5E0B0E0092E0E94A73508958F929F92B5
:10326000BF92CF92DF92EF92FF920F931F93CF9373
:10327000DF93CDB7DEB726970FB6F894DEBF0FBE4B
:10328000CDBFB82E8AE49EEB9A8389838B2D0E9452
:10329000AA0B882309F4B1C0823209F0B6C08B2D85
:1032A0000E94820AAB01161617060CF0AEC06A31F6
:1032B000710510F049E150E098E0C92E9BE0D92E4D
:1032C00083E0882E912C8C0E9D1E8E010F5F1F4F68
:1032D0009401B6018B2D0E94220889819A818A541B
:1032E0009E4B09F092C044E050E068ED76E0C601E4
:1032F0000E946130892B41F59601EFEEFAE089E1F9
:103300000190D9010D929D018150D1F786E699E691
:10331000AEE6B4E68093080B9093090BA0930A0BDA
:10332000B0930B0B8FEF8B838C838D838E830981FE
:103330001A819E012D5F3F4F49E150E068E07BE03C
:103340008B2D0E94320761C044E050E06DED76E0C5
:10335000C6010E9461307C01892B79F583E795E6EF
:10336000A4E7B4E78093080B9093090BA0930A0B92
:10337000B0930B0B8FEF8B838C838D838E830AE44A
:103380001EEB940149E150E0B6018B2D0E943207FB
:1033900082E88093080B8093090B80930A0B80933B
:1033A0000B0B89E1D701F601182E0E94B3358B2D46
:1033B0000E945C06F701099528C044E050E062EEE7
:1033C00076E0C6010E946130892B51F485B7816097
:1033D00085BF85B7826085BFE0E0F0EE099515C036
:1033E00044E050E067EE76E0C6010E946130892B30
:1033F00061F481E080930B0A08C020E030E049E4EA
:103400005EEB62E08B2D0E94680626960FB6F8945C
:10341000DEBF0FBECDBFDF91CF911F910F91FF9007
:10342000EF90DF90CF90BF909F908F90089520E015
:1034300030E0D9010E949A35802D823819F00E941F
:10344000111926C089E1EFEEFAE0D901182E0E9489
:10345000A23524E030E0D9010E949A35802D8130D8
:1034600039F4A5E0B0E00E949A35802D882359F008
:1034700081E0D901082E0E94A73580E0A5E0B0E0E8
:10348000082E0E94A73581E08093F30A1092F40A77
:103490008BEF9AE00E94890E83E09BE00E94A50ECC
:1034A0008FEF9AE00E94970E85EF9AE00E94DE0C63
:1034B0000895CC010000000000000000000001970A
:1034C000C9F7000008959C010DC088EE93E0CC017F
:1034D000000000000000000000000197C9F7000094
:1034E000215030402115310581F708959C0112C00B
:1034F0004AE050E088EE93E0CC01000000000000BC
:10350000000000000197C9F700004150504091F7BA
:10351000215030402115310559F708951F920F921F
:103520000FB60F9211242F933F934F938F939F9336
:10353000EF93FF93E091380AF091390A8CB1E85E7D
:10354000F54F808340913C0A4423E1F0E091380A32
:10355000F091390AE85EF54F8081833121F4809142
:103560003D0A82600CC0E091380AF091390AE85EA9
:10357000F54F8081813131F480913D0A8D7F8093B8
:103580003D0A09C08091380A9091390A01969093BA
:10359000390A8093380A2091380A3091390A80918B
:1035A0003A0A90913B0A28173907A1F4442349F0BD
:1035B0005D9BFECF83E18CB980913D0A8160809351
:1035C0003D0A8091380A9091390A01979093390AFF
:1035D0008093380A8091380A9091390A8097ACF02C
:1035E0001092390A1092380A2091380A3091390A1B
:1035F00080913A0A90913B0A2817390731F480E20A
:1036000090E09093390A8093380AFF91EF919F914F
:103610008F914F913F912F910F900FBE0F901F9060
:103620001895882391F48091950088608093950087
:10363000662331F4809195008D7F809395000895E5
:10364000809195008260809395000895882369F4A5
:10365000662331F480919500877F809395000895CB
:10366000809195008860809395000895882399F44F
:10367000662321F4809195008F7C05C0613031F480
:10368000809195008F7E809395000895809195009C
:103690008063809395000895882311F460933C0A19
:1036A0000895882319F020E030E022C02091380AE4
:1036B0003091390A80913A0A90913B0A28173907CC
:1036C0005CF02091380A3091390A80913A0A909141
:1036D0003B0A281B390B0CC080913A0A90913B0A97
:1036E0002091380A3091390A281B390B205E3F4F50
:1036F000C9010895982F80913D0A282F30E022704B
:10370000307080913C0A882319F021153105E9F7C2
:103710005D9BFECF9CB908952091380A3091390AFB
:1037200080913A0A90913B0A28173907A9F38091B2
:103730003A0A90913B0AFC01E85EF54FE081019660
:1037400090933B0A80933A0A80913C0A882359F06F
:1037500090913D0A90FF07C05D9BFECF81E18CB93F
:103760009E7F90933D0A80913A0A90913B0A809700
:1037700024F010923B0A10923A0A8E2F90E008959E
:10378000CF93DF93882361F4EB0107C0E091400AF7
:10379000F091410A60E070E0099589918823B1F7C2
:1037A000DF91CF9108959F92AF92BF92CF92DF9217
:1037B000EF92FF920F931F93CF93DF937B01942E91
:1037C0005901882319F0CC24DD2490C0EB0101E0DD
:1037D000CC24DD247AC0002379F0113269F408C0CA
:1037E0002196E091400AF091410A60E070E009956D
:1037F00088818823A9F765C0183009F5EC16FD0605
:1038000009F447C0E091400AF091410A60E070E09D
:1038100088E00995E091400AF091410A60E070E08B
:1038200080E20995E091400AF091410A60E070E081
:1038300088E0099521970894C108D10846C01B313A
:1038400041F58E011AC0E091400AF091410A60E012
:1038500070E088E00995E091400AF091410A60E04B
:1038600070E080E20995E091400AF091410A60E041
:1038700070E088E00995015010400E151F0519F7FA
:10388000C7018C1B9D0BC80FD91FC80ED91E01E0A4
:103890001CC0812F80528F3510F01930B1F4CA143A
:1038A000DB049CF4E091400AF091410A992021F058
:1038B00060E070E08AE203C060E070E0812F09956B
:1038C00019930894C11CD11C00E0E0913E0AF091CC
:1038D0003F0A80E090E00995182F8D3009F07BCFEA
:1038E00018826CEE76E080E00E94C01BC601DF917A
:1038F000CF911F910F91FF90EF90DF90CF90BF90ED
:10390000AF909F900895882341F480913A0A909156
:103910003B0A9093390A8093380A0895662319F474
:103920002FEC30E033C0613019F427E630E02EC0D0
:10393000623019F423E330E029C0633019F422E245
:1039400030E024C0643019F429E130E01FC0653054
:1039500019F420E130E01AC0663019F42CE030E0B0
:1039600015C0673019F428E030E010C0683019F451
:1039700026E030E00BC0693019F423E030E006C0E7
:1039800020E030E06A3011F421E030E0882331F5A6
:1039900083B1836083B91098119A88E98AB9832F1B
:1039A00099278093900029B96CE87BE170933F0AD6
:1039B00060933E0A8AE79BE19093410A8093400A14
:1039C0000E94BE301092390A1092380A10923B0AB7
:1039D00010923A0A10923C0A10923D0A0895482F1C
:1039E000282F30E02A30310510F4405D05C0C901B0
:1039F0000A97069720F4495C842F90E00895C90146
:103A00000895982F80538A3060F0892F8156863030
:103A100010F4975505C0892F8154863020F49753B0
:103A2000892F90E00895892F90E00895EF92FF92FA
:103A30000F931F93CF93DF93EC017B0180E090E025
:103A40000EC021968E9D80018F9D100D9E9D100DA4
:103A50001124822F0E94011D080F111DC801288109
:103A6000222379F7DF91CF911F910F91FF90EF9073
:103A70000895CF92DF92EF92FF920F931F93CF930F
:103A8000DF938C017B016A010097D1F0FC018081FA
:103A90008823B1F0E80107C00E94011D90E08E1557
:103AA0009F0574F4219688818823B1F7B701C80176
:103AB0000E94161DF6019183808381E090E002C090
:103AC00080E090E0DF91CF911F910F91FF90EF90F8
:103AD000DF90CF900895DC0180E090E009C03217BC
:103AE00029F0319620812223D1F70895019611966D
:103AF0003C91332311F0FB01F5CF0895DC0109C09F
:103B0000981711F4CD010895319680818823C1F76B
:103B100011969C91992311F0FB01F7CF80E090E082
:103B200008950F931F93CF93DF938B01009711F0AC
:103B3000EC0106C0C091620AD091630A2097F1F0AF
:103B4000B801CE010E946B1DC80FD91F8881882340
:103B500039F41092630A1092620AC0E0D0E00EC0FD
:103B6000B801CE010E947E1DFC01892B19F08081D5
:103B700081111192F093630AE093620ACE01DF9102
:103B8000CF911F910F910895FC0104C0861709F48D
:103B90004083319680818823C9F70895382F2227E2
:103BA000892F9927822B932B0895EF92FF920F93E1
:103BB0001F937B018C01562F442733272227692F1F
:103BC000772788279927622B732B842B952B2F2DF2
:103BD00030E040E050E0A90133272227622B732B0D
:103BE000842B952B202F30E040E050E0542F432FC2
:103BF000322F2227622B732B842B952B1F910F9131
:103C0000FF90EF9008950E94D51D08950E94CE1D4B
:103C100008950E94061EA0E0B0E0BC01CD01089509
:103C20000E94031E0895CF92DF92EF92FF920F93AE
:103C30001F93CF93DF936C017B01FB01F695E79512
:103C4000EC0100E010E040E050E060E070E010C007
:103C5000888190E0982F88272981820F911DA0E00C
:103C6000B0E0480F591F6A1F7B1F0F5F1F4F22963E
:103C70000E171F0769F7E0FE0EC0EE0FFF1FEC0DD9
:103C8000FD1D808190E0982F8827A0E0B0E0480FCC
:103C9000591F6A1F7B1FCB01AA27BB27840F951FC3
:103CA00080959095DF91CF911F910F91FF90EF90AC
:103CB000DF90CF900895EF92FF920F931F93CF93D1
:103CC000DF937B0190E046E0880F991F4A95E1F76A
:103CD000EC01C45FDD478C010E5E1D47CE010E94E2
:103CE000AE09F70181937F012196C017D107B1F783
:103CF000DF91CF911F910F91FF90EF9008950F9357
:103D00001F93CF93DF938C01C8E0D0E8CE010E94CF
:103D1000AE09F80181938F012196F0E8CE30DF07DC
:103D2000A9F7DF91CF911F910F910895EF92FF9224
:103D30000F931F93CF93DF9360E070E080E090E0FB
:103D4000C4E1D0E8EE24F62E072F182FCE010E94F2
:103D5000AE09E80EF11C011D111DC801B701219625
:103D600020E8C831D20771F7DF91CF911F910F91F1
:103D7000FF90EF900895EF92FF920F931F93CF93D0
:103D8000DF9360E070E080E090E0C0E1D0E8EE24F6
:103D9000F62E072F182FCE010E94AE09E80EF11C57
:103DA000011D111DC801B701219620E8C431D207B9
:103DB00071F7DF91CF911F910F91FF90EF900895D0
:103DC000EF92FF920F931F93CF93DF9360E070E029
:103DD00080E090E0C8E1D0E8EE24F62E072F182FFF
:103DE000CE010E94AE09E80EF11C011D111DC80193
:103DF000B701219620E8CC31D20771F7DF91CF913E
:103E00001F910F91FF90EF900895AF92BF92CF92C4
:103E1000DF92FF920F931F93CF93DF93CDB7DEB75F
:103E200024970FB6F894DEBF0FBECDBF69837A83A7
:103E30008B839C835E010894A11CB11CA4E1CA2E53
:103E4000A0E8DA2EF5011081C6010E94AE09F82E15
:103E5000C60104960E94AE09082FC6010E94AE0951
:103E60001F210823101719F081E090E00DC008947D
:103E7000A11CB11C0894C11CD11CF8E1CF16F0E8BC
:103E8000DF0601F780E090E024960FB6F894DEBFDD
:103E90000FBECDBFDF91CF911F910F91FF90DF90AB
:103EA000CF90BF90AF900895EF92FF920F931F9322
:103EB000E82EFF2416E0EE0CFF1C1A95E1F7C7016F
:103EC0008E5E9D470E94AE09082F10E0102F00273C
:103ED000C7018D5E9D470E94AE09080F111DC801E4
:103EE0001F910F91FF90EF900895CF92DF92EF9284
:103EF000FF920F931F93CF93DF9390E076E0880FAC
:103F0000991F7A95E1F7EC01CC5EDD4720E030E0C7
:103F100040E050E068E1C62E62E8D62EC80ED91EF9
:103F2000EE24F22E032F142FCE010E94AE09A80119
:103F30009701280F311D411D511D2196CC15DD051E
:103F400079F7CA01B901DF91CF911F910F91FF90CD
:103F5000EF90DF90CF9008950F931F93082F643058
:103F600008F060E0162F812F0E94AA0B801719F429
:103F7000812F90E005C01F5F1830A8F388E090E023
:103F80001F910F910895CF92DF92EF92FF920F93BE
:103F90001F93CF93DF93CDB7DEB7E4970FB6F894B6
:103FA000DEBF0FBECDBF8E010D5F1F4FBC01C8012C
:103FB0000E949D30EE24FF24C801EFEECE2EE6E0F5
:103FC000DE2E8E010F5F1F4FB6010E94911DFC0176
:103FD000892B31F18081803349F48181883731F434
:103FE000A80160E170E0CF01029604C0A8016AE078
:103FF00070E0CF010E94391D892B91F089819A814F
:104000008F3F910509F060F40894E11CF11C80E0F9
:1040100090E024E0E216F104B9F681E090E002C0FD
:1040200080E090E0E4960FB6F894DEBF0FBECDBFFF
:10403000DF91CF911F910F91FF90EF90DF90CF9084
:104040000895CF92DF92EF92FF920F931F93CF9339
:10405000DF93CDB7DEB76E970FB6F894DEBF0FBE15
:10406000CDBF7B01BC018E010F5F1F4FC8010E94B5
:104070009D30C80100E010E0FFEECF2EF6E0DF2E0D
:10408000B6010E94911DFC018081803341F4818141
:10409000883729F460E170E0CF01029603C06AE03E
:1040A00070E0CF010E94161DF701E00FF11F808321
:1040B0000F5F1F4F80E090E00430110509F76E9606
:1040C0000FB6F894DEBF0FBECDBFDF91CF911F9129
:1040D0000F91FF90EF90DF90CF9008950F931F9373
:1040E00002E41AE020E1F80111922A95E9F79B0118
:1040F00030703F932F93272F382F492F552730703B
:104100003F932F939C014427552730703F932F9363
:10411000692F77278827992770707F936F9381EF96
:1041200096E09F938F931F930F930E9456318DB704
:104130009EB70C960FB6F8949EBF0FBE8DBFC801F8
:104140001F910F9108950F931F9302E51AE020E14C
:10415000F80111922A95E9F79B0130703F932F9354
:10416000272F382F492F552730703F932F939C01CD
:104170004427552730703F932F93692F772788273F
:10418000992770707F936F9385E097E09F938F934B
:104190001F930F930E9456318DB79EB70C960FB6A2
:1041A000F8949EBF0FBE8DBFC8011F910F91089557
:1041B0000F931F93CF93DF93CDB7DEB726970FB63C
:1041C000F894DEBF0FBECDBF81E197E00E9423319E
:1041D00085E497E00E94233104E617E0C8010E94BD
:1041E0002331CE0101960E947F1E8E8190E09F9325
:1041F0008F938D8190E09F938F938C8190E09F931C
:104200008F938B8190E09F938F938A8190E09F930F
:104210008F93898190E09F938F9386E997E09F9396
:104220008F930E940C310E94961E0E94A3209F93A0
:104230008F9385ED97E09F938F930E940C310E949E
:10424000BB1E0E94A3209F938F938DEE97E09F93B8
:104250008F930E940C310E94E01E0E94A3209F9326
:104260008F9385E098E09F938F930E940C31C80153
:104270000E9423318DB79EB74A960FB6F8949EBF21
:104280000FBE8DBF26960FB6F894DEBF0FBECDBF12
:10429000DF91CF911F910F910895CF93DF93CDB709
:1042A000DEB726970FB6F894DEBF0FBECDBF84E60B
:1042B00090E01BC01A82198211C01C821B8205C0AB
:1042C0008B819C8101969C838B838B819C81892B24
:1042D000B9F389819A8101969A83898389819A8128
:1042E000039758F38D819E8101979E838D838D81E5
:1042F0009E81892BF9F681E090E026960FB6F8941E
:10430000DEBF0FBECDBFDF91CF910895CF93DF9376
:10431000CDB7DEB724970FB6F894DEBF0FBECDBF82
:104320009C011AC01A82198211C01C821B8205C00E
:104330008B819C8101969C838B838B819C81892BB3
:10434000B9F389819A8101969A83898389819A81B7
:10435000039758F3215030402115310519F7249661
:104360000FB6F894DEBF0FBECDBFDF91CF91089599
:104370001F93182F84E690E00E9486211A981B98BC
:1043800082B3912F907F8F70982B92BB1F9A1F98AA
:1043900082B31295107F8F70812B82BB1F9A1F985A
:1043A0001F9108950E944D2181E090E00E94B82164
:1043B00008951F93182F84E690E00E9486211A9A90
:1043C0001B9882B3912F907F8F70982B92BB1F9A6E
:1043D0001F9882B31295107F8F70812B82BB1F9A1A
:1043E0001F981F9108950F931F93082F162F0E9457
:1043F0004D21113051F0113028F0123049F01330B6
:1044000071F409C0802F805808C0802F805405C0E7
:10441000802F8C5602C0802F8C520E94B8211F9191
:104420000F910895139A129A179A81B3806F81BBE6
:104430001F981A981B9888E20E94B8218CE10E946C
:10444000B8218CE00E94B82181E00E94B82182E06E
:104450000E94B8218CE19CE00E9486210E94D2211A
:1044600060E080E00E94F32181E090E00895EF9207
:10447000FF920F931F93CF93DF937C0100E010E036
:1044800005C00E944D2188810E94D921E701C00FFB
:10449000D11D0F5F1F4F8881882399F7C701DF91D6
:1044A000CF911F910F91FF90EF9008951F93182FB8
:1044B0000E944D21812F0E94D9211F910895B89A01
:1044C000C09A0895EF92FF920F931F937C01C098BA
:1044D00080E090E00E945902182F002780E090E0D1
:1044E0000E945902082B192BC09AC80133E09695F7
:1044F00087953A95E1F79370F70191838083812F37
:10450000992787FD90958827990F881F99271F91D4
:104510000F91FF90EF9008951F920F920FB60F9298
:1045200011242F933F934F935F936F937F938F93B8
:104530009F93AF93BF93EF93FF938091640A909101
:10454000650A01969093650A8093640A8134910507
:104550005CF01092650A1092640AE091210BF091D0
:10456000220B309709F0099587E884BDFF91EF9100
:10457000BF91AF919F918F917F916F915F914F917B
:104580003F912F910F900FBE0F901F901895F894A8
:104590001092220B1092210B87B78F7B87BF87E881
:1045A00084BD85E085BD1092650A1092640A7894F6
:1045B0000895FC01F89487B7806487BF6115710581
:1045C00031F0EE0FFF1FEF5DF44F7183608378943D
:1045D0000895FC01F894EE0FFF1FEF5DF44F118278
:1045E00010828091210B9091220B892B39F487B78F
:1045F0008F7B87BF1092650A1092640A78940895A1
:104600008091810A9091820AA091830AB091840AD4
:104610000196A11DB11D8093810A9093820AA093F7
:10462000830AB093840A089508951F93182F88E78A
:1046300096E5A4E3B2E18093890A90938A0AA09355
:104640008B0AB0938C0A1092660A1092670A109235
:10465000680A1092690A1092230B1092240B109290
:10466000250B1092260B1092270B1092280B1092FC
:10467000290B10922A0B0E94380A86E69AE00E94C3
:10468000890E8BE29BE00E94DE0C65E570E085E51B
:1046900090E00E94F80C20E030E044E450E062E05A
:1046A000812F0E94680610938D0A90E0882309F4F8
:1046B00091E081E09827892F90E01F910895282F9D
:1046C0006115710539F480E893E290936B0A809349
:1046D0006A0A04C070936B0A60936A0A4115510517
:1046E00039F484E193E290936D0A80936C0A04C0DC
:1046F00050936D0A40936C0A822F0E9415230895EF
:10470000CF93DF93CDB7DEB728970FB6F894DEBF0F
:104710000FBECDBFDE011196E2E5F8E088E0019022
:104720000D928150E1F70E94380A83E29BE00E94DB
:10473000A50E87E29BE00E94970E86E69AE00E9413
:10474000890ECE010196BC010E94F80C28960FB686
:10475000F894DEBF0FBECDBFDF91CF910895FF92D9
:104760000F931F93CF93DF93CDB7DEB724970FB688
:10477000F894DEBF0FBECDBFF82EE0E0F1E1F0937C
:104780008F0AE0938E0A84E292E011920197E9F792
:1047900000918E0A10918F0A81E0F8018083818355
:1047A00086E0828313826091890A70918A0A8091DF
:1047B0008B0A90918C0A0E94031EF8016483758312
:1047C0008683978300918E0A10918F0A80E090E093
:1047D0000E94061EF8019187808780917A0A0091D5
:1047E0008E0A10918F0A833040F480E090E80E9496
:1047F000061EF801938782870FC0F8011386128680
:104800008091660A84878091670A85878091680A0B
:1048100086878091690A8787A0918E0AB0918F0A56
:1048200080912B0BFD01848F80912C0B858F8091C3
:104830002D0B868F80912E0B878F80912F0B80A35D
:104840008091300B81A3A451BF4F93E69D9382E8E2
:104850008D9383E58D939D9385E38D9391E09D9357
:1048600083E08D938DE38D9387E08D939D9380916D
:104870002B0B8D9380912C0B8D9380912D0B8D9311
:1048800080912E0B8D9380912F0B8D938091300B07
:104890008C93AB5FB04080917A0A833018F000E1CE
:1048A00010E025C0A450BF4F82E38D9394E09D9308
:1048B0008091660A8D938091670A8D938091680A32
:1048C0008D938091690A8D9386E38D939D9380915A
:1048D0006E0A8D9380916F0A8D938091700A8D93EB
:1048E0008091710A8C93A750B1400CE110E0FD015A
:1048F000E00FF11FE451FF4F8CE0808398012F5FA0
:104900003F4FFD01E20FF31FE451FF4F89E0808329
:10491000A20FB31F6DE178E0CD0183519F4F0E943C
:104920009D3060918E0A70918F0AFB01E00FF11F9C
:10493000EC50FF4F80912E0B8083FB01E00FF11FA5
:10494000EB50FF4F80912F0B8083FB01E00FF11F95
:10495000EA50FF4F8091300B8083FB01E00FF11F85
:10496000E950FF4F87E38083FB01E00FF11FE85020
:10497000FF4F88E08083FB01E00FF11FE750FF4FFE
:1049800081E08083FB01E00FF11FE650FF4F83E0E1
:104990008083FB01E00FF11FE550FF4F86E080832D
:1049A000FB01E00FF11FE450FF4F8FE08083FB011C
:1049B000E00FF11FE350FF4F8AE38083FB01E00F1C
:1049C000F11FE250FF4F8BE38083FB01E00FF11FEB
:1049D000E150FF4F8FE18083F8017496E60FF71FD7
:1049E000E451FF4F81E281939FEF908380917A0A97
:1049F000833028F499839A839B839C830CC0809195
:104A00006E0A898380916F0A8A838091700A8B83F2
:104A10008091710A8C8303E410E09E012F5F3F4F69
:104A200044E252E08F2D0E943207892B39F4E09145
:104A30006C0AF0916D0A309709F0099524960FB62B
:104A4000F894DEBF0FBECDBFDF91CF911F910F91C4
:104A5000FF900895DF92EF92FF920F931F93CF93F1
:104A6000DF93CDB7DEB724970FB6F894DEBF0FBE45
:104A7000CDBFD82EE0E0F1E1F0938F0AE0938E0AEB
:104A800010926E0A10926F0A1092700A1092710AB8
:104A90001092720A1092730A1092740A1092750A98
:104AA00084E292E011920197E9F700918E0A109149
:104AB0008F0AFF24F394F801F082F18286E0E82E59
:104AC000E28213826091890A70918A0A80918B0A2E
:104AD00090918C0A0E94031EF8016483758386837B
:104AE000978300918E0A10918F0A80E090E00E94D7
:104AF000061EF8019187808700918E0A10918F0A17
:104B000080E090E80E94061EF80193878287E0917A
:104B10008E0AF0918F0A80912B0B848F80912C0B41
:104B2000858F80912D0B868F80912E0B878F8091A2
:104B30002F0B80A38091300B81A3DF01A451BF4FC5
:104B400093E69C93E351FF4F82E8819383E5819341
:104B5000919385E38193F192F1928DE3819387E0C4
:104B60008193F19280912B0B819380912C0B8193F7
:104B700080912D0B819380912E0B819380912F0B2F
:104B800081938091300B81938CE0819389E08083C5
:104B90006DE178E0CD0142960E949D30E0918E0A51
:104BA000F0918F0AEC5FFE4F80912E0B81938091E4
:104BB0002F0B81938091300B819387E38193E19256
:104BC000F19283E08193E1928FE081938AE3819374
:104BD0008BE381938FEF8083EF50F14089838A8349
:104BE0008B838C8303E410E09E012F5F3F4F44E2F0
:104BF00052E0BF018D2D0E943207892B39F4E091DC
:104C00006C0AF0916D0A309709F0099524960FB659
:104C1000F894DEBF0FBECDBFDF91CF911F910F91F2
:104C2000FF90EF90DF9008951F9360917B0A6330AF
:104C300008F03FC02091850A3091860A4091870A8A
:104C40005091880A8091810A9091820AA091830AEA
:104C5000B091840A281739074A075B0708F048C053
:104C60001092810A1092820A1092830A1092840A8A
:104C700085E090E0A0E0B0E08093850A9093860AFA
:104C8000A093870AB093880A6F5F60937B0A809134
:104C90007A0A823049F0843039F0813049F58091C8
:104CA0008D0A0E942A2524C080918D0A0E94AF237C
:104CB0001FC01092810A1092820A1092830A1092E9
:104CC000840A85E090E0A0E0B0E08093850A9093AC
:104CD000860AA093870AB093880A10927B0A11E093
:104CE00010937C0A80918D0A0E942A2510937A0ADB
:104CF0001F9108957F928F929F92AF92BF92CF9211
:104D0000DF92EF92FF920F931F93CF93DF93CDB774
:104D1000DEB72C970FB6F894DEBF0FBECDBFA82E1E
:104D200087E08A1508F44EC18A2D0E94AA0B8823B9
:104D300009F448C18A2D0E94820AAB01BC014115C9
:104D4000510509F447C180E099E190938F0A80935F
:104D50008E0A8E010F5F1F4F9E01295F3F4F60E05B
:104D600079E18A2D0E9422086C0100918E0A10912F
:104D70008F0AF8018081823009F020C189819A81EF
:104D80008334910509F01AC146E050E06BE27BE004
:104D9000C8014C960E946130892B09F00FC1F801BF
:104DA000E480F580068117816091890A70918A0AF2
:104DB00080918B0A90918C0A0E94031EE616F706DA
:104DC0000807190709F0FAC0E0906E0AF0906F0A20
:104DD0000091700A1091710AE114F10401051105A6
:104DE000B9F02F81388549855A858091720A909152
:104DF000730AA091740AB091750A82179307A407E9
:104E0000B50731F0E216F3060407150709F0D6C01E
:104E1000E0918E0AF0918F0A80899189A289B389E5
:104E20008093660A9093670AA093680AB093690A10
:104E3000DF01A051BF4F4F018C0C9D1C7724BAC0DD
:104E40008D010F5F1F4F8C91863009F446C087306B
:104E500048F48130F1F0813008F4A9C0833009F0C2
:104E6000A3C029C0853371F0863320F4833309F061
:104E70009BC045C0863309F456C08F3F09F094C0EB
:104E8000872D9EC0FD01B1800F5F1F4FF80170801C
:104E90008EC0FD01B1800F5F1F4FF80180819181AD
:104EA000A281B3818093270B9093280BA093290BA9
:104EB000B0932A0B7CC0FD01B1800F5F1F4FF8013A
:104EC00080819181A281B3818093230B9093240BE5
:104ED000A093250BB093260B6AC0FD01B1800F5F34
:104EE0001F4FF80180819181A281B38180934E0888
:104EF00090934F08A0935008B093510858C0FD01FB
:104F0000B1800F5F1F4FF8016081718182819381B1
:104F10000E94101E60937D0A70937E0A80937F0A20
:104F20009093800A44C0FD01B1800F5F1F4FC09075
:104F30006E0AD0906F0AE090700AF090710AC11466
:104F4000D104E104F104B1F02F81388549855A85F7
:104F50008091720A9091730AA091740AB091750AB7
:104F600082179307A407B50729F0C216D306E406F3
:104F7000F506E9F4F80180819181A281B3818093E3
:104F80006E0A90936F0AA093700AB093710A8F8192
:104F90009885A985BA858093720A9093730AA09325
:104FA000740AB093750A03C0F801B1908F01D8015B
:104FB000AB0DB11DA815B90508F442CF80E090E013
:104FC000182F09C020E030E044E450E062E08A2D70
:104FD0000E94680610E080917A0A823061F1833085
:104FE00020F4813009F0DCC107C0833009F400C12E
:104FF000843009F0D5C15FC1123009F0CFC11092E1
:10500000810A1092820A1092830A1092840A85E023
:1050100090E0A0E0B0E08093850A9093860AA09388
:10502000870AB093880A10927B0A8A2D0E94AF23C8
:1050300010937A0AB5C1153009F094C11092810A13
:105040001092820A1092830A1092840A85E090E0FE
:10505000A0E0B0E08093850A9093860AA093870A27
:10506000B093880A10927B0A08E813E126E63AE03A
:1050700041E150E064E278E080918D0A0E943207BD
:10508000892B19F40E9480236BC1E0908D0AE0E027
:10509000F1E1F0938F0AE0938E0A84E292E011929C
:1050A0000197E9F700918E0A10918F0AFF24F3947B
:1050B000F801F082F18286E0828313826091890A8E
:1050C00070918A0A80918B0A90918C0A0E94031E2B
:1050D000F801648375838683978300918E0A10910B
:1050E0008F0A80E090E00E94061EF8019187808779
:1050F000E0918E0AF0918F0A1386128680912B0B15
:10510000848F80912C0B858F80912D0B868F8091C1
:105110002E0B878F80912F0B80A38091300B81A362
:10512000E451FF4F93E6919382E8819383E5819365
:10513000919385E38193F19294E091938DE3819330
:1051400087E08193F19280912B0B819380912C0BBE
:10515000819380912D0B819380912E0B819380916F
:105160002F0B81938091300B819386E381939193F0
:1051700080916E0A819380916F0A81938091700A69
:1051800081938091710A819382E3819391938091BD
:10519000660A81938091670A81938091680A81935E
:1051A0008091690A81938FEF8083E850F1408B836F
:1051B0008C838D838E8303E410E09E012D5F3F4F2F
:1051C00044E252E0BF018E2D0E943207892B39F450
:1051D000E0916C0AF0916D0A309709F00995E09121
:1051E0006C0AF0916D0A309709F4D4C00995D2C0C9
:1051F00020917D0A30917E0A40917F0A5091800A69
:105200002F3FFFEF3F07FFEF4F07FFEF5F0709F467
:10521000C7C056954795379527958091810A9091FB
:10522000820AA091830AB091840A281739074A0795
:105230005B0708F0B5C08091660A9091670AA0915B
:10524000680AB091690A8093760A9093770AA093CE
:10525000780AB093790A8091890A90918A0AA0917C
:105260008B0AB0918C0A0196A11DB11D8093890A09
:1052700090938A0AA0938B0AB0938C0A8A2D0E947D
:10528000AF2384E080937A0A1092810A1092820AF6
:105290001092830A1092840A85E090E0A0E0B0E0CA
:1052A0008093850A9093860AA093870AB093880A10
:1052B00010927B0A75C0153009F054C044E050E0EC
:1052C00066E67AE086E79AE00E946130892B91F1E8
:1052D0006091660A7091670A8091680A9091690AE4
:1052E0000E94101E0E94A3208C016091760A70918A
:1052F000770A8091780A9091790A0E94101E0E9484
:10530000A3201F930F939F938F9386E398E09F931F
:105310008F930E940C31E0916A0AF0916B0A8DB76D
:105320009EB706960FB6F8949EBF0FBE8DBF3097FE
:1053300009F009951092810A1092820A1092830A4C
:105340001092840A85E090E0A0E0B0E08093850AA6
:105350009093860AA093870AB093880A10927B0ADA
:1053600083E019C01630D1F41092810A1092820A9B
:105370001092830A1092840A85E090E0A0E0B0E0E9
:105380008093850A9093860AA093870AB093880A2F
:1053900010927B0A81E080937A0A02C00E94142650
:1053A0002C960FB6F894DEBF0FBECDBFDF91CF9124
:1053B0001F910F91FF90EF90DF90CF90BF90AF9033
:1053C0009F908F907F90089580918D0A0E942A254A
:1053D00081E080937A0A1092810A1092820A1092D8
:1053E000830A1092840A85E090E0A0E0B0E0809308
:1053F000850A9093860AA093870AB093880A109230
:105400007B0A60E073E280E090E00E94D922109273
:105410007C0A0FC080917C0A813039F480E090E0F2
:105420000E94E92280E090E0089580918D0A0E9418
:105430007A2680917A0A833069F781E090E00895B6
:105440000C940000089582E00E947A26089589E174
:105450002FEE3AE0A0E0B0E0F901182E0E94A2354C
:10546000ABE2BBE0F901369686E001900D928150E7
:10547000E1F78091070B882309F461C00E94C722DD
:105480008AE598E09F938F930E940C316FE678E055
:1054900081E090E00E949C0140E25AE2BA0182E081
:1054A0000E945F230E94E4290F900F90892B59F4EA
:1054B0008FE798E00E94233168E978E081E090E08E
:1054C0000E949C01089589EA98E00E94233180910E
:1054D000230B9091240BA091250BB091260B809368
:1054E000030B9093040BA093050BB093060B8091D4
:1054F000270B9091280BA091290BB0912A0B809338
:10550000FF0A9093000BA093010BB093020B8091C4
:10551000660A9091670AA091680AB091690A80931F
:10552000FB0A9093FC0AA093FD0AB093FE0A89E15E
:10553000EFEEFAE0A0E0B0E0182E0E94B335089537
:10554000EF92FF920F931F937B018C0120E030E0DC
:1055500040E05FE40E94692D88237CF020E030E089
:1055600040E05FE4C801B7010E940C2C0E949F2D0F
:10557000605070408040904804C0C801B7010E944C
:105580009F2D1F910F91FF90EF900895A0E0B0E044
:10559000ECECFAE20C9465352C015B01FA01DC01BC
:1055A0009C91923008F432C1EB018881823008F47A
:1055B0002CC1943071F4843009F028C1F20191813A
:1055C0008981981709F422C116EC412E18E0512E5A
:1055D0001DC1843009F419C18230A9F4923009F058
:1055E00015C1CA01A20128E0DA010D90AD01EC015C
:1055F0000992CE012150C1F7E5018981E20199812B
:105600008923818300C1923009F4FFC0E201CA807E
:10561000DB80EB018A819B81E2012C813D814E81FF
:105620005F81EB01EC80FD800E811F81B601681B5C
:10563000790BDB0177FF03C0709561957F4F603276
:1056400071050CF05DC01A161B065CF56624772404
:10565000430181E090E0A0E0B0E0062E04C0880F96
:10566000991FAA1FBB1F0A94D2F70197A109B1097C
:105670008E219F21A023B1230097A105B10529F018
:10568000B1E06B2E712C812C912C04C016950795DE
:10569000F794E7946A95D2F7E628F728082919299C
:1056A0003BC0AB2BC9F1C60ED71E6624772443013D
:1056B00081E090E0A0E0B0E0062E04C0880F991FC2
:1056C000AA1FBB1F0A94D2F70197A109B10982232F
:1056D0009323A423B5230097A105B10529F0A1E0E8
:1056E0006A2E712C812C912C04C0569547953795C4
:1056F00027956A95D2F726293729482959290CC0B8
:105700008C159D0534F06C0120E030E040E050E065
:1057100003C0EE24FF248701E2019981E50189811C
:10572000981709F443C0992339F0E21AF30A040BDD
:10573000150BA801970104C02E193F09400B510B0E
:1057400057FD08C01182D382C282248335834683E9
:1057500057831DC081E08183D382C2828827992725
:10576000DC01821B930BA40BB50B84839583A6836A
:10577000B7830DC0220F331F441F551F2483358369
:105780004683578382819381019793838283248107
:10579000358146815781DA01C9010197A109B10913
:1057A0008F5F9F4FAF4FBF4328F30BC09183D382CE
:1057B000C2822E0D3F1D401F511F24833583468317
:1057C000578383E080832481358146815781552327
:1057D000D4F4C901AA2797FDA095BA2F81709070C3
:1057E000A070B0705695479537952795822B932BCF
:1057F000A42BB52B84839583A683B7838281938161
:105800000196938382832F0101C02501C201E0E14B
:10581000CDB7DEB70C948135A0E2B0E0E2E1FCE266
:105820000C946F3569837A838B839C832D833E83AD
:105830004F83588709E0E02EF12CEC0EFD1EB701D6
:10584000CE0101960E94922F8E010F5E1F4FB8016C
:10585000CE0105960E94922F8A8991E089278A8B32
:10586000AE01475E5F4FB801C7010E94C62A0E9481
:10587000B22EE6E0A0960C948B35A0E2B0E0E3E413
:10588000FCE20C946F3569837A838B839C832D8330
:105890003E834F83588789E0E82EF12CEC0EFD1EE5
:1058A000B701CE0101960E94922F8E010F5E1F4F0D
:1058B000B801CE0105960E94922FAE01475E5F4F60
:1058C000B801C7010E94C62A0E94B22EE6E0A09647
:1058D0000C948B35A0E2B0E0E0E7FCE20C94653577
:1058E00069837A838B839C832D833E834F83588780
:1058F00099E0E92EF12CEC0EFD1EB701CE010196C8
:105900000E94922F8E010F5E1F4FB801CE010596A7
:105910000E94922F9985923088F089898230C0F058
:10592000943019F4823029F009C0843029F492307F
:1059300079F466EC78E0C6C0923041F420E09A85B4
:105940008A89981321E02A87B701BCC0823041F4CC
:1059500020E09A858A89981321E02A8BB801B2C089
:10596000CD84DE84EF84F8880D891E892F89388DD7
:1059700088249924540140E050E060E070E0442421
:1059800055243201E0E0F0E0C60181709070892B6F
:10599000D9F0800E911EA21EB31EDB01CA01840D38
:1059A000951DA61DB71D40E050E060E070E0801638
:1059B0009106A206B30620F441E050E060E070E0FA
:1059C000480F591F6A1F7B1F440C551C661C771C0F
:1059D00037FF08C081E090E0A0E0B0E0482A592AF3
:1059E0006A2A7B2A3196E032F10549F0000F111F37
:1059F000221F331FF694E794D794C794C5CF8B89A1
:105A00009C892B853C85820F931F02969C8F8B8FE0
:105A10001A8E9A858A89981711F081E08A8F2B8DCA
:105A20003C8D17C0CA0181709070892B61F0B694CB
:105A3000A7949794879480E090E0A0E0B0E8882A4B
:105A4000992AAA2ABB2A76956795579547952F5F7D
:105A50003F4F77FDE7CFC9010BC0440F551F661FAD
:105A6000771FB7FC4160880C991CAA1CBB1C0197CE
:105A70004030A0E05A07A0E06A07A0E47A0768F384
:105A80009C8F8B8FDB01CA018F779070A070B070F4
:105A900080349105A105B10561F447FD0AC0811468
:105AA0009104A104B10429F0405C5F4F6F4F7F4F18
:105AB00040784D8F5E8F6F8F78A383E0898FBE0112
:105AC000675E7F4FCB010E94B22EE0E1A0960C945E
:105AD0008135A8E1B0E0EFE6FDE20C946F35698313
