:020000021000EC
:10E000000C9446F00C9465F00C9465F00C9465F05B
:10E010000C9465F00C9465F00C9465F00C9465F02C
:10E020000C9465F00C9465F00C9465F00C9465F01C
:10E030000C9465F00C9465F00C9465F00C9465F00C
:10E040000C9465F00C9465F00C9465F00C9465F0FC
:10E050000C9465F00C9465F00C9465F00C9465F0EC
:10E060000C9465F00C9465F00C9465F00C9465F0DC
:10E070000C9465F00C9465F00C9465F00C9465F0CC
:10E080000C9465F00C9465F00C9465F011241FBE9F
:10E09000CFEFD0E1DEBFCDBF11E0A0E0B1E0E4E022
:10E0A000FEEF01E00BBF02C007900D92A43DB10747
:10E0B000D9F713E0A4EDB1E001C01D92AE38B1076D
:10E0C000E1F70E94F3F00C9400FF0C9400F0CC01F7
:10E0D000A4E0AA95F1F70197D9F70000089548EE5A
:10E0E00053E00DC02AE030E0CA01A4E0AA95F1F7A0
:10E0F0000197D9F7000021503040B1F70197009700
:10E1000089F7089528EE33E008C0C901A4E0AA9574
:10E11000F1F70197D9F7000001970097B1F708953B
:10E12000FC0103C0FC010B0161E060936800E8950D
:10E130006091680060FDFCCF112408959C01E19975
:10E14000FECF3FBB2EBBE09A8DB3089510926A00BC
:10E150001ABE19BE18BE85B7806885BF86E4809355
:10E160006D000895DF93CF93CDB7DEB728970FB634
:10E17000F894DEBF0FBECDBFDE011196EDE3F1E0F6
:10E1800088E001900D928150E1F70E94DEFB86E16C
:10E1900092E060E070E048E150E02EE930EF0E944C
:10E1A000E6FB8CE192E00E942DF78AE292E00E9469
:10E1B00045F786E292E00E9461F782E292E00E94D7
:10E1C0007DF7BE016F5F7F4FCB010E94D5FA882398
:10E1D00009F4FFCF28960FB6F894DEBF0FBECDBF6F
:10E1E000CF91DF9108950F931F9310926A001ABE8A
:10E1F00019BE18BE85B7806885BF86E480936D0020
:10E200000E9497F680E091E00E94A4F60E94B2F08E
:10E210000E94A6F10197A9F485E291E00E94A4F67C
:10E2200000E010E0F801099585B7816085BF85B7EA
:10E230008D7F85BFF801099580E090E01F910F91D7
:10E24000089580E391E00E94A4F6FFCFEF92FF9241
:10E250000F931F93562F442733272227E92EFF249D
:10E2600000271127E22AF32A042B152B272F30E051
:10E2700040E050E0A90133272227E22AF32A042BA9
:10E28000152B672F782F892F9927607080709070D9
:10E29000E62AF72A082B192BB701C8011F910F9105
:10E2A000FF90EF900895DF92EF92FF920F931F93EC
:10E2B000CF93DF93FC017B018A0181E04130580755
:10E2C00010F000E011E0EF3FF10541F038F081E09F
:10E2D000E03EF80798F581E08BBF01C01BBEDE2E43
:10E2E00080E09E2F63E00E9490F080E090E061E18A
:10E2F0000E9490F0C0E0D0E009C0F701EC0FFD1FD4
:10E3000060817181CE010E9492F02296C017D107E0
:10E31000A0F306C0CE016FEF7FEF0E9492F022962D
:10E32000CF3FD105B9F3B0F380E09D2D65E00E94A9
:10E3300090F080E090E061E10E9490F0DF91CF9159
:10E340001F910F91FF90EF90DF9008952F923F92D1
:10E350005F926F927F928F929F92AF92BF92CF9275
:10E36000DF92EF92FF920F931F93DF93CF9300D032
:10E3700000D0CDB7DEB719821A821B821C8285E4D9
:10E3800091E00E94A4F680E061E04BE45EEB20E0C7
:10E3900030E00E9427F38823B1F380E00E9486F3E7
:10E3A0008DE491E00E94A4F6CC24DD24EE24FF2429
:10E3B0006624772488249924AA24BB2455241E018A
:10E3C0000894211C311C80E00E94A0F88731D9F705
:10E3D000552009F054C080E00E94F7F964307105BF
:10E3E00081059105E8F180E0B10124E030E040E0F2
:10E3F00050E00E9488F429813A814B815C81B22FE0
:10E40000AA2799278827E52EFF2400271127E82A25
:10E41000F92A0A2B1B2B832F90E0A0E0B0E0DC014F
:10E4200099278827E82AF92A0A2B1B2B232F342F18
:10E43000452F5527207040705070E22AF32A042B94
:10E44000152BE982FA820B831C83BB27A12F902F07
:10E450008F2D6C019C2D8827E81AF90A55245394B6
:10E460000894611C711C81E090E00E946FF089ECBF
:10E470006816710408F4A7CF60E070E05AC0C114B8
:10E48000D10441F180E00E94F7F96F3F710509F076
:10E4900008F499CF84E591E00E94A4F680E06EE252
:10E4A00072E020E031E040E050E00E9488F4850115
:10E4B0000F5F1F4FC5016EE272E040E051E00E9425
:10E4C00053F180E091E0880E991E0894C108D108AC
:10E4D000580179CF80E00E94F7F96E157F0508F4A6
:10E4E00072CF86E591E00E94A4F680E06EE272E0D1
:10E4F00020E031E040E050E00E9488F4C5016EE287
:10E5000072E0A7010E9453F180E00E94B0F260E047
:10E5100070E08E0C9F1C940140E050E089819A814C
:10E52000AB81BC81281739074A075B0711F461E00A
:10E5300070E0CB010F900F900F900F90CF91DF9173
:10E540001F910F91FF90EF90DF90CF90BF90AF9011
:10E550009F908F907F906F905F903F902F90089545
:10E5600090E026E0880F991F2A95E1F78D5F9D477F
:10E5700068E00E94E8F60895CF92DF92EF92FF9252
:10E580000F931F93CF93DF93E82EEB016A0168810D
:10E590006F3F51F489818F3F91F48A818F3F79F4E5
:10E5A0008B818F3F61F43DC0662349F489818823C4
:10E5B00031F48A81882319F48B81882391F1C11465
:10E5C000D10479F1FF2488E092E0E80EF91E87017A
:10E5D00036E0000F111F3A95E1F7C80144960E94FA
:10E5E000E8F6C801459669810E94E8F6C80146969A
:10E5F0006A810E94E8F6C80147966B810E94E8F69E
:10E60000C80142966D2D0E94E8F6C80143966C2D14
:10E610000E94E8F6C801039664E00E94E8F681E0F3
:10E6200001C080E0DF91CF911F910F91FF90EF909B
:10E63000DF90CF90089590E046E0880F991F4A95AB
:10E64000E1F78D5F9D4760E10E94E8F60895BF9273
:10E65000CF92DF92EF92FF920F931F93CF93DF93AE
:10E66000B82ED62E7A01C22E862F8150843010F01B
:10E6700080E042C08B2D0E941BF3CB2DD0E0C85F01
:10E68000DD4F8E0166E0000F111F6A95E1F7DC286F
:10E69000C80101966D2D0E94E8F6C8010A96055F33
:10E6A0001F4FE114F10431F06F2D0E94E8F6C8010C
:10E6B0006E2D10C020913E0330913F032F5F3F4FDE
:10E6C00030933F0320933E03632F0E94E8F6C80176
:10E6D00060913E030E94E8F656E0CC0FDD1F5A958C
:10E6E000E1F7CE01039661E00E94E8F6EB2DF0E041
:10E6F000EA5CFC4F81E08083DF91CF911F910F9105
:10E70000FF90EF90DF90CF90BF9008951F93182F48
:10E710000E94A0F8833111F080E00DC0812F90E0BD
:10E7200076E0880F991F7A95E1F78D5F9D4762E04B
:10E730000E94E8F681E01F910895FF920F931F93C6
:10E74000CF93DF93F82E8B01EA010E94C4FB9E0158
:10E7500040E050E0621773078407950720F48F2D7F
:10E760000E94C4FBEB01209799F1AE0160E070E0DC
:10E770008F2D0E947CF9CE0181709070C80FD91F37
:10E780009E0140E050E08F2DB8010E9462FB8F2D6A
:10E7900090E0E6E0880F991FEA95E1F78D5F9D47CD
:10E7A00060E20E94E8F607C08F2D0E94A0F888233F
:10E7B00049F003FD07C08F2D0E948AF8082F84FFBF
:10E7C000F3CF02C0C0E0D0E08F2D60E10E9495F849
:10E7D000CE01DF91CF911F910F91FF9008956F921D
:10E7E0007F928F929F92BF92CF92DF92EF92FF9291
:10E7F0000F931F93CF93DF93B82E3B016A01E9017A
:10E8000048010E94C4FB960140E050E06217730784
:10E810008407950720F48B2D0E94C4FB6B0168814F
:10E82000662351F48981882339F48A81882321F46D
:10E830008B81882309F45DC08114910409F459C0C7
:10E84000C114D10409F455C0EB2CFF2488E092E0F8
:10E85000E80EF91E8701F6E0000F111FFA95E1F7A7
:10E86000C80144960E94E8F6C801459669810E9455
:10E87000E8F6C80146966A810E94E8F6C801479604
:10E880006B810E94E8F6C8014296692D0E94E8F665
:10E89000C8014396682D0E94E8F6A60160E070E08A
:10E8A0008B2D0E947CF9C60181709070C80ED91E14
:10E8B000960140E050E08B2DB3010E9462FBC8013D
:10E8C000039660E20E94E8F607C08B2D0E94A0F834
:10E8D000882349F0C3FD07C08B2D0E948AF8C82FFA
:10E8E00084FFF3CF02C0CC24DD248B2D60E10E9495
:10E8F00095F8C601DF91CF911F910F91FF90EF9096
:10E90000DF90CF90BF909F908F907F906F900895F1
:10E91000CF92DF92FF920F931F93DF93CF9300D09C
:10E92000CDB7DEB7F82E6B011A821982082F10E0DE
:10E93000085F1D4FC801B6E0880F991FBA95E1F72F
:10E9400001960E94E5F68F2DBE016F5F7F4F22E09A
:10E9500030E040E050E00E9493FB99818A819C0165
:10E9600040E050E080FF04C02F5F3F4F4F4F5F4FAC
:10E970009A8389838F2DB6010E9493FBA6E0000F36
:10E98000111FAA95E1F7C801039660E40E94E8F61A
:10E9900029813A8140E050E0B901CA010F900F90FF
:10E9A000CF91DF911F910F91FF90DF90CF9008954D
:10E9B0007F928F929F92AF92BF92CF92DF92EF920F
:10E9C000FF920F931F93DF93CF93CDB7DEB72C97B2
:10E9D0000FB6F894DEBF0FBECDBF782E6B01790164
:10E9E000452B19F400E010E01AC1882E992488E024
:10E9F00092E0880E991E540196E0AA0CBB1C9A95D1
:10EA0000E1F70894A11CB11CC5010E94E5F690E055
:10EA1000877090708330910569F18430910509F415
:10EA200045C0029719F080E090E04FC0872DBE01ED
:10EA30006B5F7F4F28E030E040E050E00E9493FBA6
:10EA40008D81D7018C938E8111968C9311978F8134
:10EA500012968C931297888513968C93998580E0F3
:10EA60002A85820F911DF801918380839B8580E028
:10EA70002C8529C0872DBE016B5F7F4F26E030E0DB
:10EA800040E050E00E9493FB8D81D7018C938E81F2
:10EA900011968C9311978F8112968C93129788857B
:10EAA00013968C93998580E02A850DC0872DBE0131
:10EAB0006B5F7F4F22E030E040E050E00E9493FB2C
:10EAC0009D8180E02E81820F911D8C01017010705C
:10EAD000080F191F980140E050E0872DB6010E94F1
:10EAE00093FBC5010E94E5F68770843009F08DC064
:10EAF00088E591E00E9417FCEDB7FEB73E970FB690
:10EB0000F894FEBF0FBEEDBF31968DE691E0ADB734
:10EB1000BEB712969C938E931197D6018C918283E7
:10EB2000138211968C9111978483158212968C9181
:10EB300012978683178213968C911397808711867C
:10EB400014968C9114978287138615968C918487DE
:10EB500015860E9402FCEDB7FEB7319686E991E07A
:10EB6000ADB7BEB712969C938E931197D6011696A9
:10EB70008C9116978283138217968C9117978483B2
:10EB8000158218968C9118978683178219968C9106
:10EB90001997808711861A968C911A978287138607
:10EBA0001B968C91848715860E9402FCEDB7FEB7F8
:10EBB00038960FB6F894FEBF0FBEEDBF31968FEBBF
:10EBC00091E0ADB7BEB712969C938E931197D60184
:10EBD0001C968C911C97828313821D968C91848342
:10EBE00015820E9402FCEDB7FEB736960FB6F89478
:10EBF000FEBF0FBEEDBF872DBE016F5F7F4F24E0CC
:10EC000030E040E050E00E9493FB86E0880C991CC5
:10EC10008A95E1F7C401039660E40E94E8F6C80112
:10EC20002C960FB6F894DEBF0FBECDBFCF91DF910B
:10EC30001F910F91FF90EF90DF90CF90BF90AF901A
:10EC40009F908F907F9008959F92AF92BF92CF92A6
:10EC5000DF92EF92FF920F931F93CF93DF93982E43
:10EC6000EB0179018A010E94C4FB6E157F058007C4
:10EC7000910728F4892D0E94C4FB7B018C01892D0A
:10EC80000E9492F95B016C01892D0E94A0F88731E6
:10EC900011F08C31D9F5AE14BF04C006D10678F35B
:10ECA000C70181709070892B49F0A80197012F5FEF
:10ECB0003F4F4F4F5F4F892DBE0104C0892DBE01CC
:10ECC000A80197010E9462FBE92DF0E0EA5CFC4F8D
:10ECD0008081882331F00FC0892D0E94A0F88823FD
:10ECE000A9F0892D0E948AF884FFF6CF892D60E172
:10ECF0000E9495F801C01082892DB801A7010E94D9
:10ED00007CF9892D60E20E9464F803C0EE24FF24A0
:10ED10008701B701C801DF91CF911F910F91FF903B
:10ED2000EF90DF90CF90BF90AF909F90089510929A
:10ED3000900080E189B982E08BB988E08AB90895B2
:10ED40005D9BFECF8CB90895FC0104C05D9BFECF96
:10ED500031968CB980818823C9F708951F93FC01EF
:10ED600040E020E030E010E2BDE0AAE029C0908160
:10ED7000892F82958F708A3018F0582F595A02C007
:10ED8000582F505D892F8F708A3010F0895A01C03A
:10ED9000805D5D9BFECF5CB95D9BFECF8CB95D9BBA
:10EDA000FECF1CB9403141F45D9BFECFBCB95D9BE9
:10EDB000FECFACB940E001C04F5F31962F5F3F4FAF
:10EDC00026173707A0F21F910895FC01808108954E
:10EDD000FC01608308954091008020910180942F70
:10EDE00080E030E0282B392BC901089590930080F2
:10EDF0008093018008954091028020910380942F98
:10EE000080E030E0282B392BC90108951092028050
:10EE100008954091048020910580942F80E030E097
:10EE2000282B392BC9010895909304808093058085
:10EE30000895FC01809108808083809109808183FE
:10EE400080910A80828380910B80838380910C80E3
:10EE5000848380910D8085830895DC01E8E0F0E8EB
:10EE60008D91819380E8EE30F807D1F70895FC0189
:10EE700080911080808380911180818380911280A5
:10EE800082838091138083830895FC018081809325
:10EE90001080818180931180828180931280838190
:10EEA000809313800895FC01809114808083809169
:10EEB000158081838091168082838091178083835F
:10EEC0000895FC0180818093148081818093158056
:10EED0008281809316808381809317800895FC013E
:10EEE00080911880808380911980818380911A801D
:10EEF000828380911B8083830895FC0180818093AD
:10EF00001880818180931980828180931A80838107
:10EF100080931B80089540911C8020911D80942F28
:10EF200080E030E0282B392BC901089590931C8094
:10EF300080931D80089580911F80089580931F8085
:10EF400008954091328020913380942F80E030E00A
:10EF5000282B392BC901089580913680089580931C
:10EF60003680089580913880089580933880089580
:10EF700040913C8020913D80942F80E030E0282B10
:10EF8000392BC9010895DC01E0E4F0E880811C928E
:10EF9000808111968C931197E2E4F0E880811296BB
:10EFA0001C921297808113968C931397E4E4F0E8F7
:10EFB000808114961C921497808115968C930895E5
:10EFC000FC01A8E4B0E88C9110828C918183AAE4C2
:10EFD000B0E88C9112828C918383089540914C808B
:10EFE00020914D80942F80E030E0282B392BC901EF
:10EFF000089540914E8020914F80942F80E030E022
:10F00000282B392BC9010895E82FF0E0E85EFF4D69
:10F01000EE0FFF1FEE0FFF1F80810895E82FF0E035
:10F02000E85EFF4DEE0FFF1FEE0FFF1F6083089598
:10F03000E82FF0E0EE0FFF1FEE0FFF1FEE59FF4726
:10F04000BE2FAA279C918181892B90E00895E82FFB
:10F05000F0E0EE0FFF1FEE0FFF1FEE59FF4770832A
:10F06000618308954091FE802091FF80942F80E07D
:10F0700030E0282B392BC9010895E82FF0E0E85F34
:10F08000FD4F66E0EE0FFF1F6A95E1F7BE2FAA273E
:10F090009C918181892B90E00895E82FF0E0E85F52
:10F0A000FD4F76E0EE0FFF1F7A95E1F71082618346
:10F0B0000895E82FF0E0A6E0EE0FFF1FAA95E1F714
:10F0C000EE5FFD4781810895E82FF0E0B6E0EE0F96
:10F0D000FF1FBA95E1F7EE5FFD47DF0111966183EF
:10F0E0008C918823E9F70895E82FF0E086E0EE0F91
:10F0F000FF1F8A95E1F7EC5FFD4781810895E82FB6
:10F10000F0E096E0EE0FFF1F9A95E1F7EC5FFD4708
:10F1100061830895E82FF0E0E85FFD4F26E0EE0FF1
:10F12000FF1F2A95E1F787810895E82FF0E0E85F57
:10F13000FD4F36E0EE0FFF1F3A95E1F76783089524
:10F14000E82FF0E046E0EE0FFF1F4A95E1F7E85F99
:10F15000FD47DF01119681819C91891711F0892F5C
:10F16000FBCF0895CF93DF93E82FF0E0E85FFD4FEA
:10F17000DF0156E0AA0FBB1F5A95E1F71C968C9150
:10F180001C97EB0118821C968C911C9789831E9604
:10F190008C911E971A821E968C911E978B83FD016F
:10F1A000709680811C8280818D83DF91CF9108953C
:10F1B000CF93DF93DB01E82FF0E0E85FFD4F9F0185
:10F1C00066E0220F331F6A95E1F711968C91119733
:10F1D000E9018C8713968C9113978E8715968C91E5
:10F1E000F90170968083DF91CF910895E82FF0E0C8
:10F1F000E85FFD4FA6E0EE0FFF1FAA95E1F7728BC7
:10F20000638B0895DB01E82FF0E0E85FFD4F86E0B7
:10F21000EE0FFF1F8A95E1F784891C92848911966D
:10F220008C931197868912961C9212978689139651
:10F230008C930895DB01E82FF0E0E85FFD4F96E046
:10F24000EE0FFF1F9A95E1F711968C911197848B21
:10F2500013968C91868B0895E82FF0E0E85FFD4FC0
:10F2600026E0EE0FFF1F2A95E1F7208D922F80E018
:10F27000218D30E0282B392BC9010895E82FF0E0CB
:10F28000E85FFD4F36E0EE0FFF1F3A95E1F7708F14
:10F29000618F0895E82FF0E0E85FFD4F46E0EE0F44
:10F2A000FF1F4A95E1F7838D80E00895E82FF0E095
:10F2B000E85FFD4F56E0EE0FFF1F5A95E1F7238DF3
:10F2C000962F80E0820F911D838F0895E82FF0E044
:10F2D000EE0FFF1FEF5EFB4FDF0165E0AA0FBB1FC4
:10F2E0006A95E1F79C9111968C911197FD013296E8
:10F2F000708113966C910895E82FF0E0EE0FFF1FD8
:10F30000EF5EFB4FDF01E5E0AA0FBB1FEA95E1F7D7
:10F310007C9311966C931197FD013296508313964E
:10F320004C9308956F927F928F929F92AF92BF926B
:10F33000CF92DF92EF92FF920F931F93CF93DF93C1
:10F3400090E0885F9D4F56E0880F991F5A95E1F72E
:10F3500044E2842E912C880E991EBC016B5D7F4F78
:10F36000EC01A69637E2632E712C680E791EAA2452
:10F37000BB246501D4018C9190E0A0E0B0E0BA2FED
:10F38000A92F982F8827FB012081820F911DA11D95
:10F39000B11DBA2FA92F982F88272881820F911D80
:10F3A000A11DB11DEE24F82E092F1A2FD3018C9127
:10F3B000E80EF11C011D111DEA14FB040C051D05CE
:10F3C00029F0C701D8015C016D01D4CFB501C60198
:10F3D000DF91CF911F910F91FF90EF90DF90CF9031
:10F3E000BF90AF909F908F907F906F9008956F9295
:10F3F0007F928F929F92AF92BF92CF92DF92EF92C5
:10F40000FF920F931F93CF93DF9390E0885F9D4F00
:10F4100046E0880F991F4A95E1F738E2832E912C38
:10F42000880E991EBC01675D7F4FEC01AA962BE206
:10F43000622E712C680E791E01E0A02EB12CC12C19
:10F44000D12CD4018C9190E0A0E0B0E0BA2FA92F8C
:10F45000982F8827FB012081820F911DA11DB11DCE
:10F46000BA2FA92F982F88272881820F911DA11DBF
:10F47000B11DEE24F82E092F1A2FD3018C91E80E1E
:10F48000F11C011D111DEA14FB040C051D0529F0DA
:10F49000C701D8015C016D01D4CFB501C601DF9170
:10F4A000CF911F910F91FF90EF90DF90CF90BF9081
:10F4B000AF909F908F907F906F900895E82FF0E02D
:10F4C000E85FFD4F56E0EE0FFF1F5A95E1F776A774
:10F4D00067A70895E82FF0E0E85FFD4F66E0EE0FC4
:10F4E000FF1F6A95E1F720A9922F80E021A930E063
:10F4F000282B392BC9010895E82FF0E0E85FFD4F74
:10F5000076E0EE0FFF1F7A95E1F7838D0895E82FDF
:10F51000F0E0E85FFD4FA6E0EE0FFF1FAA95E1F7D0
:10F52000838D638F0895E82FF0E0E85FFD4FB6E02C
:10F53000EE0FFF1FBA95E1F7848D0895E82FF0E0F4
:10F54000E85FFD4F86E0EE0FFF1F8A95E1F7648FBD
:10F550000895E82FF0E0E85FFD4F96E0EE0FFF1F03
:10F560009A95E1F7868D0895E82FF0E0E85FFD4F6A
:10F5700026E0EE0FFF1F2A95E1F7668F0895E82F2A
:10F58000F0E0E85FFD4F36E0EE0FFF1F3A95E1F740
:10F5900084A50895E82FF0E0E85FFD4F46E0EE0F08
:10F5A000FF1F4A95E1F764A70895CF92DF92EF928B
:10F5B000FF920F931F93CF93DF936C019B017B010D
:10F5C000B601E90100E010E040E050E020E030E06A
:10F5D000DB018C91813408F06BC09881913408F084
:10F5E00067C0080F111D490F511DF901E859FC4F63
:10F5F00090E0A0E0B0E0072E7AE0880F991FAA1FE4
:10F60000BB1F7A95D1F7702D80839183A283B3833A
:10F61000F901E85BFC4F899190E0A0E0B0E0072E93
:10F620007AE0880F991FAA1FBB1F7A95D1F7702D1A
:10F6300080839183A283B3836F5F7F4F2C5F3F4FA3
:10F640002032310529F6C80187709070892B81F529
:10F65000400F511F4038510559F5E0E2F0E8D6015E
:10F660008D916D018193B0E8E832FB07C1F7D701B6
:10F670008D917D018193B0E8E033FB07C1F7C801AC
:10F6800073E0969587957A95E1F740E050E020E0A9
:10F6900030E005C0220F331F21604F5F5F4F4817D6
:10F6A0005907C0F3309330802093318081E001C04E
:10F6B00080E0DF91CF911F910F91FF90EF90DF904D
:10F6C000CF900895EF92FF920F931F93CF93DF9304
:10F6D00079018A0190E0885F9D4F26E0880F991F8D
:10F6E0002A95E1F7EC01AE96DC019F96FB0120E044
:10F6F00030E040E050E009C08081888381818C93B4
:10F700002E5F3F4F4F4F5F4F32962E153F054007FC
:10F71000510790F3B701C801DF91CF911F910F916D
:10F72000FF90EF900895EF92FF920F931F93CF9366
:10F73000DF9379018A0190E0885F9D4F36E0880F62
:10F74000991F3A95E1F7EC01E096DC01D196FB01B7
:10F7500020E030E040E050E009C0888180838C9157
:10F7600081832E5F3F4F4F4F5F4F32962E153F05DF
:10F770004007510790F3B701C801DF91CF911F9166
:10F780000F91FF90EF900895E82FF0E0EE0FFF1F2C
:10F79000EE0FFF1FE859FC4F6081718182819381D8
:10F7A0000895E82FF0E0EE0FFF1FEE0FFF1FE85B5C
:10F7B000FC4F6081718182819381089580E88093FC
:10F7C000018085E090E00E9482F00895A0E0B0E022
:10F7D000ECEEFBEF0C94D3FE7C01EB018A01690196
:10F7E00009C0CE012196F6010995F70181937F01A9
:10F7F0000150104001151105A1F7CDB7DEB7E8E0C3
:10F800000C94EFFEA0E0B0E0E8E0FCEF0C94D9FE31
:10F81000FE0135966191719180918A0390918B03DD
:10F82000AF010E944CFC2096E2E00C94F5FE0F9391
:10F830001F93CF93DF938C01E0918A03F0918B03A8
:10F84000838181FF21C0C0E0D0E00DC0E0918A0338
:10F85000F0918B0320853185BF01F9010995892B32
:10F8600011F0CFEFDFEFF80181918F01882371F75D
:10F87000E0918A03F0918B03208531858AE0BF01F6
:10F88000F9010995892B11F0CFEFDFEFCE01DF9160
:10F89000CF911F910F910895ABE0B0E0E2E5FCEF4E
:10F8A0000C94C9FE3C012B015A01FC0117821682FF
:10F8B000838181FD03C06FEF7FEFC6C19AE0892E7F
:10F8C0001E010894211C311CF3012381F20123FD48
:10F8D000859123FF81912F01882309F4B2C18532DC
:10F8E00039F423FD859123FF81912F01853229F47D
:10F8F00090E0B3010E943FFEE7CF982FFF24EE2453
:10F900009924FFE1FF15D0F09B3269F09C3228F476
:10F91000903259F0933291F40EC09D3249F09033F9
:10F9200069F441E024C052E0F52A84E0F82A28C0B6
:10F9300098E0F92A25C0E0E1FE2A22C0F7FC29C0A0
:10F94000892F80538A3070F4F6FE05C0989C902C65
:10F950001124980E15C0E89CE02C1124E80EF0E26A
:10F96000FF2A0EC09E3229F4F6FC6BC140E4F42A53
:10F9700007C09C3619F450E8F52A02C0983649F4BD
:10F98000F20123FD959123FF91912F01992309F015
:10F99000B8CF892F8554833018F08052833038F4E3
:10F9A00044E050E0A40EB51E5FE359830FC09336C8
:10F9B00031F0933779F0933509F056C020C0F50146
:10F9C0008081898342E050E0A40EB51E610101E010
:10F9D00010E012C0F501C080D180F6FC03C06FEFCB
:10F9E0007FEF02C0692D70E042E050E0A40EB51E2A
:10F9F000C6010E9434FE8C015FE7F52214C0F501B8
:10FA0000C080D180F6FC03C06FEF7FEF02C0692D8C
:10FA100070E042E050E0A40EB51EC6010E9429FE2F
:10FA20008C0150E8F52AF3FE07C01AC080E290E08E
:10FA3000B3010E943FFEEA948E2D90E0081719074B
:10FA4000A8F30EC0F601F7FC8591F7FE81916F01D6
:10FA500090E0B3010E943FFEE110EA940150104093
:10FA60000115110579F7EAC0943611F0993669F558
:10FA7000F7FE08C0F501208131814281538184E085
:10FA800090E00AC0F501808191819C01442737FDF7
:10FA90004095542F82E090E0A80EB91E9FE6F9220F
:10FAA00057FF09C050954095309521953F4F4F4FD6
:10FAB0005F4FE0E8FE2ACA01B901A1012AE030E067
:10FAC0000E946BFED82ED21840C0953729F41F2D06
:10FAD0001F7E2AE030E01DC01F2D197F9F3661F088
:10FAE000903720F4983509F0ACC00FC0903739F04A
:10FAF000983709F0A6C004C028E030E00AC01061C1
:10FB000014FD146020E130E004C014FD166020E113
:10FB100032E017FF08C0F501608171818281938115
:10FB200044E050E008C0F50180819181BC0180E093
:10FB300090E042E050E0A40EB51EA1010E946BFED1
:10FB4000D82ED2188FE7F82EF122F6FE0BC05EEF0A
:10FB5000F522D91438F4F4FE07C0F2FC05C08FEE8C
:10FB6000F82202C01D2D01C0192DF4FE0DC0FE01AA
:10FB7000ED0DF11D8081803319F499EEF92208C052
:10FB80001F5FF2FE05C003C08F2D867809F01F5F4E
:10FB90000F2DF3FC14C0F0FE0FC01E1510F09D2CAD
:10FBA0000BC09D2C9E0C911A1E2D06C080E290E089
:10FBB000B3010E943FFE1F5F1E15C0F304C01E1557
:10FBC00010F4E11A01C0EE2404FF0FC080E390E0BE
:10FBD000B3010E943FFE02FF1DC001FD03C088E784
:10FBE00090E00EC088E590E00BC0802F867891F001
:10FBF00001FF02C08BE201C080E2F7FC8DE290E0E1
:10FC0000B3010E943FFE06C080E390E0B3010E9472
:10FC10003FFE9A94D914C0F3DA94F101ED0DF11D71
:10FC2000808190E0B3010E943FFEDD20A9F706C06D
:10FC300080E290E0B3010E943FFEEA94EE20C1F71B
:10FC400043CEF30166817781CB012B96E2E10C94E0
:10FC5000E5FEFC010590615070400110D8F78095D9
:10FC600090958E0F9F1F0895FC0161507040019088
:10FC70000110D8F7809590958E0F9F1F08950F93D0
:10FC80001F93CF93DF938C01EB018B8181FF1BC00E
:10FC900082FF0DC02E813F818C819D8128173907FD
:10FCA00064F4E881F9810193F983E88306C0E8856B
:10FCB000F985802F0995892B31F48E819F810196DA
:10FCC0009F838E8302C00FEF1FEFC801DF91CF919A
:10FCD0001F910F910895FA01AA27283051F1203180
:10FCE00081F1E8946F936E7F6E5F7F4F8F4F9F4FD0
:10FCF000AF4FB1E03ED0B4E03CD0670F781F891F12
:10FD00009A1FA11D680F791F8A1F911DA11D6A0FDF
:10FD1000711D811D911DA11D20D009F468943F9192
:10FD20002AE0269F11243019305D3193DEF6CF0191
:10FD30000895462F4770405D4193B3E00FD0C9F757
:10FD4000F6CF462F4F70405D4A3318F0495D31FDC4
:10FD50004052419302D0A9F7EACFB4E0A695979517
:10FD6000879577956795BA95C9F7009761057105ED
:10FD700008959B01AC010A2E069457954795379537
:10FD80002795BA95C9F7620F731F841F951FA01D91
:10FD900008952F923F924F925F926F927F928F922F
:10FDA0009F92AF92BF92CF92DF92EF92FF920F930A
:10FDB0001F93CF93DF93CDB7DEB7CA1BDB0B0FB614
:10FDC000F894DEBF0FBECDBF09942A8839884888D1
:10FDD0005F846E847D848C849B84AA84B984C88467
:10FDE000DF80EE80FD800C811B81AA81B981CE0F5E
:10FDF000D11D0FB6F894DEBF0FBECDBFED01089543
:04FE0000F894FFCFA4
:10FE040057495A2D456D626564646564205765627F
:10FE14005365727665720D0A426F6F742053746174
:10FE240072740D0A005772697465206F6B0D0A00B5
:10FE34005772697465206661696C0D0A00080808C8
:10FE44000808080808736F636B65742D006C697388
:10FE540074656E002A002D004D4143205241572005
:10FE64006D736720617272697665640D00646573F1
:10FE740074206D61633D252E32582E252E32582E66
:10FE8400252E32582E252E32582E252E32582E2528
:10FE94002E32580D0A0073726320206D61633D2574
:10FEA4002E32582E252E32582E252E32582E252EFF
:10FEB40032582E252E32582E252E32580D0A007413
:10FEC400797065202020203D252E3258252E325869
:04FED4000D0A000013
:040000031000E00009
:00000001FF
