:100000000C940A010C9427010C9427010C942701ED
:100010000C9427010C9427010C9427010C942701C0
:100020000C9427010C9427010C944A260C94270168
:100030000C9427010C9427010C9427010C942701A0
:100040000C9427010C9427010C94F91D0C942701A2
:100050000C9427010C9427010C9427010C94270180
:100060000C9427010C9427010C9427010C94270170
:100070000C9427010C9427010C9427010C94270160
:100080000C9427010C9427010C94270148545450D8
:100090002F312E3120323030204F4B0D0A436F6EFE
:1000A00074656E742D547970653A20746578742F78
:1000B00068746D6C0D0A436F6E74656E742D4C65BB
:1000C0006E6774683A2037380D0A0D0A3C48544D63
:1000D0004C3E0D0A3C424F44593E0D0A536F72721A
:1000E000792C20746865207061676520796F7520B0
:1000F00072657175657374656420776173206E6FC6
:100100007420666F756E642E0D0A3C2F424F445961
:100110003E0D0A3C2F48544D4C3E0D0A00004854F9
:1001200054502F312E3120323030204F4B0D0A43A6
:100130006F6E74656E742D547970653A20746578AD
:10014000742F68746D6C0D0A436F6E74656E742D38
:100150004C656E6774683A2035390D0A0D0A3C48C3
:10016000544D4C3E0D0A3C424F44593E0D0A434704
:100170004920636F6D6D616E6420697320636F6DDC
:10018000706C657465642E0D0A3C2F424F44593ED5
:100190000D0A3C2F48544D4C3E0D0A000048545463
:1001A000502F312E3120343030204F4B0D0A436F09
:1001B0006E74656E742D547970653A207465787428
:1001C0002F68746D6C0D0A436F6E74656E742D4CE0
:1001D000656E6774683A2035300D0A0D0A3C485444
:1001E0004D4C3E0D0A3C424F44593E0D0A496E7635
:1001F000616C696420726571756573742E0D0A3CBB
:100200002F424F44593E0D0A3C2F48544D4C3E0D51
:100210000A00000011241FBECFEFD0E1DEBFCDBF2A
:1002200019E0A0E0B1E0ECE9F9E700E00BBF02C0A3
:1002300007900D92A833B107D9F71AE0A8E3B9E007
:1002400001C01D92AB3AB107E1F70C94271B0C9447
:100250000000FF920F931F93CF93DF93F82EEB01D3
:1002600081E08F15B8F1FB0101900020E9F731978B
:10027000E61BF70B719770F581E1F89E8001112460
:10028000085C164F40E150E060E270E0C8010E9457
:1002900017378F2D9927DC0124E0AA0FBB1F2A9561
:1002A000E1F7A80FB91FA85CB64FFD01108AFE0147
:1002B00001900020E9F73197EC1BFD0BAF01BE0167
:1002C000CD010E940A376F2D80E00E94A925C80148
:1002D0000E94F925DF91CF911F910F91FF90089512
:1002E00017B885E886B90895F89410926A001ABE86
:1002F00019BE18BE80EC85BF80E480936D007894B1
:10030000089583B1806683B982B18F7982B90895E7
:100310009927049621E030E002C0220F331F8A950E
:10032000E2F788B3822B88BB0895282F33272C5FF0
:100330003F4F81E090E002C0880F991F2A95E2F7B5
:10034000982F909588B3892388BB0895CF93DF9326
:1003500087B3806F87BBC0E0D0E080E00E94880157
:1003600081E00E94880182E00E94880183E00E946F
:1003700088018C2F0E94950188E290E00E94EB1D7D
:100380002196C430D10548F380E00E94880181E0C5
:100390000E94880182E00E94880183E00E94880117
:1003A000DF91CF9108950E9470010E9474010E9414
:1003B000D02560E071E080E00E94290161E171E0F8
:1003C00081E00E94290167E080E00E94881E0E946F
:1003D00081010E94A601089598B3292F33279927F8
:1003E000049602C0359527958A95E2F720FF03C051
:1003F00080E090E0089581E090E008951F93182F29
:100400000E94EC01212F3327813079F42C5F3F4F7C
:1004100081E090E002C0880F991F2A95E2F7982F9B
:10042000909588B3892388BB0CC02C5F3F4F81E037
:1004300090E002C0880F991F2A95E2F728B3282B75
:1004400028BB1F9108959927059641E050E09A0135
:1004500002C0220F331F8A95E2F781B1822320E088
:1004600030E009F09A01C9010895982F823038F4DC
:1004700081E1989FC0011124885C964F089580E027
:1004800090E00895877087B9369A349BFECF84B187
:10049000282F332785B19927982F8827822B932BD4
:1004A00008950C9400000895B89AC09AB99AC19A18
:1004B000BA9ABB986E9A6C9A6B986A98709A8DB13A
:1004C0008C7F8DB908958FB9779BFECF8FB1992717
:1004D00008958FB9779BFECF08950F931F93CF9305
:1004E000DF93CDB7DEB768970FB6F894DEBF0FBEC7
:1004F000CDBF8E010F5F1F4F80E1E2E2F1E0D80136
:1005000001900D928A95E1F788E0A2E3B1E0FE0147
:1005100071960D9001928A95E1F7809165008F7E2A
:100520008093650087E50E94630280E00E94630279
:10053000282F3327C9018873907043E095958795DC
:100540004A95E1F7482F5527DA01A00FB11FFD01A9
:1005500080898093F509440F551F400F511FDA0120
:100560008D919C919093F7098093F6098091650095
:10057000806180936500C90168960FB6F894DEBF6C
:100580000FBECDBFDF91CF911F910F910895809144
:100590006400806180936400809165008061809335
:1005A00065000E9454026B9A6A9A0E946D02089537
:1005B0001F93CF93DF93EB0110E0909165009F7E36
:1005C000909365008130A1F484E50E946302812F3D
:1005D0000E9463028D2F99270E9463028C2F0E9434
:1005E0006302812F0E946302812F0E946302182FF1
:1005F00080916500806180936500812F9927DF914C
:10060000CF911F9108951F93CF93DF93EB01142F88
:10061000909165009F7E90936500813081F484E81D
:100620000E94630280E00E9463028D2F99270E943E
:1006300063028C2F0E946302812F0E9463028091CB
:100640006500806180936500DF91CF911F910895CF
:10065000CF93DF93EB01909165009F7E90936500AF
:10066000813009F583E50E9463022091F50980E15C
:1006700090E0821B91099E0102C0369527958A95CC
:10068000E2F7C9010E9463028091F5099927089752
:1006900002C0CC0FDD1F8A95E2F78C2F0E94630207
:1006A00080E00E9463028091650080618093650014
:1006B000809165008F7E809365000E946D02882383
:1006C000E4F780916500806180936500DF91CF91B0
:1006D0000895CF93DF93EB01909165009F7E9093F7
:1006E0006500813009F583E80E9463022091F509D5
:1006F00080E190E0821B91099E0102C0369527950A
:100700008A95E2F7C9010E9463028091F509992751
:10071000089702C0CC0FDD1F8A95E2F78C2F0E944C
:10072000630280E00E946302809165008061809393
:100730006500809165008F7E809365000E946D0248
:100740008823E4F780916500806180936500DF91E4
:10075000CF910895EF92FF920F931F93CF93DF9362
:10076000EB018A017901909165009F7E909365006D
:100770008130E9F484E50E94630280E00E94630214
:100780008D2F99270E9463028C2F0E94630280E0C4
:100790000E946302C0E0D0E0C017D10740F480E0BF
:1007A0000E946302F70181937F012196F5CF80912A
:1007B0006500806180936500DF91CF911F910F915B
:1007C000FF90EF900895CF93DF93EB019091650038
:1007D0009F7E90936500813069F484E80E946302F3
:1007E00080E00E9463028D2F99270E9463028C2F64
:1007F0000E94630280916500806180936500DF91B3
:10080000CF910895EF92FF920F931F93CF93DF93B1
:10081000EB018A017901909165009F7E90936500BC
:100820008130C9F484E80E94630280E00E94630280
:100830008D2F99270E9463028C2F0E946302C0E0D3
:10084000D0E0C017D10738F4F70181917F010E94F1
:1008500063022196F6CF80916500806180936500E8
:10086000DF91CF911F910F91FF90EF900895EF923C
:10087000FF920F931F938C017B01809165008F7E07
:100880008093650088E60E9463022091F50980E16B
:1008900090E0821B9109980102C0369527958A95B0
:1008A000E2F7C9010E9463028091F5099927089730
:1008B00002C0000F111F8A95E2F78F2D9927800F34
:1008C0000E9463028E2D0E94630280E00E946302F8
:1008D00080E00E94630280E00E94630280E00E9448
:1008E0006302809165008061809365001F910F9184
:1008F000FF90EF90089510925D0910925C0910929C
:100900005B0910925A0908950E94C7020E947B0455
:100910000895482F60915C0970915D0981E00E9403
:10092000030380915C0990915D09019690935D09A4
:1009300080935C0988509140C0F010925D0910923C
:100940005C0960915A0970915B0988E06030780712
:1009500060F481E00E94690380915A0990915B09DB
:10096000019690935B0980935A09089560915A0902
:1009700070915B0981E00E94690308952F923F9274
:100980004F925F926F927F928F929F92AF92BF929F
:10099000CF92DF92EF92FF920F931F93CF93DF934B
:1009A0007B018C013A014901AA24BB2488E0482E2E
:1009B00081E0582EC901B2010E94433C1B01C801CD
:1009C000B70128E031E040E050E00E94573CE901E7
:1009D000C801B70128E031E040E050E00E94573CF8
:1009E000DC01CB016C01E114F1040105110511F4E6
:1009F000E5016501BE0181E00E9428035201AC18A7
:100A0000BD08A814B90408F054019301A501B6016A
:100A100081E00E94AA0385012196CC24DD24C21422
:100A2000D304D8F4CE012196BC0181E00E942803B2
:100A3000C301800F911F9C0148E051E060E070E02D
:100A400081E00E94AA03085F1E4F88E091E0A80E93
:100A5000B91E0894C11CD11CE2CFA814B90480F4BB
:100A60008A189B0869F0BE0181E00E942803060DE8
:100A7000171D9801A40160E070E081E00E94AA03C4
:100A8000DF91CF911F910F91FF90EF90DF90CF906A
:100A9000BF90AF909F908F907F906F905F904F909E
:100AA0003F902F9008959F92AF92BF92CF92DF9286
:100AB000EF92FF920F931F93CF93DF93CDB7DEB7E3
:100AC0006F970FB6F894DEBF0FBECDBF7C015B0100
:100AD0006A0191E0992E00E010E0C801AA27BB2727
:100AE0002FE130E0AE014F5F5F4FBC01CD010E94AE
:100AF000BE0489818F3F19F48A818F3F09F1BE01BD
:100B0000645F7F4FC7010E943837892BA9F4898120
:100B10009A81AB81BC81F60180839183A283B383E8
:100B20008D819E81AF81B885F50180839183A283F9
:100B3000B383892D992706C0015E1F4F9394CDCFB3
:100B400080E090E06F960FB6F894DEBF0FBECDBF89
:100B5000DF91CF911F910F91FF90EF90DF90CF9099
:100B6000BF90AF909F900895992726E0880F991F16
:100B70002A95E1F760E18D5F9D470E94BF090895C6
:100B8000CF92DF92EF92FF920F931F93CF93082F94
:100B9000C62F7A016901862F8150843008F049C040
:100BA000802F0E94B405CC29C02EDD24860166E08A
:100BB000000F111F6A95E1F76C2FC8018F5F9D47E9
:100BC0000E94BF099801265F3D47055F1D47E1145C
:100BD000F10441F08F2D9927682FC9010E94BF09A8
:100BE0006E2D11C08091080A9091090A0196909388
:100BF000090A8093080A892F9927682FC9010E9442
:100C0000BF096091080AC8010E94BF09C60136E009
:100C1000880F991F3A95E1F761E08D5F9D470E942B
:100C2000BF0981E020E03AE0C20ED31EF6018083C6
:100C300001C080E09927CF911F910F91FF90EF9015
:100C4000DF90CF900895CF93C82F0E94D20C8331AC
:100C500071F48C2F992776E0880F991F7A95E1F728
:100C600062E08D5F9D470E94BF0981E001C080E086
:100C70009927CF910895EF92FF920F931F93CF93EF
:100C8000DF93082FEB017A0188818F3F51F489812E
:100C90008F3F91F48A818F3F79F48B818F3F79F078
:100CA0000BC0882349F48981882331F48A81882301
:100CB00019F48B81882319F0E114F10419F480E010
:100CC00090E034C01127F6E0000F111FFA95E1F70C
:100CD0006881C8018C5E9D470E94BF096981C80177
:100CE0008B5E9D470E94BF096A81C8018A5E9D474D
:100CF0000E94BF096B81C801895E9D470E94BF09A0
:100D00008F2D9927682FC8018E5E9D470E94BF09CD
:100D10006E2DC8018D5E9D470E94BF0964E0C80129
:100D20008D5F9D470E94BF0981E090E0DF91CF91E8
:100D30001F910F91FF90EF9008959927A6E0880FDB
:100D4000991FAA95E1F768E08D5F9D470E94BF0952
:100D500008958F929F92AF92BF92CF92DF92EF92BF
:100D6000FF920F931F93CF93C82F4B0179018A01F4
:100D70008C2F0E942811DC01CB018E159F05A00746
:100D8000B10728F48C2F0E9428117B018C018C2F35
:100D90000E94900E5B016C018C2F0E94D20C873157
:100DA00011F08C3191F5AE14BF04C006D10678F372
:100DB000D801C70181709070A070B070892B41F08C
:100DC000D801C7010196A11DB11D9C01AD0102C052
:100DD000A8019701B4018C2F0E94A810EC2FFF27C7
:100DE000E050F64F80818823A9F405C08C2F0E9423
:100DF000D20C882351F08C2F0E94BB0C84FFF6CFBD
:100E000060E18C2F0E94C70C06C020E030E040E07B
:100E100050E011C01082B801A7018C2F0E94620E11
:100E200060E28C2F0E94850C8C2F0E94BB0C84FFEB
:100E3000FBCFA8019701CA01B901CF911F910F9172
:100E4000FF90EF90DF90CF90BF90AF909F908F90EA
:100E50000895CF92DF92FF920F931F93CF93DF936A
:100E6000CDB7DEB722970FB6F894DEBF0FBECDBF69
:100E7000F82E6B011A821982082F112736E0000F15
:100E8000111F3A95E1F7C8018F5F9D470E94BB098A
:100E900022E030E040E050E0BE016F5F7F4F8F2DD9
:100EA0000E94E81089819A81382F2227892F99275B
:100EB000282B392B3A832983C901AA27BB2720FF76
:100EC00003C00196A11DB11D9C01AD01B6018F2D7E
:100ED0000E94E81060E4C8018D5F9D470E94BF0931
:100EE00089819A81AA27BB27BC01CD0122960FB622
:100EF000F894DEBF0FBECDBFDF91CF911F910F9150
:100F0000FF90DF90CF9008956F927F929F92AF9263
:100F1000BF92CF92DF92EF92FF920F931F93CF93E6
:100F2000DF93982E3B016A01E90158017A010027FD
:100F300011270E942811DC01CB018E159F05A00707
:100F4000B10738F4892D0E942811DC01CB017C0106
:100F500001C076018881882351F48981882339F47E
:100F60008A81882321F48B81882309F468C0A11425
:100F7000B10409F464C0E114F10409F460C0092D5E
:100F8000112756E0000F111F5A95E1F76881C8013B
:100F90008C5E9D470E94BF096981C8018B5E9D4799
:100FA0000E94BF096A81C8018A5E9D470E94BF09ED
:100FB0006B81C801895E9D470E94BF098B2D9927CF
:100FC000682FC8018E5E9D470E94BF096A2DC80127
:100FD0008D5E9D470E94BF09C701AA27BB27AC01B0
:100FE000BD01892D0E94620EC701817090708E0D27
:100FF0009F1DAA27BB279C01AD01B301892D0E942B
:10100000A81060E2C8018D5F9D470E94BF0909C01A
:10101000892D0E94D20C882311F003FF02C07E01AB
:101020000AC0892D0E94BB0C082F1127E801C0714E
:10103000D07004FFEDCF60E1892D0E94C70CC7017D
:10104000DF91CF911F910F91FF90EF90DF90CF90A4
:10105000BF90AF909F907F906F9008956F927F9216
:101060009F92AF92BF92CF92DF92EF92FF920F9337
:101070001F93CF93DF93CDB7DEB72C970FB6F894BD
:10108000DEBF0FBECDBF982E6B017901580100E085
:1010900010E0452B09F4F3C0692C7724C301B6E0B6
:1010A000880F991FBA95E1F78F5F9D470E94BB0992
:1010B0009927877090708330910571F18430910584
:1010C0001CF4029729F054C0049709F43FC050C0A3
:1010D00028E030E040E050E0BE016F5F7F4F892D97
:1010E0000E94E8108981F70180838A8181838B8146
:1010F00082838C8183838D819927982F88272E81E5
:10110000820F911DF501918380838F81082F112714
:10111000102F002788852AC026E030E040E050E00C
:10112000BE016F5F7F4F892D0E94E8108981F70112
:1011300080838A8181838B8182838C8183838D816B
:10114000082F1127102F00278E8110C022E030E0D9
:1011500040E050E0BE016F5F7F4F892D0E94E81094
:101160008981082F1127102F00278A81080F111D50
:10117000C80181709070800F911FAA27BB279C0126
:10118000AD01B601892D0E94E810730166E0EE0CF6
:10119000FF1C6A95E1F7C7018F5F9D470E94BB095D
:1011A000992787709070049709F063C08AE391E0F3
:1011B0000E94C237F601858199279F938F9384817E
:1011C00099279F938F93838199279F938F938281F0
:1011D00099279F938F93818199279F938F938081E4
:1011E00099279F938F938FE491E09F938F930E9411
:1011F000AD37F601838599279F938F938285992731
:101200009F938F93818599279F938F9380859927AB
:101210009F938F93878199279F938F938681992797
:101220009F938F9388E791E09F938F930E94AD37B0
:10123000F601858599279F938F93848599279F939E
:101240008F9381EA91E09F938F930E94AD378DB782
:101250009EB782960FB6F8949EBF0FBE8DBF24E056
:1012600030E040E050E0BE01675F7F4F892D0E9473
:10127000E81060E4C7018D5F9D470E94BF09C80167
:101280002C960FB6F894DEBF0FBECDBFDF91CF9185
:101290001F910F91FF90EF90DF90CF90BF90AF9094
:1012A0009F907F906F900895AF92BF92DF92EF92E0
:1012B000FF920F931F93CF93DF93D82E5B01EA0128
:1012C0007A01002711270E942811DC01CB018E151D
:1012D0009F05A007B10738F48D2D0E942811DC016D
:1012E000CB017C0101C07E01E114F104C9F1C70109
:1012F000AA27BB27AC01BD018D2D0E94620EC7013C
:10130000817090708E0D9F1DAA27BB279C01AD0197
:10131000B5018D2D0E94A8108D2D9927C6E0880F4C
:10132000991FCA95E1F760E28D5F9D470E94BF0952
:1013300009C08D2D0E94D20C882311F0C3FF02C07A
:1013400078010AC08D2D0E94BB0CC82FDD278E01AD
:1013500000711070C4FFEDCF60E18D2D0E94C70CAD
:10136000C701DF91CF911F910F91FF90EF90DF9018
:10137000BF90AF900895FC01808199270895FC01EA
:10138000608308950F931F9380E090E80E94BB094B
:101390009927182F002781E090E80E94BB09992720
:1013A000802B912B1F910F9108959C01892F9927D4
:1013B000809300802093018008950F931F9382E013
:1013C00090E80E94BB099927182F002783E090E836
:1013D0000E94BB099927802B912B1F910F91089593
:1013E00060E082E090E80E94BF0908950F931F9388
:1013F00084E090E80E94BB099927182F002785E018
:1014000090E80E94BB099927802B912B1F910F9187
:1014100008950F931F938C01892F9927682F84E0DB
:1014200090E80E94BF09602F85E090E80E94BF0904
:101430001F910F9108950F931F938C0188E090E8FE
:101440000E94BB09F801808389E090E80E94BB09F3
:10145000F80181838AE090E80E94BB09F801828349
:101460008BE090E80E94BB09F80183838CE090E850
:101470000E94BB09F80184838DE090E80E94BB09BB
:10148000F80185831F910F910895FF920F931F9389
:10149000CF93DF938C01C0E0D0E0E5E0FE2EF801B1
:1014A00061918F01CE01885F9F470E94BF09FA9426
:1014B0002196F7FEF4CFDF91CF911F910F91FF900E
:1014C00008950F931F938C0180E190E80E94BB095F
:1014D000F801808381E190E80E94BB09F8018183D3
:1014E00082E190E80E94BB09F801828383E190E8E1
:1014F0000E94BB09F80183831F910F9108950F93F8
:101500001F938C01FC01608180E190E80E94BF097B
:10151000F801618181E190E80E94BF09F8016281D0
:1015200082E190E80E94BF09F801638183E190E8BD
:101530000E94BF091F910F9108950F931F938C0173
:1015400084E190E80E94BB09F801808385E190E87E
:101550000E94BB09F801818386E190E80E94BB09E3
:10156000F801828387E190E80E94BB09F801838338
:101570001F910F9108950F931F938C01FC016081BF
:1015800084E190E80E94BF09F801618185E190E85B
:101590000E94BF09F801628186E190E80E94BF09BC
:1015A000F801638187E190E80E94BF091F910F91C4
:1015B00008950F931F938C0188E190E80E94BB0966
:1015C000F801808389E190E80E94BB09F8018183DA
:1015D0008AE190E80E94BB09F80182838BE190E8E0
:1015E0000E94BB09F80183831F910F9108950F9307
:1015F0001F938C01FC01608188E190E80E94BF0983
:10160000F801618189E190E80E94BF09F8016281D7
:101610008AE190E80E94BF09F80163818BE190E8BC
:101620000E94BF091F910F9108950F931F938CE1A2
:1016300090E80E94BB099927182F00278DE190E8B8
:101640000E94BB099927802B912B1F910F91089520
:101650000F931F938C01892F9927682F8CE190E8B5
:101660000E94BF09602F8DE190E80E94BF091F9181
:101670000F9108958FE190E80E94BB099927089582
:10168000682F8FE190E80E94BF0908950F931F9380
:1016900082E390E80E94BB099927182F002783E373
:1016A00090E80E94BB099927802B912B1F910F91E5
:1016B000089586E390E80E94BB0999270895682F52
:1016C00086E390E80E94BF09089588E390E80E94AD
:1016D000BB0999270895682F88E390E80E94BF0905
:1016E00008950F931F938CE390E80E94BB099927FC
:1016F000182F00278DE390E80E94BB099927802BC3
:10170000912B1F910F9108950F931F938C0180E4EB
:1017100090E80E94BB09F801108280E490E80E94E2
:10172000BB09F801818382E490E80E94BB09F801BB
:10173000128282E490E80E94BB09F801838384E46A
:1017400090E80E94BB09F801148284E490E80E94AA
:10175000BB09F80185831F910F9108950F931F9383
:101760008C0188E490E80E94BB09F801108288E4AB
:1017700090E80E94BB09F80181838AE490E80E9406
:10178000BB09F80112828AE490E80E94BB09F801C3
:1017900083831F910F9108950F931F938CE490E81A
:1017A0000E94BB099927182F00278DE490E80E941A
:1017B000BB099927802B912B1F910F9108950F93AF
:1017C0001F938EE490E80E94BB099927182F0027E9
:1017D0008FE490E80E94BB099927802B912B1F91E1
:1017E0000F9108959927880F991F880F991F805A84
:1017F0009F470E94BB09992708959927880F991F31
:10180000880F991F805A9F470E94BF090895FF9231
:101810000F931F93082F1127000F111F000F111F87
:101820000E591F47902F88270E94BB09F82EC80128
:1018300001960E94BB09F82A8F2D99271F910F91BD
:10184000FF900895EF92FF920F931F937B01272F34
:101850003327082F1127000F111F000F111F622FB0
:10186000C8018E599F470E94BF096E2DC8018D592E
:101870009F470E94BF091F910F91FF90EF9008951D
:101880000F931F938EEF90E80E94BB099927182FA2
:1018900000278FEF90E80E94BB099927802B912B9E
:1018A0001F910F910895FF920F931F93082F1127F7
:1018B000B6E0000F111FBA95E1F7902F88270E941C
:1018C000BB09F82EC8018F5F9D470E94BB09F82A0B
:1018D0008F2D99271F910F91FF900895992736E03A
:1018E000880F991F3A95E1F78F5F9D470E94BF09C6
:1018F0000895992746E0880F991F4A95E1F78D5F73
:101900009D470E94BB0999270895CF93DF93262F07
:10191000C82FDD27CE0166E0880F991F6A95E1F791
:10192000622F8D5F9D470E94BF09CE0156E0880F50
:10193000991F5A95E1F78D5F9D470E94BB09882347
:10194000A1F7DF91CF910895992776E0880F991F2D
:101950007A95E1F78B5F9D470E94BB09992708950F
:101960009927E6E0880F991FEA95E1F78B5F9D477D
:101970000E94BF0908959927F6E0880F991FFA95EC
:10198000E1F7895F9D470E94BB0999270895992730
:10199000A6E0880F991FAA95E1F7895F9D470E94ED
:1019A000BF0908950F931F93CF93082F1127C801E4
:1019B000C6E0880F991FCA95E1F7875F9D470E948F
:1019C000BB09C82FC801B6E0880F991FBA95E1F787
:1019D000875F9D470E94BB09C81799F78C2F9927ED
:1019E000CF911F910F910895CF92DF92EF92FF92C6
:1019F0000F931F936B01082F112726E0000F111F73
:101A00002A95E1F79CE0E92E92E8F92EE00EF11E0E
:101A1000C7010E94BB09F6011082C7010E94BB09E1
:101A2000F60181838EE0E82E82E8F82EE00EF11EAA
:101A3000C7010E94BB09F6011282C7010E94BB09BF
:101A4000F6018383005F1D47C8010E94BB09F601B0
:101A50001482C8010E94BB09F60185831F910F9172
:101A6000FF90EF90DF90CF900895EF92FF920F9349
:101A70001F937B01082F112736E0000F111F3A95A5
:101A8000E1F7FB016181C801845F9D470E94BF09A6
:101A9000F7016381C801825F9D470E94BF09F7017A
:101AA0006581C801805F9D470E94BF091F910F910A
:101AB000FF90EF900895EF92FF920F931F937B0199
:101AC000272F3327082F112746E0000F111F4A95B3
:101AD000E1F7622FC8018E5E9D470E94BF096E2DFF
:101AE000C8018D5E9D470E94BF091F910F91FF9015
:101AF000EF900895CF92DF92EF92FF920F931F9392
:101B00006B01082F112776E0000F111F7A95E1F77E
:101B100064E1E62E62E8F62EE00EF11EC7010E9497
:101B2000BB09F6011082C7010E94BB09F60181833F
:101B30000A5E1D47C8010E94BB09F6011282C80156
:101B40000E94BB09F60183831F910F91FF90EF90D4
:101B5000DF90CF900895EF92FF920F931F937B0138
:101B6000082F1127E6E0000F111FEA95E1F7FB01AE
:101B70006181C8018C5E9D470E94BF09F7016381A6
:101B8000C8018A5E9D470E94BF091F910F91FF9077
:101B9000EF900895EF92FF920F931F93082F112754
:101BA000A6E0000F111FAA95E1F7C801885E9D47C6
:101BB0000E94BB099927F82EEE24C801875E9D4735
:101BC0000E94BB0999278E299F291F910F91FF9091
:101BD000EF900895EF92FF920F931F937B01272FB1
:101BE0003327082F1127B6E0000F111FBA95E1F730
:101BF000622FC801885E9D470E94BF096E2DC801F3
:101C0000875E9D470E94BF091F910F91FF90EF9043
:101C10000895992726E0880F991F2A95E1F7855E98
:101C20009D470E94BB0980E090E00895FF920F93CA
:101C30001F93F62E082F112756E0000F111F5A95FB
:101C4000E1F7055E1D47C8010E94BB092F2D332710
:101C5000322F2227280F311D622FC8010E94BF0991
:101C60001F910F91FF900895CF92DF92EF92FF9214
:101C70000F931F93C82EDD2466E0CC0CDD1C6A9503
:101C8000E1F7C601805E9D470E94BB09182FC6017F
:101C90008F5D9D470E94BB09082FC6018E5D9D4741
:101CA0000E94BB09F82EC6018D5D9D470E94BB09AD
:101CB000E82EC801B7011F910F91FF90EF90DF90C0
:101CC000CF900895CF92DF92EF92FF920F931F93E0
:101CD0007A018B01C82EDD2476E0CC0CDD1C7A95D0
:101CE000E1F7612FC601805E9D470E94BF09602F0A
:101CF000C6018F5D9D470E94BF096F2DC6018E5D95
:101D00009D470E94BF096E2DC6018D5D9D470E94B3
:101D1000BF091F910F91FF90EF90DF90CF90089532
:101D20008F929F92AF92BF92CF92DF92EF92FF92EB
:101D30000F931F93CF93C82F882499245401CC2E3E
:101D4000DD24B6E0CC0CDD1CBA95E1F7C6018C5D54
:101D50009D470E94BB09682F772788279927EE2483
:101D6000F62E072F182FC6018B5D9D470E94BB09D9
:101D7000E80EF11C011D111D102F0F2DFE2CEE245D
:101D8000C6018A5D9D470E94BB09E80EF11C011D3A
:101D9000111D102F0F2DFE2CEE24C601895D9D47CD
:101DA0000E94BB09E80EF11C011D111DC801B701FD
:101DB000E814F9040A051B0519F047015801BFCFC3
:101DC000CF911F910F91FF90EF90DF90CF90BF9038
:101DD000AF909F908F9008958F929F92AF92BF92F5
:101DE000CF92DF92EF92FF920F931F93CF93C82F62
:101DF00041E0842E912CA12CB12CCC2EDD2436E098
:101E0000CC0CDD1C3A95E1F7C601885D9D470E9428
:101E1000BB09682F772788279927EE24F62E072FEE
:101E2000182FC601875D9D470E94BB09E80EF11C73
:101E3000011D111D102F0F2DFE2CEE24C601865DF5
:101E40009D470E94BB09E80EF11C011D111D102FBA
:101E50000F2DFE2CEE24C601855D9D470E94BB0917
:101E6000E80EF11C011D111DC801B701E814F904A9
:101E70000A051B0519F047015801BFCFCF911F91EB
:101E80000F91FF90EF90DF90CF90BF90AF909F9019
:101E90008F900895EF92FF920F931F937B012F2D48
:101EA0003327082F112756E0000F111F5A95E1F72D
:101EB000622FC801825D9D470E94BF096E2DC80137
:101EC000815D9D470E94BF091F910F91FF90EF9088
:101ED0000895EF92FF920F931F93082F1127E6E0CA
:101EE000000F111FEA95E1F7C801805D9D470E9430
:101EF000BB099927F82EEE24C8018F5C9D470E94EC
:101F0000BB0999278E299F291F910F91FF90EF9070
:101F100008959927F6E0880F991FFA95E1F7855EF5
:101F20009D470E94BB0999270895EF92FF921F9346
:101F3000162FE82EFF24A6E0EE0CFF1CAA95E1F771
:101F40008BE192E8E80EF91EC7010E94BB09812FC0
:101F50009927682FC7010E94BF091F91FF90EF903A
:101F600008959927B6E0880F991FBA95E1F7845E26
:101F70009D470E94BB0999270895992736E0880F4D
:101F8000991F3A95E1F7845E9D470E94BF09089525
:101F9000992746E0880F991F4A95E1F7825E9D4791
:101FA0000E94BB0999270895992756E0880F991F29
:101FB0005A95E1F7825E9D470E94BF0908959927CF
:101FC00066E0880F991F6A95E1F7845D9D470E943E
:101FD000BB0999270895992776E0880F991F7A956C
:101FE000E1F7845D9D470E94BF09089580E88093D2
:101FF000018085E090E00E94DD1D08956F927F9240
:102000008F929F92AF92BF92CF92DF92EF92FF9208
:102010000F931F93CF93DF938C015B01EE24FF247A
:1020200097016701E701A2E18A2EAAE09A2E62E3F6
:102030007AE03501AC01DA018D91AD018134C8F54A
:10204000F30190819134A8F5E80EF11C290F311DA0
:102050009927AA27BB27FAE0880F991FAA1FBB1F41
:10206000FA95D1F7FB0181939193A193B193BF01AD
:10207000D3018D913D019927AA27BB27EAE0880F5C
:10208000991FAA1FBB1FEA95D1F7F4018193919381
:10209000A193B1934F012196C830D10560F2C701D9
:1020A00087709070892B29F42E0D3F1D2038310543
:1020B00019F080E090E03DC0C0E2D0E8D8016D9119
:1020C0008D01CE010E94BF092196B0E8C832DB071E
:1020D000A8F3C8E2D0E88501F80161918F01CE0133
:1020E0000E94BF092196F0E8C033DF07A8F3C0E0E3
:1020F000D0E0C701A3E096958795AA95E1F7C817A8
:10210000D90748F4CC0CDD1C21E030E0C22AD32AE8
:10211000C20FD31FF4CF8D2D9927682F80E390E84D
:102120000E94BF096C2D81E390E80E94BF0981E005
:1021300090E0DF91CF911F910F91FF90EF90DF9092
:10214000CF90BF90AF909F908F907F906F900895A9
:10215000AF92BF92CF92DF92EF92FF920F931F93B5
:10216000CF93DF93EE24FF248701E216F3060407E2
:10217000150708F59927E6E0880F991FEA95E1F71A
:10218000EC01C25DDD47DC01A15DBD47FB01EE0D49
:10219000FF1D8081888381818C9382E0A82EB12CE1
:1021A000C12CD12CEA0CFB1C0C1D1D1DE216F306E4
:1021B0000407150758F3CA01B901DF91CF911F91A8
:1021C0000F91FF90EF90DF90CF90BF90AF90089568
:1021D000AF92BF92CF92DF92EF92FF920F931F9335
:1021E000CF93DF93EE24FF248701E216F306040762
:1021F000150708F59927A6E0880F991FAA95E1F71A
:10220000EC01C05DDD47DC01AF5CBD47FB01EE0DBD
:10221000FF1D888180838C918183F2E0AF2EB12CE9
:10222000C12CD12CEA0CFB1C0C1D1D1DE216F30663
:102230000407150758F3CA01B901DF91CF911F9127
:102240000F91FF90EF90DF90CF90BF90AF900895E7
:10225000E82FFF27EE0FFF1FEE0FFF1FEE5CF54F7D
:1022600080819181A281B381BC01CD010895E82FC5
:10227000FF27EE0FFF1FEE0FFF1FEE5EF54F808171
:102280009181A281B381BC01CD010895AF92BF922B
:10229000CF92DF92EF92FF920F931F93CF93DF9332
:1022A0006C01AA24BB24FC018081882311F17601F2
:1022B000E6018881F7018083853289F489810E9453
:1022C0008020082F112784E0000F111F8A95E1F765
:1022D0008A810E948020800FF701808322960894D3
:1022E000A11CB11C0894E11CF11C21968881882353
:1022F00001F7AC0CBD1CF5011082DF91CF911F914D
:102300000F91FF90EF90DF90CF90BF90AF90089526
:10231000CF92DF92EF92FF920F931F93CF93DF93B1
:10232000CDB7DEB72A970FB6F894DEBF0FBECDBF8C
:102330006C01613029F4B5EBEB2EB1E0FB2E29C026
:10234000623029F4A0EFEA2EA1E0FA2E22C0633019
:1023500029F4FBE2EF2EF2E0FF2E1BC0643029F4DB
:10236000E7E6EE2EE2E0FE2E14C0653029F473EAB3
:10237000E72E72E0F72E0DC0663029F462EFE62EEC
:1023800062E0F62E06C0673021F49EE2E92E93E06B
:10239000F92E5F934F933F932F938FE693E09F9394
:1023A0008F938E010F5F1F4F1F930F930E94F8377B
:1023B000B701C6010E944237B801C6010E94213709
:1023C00063E773E0C6010E9421378DB79EB7089678
:1023D0000FB6F8949EBF0FBE8DBF2A960FB6F89425
:1023E000DEBF0FBECDBFDF91CF911F910F91FF9048
:1023F000EF90DF90CF9008950F931F93CF93DF93CB
:102400008C01EB0168E773E0CE010E944937892B0C
:1024100009F079C06DE773E0CE010E944937892B3E
:1024200011F082E071C062E873E0CE010E9449378A
:10243000892B09F058C068E873E0CE010E94493743
:10244000892B09F050C06DE873E0CE010E94493736
:10245000892B39F463E973E0CE010E944937892B57
:1024600011F084E051C068E973E0CE010E94493761
:10247000892B11F085E048C06DE973E0CE010E9420
:102480004937892B39F463EA73E0CE010E9449375A
:10249000892B11F086E038C068EA73E0CE010E9413
:1024A0004937892B11F087E02FC06DEA73E0CE0128
:1024B0000E944937892B39F462EB73E0CE010E9408
:1024C0004937892B11F088E01FC067EB73E0CE011C
:1024D0000E944937892B39F46BEB73E0CE010E94DF
:1024E0004937892B11F083E00FC06FEB73E0CE0109
:1024F0000E944937892B39F464EC73E0CE010E94C5
:102500004937892B21F081E0F801808302C0F8016E
:102510001082DF91CF911F910F9108950F931F9318
:10252000CF93DF938C01CB0169EC73E00E941D21F6
:10253000EC01009709F445C06BEC73E00E9438375A
:10254000892B39F06FEC73E0CE010E943837892B6C
:1025500011F481E00FC063ED73E0CE010E943837C3
:10256000892B39F068ED73E0CE010E943837892B52
:1025700059F482E0F801808369EC73E080E090E038
:102580000E941D21EC011BC06DED73E0CE010E9485
:102590003837892B39F062EE73E0CE010E9438376C
:1025A000892B59F467EE73E080E090E00E941D21D2
:1025B000EC0183E0F801808302C0F80110822097CB
:1025C00019F4F801108205C0BE01C80102960E94EC
:1025D0004237DF91CF911F910F910895EF92FF92B3
:1025E0000F931F93CF93DF93CDB7DEB7CE5FD3406A
:1025F0000FB6F894DEBF0FBECDBF7B0100E010E048
:10260000009741F1672B31F1BC01CE0101960E9488
:102610004237B701CE0101960E9449378C010097DD
:10262000C9F0F70101900020E9F73197EE19FF0991
:10263000E80FF91F69EE73E0CF0101960E941D219A
:102640008C01009739F00E94461140E26BE2C8010C
:102650000E944F21C801C250DC4F0FB6F894DEBF74
:102660000FBECDBFDF91CF911F910F91FF90EF90E3
:1026700008950F931F93CF93DF93CDB7DEB7CE5F4F
:10268000D3400FB6F894DEBF0FBECDBFBC01892B7F
:10269000A1F0CE0101960E94423760EF73E0CE01B7
:1026A00001960E941D218C0163EF73E00E94383770
:1026B000892B11F00F5F1F4FB801CB01C250DC4FC7
:1026C0000FB6F894DEBF0FBECDBFDF91CF911F9143
:1026D0000F9108950F931F93CF93DF93CDB7DEB77C
:1026E0002C970FB6F894DEBF0FBECDBF80EA96E8F8
:1026F000A1E0B0E089839A83AB83BC838E010B5F3A
:102700001F4F88E0E5EFF3E0D80101900D928A9524
:10271000E1F70E94F60F89819A81AB81BC81019714
:10272000A109B10989839A83AB83BC8389819A818A
:10273000AB81BC818F5F9F4FAF4FBF4F61F7B80137
:10274000C8010E94FE0F882309F4FFCF2C960FB614
:10275000F894DEBF0FBECDBFDF91CF911F910F91D7
:1027600008958DEF93E00E94C2370895EF92FF9293
:102770001F93CF93DF930E94B11381E394E00E94F3
:10278000C2370E94B11382E594E09F938F930E9419
:10279000AD378DE090E80E94BB0999279F938F93F6
:1027A0008CE090E80E94BB0999279F938F938BE060
:1027B00090E80E94BB0999279F938F938AE090E845
:1027C0000E94BB0999279F938F9389E090E80E940C
:1027D000BB0999279F938F9388E090E80E94BB09DB
:1027E00099279F938F9386E694E09F938F930E94FF
:1027F000AD3784E894E09F938F930E94AD378DB7F7
:102800009EB742960FB6F8949EBF0FBE8DBFC4E12F
:10281000D0E813E0CE010E94BB0999279F938F93C4
:102820008AE9E82E84E0F82EFF92EF920E94AD37FD
:102830000F900F900F900F901150219617FFEACF35
:102840008EE994E09F938F930E94AD370F900F9085
:10285000C0E1D0E813E0CE010E94BB0999279F9305
:102860008F93FF92EF920E94AD370F900F900F90D1
:102870000F901150219617FFEECF84EB94E09F93B9
:102880008F930E94AD370F900F90C8E1D0E813E00E
:10289000CE010E94BB0999279F938F93FF92EF92DD
:1028A0000E94AD370F900F900F900F90115021960E
:1028B00017FFEECF0E94B113DF91CF911F91FF90D0
:1028C000EF900895CF92DF92EF92FF920F931F93B4
:1028D000CF93DF936C017B0100E010E00617170730
:1028E00008F05DC0EC0180917609882309F450C09E
:1028F00080916E0990916F09A0917009B091710952
:1029000083309105A105B10571F4F60180819181B3
:10291000A281B3818093720990937309A093740983
:10292000B093750907C00497A105B10518F0888117
:102930000E94890420916E0930916F0940917009BD
:10294000509171092F5F3F4F4F4F5F4F20936E099A
:1029500030936F0940937009509371098091720907
:1029600090917309A0917409B09175090496A11D05
:10297000B11D281739074A075B0751F40E94B604B6
:102980001092760980E00E949D060E94000007C018
:102990000F5F1F4F21960E151F0508F4A4CFDF917E
:1029A000CF911F910F91FF90EF90DF90CF900895FE
:1029B0001F93CF93DF93182F0E94D20CC82FDD27CF
:1029C000C331D105D9F1C431D1051CF4209759F197
:1029D00038C0C731D10519F06C9709F132C0812F89
:1029E0000E94EC0EDC01CB019C01892B51F185E0AA
:1029F000253B380710F024EB35E0C901AA27BB2797
:102A00009C01AD0160E071E2812F0E942907DC0189
:102A1000CB01BC0180E091E20E94621412C0812FC0
:102A20000E949D060EC0812F0E94B4059E014BE4BA
:102A30005EEB61E0812F0E94C00503C0812F0E94E0
:102A40002306DF91CF911F91089580915F0A9091A5
:102A5000600AA091610AB091620ABC01CD010E9496
:102A60000823DC01CB01BC01CD010E94D321BC01B4
:102A700081E00E9429010895CF93DF93CDB7DEB79F
:102A800024970FB6F894DEBF0FBECDBF1C821B8209
:102A90001A8219828AEC94E09F938F930E94AD373B
:102AA000AE014F5F5F4FBE016D5F7F4F83EE94E0DD
:102AB0000E9453050F900F90882319F08EEE94E03A
:102AC00002C083EF94E00E94C23724960FB6F894B8
:102AD000DEBF0FBECDBFDF91CF91089580917A09FF
:102AE00090917B096AEF74E002960E94EE120097C3
:102AF00021F06FE57AE00E940A2280917A09909194
:102B00007B096EEF74E002960E94EE12009721F0AE
:102B100067E67AE00E940A2280917A0990917B0907
:102B200063E075E002960E94EE12009721F063E6E2
:102B30007AE00E940A2280917A0990917B0966E0EE
:102B400075E002960E94EE12E3E5FAE0A0E0B0E044
:102B50008FE1182E0E94C93CA4E0B0E081E0082E6D
:102B60000E94BD3CA5E0B0E083E0082E0E94BD3C81
:102B70000895AF92BF92CF92DF92FF920F931F936F
:102B8000CF93DF93CDB7DEB764970FB6F894DEBF6F
:102B90000FBECDBF5B016C011C8A1B8AE0C26AE0DC
:102BA00075E0C8010E9449376C01892B51F56AE133
:102BB00075E0C8010E9449376C01892B49F080916A
:102BC000670A9091680AA091690AB0916A0A21C0C7
:102BD0006AE275E0C8010E9449376C01892B49F00F
:102BE0008091630A9091640AA091650AB091660A87
:102BF00010C06AE375E0C8010E9449376C01892B57
:102C0000F1F080915F0A9091600AA091610AB09101
:102C1000620ABC01CD010E940823DC01CB01BC018A
:102C2000CD010E949C212FE0D601FC0101900D9264
:102C30002A95E1F78FE090E0C80ED91E90C26AE4B1
:102C400075E0C8010E9449376C01892B09F44CC01A
:102C500080915A0A99279F938F938091590A9927B7
:102C60009F938F938CE595E09F938F938E010F5FD9
:102C70001F4F1F930F930E94F83780915C0A99278A
:102C80009F938F9380915B0A99279F938F9387E6F9
:102C900095E09F938F93CE0107969F938F930E9409
:102CA000F83780915E0A99279F938F9380915D0AF0
:102CB00099279F938F9382E795E09F938F93CE01FF
:102CC0000D969F938F930E94F83781E1D601F8010A
:102CD00001900D928A95E1F781E190E0C80ED91E2E
:102CE000ADB7BEB7589636C26CE775E0C8010E9412
:102CF00049376C01009799F040E150E060E270E0E4
:102D00000E94173781E00E94350220E1F601DC01C4
:102D10000D9001922A95E1F7E0E1F0E0E4C16DE861
:102D200075E0C8010E9449376C01009741F01AE034
:102D3000DC01E12F1D92EA95E9F780E02FC068E9F8
:102D400075E0C8010E9449376C01009741F01AE014
:102D5000DC01E12F1D92EA95E9F781E01FC063EAEB
:102D600075E0C8010E9449376C01009741F01AE0F4
:102D7000DC01E12F1D92EA95E9F782E00FC06EEACF
:102D800075E0C8010E9449376C010097C1F01AE054
:102D9000DC01E12F1D92EA95E9F783E00E94EC0146
:102DA000813019F4E9EBF5E002C0E4ECF5E0D6017E
:102DB00001900D921A95E1F7EAE0F0E094C16FEC12
:102DC00075E0C8010E9449376C01009741F047E067
:102DD00050E060E270E00E94173780E02FC067ED9E
:102DE00075E0C8010E9449376C01009741F047E047
:102DF00050E060E270E00E94173781E01FC06FED85
:102E000075E0C8010E9449376C01009741F047E026
:102E100050E060E270E00E94173782E00FC067EE7A
:102E200075E0C8010E9449376C01009781F047E0C6
:102E300050E060E270E00E94173783E00E94EC01EE
:102E4000813009F04EC187E0EFEEF5E045C167EF54
:102E500075E0C8010E9449376C01892BA9F080E018
:102E60000E94420220E034E0281B390B3C8B2B8B64
:102E700047E0F42ED601EF2D1D92EA95E9F78B89F4
:102E80009C89969587954CC16FEF75E0C8010E94AB
:102E900049376C01009741F019E0FC01812F119234
:102EA0008A95E9F780E00FC069E076E0C8010E94EA
:102EB00049376C010097C1F019E0DC01E12F1D9248
:102EC000EA95E9F781E00E942302882319F0E3E103
:102ED000F6E002C0EDE1F6E0D60101900D921A9500
:102EE000E1F7E9E0F0E0FFC067E276E0C8010E94A8
:102EF00049376C01892B09F449C086E0D6011D923F
:102F00008A95E9F7CE0143960E942026882309F08E
:102F1000E0C00B891C89005110401C8B0B8BC80131
:102F2000AA2797FDA095BA2FBC01CD010E94653458
:102F300017FF06C020E030E040E857E40E9442322C
:102F400020E030E040E25FE30E94A832DC01CB01E8
:102F5000BC01CD010E94F430DC01CB019C8B8B8B3A
:102F600023E0969587952A95E1F70A969F938F938C
:102F70008EE296E09F938F93CE0101969F938F935D
:102F80000E94F837EDB7FEB7369657C064E376E097
:102F9000C8010E9449376C01892B09F4A7C086E05B
:102FA000D6011D928A95E9F7CE0143960E9420260C
:102FB0002B893C89882309F446C000E010E1021BFC
:102FC000130BC801AA2797FDA095BA2FBC01CD010C
:102FD0000E94653417FF06C020E030E040E857E467
:102FE0000E94423220E030E040E25FE30E94A832DB
:102FF000DC01CB01BC01CD010E94F430DC01CB012E
:103000009C8B8B8B6AE070E00E94433C9F938F9374
:103010008B899C896AE070E00E94433C7F936F93A8
:103020008BE396E09F938F93CE0101969F938F93AE
:103030000E94F837EDB7FEB738960FB6F894FEBF8A
:103040000FBEEDBF46C08901005110401C8B0B8B99
:10305000C801AA2797FDA095BA2FBC01CD010E94F7
:10306000653417FF06C020E030E040E857E40E94D6
:10307000423220E030E040E25FE30E94A832DC010F
:10308000CB01BC01CD010E94F430DC01CB019C8B53
:103090008B8B6AE070E00E94433C9F938F938B89F7
:1030A0009C896AE070E00E94433C7F936F9384E4C4
:1030B00096E09F938F93CE0101969F938F930E94EA
:1030C000F8378DB79EB708960FB6F8949EBF0FBE1F
:1030D0008DBF86E0FE013196D60101900D928A9552
:1030E000E1F7E7E0F0E0CE0EDF1E39C06CE476E0F9
:1030F000C8010E9449376C01892BD1F180E00E9400
:10310000420220E034E0281B390B3C8B2B8B97E0EC
:10311000F92ED601EF2D1D92EA95E9F78B899C894E
:103120009F938F9384E596E09F938F938E010F5F1B
:103130001F4F1F930F930E94F837D601F80101909B
:103140000D92FA94E1F787E090E0C80ED91EADB772
:10315000BEB716960FB6F894BEBF0FBEADBF64E201
:1031600070E0C6010E942C378C01892B09F017CD25
:10317000C50164960FB6F894DEBF0FBECDBFDF91D8
:10318000CF911F910F91FF90DF90CF90BF90AF90A4
:1031900008958F929F92BF92CF92DF92EF92FF920B
:1031A0000F931F93CF93DF93CDB7DEB728970FB65A
:1031B000F894DEBF0FBECDBFB82E8824992400E05E
:1031C00019E110937B0900937A090E94D20C992788
:1031D0008731910559F08831910524F4892B09F440
:1031E00009C223C24C9709F400C21FC28091520A3F
:1031F000813019F482E08093520A8B2D0E94EC0EEC
:10320000DC01CB01FC01181619060CF00EC28F5F11
:10321000934010F0EEEFF3E0CF01AA2797FDA095C1
:10322000BA2F9C01AD0160917A0970917B098B2DB9
:103230000E942907DC01CB01FC0180917A09909161
:103240007B09E80FF91F108220917A0930917B09E0
:103250001D821E821F8218861093790900937809B7
:1032600080E091E190937B0980937A09B9010E94F3
:103270008E12E0917A09F0917B098081992700975D
:1032800021F004970CF09EC105C046E750E06DE9BF
:1032900071E0EBC0CF0102960E9439136C0168E522
:1032A00076E00E943837892B41F48BE0E3EEF4E0BE
:1032B000D60101900D928A95E1F780917A0990915B
:1032C0007B09B60101960E94FC1100917A091091C8
:1032D0007B09F8018181883009F0B8C06AE576E0A1
:1032E000C6010E944937892B81F065E676E0C80166
:1032F00002960E94EE12FC01009709F46BC0108A3E
:10330000BC0181E00E94290165C06AE676E0C60141
:103310000E944937892B09F46EC065E776E0C80141
:1033200002960E94EE12009751F06AE776E00E9442
:103330003837892B21F480E00E94950103C080E09A
:103340000E94880180917A0990917B096DE776E06F
:1033500002960E94EE12009751F06AE776E00E9412
:103360003837892B21F481E00E94950103C081E068
:103370000E94880180917A0990917B0962E876E049
:1033800002960E94EE12009751F06AE776E00E94E2
:103390003837892B21F482E00E94950103C082E036
:1033A0000E94880180917A0990917B0967E876E014
:1033B00002960E94EE12009751F06AE776E00E94B2
:1033C0003837892B21F483E00E94950103C083E004
:1033D0000E94880189E0ECE8F6E0D60101900D92A8
:1033E0008A95E1F780917A0990917B09B60101965F
:1033F0000E94FC112BC065E976E0C6010E944937A6
:10340000892B21F10E946E154FE750E06EE171E0CB
:1034100080917809909179090E94F036E0917809BD
:10342000F0917909DF010D900020E9F71197AE1BAB
:10343000BF0B9D0144275527BF018B2D0E94A90674
:1034400080E00E949D060E940000BCC0AE014F5F5C
:103450005F4FBE016B5F7F4FC6010E9453058823FB
:10346000E9F442E950E06CE870E0809178099091CD
:1034700079090E94F036E0917809F0917909DF012D
:103480000D900020E9F71197AE1BBF0B9D0144275B
:103490005527BF018B2D0E94A90694C0E0917A099F
:1034A000F0917B0961816830E1F029813A814B819B
:1034B0005C8180917809909179090E948811E0914E
:1034C0007809F0917909DF010D900020E9F7119753
:1034D000AE1BBF0B9D0144275527BF018B2D0E94BA
:1034E000A90689819A81AB81BC810097A105B105AC
:1034F00009F468C089819A81AB81BC818F5F974054
:10350000A040B04018F00FEF17E002C009811A8107
:10351000980140917809509179096D817E818F8160
:1035200098850E94BE04E0917809F0917909E00F36
:10353000F11F1182E0917A09F0917B09818181303C
:1035400059F0883049F0833079F463EA76E0C601B7
:103550000E944937892B41F0B801809178099091F8
:1035600079090E94B9158C01C801AA27BB277C01E3
:103570008D019C01AD0160917809709179098B2DC5
:103580000E94A9068D819E81AF81B8858E0D9F1DF9
:10359000A01FB11F8D839E83AF83B88789819A81D5
:1035A000AB81BC818E199F09A00BB10B89839A83D3
:1035B000AB83BC839ACFC4010894811C911C8D5DA0
:1035C000954078F48B2D0E94900E7B018C018B2D01
:1035D0000E942811DC01CB01E816F9060A071B0737
:1035E00051F78B2D0E949D0620C08B2D0E949D06B9
:1035F0001092520A8091520A882339F48FEA96E099
:103600000E94C23781E08093520A20E030E040E51A
:1036100050E061E08B2D0E94C005882319F480934F
:10362000520A03C08B2D0E94230628960FB6F894E9
:10363000DEBF0FBECDBFDF91CF911F910F91FF90E5
:10364000EF90DF90CF90BF909F908F900895CFEF35
:10365000D0E1DEBFCDBF0E94D30184EC96E09F9302
:103660008F930E94AD370E946A130E94821B0E94B2
:1036700074300E9425150E94B6130E9484040E9493
:103680003C150E941D260F900F9080E00E94D814D8
:1036900081E00E94C51B80916B0A882311F00E9473
:1036A000F03083E00E94C91884E00E94C91885E0C8
:1036B0000E94C91886E00E94C91887E00E94C918B4
:1036C000E4CFCF93DF93E3E5FAE08FE1ABEEB6E032
:1036D000EF01982F0D9009929A95E1F7A0E0B0E0E4
:1036E000182E0E94C93CA4E0B0E081E0082E0E94A0
:1036F000BD3CA5E0B0E083E0082E0E94BD3CDF9118
:10370000CF910895A0E0B0E00E94B03C802D8238B7
:1037100019F00E94611B28C0E3E5FAE0A0E0B0E0E8
:103720008FE1182E0E94B83CA4E0B0E00E94B03CAB
:10373000802D813039F4A5E0B0E00E94B03C802DAE
:10374000833061F0A4E0B0E081E0082E0E94BD3C2F
:10375000A5E0B0E083E0082E0E94BD3C81E08093AC
:10376000570A83E08093580A8FE59AE00E94F70A8F
:1037700087E69AE00E947F0A83E69AE00E94BB0AED
:1037800089E59AE00E94450A0895BF92CF92DF92A0
:10379000EF92FF920F931F93CF93DF93CDB7DEB7D6
:1037A00026970FB6F894DEBF0FBECDBFB82E8AE4C1
:1037B0009EEB9A8389838B2D0E94D20C282F33276E
:1037C0002115310509F4A2C12232310509F0A4C145
:1037D0008B2D0E94EC0EDC01CB01AC0118161906F2
:1037E0000CF09AC1809710F04FE150E08E010F5F0E
:1037F0001F4F9E012D5F3F4F62E77AE08B2D0E94A5
:103800002E0809811A818EEB0A34180709F084C149
:1038100044E050E060E277E082E79AE00E94FD3603
:10382000892B21F562E77AE08FE1E3E5FAE0DB013D
:1038300001900D928A95E1F786E699E6AEE6B4E648
:103840008093720A9093730AA093740AB093750AD6
:103850008FEF8B838C838D838E839E012D5F3F4FF3
:103860004FE150E08B2D0E94840756C144E050E0A8
:1038700065E277E082E79AE00E94FD366C01892BD1
:1038800009F05CC09091780A8091590A981709F064
:1038900043C19091790A80915A0A981709F03CC166
:1038A00090917A0A80915B0A981709F035C190913E
:1038B0007B0A80915C0A981709F02EC190917C0ACE
:1038C00080915D0A981709F027C190917D0A809137
:1038D0005E0A981709F020C192E7E92E9AE0F92EC6
:1038E00083E795E6A4E7B4E78093720A9093730A9E
:1038F000A093740AB093750A8FEF8B838C838D83AA
:103900008E839E012D5F3F4F4FE150E0B7018B2D1D
:103910000E94840782E88093720A8093730A8093DE
:10392000740A8093750A8FE1D601F701182E0E9460
:10393000C93C8B2D0E94B405F894E5C044E050E0EA
:103940006AE277E082E79AE00E94FD36892BA1F5D2
:103950009091780A8091590A981709F0DDC09091EA
:10396000790A80915A0A981709F0D6C090917A0A7C
:1039700080915B0A981709F0CFC090917B0A8091E3
:103980005C0A981709F0C8C090917C0A80915D0A82
:10399000981709F0C1C090917D0A80915E0A98172E
:1039A00009F0BAC0F89485B7816085BF85B7826099
:1039B00085BFFF9500F0B0C044E050E06FE277E0D3
:1039C00082E79AE00E94FD36892B71F59091780A82
:1039D0008091590A981709F09FC09091790A8091B7
:1039E0005A0A981709F098C090917A0A80915B0A58
:1039F000981709F091C090917B0A80915C0A981702
:103A000009F08AC090917C0A80915D0A981709F0AC
:103A100083C090917D0A80915E0A981709F07CC05E
:103A200081E08093760978C044E050E064E377E079
:103A300082E79AE00E94FD366C01892B09F06CC088
:103A400090918B0A8091590A981709F065C090915E
:103A50008C0A80915A0A981709F05EC090918D0ADD
:103A600080915B0A981709F057C090918E0A809157
:103A70005C0A981709F050C090918F0A80915D0AF6
:103A8000981709F049C09091900A80915E0A9817A2
:103A900009F042C082E7E82E8AE0F82E83E795E637
:103AA000A4E7B4E78093720A9093730AA093740A10
:103AB000B093750A8FEF8B838C838D838E839E01E9
:103AC0002D5F3F4F4FE150E0B7018B2D0E948407DF
:103AD00082E88093720A8093730A8093740A8093B9
:103AE000750A80916B0A80938A0A8FE1D601F701EB
:103AF000182E0E94C93C89E397E00E94C2378B2DA3
:103B00000E94B405F8940E94000006C049E45EEBF0
:103B100062E08B2D0E94C00526960FB6F894DEBF9A
:103B20000FBECDBFDF91CF911F910F91FF90EF900E
:103B3000DF90CF90BF900895EF92FF920F931F9365
:103B40008C01C801AA2797FDA095BA2FBC01CD0111
:103B50000E94653417FF06C020E030E040E857E4DB
:103B60000E9442322BEA3AEA4AEA5EE30E94A83215
:103B70007B018C0120E030E040E85FE30E942F34BD
:103B8000882314F481E012C020E030E04FE753E4D2
:103B9000C801B7010E94C333181614F480E006C0B0
:103BA000C801B7010E94F430DC01CB018A95F1F71E
:103BB0001F910F91FF90EF900895CF93DF93EC0149
:103BC000892B31F088EE93E00E949C1D2197D1F75C
:103BD000DF91CF910895CF93DF93EC01892B31F0E2
:103BE0008AE090E00E94DD1D2197D1F7DF91CF910F
:103BF00008951F920F920FB60F9211242F933F93A7
:103C00004F938F939F93EF93FF9380919C09909193
:103C10009D09E0919C09F0919D09E458F64F8CB103
:103C200080834091A009442321F180919C099091C7
:103C30009D09E0919C09F0919D09E458F64F80811F
:103C4000833121F48091A109826010C080919C0988
:103C500090919D09E0919C09F0919D09E458F64FDF
:103C60008081813131F48091A1098D7F8093A109F8
:103C700009C080919C0990919D09019690939D099E
:103C800080939C0920919C0930919D0980919E0907
:103C900090919F0928173907A1F4442349F05D9BAF
:103CA000FECF83E18CB98091A10981608093A10945
:103CB00080919C0990919D09019790939D09809313
:103CC0009C0980919C0990919D098097ACF010927D
:103CD0009D0910929C0920919C0930919D09809129
:103CE0009E0990919F092817390731F480E290E0EE
:103CF00090939D0980939C09FF91EF919F918F91E3
:103D00004F913F912F910F900FBE0F901F901895DC
:103D1000CF93C82F6623A1F1613079F1623051F160
:103D2000633029F1643001F16530D9F06630B1F0CB
:103D3000673089F0683061F0693039F020E030E0B8
:103D40006A3001F521E030E01DC023E030E01AC008
:103D500026E030E017C028E030E014C02CE030E06E
:103D600011C020E130E00EC029E130E00BC022E2BA
:103D700030E008C023E330E005C027E630E002C0B1
:103D80002FEC30E0CC2339F583B1836083B91098F0
:103D9000119A88E98AB9832F99278093900029B9CD
:103DA00026E63FE13093A3092093A20986E59FE12F
:103DB0009093A5098093A409B9010E9466371092D7
:103DC0009D0910929C0910929F0910929E09C09320
:103DD000A009C093A109CF910895882391F48091FF
:103DE0009500886080939500662331F4809195005A
:103DF0008D7F8093950008958091950082608093D7
:103E000095000895882369F4662331F48091950024
:103E1000877F8093950008958091950088608093B6
:103E200095000895882399F4662321F480919500E4
:103E30008F7C05C0613031F4809195008F7E809336
:103E40009500089580919500806380939500089572
:103E5000882311F46093A0090895882319F020E0C5
:103E600030E022C020919C0930919D0980919E09EB
:103E700090919F09281739074CF020919C093091A7
:103E80009D0980919E0990919F090CC080919E0987
:103E900090919F0920919C0930919D09821B930B61
:103EA00020E230E0281B390BC9010895382F2091FA
:103EB000A0098091A109992782709070222311F0A6
:103EC0000097E1F75D9BFECF3CB9089520919C09D6
:103ED00030919D0980919E0990919F09281739077B
:103EE000A9F380919E0990919F09FC01E458F64F37
:103EF000019690939F0980939E09E0818091A0098B
:103F0000882359F09091A10990FF07C05D9BFECFD7
:103F100081E18CB99E7F9093A10980919E09909137
:103F20009F09809724F010929F0910929E098E2F6E
:103F300099270895CF93DF93FB01882389F480812B
:103F4000882371F0EB0121972196E091A409F0916B
:103F5000A50960E070E08881099589818823A1F72F
:103F6000DF91CF9108959F92AF92BF92CF92DF924F
:103F7000EF92FF920F931F93CF93DF93EB01942E59
:103F800059016B0101E0EE24FF24882309F47DC070
:103F90008DC0002399F0113289F48881882349F07B
:103FA000E091A409F091A50960E070E0899109957C
:103FB000F4CF00E00894E11CF11C67C0183009F54B
:103FC000CC16DD0609F441C0E091A409F091A509E1
:103FD00060E070E0812F0995E091A409F091A509B6
:103FE00060E070E080E20995E091A409F091A509F4
:103FF00060E070E0812F099521970894E108F108AD
:1040000044C01B3111F5CC16DD06E9F0E091A4099E
:10401000F091A50960E070E088E00995E091A409BD
:10402000F091A50960E070E080E20995E091A409B3
:10403000F091A50960E070E088E009952197089467
:10404000E108F108E0CF01E020C0812F80528F35D8
:1040500010F01930D1F4EA14FB04BCF4992041F0BB
:10406000E091A409F091A50960E070E08AE207C040
:10407000E091A409F091A50960E070E0812F099515
:1040800019930894E11CF11C00E0E091A209F09161
:10409000A30980E090E00995182F8D3009F079CFC1
:1040A000188260E577E088810E949A1FC701DF913E
:1040B000CF911F910F91FF90EF90DF90CF90BF9025
:1040C000AF909F900895882341F480919E0990912C
:1040D0009F0990939D0980939C090895482F282F4C
:1040E00033272A30310510F4405D05C0C9010A9715
:1040F000069720F4495C842F99270895C9010895F3
:10410000982F80538A3010F499270895892F81566B
:10411000863010F4975505C0892F8154863020F4DD
:104120009753892F99270895892F99270895EF92FA
:10413000FF920F931F93CF93DF93EC017B0120E05D
:1041400030E08881882371F02E9D80012F9D100D15
:104150003E9D100D112489910E9480209801280F06
:10416000311DEFCFC901DF91CF911F910F91FF90CA
:10417000EF900895CF92DF92EF92FF920F931F93EB
:10418000CF93DF938C017B016A01EC01892B51F005
:104190008881882339F088810E94802099278E1594
:1041A0009F051CF080E090E00DC021968881882357
:1041B00091F7B701C8010E949720F601918380838F
:1041C00081E090E0DF91CF911F910F91FF90EF90F0
:1041D000DF90CF90089520E030E0DC018C918823BF
:1041E00099F0FB018081882341F09C918081981790
:1041F00021F0319680818823C9F78081882321F0BE
:104200002F5F3F4F1196EACFC9010895DC018C91D1
:10421000882381F0FB018081882351F09C9180816B
:10422000981711F4CD010895319680818823B9F74C
:104230001196EDCF80E090E008950F931F93CF93F8
:10424000DF938B01EC01892B21F4C091A609D09159
:10425000A7092097F1F0B801CE010E94EB20C80F0A
:10426000D91F8881882339F41092A7091092A609D2
:1042700080E090E00FC0B801CE010E940621FC0151
:10428000892B19F0808181111192F093A709E09395
:10429000A609CE01DF91CF911F910F910895FC01E6
:1042A0008081882331F08081861709F4408331961C
:1042B000F7CF0895382F2227892F9927822B932B08
:1042C0000895EF92FF920F931F937B018C01B62FFD
:1042D000AA27992788272F2D332744275527A90157
:1042E00033272227822B932BA42BB52B202F332768
:1042F00044275527542F432F322F2227822B932BCD
:10430000A42BB52B212F332744275527822B932B02
:10431000A42BB52BBC01CD011F910F91FF90EF9005
:104320000895DC01CB01BC01CD010E946121DC01BB
:10433000CB01BC01CD0108950F931F939B01AC01EC
:1043400008EA19E080E1F80111928A95E9F7C901BC
:1043500090709F938F93BB27A52F942F832F9070DE
:104360009F938F93CA01AA27BB2790709F938F9327
:10437000852F9927AA27BB2790709F938F9383E55A
:1043800097E09F938F931F930F930E94F8378DB7F9
:104390009EB70C960FB6F8949EBF0FBE8DBFC80196
:1043A0001F910F9108950F931F939B01AC0108EB90
:1043B00019E080E1F80111928A95E9F7C90190703E
:1043C0009F938F93BB27A52F942F832F90709F933C
:1043D0008F93CA01AA27BB2790709F938F93852F35
:1043E0009927AA27BB2790709F938F938FE597E01B
:1043F0009F938F931F930F930E94F8378DB79EB7AB
:104400000C960FB6F8949EBF0FBE8DBFC8011F91CA
:104410000F910895EF92FF920F931F93CF93DF9325
:10442000CDB7DEB76E970FB6F894DEBF0FBECDBF27
:104430008B01BC01CE0101960E944237FE013196EC
:10444000A3E0EA2EF12CE00EF11E63E777E0CF0146
:104450000E941D21FC018081803341F481818837D5
:1044600029F460E170E0CF01029603C06AE070E0D9
:10447000CF010E949720F80181938F01E0E0F0E0E6
:10448000E016F10614F76E960FB6F894DEBF0FBE75
:10449000CDBFDF91CF911F910F91FF90EF900895C5
:1044A000EF92FF920F931F93CF93DF93CDB7DEB7B9
:1044B000E4970FB6F894DEBF0FBECDBF8E010F5F3D
:1044C0001F4FBC01C8010E944237EE24FF2463E75E
:1044D00077E0C8010E941D218C01009789F1FC0141
:1044E0008081803379F48181883761F4AE014D5C3D
:1044F0005F4F60E170E0C80102960E94BA20009709
:1045000059F41EC0AE014D5C5F4F6AE070E0C80117
:104510000E94BA200097A1F08BA99CA98F3F91051A
:1045200021F018F080E090E00BC000E010E008946B
:10453000E11CF11CF4E0EF16F1044CF281E090E094
:10454000E4960FB6F894DEBF0FBECDBFDF91CF91DA
:104550001F910F91FF90EF900895DF92EF92FF92DD
:104560000F931F93CF93DF93D82EEE24FF24870160
:10457000C0E0D0E0102F0F2DFE2CEE248D2D9927BA
:10458000B6E0880F991FBA95E1F78C0F9D1F8C5EDE
:104590009D470E94BB09E80EF11C011D111D2196CB
:1045A000C430D1053CF3C801B701DF91CF911F9111
:1045B0000F91FF90EF90DF900895EF92FF920F938D
:1045C0001F93E82EFF2426E0EE0CFF1C2A95E1F74E
:1045D000C7018E5E9D470E94BB09082F1127102F2F
:1045E0000027C7018D5E9D470E94BB09080F111D62
:1045F000C8011F910F91FF90EF9008950E945A21DA
:1046000008950E94FE22AA27BB27BC01CD01089570
:10461000DC01CB01BC01CD010E949121DC01CB0169
:10462000BC01CD010895AF92BF92CF92DF92EF927D
:10463000FF920F931F93CF93DF93CDB7DEB72497ED
:104640000FB6F894DEBF0FBECDBF69837A838B832C
:104650009C83CC24DD245E010894A11CB11C34E1B0
:10466000E32E30E8F32EEC0CFD1CC7010E94BB09C1
:10467000F50101915F010823C601885E9F470E94F2
:10468000BB09182FC7010E94BB091823011719F095
:1046900081E090E009C00894C11CD11CF4E0CF1661
:1046A000D104ECF280E090E024960FB6F894DEBFDF
:1046B0000FBECDBFDF91CF911F910F91FF90EF9073
:1046C000DF90CF90BF90AF9008950F931F93CF933B
:1046D000DF93082F643008F060E0162F683068F42C
:1046E000C62FDD27812F0E94D20C801711F4CE0136
:1046F00006C01F5F21961830A8F388E090E0DF9194
:10470000CF911F910F910895CF92DF92EF92FF9278
:104710000F931F93CF93DF936C017B018B01169551
:10472000079540E050E060E070E0C0E0D0E0C017E6
:10473000D107A8F4FC018081282F3327322F2227AC
:104740008181280F311DC901AA27BB27480F591F96
:104750006A1F7B1F21963296C017D10760F3E0FED7
:104760000FC0CC0FDD1FCC0DDD1D8881282F332716
:10477000922F8827AA27BB27480F591F6A1F7B1F24
:104780009A01CB01AA27BB27280F391FC9018095A1
:104790009095DF91CF911F910F91FF90EF90DF9057
:1047A000CF900895EF92FF920F931F93CF93DF93D3
:1047B000EE24FF248701C0E0D0E0102F0F2DFE2C47
:1047C000EE24CE01885E9F470E94BB09E80EF11CD3
:1047D000011D111D2196C430D1057CF3C801B7011C
:1047E000DF91CF911F910F91FF90EF900895EF927D
:1047F000FF920F931F93CF93DF93EE24FF24870143
:10480000C0E0D0E0102F0F2DFE2CEE24CE01805FF3
:104810009F470E94BB09E80EF11C011D111D219646
:10482000C430D1057CF3C801B701DF91CF911F914E
:104830000F91FF90EF900895EF92FF920F931F93C7
:10484000CF93DF93EE24FF248701C0E0D0E0102F48
:104850000F2DFE2CEE24CE018C5E9F470E94BB09DB
:10486000E80EF11C011D111D2196C430D1057CF309
:10487000C801B701DF91CF911F910F91FF90EF9089
:1048800008950F931F93CF93DF938C01C0E0D0E086
:10489000CE01885F9F470E94BB09F80181938F0179
:1048A0002196C630D105A4F3DF91CF911F910F91CE
:1048B0000895FF920F931F93CF93DF93F82E8B01F0
:1048C000C0E0D0E08F2D992736E0880F991F3A95E8
:1048D000E1F78C0F9D1F845F9D470E94BB09F80183
:1048E00081938F012196C630D10564F3DF91CF917A
:1048F0001F910F91FF900895CF93DF93CDB7DEB74F
:1049000026970FB6F894DEBF0FBECDBF85E797E0C0
:104910000E94C23789EA97E00E94C23788EC97E08C
:104920000E94C237CE0101960E9441248E819927B0
:104930009F938F938D8199279F938F938C81992734
:104940009F938F938B8199279F938F938A81992728
:104950009F938F93898199279F938F938AEF97E0F5
:104960009F938F930E94AD370E941C240E949C212C
:104970009F938F9389E398E09F938F930E94AD3725
:104980000E94F7230E949C219F938F9381E598E0DA
:104990009F938F930E94AD370E94D2230E949C2147
:1049A0009F938F9389E698E09F938F930E94AD37F2
:1049B00088EC97E00E94C2378DB79EB74A960FB633
:1049C000F8949EBF0FBE8DBF26960FB6F894DEBF3B
:1049D0000FBECDBFDF91CF910895CF93DF93CDB7B9
:1049E000DEB724970FB6F894DEBF0FBECDBF9C0193
:1049F000892BD9F01A82198289819A81039790F4C0
:104A00001C821B828B819C81892B31F48B819C8140
:104A100001969C838B83F6CF89819A8101969A8334
:104A20008983EACF2150304029F724960FB6F894B5
:104A3000DEBF0FBECDBFDF91CF910895CF93DF933F
:104A4000CDB7DEB726970FB6F894DEBF0FBECDBF49
:104A500088E790E09E838D838D819E81892BE1F094
:104A60001A82198289819A81039790F41C821B8291
:104A70008B819C81892B31F48B819C8101969C8355
:104A80008B83F6CF89819A8101969A838983EACFB5
:104A90008D819E810197DECF81E090E026960FB652
:104AA000F894DEBF0FBECDBFDF91CF9108951F9365
:104AB000182F88E790E00E94ED241A981B9882B383
:104AC0008F7030EF912F9323892B82BB1F9A4FE772
:104AD00083B1842383B922B32F70812F992754E0A7
:104AE000880F991F5A95E1F73823232B22BB1F9A71
:104AF00083B1842383B91F9108950E941E2581E00C
:104B00000E94572508951F93182F88E790E00E9470
:104B1000ED241A9A1B9882B38F7030EF912F932354
:104B2000892B82BB1F9A4FE783B1842383B922B3B9
:104B30002F70812F992764E0880F991F6A95E1F7FC
:104B40003823232B22BB1F9A83B1842383B91F915F
:104B500008951F93CF93C82F162F0E941E25812FD3
:104B600099278130910579F0823091051CF4892BC9
:104B700039F013C08230910549F0039751F00DC010
:104B80008C2F805808C08C2F805405C08C2F8C56D9
:104B900002C08C2F8C520E945725CF911F910895EF
:104BA000139A129A179A81B3806F81BB1F981A9833
:104BB0001B988CE692E00E94ED2488E20E94572523
:104BC0008CE10E9457258CE00E94572581E00E94CD
:104BD000572582E00E94572588E190E10E94ED244C
:104BE0000E947D2560E0862F0E94A92581E090E04B
:104BF00008951F93CF93DF93EC0110E08881882301
:104C000071F00E941E25FE01E10FF11D80810E94BE
:104C100083251F5FFE01E10FF11D8081F0CFCE01E2
:104C2000DF91CF911F9108951F93182F0E941E2589
:104C3000812F0E9483251F910895B89AC09A0895E4
:104C4000EF92FF920F931F937C01C09880E090E059
:104C50000E946302182F002780E090E00E94630208
:104C6000082B192BC09AC80133E0969587953A9581
:104C7000E1F79370F70191838083812F992787FD56
:104C800090958827990F881F99271F910F91FF9062
:104C9000EF9008951F920F920FB60F9211242F9349
:104CA0003F934F935F936F937F938F939F93AF93B4
:104CB000BF93EF93FF938091C8099091C909019622
:104CC0009093C9098093C809813491055CF01092D2
:104CD000C9091092C809E091910AF091920A30979F
:104CE00009F0099587E884BDFF91EF91BF91AF91DD
:104CF0009F918F917F916F915F914F913F912F91F4
:104D00000F900FBE0F901F901895F8941092920A72
:104D10001092910A87B78F7B87BF87E884BD85E0B3
:104D200085BD1092C9091092C80978940895FC01B4
:104D3000F89487B7806487BF6115710531F0EE0F75
:104D4000FF1FEF56F54F7183608378940895FC013F
:104D5000F894E80FF91FEF56F54F11821082209159
:104D6000910A3091920A2115310539F487B78F7B6A
:104D700087BF3093C9092093C80978940895109289
:104D8000E5091092E6091092E7091092E80985E01A
:104D900090E0A0E0B0E08093E9099093EA09A09345
:104DA000EB09B093EC091092DF090895BF92CF92FE
:104DB000DF92EF92FF920F931F93CF93DF93CDB7C4
:104DC000DEB724970FB6F894DEBF0FBECDBFB82E66
:104DD000E0E0F1E1F093F309E093F2091092D609D3
:104DE0001092D7091092D8091092D9091092D209BD
:104DF0001092D3091092D4091092D50924E2C22E40
:104E000022E0D22EC60111920197E9F7E091F20952
:104E1000F091F30991E0F92EF082E091F209F0911E
:104E2000F309F182E091F209F091F30986E0E82EAE
:104E3000E282E091F209F091F30913820091F20904
:104E40001091F3098091ED099091EE09A091EF097D
:104E5000B091F009BC01CD010E949121DC01CB0190
:104E6000F80184839583A683B7830091F20910919A
:104E7000F30980E090E00E94FE22F801918780878C
:104E80000091F2091091F30980E090E80E94FE225F
:104E9000F80193878287E091F209F091F3098091FC
:104EA0009B0A848FE091F209F091F30980919C0AAA
:104EB000858FE091F209F091F30980919D0A868F28
:104EC000E091F209F091F30980919E0A878FE091B9
:104ED000F209F091F30980919F0A80A3E091F20911
:104EE000F091F3098091A00A81A3E091F209F09179
:104EF000F309E451FF4F93E69083E091F209F091BA
:104F0000F309E351FF4F82E88083E091F209F091C9
:104F1000F309E251FF4F83E58083E091F209F091BC
:104F2000F309E151FF4F9083E091F209F091F30909
:104F3000E051FF4F85E38083E091F209F091F3099E
:104F4000EF50FF4FF082E091F209F091F309EE503B
:104F5000FF4FF082E091F209F091F309ED50FF4F1D
:104F60008DE38083E091F209F091F309EC50FF4F5B
:104F700097E09083E091F209F091F309EB50FF4F35
:104F8000F082E091F209F091F309EA50FF4F80912D
:104F90009B0A8083E091F209F091F309E950FF4FF9
:104FA00080919C0A8083E091F209F091F309E85026
:104FB000FF4F80919D0A8083E091F209F091F309FF
:104FC000E750FF4F80919E0A8083E091F209F091B3
:104FD000F309E650FF4F80919F0A8083E091F20928
:104FE000F091F309E550FF4F8091A00A8083E09192
:104FF000F209F091F309E450FF4F8CE08083E091D7
:10500000F209F091F309E350FF4F89E08083E091CA
:10501000F209F091F309E250FF4FA5E8B8E00D90D6
:1050200001929A95E1F7E091F209F091F309EC5FB2
:10503000FE4F80919E0A8083E091F209F091F3097E
:10504000EB5FFE4F80919F0A8083E091F209F0911F
:10505000F309EA5FFE4F8091A00A8083E091F20994
:10506000F091F309E95FFE4F87E38083E091F20955
:10507000F091F309E85FFE4FE082E091F209F091D0
:10508000F309E75FFE4FF082E091F209F091F30936
:10509000E65FFE4F83E08083E091F209F091F3092F
:1050A000E55FFE4FE082E091F209F091F309E45FE1
:1050B000FE4F8FE08083E091F209F091F309E35F06
:1050C000FE4F8AE38083E091F209F091F309E25FF9
:1050D000FE4F8BE38083E091F209F091F309E15FE9
:1050E000FE4F8FEF80838983FE01319681838B830E
:1050F0008C8303E410E09F01A6016091F209709196
:10510000F3098B2D0E948407892B39F4E091CA0999
:10511000F091CB09309709F0099524960FB6F894D1
:10512000DEBF0FBECDBFDF91CF911F910F91FF90DA
:10513000EF90DF90CF90BF900895DF92EF92FF92B3
:105140000F931F93CF93DF93CDB7DEB724970FB69E
:10515000F894DEBF0FBECDBFD82EEE24FF24E0E0D2
:10516000F1E1F093F309E093F20984E292E0119205
:105170000197E9F7E091F209F091F30981E080836A
:10518000E091F209F091F3098183E091F209F09145
:10519000F30986E08283E091F209F091F30913822A
:1051A0000091F2091091F3098091ED099091EE09B7
:1051B000A091EF09B091F009BC01CD010E949121AD
:1051C000DC01CB01F80184839583A683B78300912A
:1051D000F2091091F309C7010E94FE22F80191879C
:1051E00080878091DE090091F2091091F3098330E4
:1051F00040F480E090E80E94FE22F80193878287C5
:105200001BC0F801F386E2868091CE098487E09185
:10521000F209F091F3098091CF098587E091F209B5
:10522000F091F3098091D0098687E091F209F0911D
:10523000F3098091D1098787E091F209F091F30990
:1052400080919B0A848FE091F209F091F30980919B
:105250009C0A858FE091F209F091F30980919D0AF3
:10526000868FE091F209F091F30980919E0A878F71
:10527000E091F209F091F30980919F0A80A3E091F7
:10528000F209F091F3098091A00A81A3E091F2095B
:10529000F091F309E451FF4F93E69083E091F20916
:1052A000F091F309E351FF4F82E88083E091F20926
:1052B000F091F309E251FF4F83E58083E091F20919
:1052C000F091F309E151FF4F9083E091F209F091E1
:1052D000F309E051FF4F85E38083E091F209F091FB
:1052E000F309EF50FF4F21E02083E091F209F091A4
:1052F000F309EE50FF4F43E04083E091F209F09153
:10530000F309ED50FF4F8DE38083E091F209F091B6
:10531000F309EC50FF4F37E03083E091F209F09150
:10532000F309EB50FF4F2083E091F209F091F3096C
:10533000EA50FF4F80919B0A8083E091F209F0913F
:10534000F309E950FF4F80919C0A8083E091F209B4
:10535000F091F309E850FF4F80919D0A8083E0911E
:10536000F209F091F309E750FF4F80919E0A808384
:10537000E091F209F091F309E650FF4F80919F0A06
:105380008083E091F209F091F309E550FF4F80919D
:10539000A00A808360E1E62EF12C8091DE09833043
:1053A00008F06AC0E091F209F091F309E450FF4F70
:1053B00082E38083E091F209F091F309E350FF4F1B
:1053C00094E09083E091F209F091F309E250FF4FED
:1053D0008091CE098083E091F209F091F309E150C8
:1053E000FF4F8091CF098083E091F209F091F3099A
:1053F000E050FF4F8091D0098083E091F209F09155
:10540000F309EF5FFE4F8091D1098083E091F209AB
:10541000F091F309EE5FFE4F86E38083E091F2099D
:10542000F091F309ED5FFE4F9083E091F209F09166
:10543000F309EC5FFE4F8091D6098083E091F20979
:10544000F091F309EB5FFE4F8091D7098083E091E3
:10545000F209F091F309EA5FFE4F8091D809808349
:10546000E091F209F091F309E95FFE4F8091D909CB
:1054700080835CE1E52EF12CE091F209F091F309D3
:10548000EE0DFF1DE451FF4F8CE080830894E11C7A
:10549000F11CE091F209F091F309EE0DFF1DE451CA
:1054A000FF4F89E080830894E11CF11CE091F20930
:1054B000F091F309EE0DFF1DE451FF4FA5E8B8E0B0
:1054C0000D9001923A95E1F786E090E0E80EF91E22
:1054D000E091F209F091F309EE0DFF1DE451FF4F49
:1054E00080919E0A80830894E11CF11CE091F209EE
:1054F000F091F309EE0DFF1DE451FF4F80919F0ADB
:1055000080830894E11CF11CE091F209F091F30909
:10551000EE0DFF1DE451FF4F8091A00A8083089497
:10552000E11CF11CE091F209F091F309EE0DFF1D71
:10553000E451FF4F87E380830894E11CF11CE09164
:10554000F209F091F309EE0DFF1DE451FF4F88E0E1
:1055500080830894E11CF11CE091F209F091F309B9
:10556000EE0DFF1DE451FF4F20830894E11CF11C58
:10557000E091F209F091F309EE0DFF1DE451FF4FA8
:1055800040830894E11CF11CE091F209F091F309C9
:10559000EE0DFF1DE451FF4F86E080830894E11C6F
:1055A000F11CE091F209F091F309EE0DFF1DE451B9
:1055B000FF4F8FE080830894E11CF11CE091F20919
:1055C000F091F309EE0DFF1DE451FF4F8AE3808354
:1055D0000894E11CF11CE091F209F091F309EE0D41
:1055E000FF1DE451FF4F8BE380830894E11CF11C05
:1055F000E091F209F091F309EE0DFF1DE451FF4F28
:105600008FE180830894E11CF11CE091F209F09194
:10561000F309EE0DFF1DE451FF4F81E28083E0911D
:10562000F209F091F309EE0DFF1DE351FF4F9FEFDB
:1056300090838091DE09FE013196833028F49983AE
:1056400091839B839C830CC08091D6098983809130
:10565000D70981838091D8098B838091D9098C8364
:1056600003E410E09E012F5F3F4F44E252E060915F
:10567000F2097091F3098D2D0E948407892B39F46A
:10568000E091CA09F091CB09309709F00995249669
:105690000FB6F894DEBF0FBECDBFDF91CF911F9143
:1056A0000F91FF90EF90DF9008951F936091DF09B5
:1056B000633008F045C02091E9093091EA09409132
:1056C000EB095091EC098091E5099091E609A091D0
:1056D000E709B091E809281739074A075B07D8F5A9
:1056E0001092E5091092E6091092E7091092E80974
:1056F00085E090E0A0E0B0E08093E9099093EA09AA
:10570000A093EB09B093EC096F5F6093DF09809180
:10571000DE0999278230910571F0833091051CF4E0
:10572000019721F018C0049731F015C08091F1095C
:105730000E94D62610C08091F1090E949D280BC0BE
:105740000E94BF2611E01093E0098091F1090E94A8
:10575000D6261093DE091F9108950F931F93CF93C0
:10576000DF93CDB7DEB728970FB6F894DEBF0FBE34
:10577000CDBF8E010F5F1F4F88E0ECE8F8E0D80145
:1057800001900D928A95E1F70E94F60F8BE99AE05D
:105790000E94450A83E99AE00E947F0A87E99AE01D
:1057A0000E94BB0A8EEC99E00E94F70AB801C8017A
:1057B0000E94FE0F28960FB6F894DEBF0FBECDBF35
:1057C000DF91CF911F910F9108957F928F929F92B9
:1057D000AF92BF92CF92DF92EF92FF920F931F93FF
:1057E000CF93DF93CDB7DEB72C970FB6F894DEBF1B
:1057F0000FBECDBFA82E10E087E08A1508F44CC17B
:105800008A2D0E94D20C882309F446C18A2D0E9459
:10581000EC0EAB01BC014115510509F445C180E016
:1058200099E19093F3098093F2098E01095F1F4F6C
:105830009E012F5F3F4FBC018A2D0E942E084C0114
:105840000091F2091091F309F8018081823009F08A
:105850001FC18F8198858334910509F019C146E0F5
:1058600050E06BE97AE0C8014C960E94FD366C016D
:10587000892B09F00DC18091ED099091EE09A0915D
:10588000EF09B091F009BC01CD010E9491219B016B
:10589000AC01F80184819581A681B78182179307B5
:1058A000A407B50709F0F4C0E090D609F090D70935
:1058B0000091D8091091D909E114F10401051105ED
:1058C000C1F08091D2099091D309A091D409B091EF
:1058D000D50929813A814B815C8182179307A407FE
:1058E000B50739F0E216F3060407150711F0C601F3
:1058F000D1C0E091F209F091F30980899189A289E0
:10590000B3898093CE099093CF09A093D009B09327
:10591000D10977248F0100511F4F8E0E9F1E08154D
:10592000190508F0B5C0F80181918F0199278630DB
:10593000910509F446C0873091056CF481309105DA
:1059400011F18230910524F4892B09F49EC09AC08C
:10595000039741F197C08533910589F0863391050E
:105960001CF4C397E9F18EC08633910509F44BC04E
:105970008F3F910509F086C0872D99278BC0B19084
:105980008F01708082C0B1908F0180819181A2814E
:10599000B3818093970A9093980AA093990AB09341
:1059A0009A0A73C0B1908F0180819181A281B381E5
:1059B0008093930A9093940AA093950AB093960AC1
:1059C00064C0B1908F0180819181A281B381809365
:1059D000810890938208A0938308B093840855C0EF
:1059E000B1908F0160817181828193810E9408232F
:1059F000DC01CB018093E1099093E209A093E309D4
:105A0000B093E40942C0B1908F01C090D609D09004
:105A1000D709E090D809F090D909C114D104E10464
:105A2000F104B1F08091D2099091D309A091D409E9
:105A3000B091D50929813A814B815C818217930706
:105A4000A407B50729F0C216D306E406F506E9F463
:105A5000F80180819181A281B3818093D6099093CE
:105A6000D709A093D809B093D90989819A81AB81CC
:105A7000BC818093D2099093D309A093D409B093A9
:105A8000D50903C0F801B1908F010B0D111D47CF4F
:105A900080E090E0182F08C020E030E044E450E0BF
:105AA00062E08A2D0E94C0058091DE09482F5527AB
:105AB00042305105D9F04330510524F441305105AD
:105AC00051F055C24330510509F4B0C1443051057D
:105AD00009F4FBC14CC2123009F047C20E94BF2634
