:100000000C940D010C942C010C942C010C942C01DB
:100010000C942C010C942C010C942C010C942C01AC
:100020000C942C010C942C010C94AC250C942C01F8
:100030000C942C010C942C010C942C010C942C018C
:100040000C942C010C942C010C94701D0C942C011C
:100050000C942C010C942C010C942C010C942C016C
:100060000C942C010C942C010C942C010C942C015C
:100070000C942C010C942C010C942C010C942C014C
:100080000C942C010C942C010C942C0148545450C9
:100090002F312E3120343030204F4B0D0A436F6EFC
:1000A00074656E742D547970653A20746578742F78
:1000B00068746D6C0D0A436F6E74656E742D4C65BB
:1000C0006E6774683A2035300D0A0D0A3C48544D6D
:1000D0004C3E0D0A3C424F44593E0D0A496E766132
:1000E0006C696420726571756573742E0D0A3C2FFE
:1000F000424F44593E0D0A3C2F48544D4C3E0D0A88
:100100000000485454502F312E3120323030204FCF
:100110004B0D0A436F6E74656E742D547970653A99
:1001200020746578742F68746D6C0D0A436F6E745B
:10013000656E742D4C656E6774683A2035390D0A0A
:100140000D0A3C48544D4C3E0D0A3C424F44593E2A
:100150000D0A43474920636F6D6D616E64206973BA
:1001600020636F6D706C657465642E0D0A3C2F42C0
:100170004F44593E0D0A3C2F48544D4C3E0D0A0049
:1001800000485454502F312E3120343034204E6FDB
:100190007420466F756E640D0A436F6E74656E74DD
:1001A0002D547970653A20746578742F68746D6C7D
:1001B0000D0A436F6E74656E742D4C656E677468BE
:1001C0003A2037380D0A0D0A3C48544D4C3E0D0A72
:1001D0003C424F44593E0D0A536F7272792C207481
:1001E0006865207061676520796F7520726571752B
:1001F000657374656420776173206E6F7420666F19
:10020000756E642E0D0A3C2F424F44593E0D0A3C38
:100210002F48544D4C3E0D0A000011241FBECFEF55
:10022000D0E1DEBFCDBF19E0A0E0B1E0EAE9F9E737
:1002300000E00BBF02C007900D92AE3FB107D9F7A7
:100240001BE0AEEFB9E001C01D92A137B107E1F7A5
:100250000E946E1A0C94CB3C0C940000F8941092FF
:100260006A001ABE19BE18BE80EC85BF80E4809378
:100270006D007894089528B3482F50E04C5F5F4F8D
:1002800030E0042E02C0359527950A94E2F720FF4E
:100290000BC028B381E090E002C0880F991F4A95F7
:1002A000E2F7282B28BB089528B381E090E002C034
:1002B000880F991F4A95E2F78095822388BB08959D
:1002C00048B390E0049621E030E002C0220F331FD3
:1002D0008A95E2F7422B48BB089548B390E0049614
:1002E00021E030E002C0220F331F8A95E2F720950B
:1002F000242328BB089528B330E090E0049602C080
:10030000359527958A95E2F72095822F817008957B
:1003100083B1806683B982B18F7982B9089541B182
:1003200090E0059621E030E002C0220F331F8A954D
:10033000E2F7422309F041E0842F0895982F82309C
:1003400018F020E030E006C081E1989F9001112470
:100350002250364FC901089517B885E886B9089527
:10036000877087B9369A349BFECF24B130E045B10F
:10037000942F80E0282B392BC90108950C9400009C
:1003800008950F931F93CF93DF9387B3806F87BB3D
:10039000C4E0D0E001E010E0C49AC59AC69AC79ABA
:1003A00028B3C8010C2E02C0880F991F0A94E2F7E7
:1003B0008095822388BB88E290E00E94621D21968E
:1003C000C830D10549F7C49AC59AC69AC79ADF9131
:1003D000CF911F910F910895DF92EF92FF920F93AB
:1003E0001F93F82EE62ED72E81E08F15D8F1A62F79
:1003F000B72FFD0101900020E9F73197EA1BFB0BB5
:10040000719780F501E1F09E800111240250164F92
:10041000C80160E270E040E150E00E94CA378F2DD1
:1004200090E0FC0124E0EE0FFF1F2A95E1F7E80FB2
:10043000F91FE250F64F108AEE2DFD2DDF010D90D1
:100440000020E9F71197AE1BBF0BC8016E2D7D2D63
:10045000AD010E94C13780E06F2D0E941625C801B2
:100460000E945D251F910F91FF90EF90DF900895FE
:1004700017B885E886B90E942E010E94352580E0D4
:1004800060E071E00E94EC0181E061E171E00E94B6
:10049000EC0180E067E00E947D1F83B1806683B934
:1004A00082B18F7982B90E94C1010895B89AC09A29
:1004B000B99AC19ABA9ABB986E9A6C9A6B986A98D4
:1004C000709A8DB18C7F8DB908958FB9779BFECFCF
:1004D0008FB108958FB9779BFECF089590916500F5
:1004E0009F7E90936500813011F090E019C084E503
:1004F0008FB9779BFECF8FB11FB8779BFECF8FB19F
:100500007FB9779BFECF8FB16FB9779BFECF8FB14D
:100510001FB8779BFECF8FB11FB8779BFECF9FB1DF
:1005200080916500806180936500892F0895909186
:1005300065009F7E909365008130A9F484E88FB9AF
:10054000779BFECF8FB11FB8779BFECF8FB17FB95E
:10055000779BFECF8FB16FB9779BFECF8FB14FB92D
:10056000779BFECF8FB1809165008061809365009D
:100570000895DF93CF93CDB7DEB768970FB6F894A1
:10058000DEBF0FBECDBFDE011996EAE2F1E080E1E9
:1005900001900D928150E1F7DE011196E2E2F1E067
:1005A00088E001900D928150E1F7809165008F7E87
:1005B0008093650087E58FB9779BFECF8FB11FB819
:1005C000779BFECF8FB1282F30E02873307043E047
:1005D000369527954A95E1F7DE011196FD01E20F68
:1005E000F31F90819093BB0A220F331FA20FB31FFA
:1005F00018962D913C9119973093BD0A2093BC0A0F
:100600009091650090619093650068960FB6F8949C
:10061000DEBF0FBECDBFCF91DF910895E4E6F0E0DD
:10062000808180618083E5E6F0E080818061808365
:100630000E9456026B9A6A9A0E94B902089590919C
:1006400065009F7E90936500813031F583E58FB919
:10065000779BFECF8FB18091BB0A282F30E080E1DD
:1006600090E0821B930BAB0102C0569547958A958B
:10067000E2F74FB9779BFECF8FB12850304002C0D0
:10068000660F771F2A95E2F76FB9779BFECF8FB180
:100690001FB8779BFECF8FB18091650080618093FA
:1006A0006500809165008F7E809365000E94B9028D
:1006B00087FFFCCF8091650080618093650008957D
:1006C000909165009F7E90936500813031F583E8BD
:1006D0008FB9779BFECF8FB18091BB0A282F30E076
:1006E00080E190E0821B930BAB0102C056954795C9
:1006F0008A95E2F74FB9779BFECF8FB128503040F3
:1007000002C0660F771F2A95E2F76FB9779BFECF7D
:100710008FB11FB8779BFECF8FB18091650080614C
:1007200080936500809165008F7E809365000E94B4
:10073000B90287FFFCCF80916500806180936500DE
:100740000895F901909165009F7E90936500813036
:1007500011F584E58FB9779BFECF8FB11FB8779BDA
:10076000FECF8FB17FB9779BFECF8FB16FB9779BEB
:10077000FECF8FB11FB8779BFECF8FB120E030E066
:1007800007C01FB8779BFECF8FB181932F5F3F4F7C
:1007900024173507B0F38091650080618093650070
:1007A0000895909165009F7E90936500813089F453
:1007B00084E88FB9779BFECF8FB11FB8779BFECFB0
:1007C0008FB17FB9779BFECF8FB16FB9779BFECF8B
:1007D0008FB1809165008061809365000895F90173
:1007E000909165009F7E909365008130F9F484E8D4
:1007F0008FB9779BFECF8FB11FB8779BFECF8FB19C
:100800007FB9779BFECF8FB16FB9779BFECF8FB14A
:1008100020E030E008C080818FB9779BFECF8FB198
:1008200031962F5F3F4F24173507A8F3809165005D
:100830008061809365000895AC01809165008F7E92
:100840008093650088E68FB9779BFECF8FB180914A
:10085000BB0A282F30E080E190E0821B930BFA0165
:1008600002C0F695E7958A95E2F7EFB9779BFECF40
:100870008FB12850304002C0440F551F2A95E2F72F
:10088000740F7FB9779BFECF8FB16FB9779BFECF87
:100890008FB11FB8779BFECF8FB11FB8779BFECF6C
:1008A0008FB11FB8779BFECF8FB11FB8779BFECF5C
:1008B0008FB18091650080618093650008951092EA
:1008C000210A1092200A1092230A1092220A0895F7
:1008D0004F925F926F927F928F929F92AF92BF9250
:1008E000CF92DF92EF92FF920F931F93CF93DF93FC
:1008F0007B018C012A014901C90168E071E00E9475
:100900003E376B01E114F1040105110529F4AA2415
:10091000BB24C0E0D0E012C0C801B70128E031E03C
:1009200040E050E00E9452375901C801B70128E069
:1009300031E040E050E00E945237EB0181E0B50128
:100940000E941F0388E0E82E81E0F82EEC1AFD0AD1
:100950008E149F0408F4740181E0BE01A701920186
:100960000E94A10335010894611C711C5201AE0C58
:10097000BF1CB301C0E0D0E014C08B010F5F1F4F5C
:1009800081E00E941F0381E060E070E048E051E0F8
:1009900095010E94A103219688E091E0A80EB91E5E
:1009A000B801CC15DD0548F388E091E0C89EE00170
:1009B000C99ED00DD89ED00D1124CE0DDF1DB301E0
:1009C0006C0D7D1DC815D90580F484010C1B1D0B11
:1009D00061F081E00E941F03C40DD51D81E060E03D
:1009E00070E0A8019E010E94A103DF91CF911F91A9
:1009F0000F91FF90EF90DF90CF90BF90AF909F90BE
:100A00008F907F906F905F904F9008954F925F927C
:100A10006F927F928F929F92AF92BF92CF92DF920E
:100A2000FF920F931F93DF93CF93CDB7DEB76F97EE
:100A30000FB6F894DEBF0FBECDBF6C014B015A015B
:100A4000FF24F39400E010E02E010894411C511C97
:100A50009CE0692E712C6C0E7D1EB80180E090E048
:100A6000A2012FE130E00E94680489818F3F19F4D0
:100A70008A818F3FE9F0C601B3010E94E7370097F2
:100A800099F489819A81AB81BC81F501808391833E
:100A9000A283B3838D819E81AF81B885F401808369
:100AA0009183A283B38305C0015E1F4FF394D5CF1A
:100AB000FF248F2D6F960FB6F894DEBF0FBECDBF0B
:100AC000CF91DF911F910F91FF90DF90CF90BF905A
:100AD000AF909F908F907F906F905F904F90089510
:100AE0006091220A7091230A81E00E9460030895B8
:100AF000482F6091200A7091210A81E00E9497029C
:100B00008091200A9091210A01969093210A809366
:100B1000200A88509140C0F01092210A1092200AB9
:100B20006091220A7091230A88E06030780760F4AF
:100B300081E00E9460038091220A9091230A01962D
:100B40009093230A8093220A08950E940E03109224
:100B5000210A1092200A1092230A1092220A089564
:100B600090E026E0880F991F2A95E1F78D5F9D4759
:100B700068E00E949E090895CF92DF92EF92FF9263
:100B80000F931F93CF93DF93E82EEB016A016881E7
:100B90006F3F51F489818F3F91F48A818F3F79F4BF
:100BA0008B818F3F61F43DC0662349F4898188239E
:100BB00031F48A81882319F48B81882391F1C1143F
:100BC000D10479F1FF2488E092E0E80EF91E870154
:100BD00036E0000F111F3A95E1F7C80144960E94D4
:100BE0009E09C801459669810E949E09C8014696E2
:100BF0006A810E949E09C80147966B810E949E09E6
:100C0000C80142966D2D0E949E09C80143966C2D25
:100C10000E949E09C801039664E00E949E0981E03B
:100C200001C080E0DF91CF911F910F91FF90EF9075
:100C3000DF90CF90089590E046E0880F991F4A9585
:100C4000E1F78D5F9D4760E10E949E090895BF9284
:100C5000CF92DF92EF92FF920F931F93CF93DF9388
:100C6000B82ED62E7A01C22E862F8150843010F0F5
:100C700080E042C08B2D0E941B06CB2DD0E0C85FC8
:100C8000DD4F8E0166E0000F111F6A95E1F7DC2849
:100C9000C80101966D2D0E949E09C8010A96055F44
:100CA0001F4FE114F10431F06F2D0E949E09C8011D
:100CB0006E2D10C02091CE0A3091CF0A2F5F3F4F8A
:100CC0003093CF0A2093CE0A632F0E949E09C80159
:100CD0006091CE0A0E949E0956E0CC0FDD1F5A9506
:100CE000E1F7CE01039661E00E949E09EB2DF0E052
:100CF000EA53F54F81E08083DF91CF911F910F91EF
:100D0000FF90EF90DF90CF90BF9008951F93182F22
:100D10000E94550B833111F080E00DC0812F90E0CF
:100D200076E0880F991F7A95E1F78D5F9D4762E025
:100D30000E949E0981E01F910895FF920F931F93D7
:100D4000CF93DF93F82E8B01EA010E94790E9E016A
:100D500040E050E0621773078407950720F48F2D59
:100D60000E94790EEB01209791F1AE0160E070E0F6
:100D70008F2D0E94310C9E01217030702C0F3D1F71
:100D800040E050E08F2DB8010E94170E8F2D90E0AB
:100D9000E6E0880F991FEA95E1F78D5F9D4760E2D5
:100DA0000E949E0907C08F2D0E94550B882349F091
:100DB00003FD07C08F2D0E943F0B082F84FFF3CF48
:100DC00002C0C0E0D0E08F2D60E10E944A0BCE014E
:100DD000DF91CF911F910F91FF9008956F927F92B5
:100DE0008F929F92BF92CF92DF92EF92FF920F93DA
:100DF0001F93CF93DF93B82E3B016A01E9014801AD
:100E00000E94790E960140E050E062177307840754
:100E1000950720F48B2D0E94790E6B016881662363
:100E200051F48981882339F48A81882321F48B81C4
:100E3000882309F45CC08114910409F458C0C114DA
:100E4000D10409F454C0EB2CFF2488E092E0E80EB2
:100E5000F91E8701F6E0000F111FFA95E1F7C801AE
:100E600044960E949E09C801459669810E949E0988
:100E7000C80146966A810E949E09C80147966B8107
:100E80000E949E09C8014296692D0E949E09C801D0
:100E90004396682D0E949E09A60160E070E08B2DAC
:100EA0000E94310C9601217030702C0D3D1D40E0E8
:100EB00050E08B2DB3010E94170EC801039660E22B
:100EC0000E949E0907C08B2D0E94550B882349F074
:100ED000C3FD07C08B2D0E943F0BC82F84FFF3CFAB
:100EE00002C0CC24DD248B2D60E10E944A0BC60198
:100EF000DF91CF911F910F91FF90EF90DF90CF90F6
:100F0000BF909F908F907F906F900895CF92DF92C7
:100F1000FF920F931F93DF93CF9300D0CDB7DEB72F
:100F2000F82E6B011A821982082F10E0085F1D4FFE
:100F3000C801B6E0880F991FBA95E1F701960E94A3
:100F40009B098F2DBE016F5F7F4F22E030E040E0B4
:100F500050E00E94480E99818A819C0140E050E057
:100F600080FF04C02F5F3F4F4F4F5F4F9A838983AD
:100F70008F2DB6010E94480EA6E0000F111FAA9502
:100F8000E1F7C801039660E40E949E0929813A8135
:100F900040E050E0B901CA010F900F90CF91DF916E
:100FA0001F910F91FF90DF90CF9008957F928F92C5
:100FB0009F92AF92BF92CF92DF92EF92FF920F93E8
:100FC0001F93DF93CF93CDB7DEB72C970FB6F8946E
:100FD000DEBF0FBECDBF782E6B017901452B19F412
:100FE00000E010E01AC1882E992488E092E0880E73
:100FF000991E540196E0AA0CBB1C9A95E1F708943F
:10100000A11CB11CC5010E949B0990E087709070E3
:101010008330910569F18430910509F445C0029748
:1010200019F000E010E050C0872DBE016B5F7F4FCC
:1010300028E030E040E050E00E94480E8D81D7016A
:101040008C938E8111968C9311978F8112968C932D
:101050001297888513968C93998580E02A85820F54
:10106000911DF801918380839B8580E02C8529C0A8
:10107000872DBE016B5F7F4F26E030E040E050E0FF
:101080000E94480E8D81D7018C938E8111968C938E
:1010900011978F8112968C931297888513968C9353
:1010A000998580E02A850DC0872DBE016B5F7F4F3B
:1010B00022E030E040E050E00E94480E9D8180E058
:1010C0002E818C01020F111D980121703070200FAC
:1010D000311F40E050E0872DB6010E94480EC50147
:1010E0000E949B098770843009F08DC08AE391E0EB
:1010F0000E946F38EDB7FEB73E970FB6F894FEBF6B
:101100000FBEEDBF31968FE491E0ADB7BEB712963A
:101110009C938E931197D6018C91828313821196A2
:101120008C9111978483158212968C9112978683E5
:10113000178213968C9113978087118614968C9141
:1011400014978287138615968C91848715860E9442
:101150005D38EDB7FEB7319688E791E0ADB7BEB721
:1011600012969C938E931197D60116968C91169792
:101170008283138217968C91179784831582189611
:101180008C9118978683178219968C91199780876E
:1011900011861A968C911A97828713861B968C91CA
:1011A000848715860E945D38EDB7FEB738960FB676
:1011B000F894FEBF0FBEEDBF319681EA91E0ADB766
:1011C000BEB712969C938E931197D6011C968C9164
:1011D0001C97828313821D968C91848315820E94B2
:1011E0005D38EDB7FEB736960FB6F894FEBF0FBE6A
:1011F000EDBF872DBE016F5F7F4F24E030E040E000
:1012000050E00E94480E86E0880C991C8A95E1F710
:10121000C401039660E40E949E09C8012C960FB693
:10122000F894DEBF0FBECDBFCF91DF911F910F911C
:10123000FF90EF90DF90CF90BF90AF909F908F90F6
:101240007F9008959F92AF92BF92CF92DF92EF92DC
:10125000FF920F931F93CF93DF93982EEB017901A9
:101260008A010E94790E6E157F058007910728F488
:10127000892D0E94790E7B018C01892D0E94470CDB
:101280005B016C01892D0E94550B873119F08C315F
:1012900009F040C0AE14BF04C006D10670F3C70108
:1012A00081709070892B49F0A80197012F5F3F4F03
:1012B0004F4F5F4F892DBE0104C0892DBE01A8018B
:1012C00097010E94170EE92DF0E0EA53F54F808157
:1012D000882331F00FC0892D0E94550B8823D1F04F
:1012E000892D0E943F0B84FFF6CF892D60E10E947B
:1012F0004A0B01C01082892DB801A7010E94310C50
:10130000892D60E20E94190B892D0E943F0B84FFFA
:10131000FBCF03C0EE24FF248701B701C801DF9192
:10132000CF911F910F91FF90EF90DF90CF90BF90E2
:10133000AF909F900895FC0180810895FC01608327
:1013400008954091008020910180942F80E030E04A
:10135000282B392BC9010895909300808093018038
:1013600008954091028020910380942F80E030E026
:10137000282B392BC90108951092028008954091BD
:10138000048020910580942F80E030E0282B392BB9
:10139000C901089590930480809305800895FC010D
:1013A00080910880808380910980818380910A8068
:1013B000828380910B80838380910C8084838091D1
:1013C0000D8085830895DC01E8E0F0E88D9181933C
:1013D00080E8EE30F807D1F70895FC018091108085
:1013E000808380911180818380911280828380919B
:1013F000138083830895FC01808180931080818114
:1014000080931180828180931280838180931380E6
:101410000895FC01809114808083809115808183E0
:101420008091168082838091178083830895FC01C8
:101430008081809314808181809315808281809344
:1014400016808381809317800895FC018091188015
:10145000808380911980818380911A80828380911A
:101460001B8083830895FC01808180931880818193
:1014700080931980828180931A80838180931B805E
:10148000089540911C8020911D80942F80E030E0D1
:10149000282B392BC901089590931C8080931D80BF
:1014A000089580911F80089580931F800895409132
:1014B000328020913380942F80E030E0282B392B2C
:1014C000C9010895809136800895809336800895EB
:1014D00080913880089580933880089540913C80B1
:1014E00020913D80942F80E030E0282B392BC901DA
:1014F0000895DC01E0E4F0E880811C92808111967F
:101500008C931197E2E4F0E8808112961C92129776
:10151000808113968C931397E4E4F0E8808114960D
:101520001C921497808115968C930895FC01A8E471
:10153000B0E88C9110828C918183AAE4B0E88C9100
:1015400012828C918383089540914C8020914D802C
:10155000942F80E030E0282B392BC9010895409169
:101560004E8020914F80942F80E030E0282B392B43
:10157000C9010895E82FF0E0E85EFF4DEE0FFF1F70
:10158000EE0FFF1F80810895E82FF0E0E85EFF4D29
:10159000EE0FFF1FEE0FFF1F60830895E82FF0E0AE
:1015A000EE0FFF1FEE0FFF1FEE59FF47BE2FAA27BA
:1015B0009C918181892B90E00895E82FF0E0EE0F57
:1015C000FF1FEE0FFF1FEE59FF47708361830895E1
:1015D0004091FE802091FF80942F80E030E0282B06
:1015E000392BC9010895E82FF0E0E85FFD4F66E070
:1015F000EE0FFF1F6A95E1F7BE2FAA279C9181810C
:10160000892B90E00895E82FF0E0E85FFD4F76E049
:10161000EE0FFF1F7A95E1F761830895E82FF0E060
:10162000A6E0EE0FFF1FAA95E1F7EE5FFD4781816F
:101630000895E82FF0E0B6E0EE0FFF1FBA95E1F74E
:10164000EE5FFD47DF01119661838C918823E9F7F6
:101650000895E82FF0E086E0EE0FFF1F8A95E1F78E
:10166000EC5FFD4781810895E82FF0E096E0EE0FF2
:10167000FF1F9A95E1F7EC5FFD4761830895E82F1E
:10168000F0E0E85FFD4F26E0EE0FFF1F2A95E1F73F
:1016900087810895E82FF0E0E85FFD4F36E0EE0F18
:1016A000FF1F3A95E1F767830895E82FF0E046E0E1
:1016B000EE0FFF1F4A95E1F7E85FFD47DF01119646
:1016C00081819C91891711F0892FFBCF0895CF93C9
:1016D000DF93E82FF0E0E85FFD4FDF0156E0AA0F4F
:1016E000BB1F5A95E1F71C968C911C97EB01188251
:1016F0001C968C911C9789831E968C911E971A823A
:101700001E968C911E978B83FD01709680811C82A2
:1017100080818D83DF91CF910895CF93DF93DB019B
:10172000E82FF0E0E85FFD4F9F0166E0220F331FD6
:101730006A95E1F711968C911197E9018C871396C0
:101740008C9113978E8715968C91F90170968083F2
:10175000DF91CF910895E82FF0E0E85FFD4FA6E01C
:10176000EE0FFF1FAA95E1F7728B638B0895DB01E3
:10177000E82FF0E0E85FFD4F86E0EE0FFF1F8A954F
:10178000E1F784891C92848911968C93119786893C
:1017900012961C921297868913968C930895DB01FA
:1017A000E82FF0E0E85FFD4F96E0EE0FFF1F9A95FF
:1017B000E1F711968C911197848B13968C91868BFF
:1017C0000895E82FF0E0E85FFD4F26E0EE0FFF1FE1
:1017D0002A95E1F7208D922F80E0218D30E0282B93
:1017E000392BC9010895E82FF0E0E85FFD4F36E09E
:1017F000EE0FFF1F3A95E1F7708F618F0895E82F84
:10180000F0E0E85FFD4F46E0EE0FFF1F4A95E1F77D
:10181000838D80E00895E82FF0E0E85FFD4F56E00B
:10182000EE0FFF1F5A95E1F7238D962F80E0820F70
:10183000911D838F0895E82FF0E0EE0FFF1FEF5EFC
:10184000FB4FDF0165E0AA0FBB1F6A95E1F79C9192
:1018500011968C911197FD013296708113966C91BF
:101860000895E82FF0E0EE0FFF1FEF5EFB4FDF0162
:10187000E5E0AA0FBB1FEA95E1F77C9311966C9304
:101880001197FD013296508313964C9308956F92F1
:101890007F928F929F92AF92BF92CF92DF92EF9200
:1018A000FF920F931F93CF93DF9390E0885F9D4F3C
:1018B00056E0880F991F5A95E1F744E2842E912C47
:1018C000880E991EBC016B5D7F4FEC01A69637E236
:1018D000632E712C680E791EAA24BB246501D401E5
:1018E0008C9190E0A0E0B0E0BA2FA92F982F882724
:1018F000FB012081820F911DA11DB11DBA2FA92FBF
:10190000982F88272881820F911DA11DB11DEE24DB
:10191000F82E092F1A2FD3018C91E80EF11C011D0E
:10192000111DEA14FB040C051D0529F0C701D8019F
:101930005C016D01D4CFB501C601DF91CF911F913C
:101940000F91FF90EF90DF90CF90BF90AF909F905E
:101950008F907F906F9008956F927F928F929F9259
:10196000AF92BF92CF92DF92EF92FF920F931F93AD
:10197000CF93DF9390E0885F9D4F46E0880F991FDB
:101980004A95E1F738E2832E912C880E991EBC010E
:10199000675D7F4FEC01AA962BE2622E712C680ED8
:1019A000791E01E0A02EB12CC12CD12CD4018C9138
:1019B00090E0A0E0B0E0BA2FA92F982F8827FB0174
:1019C0002081820F911DA11DB11DBA2FA92F982F23
:1019D00088272881820F911DA11DB11DEE24F82EAC
:1019E000092F1A2FD3018C91E80EF11C011D111D36
:1019F000EA14FB040C051D0529F0C701D8015C01A0
:101A00006D01D4CFB501C601DF91CF911F910F9128
:101A1000FF90EF90DF90CF90BF90AF909F908F900E
:101A20007F906F900895E82FF0E0E85FFD4F56E05B
:101A3000EE0FFF1F5A95E1F776A767A70895E82FE5
:101A4000F0E0E85FFD4F66E0EE0FFF1F6A95E1F7FB
:101A500020A9922F80E021A930E0282B392BC90141
:101A60000895E82FF0E0E85FFD4F76E0EE0FFF1FEE
:101A70007A95E1F7838D0895E82FF0E0E85FFD4F58
:101A8000A6E0EE0FFF1FAA95E1F7838D638F0895FF
:101A9000E82FF0E0E85FFD4FB6E0EE0FFF1FBA95CC
:101AA000E1F7848D0895E82FF0E0E85FFD4F86E0D0
:101AB000EE0FFF1F8A95E1F7648F0895E82FF0E09D
:101AC000E85FFD4F96E0EE0FFF1F9A95E1F7868DD8
:101AD0000895E82FF0E0E85FFD4F26E0EE0FFF1FCE
:101AE0002A95E1F7668F0895E82FF0E0E85FFD4F53
:101AF00036E0EE0FFF1F3A95E1F784A50895E82F31
:101B0000F0E0E85FFD4F46E0EE0FFF1F4A95E1F77A
:101B100064A70895CF92DF92EF92FF920F931F93E5
:101B2000CF93DF936C019B017B01B601E90100E0DB
:101B300010E040E050E020E030E0DB018C918134A7
:101B400008F06BC09881913408F067C0080F111D30
:101B5000490F511DF901E850F54F90E0A0E0B0E0C9
:101B6000072E7AE0880F991FAA1FBB1F7A95D1F71D
:101B7000702D80839183A283B383F901E852F54FDE
:101B8000899190E0A0E0B0E0072E7AE0880F991FDD
:101B9000AA1FBB1F7A95D1F7702D80839183A283F2
:101BA000B3836F5F7F4F2C5F3F4F2032310529F6A3
:101BB000C80187709070892B81F5400F511F403804
:101BC000510559F5E0E2F0E8D6018D916D01819360
:101BD000B0E8E832FB07C1F7D7018D917D01819311
:101BE000B0E8E033FB07C1F7C80173E0969587952D
:101BF0007A95E1F740E050E020E030E005C0220FA8
:101C0000331F21604F5F5F4F48175907C0F3309370
:101C100030802093318081E001C080E0DF91CF915E
:101C20001F910F91FF90EF90DF90CF900895EF926A
:101C3000FF920F931F93CF93DF9379018A0190E076
:101C4000885F9D4F26E0880F991F2A95E1F7EC01E8
:101C5000AE96DC019F96FB0120E030E040E050E0D2
:101C600009C08081888381818C932E5F3F4F4F4FC5
:101C70005F4F32962E153F054007510790F3B7018D
:101C8000C801DF91CF911F910F91FF90EF900895C0
:101C9000EF92FF920F931F93CF93DF9379018A0105
:101CA00090E0885F9D4F36E0880F991F3A95E1F7E5
:101CB000EC01E096DC01D196FB0120E030E040E051
:101CC00050E009C0888180838C9181832E5F3F4FD3
:101CD0004F4F5F4F32962E153F054007510790F347
:101CE000B701C801DF91CF911F910F91FF90EF9045
:101CF0000895E82FF0E0EE0FFF1FEE0FFF1FE850F2
:101D0000F54F60817181828193810895E82FF0E021
:101D1000EE0FFF1FEE0FFF1FE852F54F608171813C
:101D200082819381089580E88093018085E090E02E
:101D30000E94541D08950F931F93DF93CF93CDB747
:101D4000DEB7CE5FD3400FB6F894DEBF0FBECDBF77
:101D5000BC01009719F400E010E014C08E010F5F81
:101D60001F4FC8010E94F037C80165EB71E00E9467
:101D700083208C0168EB71E00E94E737009711F037
:101D80000F5F1F4FC801C250DC4F0FB6F894DEBF83
:101D90000FBECDBFCF91DF911F910F9108950F938B
:101DA0001F93CF93DF938C01CB016AEB71E00E940C
:101DB0008320EC01009709F446C06CEB71E00E94AF
:101DC000E737009739F0CE0160EC71E00E94E73709
:101DD000009711F481E00FC0CE0164EC71E00E9425
:101DE000E737009739F0CE0169EC71E00E94E737E0
:101DF000009759F482E0F801808380E090E06AEB7C
:101E000071E00E948320EC011CC0CE016EEC71E0F9
:101E10000E94E737009739F0CE0163ED71E00E9430
:101E2000E737009759F480E090E068ED71E00E9498
:101E30008320EC0183E0F801808303C0F801108265
:101E400005C0209719F4F801108205C0C801029658
:101E5000BE010E94F037DF91CF911F910F9108953D
:101E60000F931F93CF93DF938C01EB01CB016AEDAE
:101E700071E00E94F737009711F081E05FC0CE015A
:101E80006FED71E00E94F737009711F082E056C0C5
:101E9000CE0164EE71E00E94F7370097F1F5CE01B4
:101EA0006AEE71E00E94F7370097B9F5CE016FEE48
:101EB00071E00E94F737009739F4CE0165EF71E0C9
:101EC0000E94F737009711F084E038C0CE016AEF26
:101ED00071E00E94F737009711F085E02FC0CE0126
:101EE0006FEF71E00E94F737009739F4CE0164E09C
:101EF00072E00E94F737009711F088E01FC0CE0112
:101F000069E072E00E94F737009739F4CE016DE086
:101F100072E00E94F737009711F083E00FC0CE0106
:101F200061E172E00E94F737009739F4CE0166E173
:101F300072E00E94F737009721F089E0F801808372
:101F400002C0F8011082DF91CF911F910F91089587
:101F5000CF92DF92EF92FF920F931F93DF93CF9375
:101F6000CDB7DEB72A970FB6F894DEBF0FBECDBF50
:101F70006C01613029F4FBE1EF2EF2E0FF2E22C06C
:101F8000623029F4EEE6EE2EE2E0FE2E1BC0633056
:101F900029F479EAE72E72E0F72E14C0643029F4B0
:101FA00065EEE62E62E0F62E0DC0653029F491E272
:101FB000E92E93E0F92E06C0693021F480E7E82E7F
:101FC00083E0F82E8DB79EB708970FB6F8949EBFA2
:101FD0000FBE8DBFEDB7FEB731968E010F5F1F4F5D
:101FE000ADB7BEB712961C930E93119782EC93E097
:101FF0009383828324833583468357830E94A43846
:102000008DB79EB708960FB6F8949EBF0FBE8DBFD2
:10201000C601B7010E94F037C601B8010E94D1374E
:10202000C60166EC73E00E94D1372A960FB6F89489
:10203000DEBF0FBECDBFCF91DF911F910F91FF90FB
:10204000EF90DF90CF9008958F929F92AF92BF92C2
:10205000CF92DF92EF92FF921F93CF93DF934C01C9
:102060005C01CC24DD24EE24FF241DC0F501808317
:10207000853281F489810E94EA1F182F8A810E948B
:10208000EA1F1295107F180FF501108382E090E08F
:10209000E80EF91E0894C11CD11C0894E11CF11C27
:1020A0000894A11CB11CE401CE0DDF1D888188239A
:1020B000E9F6C80CD91CF6011082DF91CF911F916F
:1020C000FF90EF90DF90CF90BF90AF909F908F9058
:1020D0000895EF92FF920F931F93DF93CF93CDB7A5
:1020E000DEB7CE5FD3400FB6F894DEBF0FBECDBFD4
:1020F0009C017B01009741F16115710529F18E0169
:102100000F5F1F4FC801B9010E94F037C801B70126
:102110000E94F7378C010097C9F0F7010190002069
:10212000E9F7EE19FF098E0F9F1F6BEC73E00E9419
:1021300083208C01009751F00E942410C8016BE2AB
:1021400040E20E94B72002C000E010E0C801C25087
:10215000DC4F0FB6F894DEBF0FBECDBFCF91DF913D
:102160001F910F91FF90EF9008958091400A9091F8
:10217000410A029662ED73E00E946910009721F017
:1021800065E27BE00E9413238091400A9091410A0E
:10219000029666ED73E00E946910009721F06DE2EF
:1021A0007BE00E9413238091400A9091410A02969D
:1021B0006BED73E00E946910009721F069E27BE00B
:1021C0000E9413238091400A9091410A02966EED7D
:1021D00073E00E94691089E19BE060E070E04FE1EC
:1021E00050E00E94F33A84E090E061E00E94FD3A02
:1021F00085E090E064E00E94FD3A08952F923F92BE
:102200004F925F926F927F929F92AF92BF92CF92C6
:10221000DF92EF92FF920F931F93DF93CF93CDB78F
:10222000DEB76C970FB6F894DEBF0FBECDBF982E09
:1022300080E099E19093410A8093400A892D0E94A1
:10224000550B873139F08C3109F43EC6882309F4E7
:1022500040C656C68091180B813019F482E08093F5
:10226000180B892D0E94AC0CCB01161617060CF02A
:1022700047C623E06F3F720710F08EEF93E0609146
:10228000400A7091410A9C01442737FD4095542F24
:10229000892D0E948607E091400AF091410AE60FDD
:1022A000F71F10826091400A7091410A1F821886C0
:1022B00019861A8680E099E190933F0A80933E0A3E
:1022C00080E091E19093410A8093400A0E94CF0EF2
:1022D000E091400AF091410A8081882321F0843006
:1022E00008F0DFC509C080913E0A90913F0A6CE872
:1022F00070E046E750E0EBC0CF0102960E949B0ED3
:102300006C0162EE73E00E94E737009729F4C60182
:1023100064EE73E00E94F0378091400A9091410A88
:102320000196B6010E94300FE090400AF090410AF9
:10233000F7018181883009F0B7C0C6016FEE73E004
:102340000E94F737009781F0C70102966AEF73E0A9
:102350000E946910FC01009709F46CC0108A81E0AA
:10236000BF010E94EC0166C0C60168E074E00E94F3
:10237000F7378C01009709F46BC0C701029663E13F
:1023800074E00E946910009751F068E174E00E94C7
:10239000E737009721F480E00E946D0103C080E0E0
:1023A0000E9460018091400A9091410A02966BE17F
:1023B00074E00E946910009751F068E174E00E9497
:1023C000E737009721F481E00E946D0103C081E0AE
:1023D0000E9460018091400A9091410A029660E259
:1023E00074E00E946910009751F068E174E00E9467
:1023F000E737009721F482E00E946D0103C082E07C
:102400000E9460018091400A9091410A029665E223
:1024100074E00E946910009751F068E174E00E9436
:10242000E737009721F483E00E946D0103C083E049
:102430000E946001C6016FEF73E00E94F037809147
:10244000400A9091410A0196B6010E94300F2CC0BB
:10245000C6016AE274E00E94F737009729F10E94F2
:10246000B51080913E0A90913F0A62E071E04FE71B
:1024700050E00E94AB3760913E0A70913F0AFB0129
:10248000DF010D900020E9F79D01215030402E1B07
:102490003F0B40E050E0892D0E94220980E00E941D
:1024A000B005F8010995FDC4C601BE01695F7F4F03
:1024B000AE014D5F5F4F0E9406058823F1F48091C5
:1024C0003E0A90913F0A61E871E049E950E00E94BC
:1024D000AB3760913E0A70913F0AFB01DF010D901E
:1024E0000020E9F79D01215030402E1B3F0B40E0BA
:1024F00050E0892D0E942209D4C4E091400AF09155
:10250000410A6181683009F4B3C42B813C814D815B
:102510005E8180913E0A90913F0A0E94A80F6091CF
:102520003E0A70913F0AFB01DF010D900020E9F7A0
:102530009D01215030402E1B3F0B40E050E0892D83
:102540000E94220995C42F3FB7E03B07B0E04B073C
:10255000B0E05B0728F04FEF642E47E0742E01C017
:1025600039016F81788589859A8540913E0A50911D
:102570003F0A93010E946804E0913E0AF0913F0AED
:10258000E60DF71D1182E091400AF091410A818128
:10259000813029F0883019F0893009F044C4E09185
:1025A0003E0AF0913F0A82E1D5011D928A95E9F732
:1025B0001A8219823CEA232E34E0332E28E4422E7C
:1025C00024E0522E27C4C70168E374E00E94F73765
:1025D0008C010097E1F1EDB7FEB73C970FB6F89488
:1025E000FEBF0FBEEDBF3196ADB7BEB71296BC921F
:1025F000AE921197538242828091250B848315827B
:102600008091260B868317828091270B8087118605
:102610008091280B828713860E94A438F5010190CF
:102620000020E9F731978E2F8A19EDB7FEB73C9657
:102630000FB6F894FEBF0FBEEDBF90E205C0F501E6
:10264000E80FF11D90838F5F8F30C8F3D7C0C701AB
:1026500064E574E00E94F7378C01009709F43FC0ED
:102660002DB73EB72C5030400FB6F8943EBF0FBE8A
:102670002DBFEDB7FEB73196ADB7BEB71296BC927F
:10268000AE9211975382428280912D0B84831582E2
:1026900080912E0B8683178280912F0B8087118665
:1026A0008091300B828713860E94A438F501019037
:1026B0000020E9F731978E2F8A19EDB7FEB73C96C7
:1026C0000FB6F894FEBF0FBEEDBF90E205C0F50156
:1026D000E80FF11D90838F5F8F30C8F38FC0C70163
:1026E00064E674E00E94F7378C01009709F43FC05C
:1026F0002DB73EB72C5030400FB6F8943EBF0FBEFA
:102700002DBFEDB7FEB73196ADB7BEB71296BC92EE
:10271000AE921197538242828091290B8483158255
:1027200080912A0B8683178280912B0B80871186DC
:1027300080912C0B828713860E94A438F5010190AA
:102740000020E9F731978E2F8A19EDB7FEB73C9636
:102750000FB6F894FEBF0FBEEDBF90E205C0F501C5
:10276000E80FF11D90838F5F8F30C8F347C0C7011A
:1027700064E774E00E94F7378C01009709F452C0B7
:102780002DB73EB72C5030400FB6F8943EBF0FBE69
:102790002DBFEDB7FEB73196ADB7BEB71296BC925E
:1027A000AE921197538242828091250B84831582C9
:1027B0008091260B868317828091270B8087118654
:1027C0008091280B828713860E94A438F50101901E
:1027D0000020E9F731978E2F8A19EDB7FEB73C96A6
:1027E0000FB6F894FEBF0FBEEDBF90E205C0F50135
:1027F000E80FF11D90838F5F8F30C8F3F5010190D2
:102800000020E9F73197EA19FB09C801B501AF01CA
:102810000E94C137F50101900020E9F73197EA19CC
:10282000FB09F6C2C70164E874E00E94F7378C0127
:10283000009709F463C02DB73EB7285030400FB65B
:10284000F8943EBF0FBE2DBFEDB7FEB73196ADB7C2
:10285000BEB71296BC92AE92119726E934E033834C
:10286000228380911F0B848315828091200B8683A5
:1028700017820E94A438EDB7FEB73196CE0141967B
:10288000ADB7BEB712969C938E93119721EA34E0B0
:10289000338322838091210B848315828091220BC4
:1028A000868317820E94A438EDB7FEB73196CE0119
:1028B0004796ADB7BEB712969C938E93119733820D
:1028C00022828091230B848315828091240B86833E
:1028D00017820E94A438D801F50181E101900D9280
:1028E0008150E1F7F80171962DB73EB7285F3F4F51
:1028F0000FB6F8943EBF0FBE2DBF8CC2C70166EB6A
:1029000074E00E94F7378C01009799F060E270E064
:1029100040E150E00E94CA3781E00E949E01D80148
:10292000FC0180E101900D928150E1F7F801709671
:1029300071C2C70167EC74E00E94F7378C01009701
:10294000E1F08AE0D8011D928A95E9F780E00E94C3
:102950007B01813049F4D801E2EDF4E08AE0019096
:102960000D928150E1F774C0D801EDEDF4E08AE0FA
:1029700001900D928150E1F76BC0C70168EE74E0E1
:102980000E94F7378C010097E1F08AE0F80111927C
:102990008A95E9F781E00E947B01813049F4D801F2
:1029A000E2EDF4E08AE001900D928150E1F750C031
:1029B000D801EDEDF4E08AE001900D928150E1F74D
:1029C00047C0C70163EF74E00E94F7378C0100979E
:1029D000E1F08AE0D8011D928A95E9F782E00E9431
:1029E0007B01813049F4D801E2EDF4E08AE0019006
:1029F0000D928150E1F72CC0D801EDEDF4E08AE0B2
:102A000001900D928150E1F723C0C7016EEF74E091
:102A10000E94F7378C010097F1F08AE0F8011192DB
:102A20008A95E9F783E00E947B01813049F4D8015F
:102A3000E2EDF4E08AE001900D928150E1F708C0E8
:102A4000D801EDEDF4E08AE001900D928150E1F7BC
:102A5000F8013A96DFC1C70169E075E00E94F737D7
:102A60008C010097A9F060E270E047E050E00E941E
:102A7000CA3780E00E947B01813009F0FBC0D80199
:102A8000E1E1F5E087E001900D928150E1F7F2C0BD
:102A9000C70169E175E00E94F7378C010097A9F042
:102AA00060E270E047E050E00E94CA3781E00E9497
:102AB0007B01813009F0DEC0D801E1E1F5E087E07B
:102AC00001900D928150E1F7D5C0C70161E275E038
:102AD0000E94F7378C010097A9F060E270E047E0B0
:102AE00050E00E94CA3782E00E947B01813009F0E9
:102AF000C1C0D801E1E1F5E087E001900D9281507D
:102B0000E1F7B8C0C70169E275E00E94F7378C01B0
:102B10000097A9F060E270E047E050E00E94CA37F9
:102B200083E00E947B01813009F0A4C0D801E1E17B
:102B3000F5E087E001900D928150E1F79BC0C7015D
:102B400061E375E00E94F7378C010097E1F089E0BE
:102B5000D8011D928A95E9F780E00E948F018823B1
:102B600049F0D801EBE3F5E089E001900D92815046
:102B7000E1F72CC0D801E5E4F5E089E001900D9281
:102B80008150E1F723C0C7016FE475E00E94F73779
:102B90008C010097F1F089E0F80111928A95E9F72C
:102BA00081E00E948F01882349F0D801EBE3F5E032
:102BB00089E001900D928150E1F708C0D801E5E469
:102BC000F5E089E001900D928150E1F7F801399626
:102BD00021C1C70169E575E00E94F7378C010097B4
:102BE00009F44AC086E0D8011D928A95E9F7CE0122
:102BF00001960E9486258823B1F569817A8160510A
:102C0000704080E090E00E94D03420E030E040E26C
:102C10005FE30E9446320E9470309B017A83698391
:102C200000D000D000D0EDB7FEB73196ADB7BEB73B
:102C30001296BC92AE92119780E695E093838283C0
:102C400093E0369527959A95E1F7265F3F4F3583B8
:102C500024830E94A438ADB7BEB716960FB6F89479
:102C6000BEBF0FBEADBFD801F50186E001900D9249
:102C70008150E1F7F80184C0C70166E675E00E9463
:102C8000F7376C01009709F47DC086E0F6011192D8
:102C90008A95E9F7CE0101960E94862529813A811D
:102CA000882341F160E070E1621B730B80E090E0EB
:102CB0000E94D03420E030E040E25FE30E944632E0
:102CC0000E9470308B019C017A8369838DB79EB717
:102CD00008970FB6F8949EBF0FBE8DBFEDB7FEB735
:102CE0003196ADB7BEB71296BC92AE9211978DE6F3
:102CF00095E024C020513040B90180E090E00E946E
:102D0000D03420E030E040E25FE30E9446320E948F
:102D100070308B019C017A836983EDB7FEB73897D9
:102D20000FB6F894FEBF0FBEEDBF3196ADB7BEB77C
:102D30001296BC92AE92119786E795E093838283B8
:102D4000C8016AE070E00E943E3775836483C80161
:102D50006AE070E00E943E37978386830E94A43821
:102D6000ADB7BEB718960FB6F894BEBF0FBEADBFD5
:102D7000D601F50186E001900D928150E1F7F60150
:102D8000379648C0C7016EE775E00E94F7377C01AF
:102D9000009709F448C080E00E94B00120E034E0D0
:102DA000281B390B3A832983C70160E270E04DE0AC
:102DB00050E00E94CA3700D000D000D0EDB7FEB777
:102DC0003196ADB7BEB71296BC92AE92119726E877
:102DD00035E03383228389819A81958384830E949D
:102DE000A438F50101900020E9F73197EA190E2F78
:102DF00010E08DB79EB706960FB6F8949EBF0FBE33
:102E00008DBFC701B5014E2F50E00E94C137F701B9
:102E1000E00FF11FCF0164E270E00E94DC377C011B
:102E2000009709F0D0CB730100E010E060913E0AFA
:102E300070913F0A892DA80197010E9422098F8174
:102E40009885A985BA858E0D9F1DA01FB11F8F8300
:102E50009887A987BA878B819C81AD81BE818E19A5
:102E60009F09A00BB10B8B839C83AD83BE8305C0F0
:102E70008BE0A82EB12CAC0EBD1E2B813C814D8168
:102E80005E81211531054105510509F05CCB09C072
:102E90009DEDC91695E0D90699F00894C11CD11C86
:102EA00002C0CC24DD24892D0E94470C7B018C01BB
:102EB000892D0E94790EE616F7060807190741F7D3
:102EC000892D0E94B0051CC0892D0E94B00510926A
:102ED000180B8091180B882319F481E08093180B4C
:102EE000892D61E040E550E020E030E00E942706B7
:102EF000882319F41092180B03C0892D0E948606AE
:102F00006C960FB6F894DEBF0FBECDBFCF91DF91A8
:102F10001F910F91FF90EF90DF90CF90BF90AF90F7
:102F20009F907F906F905F904F903F902F9008956B
:102F3000DF93CF9300D000D0CDB7DEB71A821982CD
:102F40001C821B8200D08FE895E0EDB7FEB792831C
:102F500081830E945D380F900F9084EE93E0BE0154
:102F60006F5F7F4FAE014D5F5F4F0E940605882364
:102F700019F088EA95E002C08DEA95E00E946F386A
:102F80000F900F900F900F90CF91DF91089584EBE9
:102F900095E00E946F3808956091250B7091260B83
:102FA0008091270B9091280B0E940B210E94602397
:102FB000BC0181E00E94EC010895EF92FF920F9313
:102FC0001F93CF93DF938C017B01C0E0D0E05AC008
:102FD0008091350A882309F454C080913A0A90916F
:102FE0003B0AA0913C0AB0913D0A83309105A105AE
:102FF000B10571F4F80180819181A281B381809340
:10300000360A9093370AA093380AB093390A0AC057
:103010000497A105B10530F0F801EC0FFD1F808188
:103020000E94780520913A0A30913B0A40913C0A6F
:1030300050913D0A2F5F3F4F4F4F5F4F20933A0A09
:1030400030933B0A40933C0A50933D0A8091360AE4
:103050009091370AA091380AB091390A0496A11DBF
:10306000B11D281739074A075B0759F40E947005FC
:103070001092350A80E00E94B005E0E0F0E009958A
:1030800005C02196CE15DF0508F4A2CFDF91CF91C0
:103090001F910F91FF90EF9008951F93182F0E949A
:1030A000550B8331B1F1843118F4882331F134C0E8
:1030B000873119F08C3181F51CC0812F0E94AC0C36
:1030C0006115710549F19B0185E0253B380710F03A
:1030D00024EB35E040E050E0812F60E071E20E9497
:1030E00086079B01AC0180E091E2B9010E94DD17E7
:1030F00013C0812F0E94B0050FC0812F0E941B06B4
:10310000812F61E04BE45EEB20E030E00E94270677
:1031100003C0812F0E9486061F910895AF92BF922F
:10312000DF92EF92FF920F931F9354EBA52E55E081
:10313000B52EC5010E946F3888EE95E00E946F3869
:10314000C5010E946F3800D089E096E0ADB7BEB7E8
:1031500012969C938E9311970E945D380F900F905A
:1031600088E090E80E949B09D82E89E090E80E94B0
:103170009B09E82E8AE090E80E949B09F82E8BE0DC
:1031800090E80E949B09082F8CE090E80E949B0920
:10319000182F8DE090E80E949B09EDB7FEB73E978F
:1031A0000FB6F894FEBF0FBEEDBF31962DE136E0AD
:1031B000ADB7BEB712963C932E931197D28213826D
:1031C000E4821582F68217820087118612871386A1
:1031D000848715860E945D38EDB7FEB73C960FB622
:1031E000F894FEBF0FBEEDBF8BE396E09283818320
:1031F0000E945D380F900F9084E190E80E949B0937
:1032000000D000D0EDB7FEB7319601E516E0ADB7BE
:10321000BEB712961C930E931197828313820E945D
:103220005D380F900F900F900F9085E190E80E940D
:103230009B0900D000D0EDB7FEB73196ADB7BEB751
:1032400012961C930E931197828313820E945D380D
:103250000F900F900F900F9086E190E80E949B09CD
:1032600000D000D0EDB7FEB73196ADB7BEB712961D
:103270001C930E931197828313820E945D380F90E6
:103280000F900F900F9087E190E80E949B0900D06B
:1032900000D0EDB7FEB73196ADB7BEB712961C930E
:1032A0000E931197828313820E945D380F900F90C6
:1032B00085E596E0EDB7FEB7928381830E945D3885
:1032C0000F900F9080E190E80E949B0900D000D001
:1032D000EDB7FEB73196ADB7BEB712961C930E93FD
:1032E0001197828313820E945D380F900F900F9088
:1032F0000F9081E190E80E949B0900D000D0EDB7CB
:10330000FEB73196ADB7BEB712961C930E931197C8
:10331000828313820E945D380F900F900F900F9060
:1033200082E190E80E949B0900D000D0EDB7FEB783
:103330003196ADB7BEB712961C930E931197828348
:1033400013820E945D380F900F900F900F9083E1D1
:1033500090E80E949B0900D000D0EDB7FEB73196EF
:10336000ADB7BEB712961C930E931197828313824A
:103370000E945D380F900F908BE696E0EDB7FEB798
:10338000928381830E945D380F900F9088E190E8CE
:103390000E949B0900D000D0EDB7FEB73196ADB7C3
:1033A000BEB712961C930E931197828313820E94CC
:1033B0005D380F900F900F900F9089E190E80E9478
:1033C0009B0900D000D0EDB7FEB73196ADB7BEB7C0
:1033D00012961C930E931197828313820E945D387C
:1033E0000F900F900F900F908AE190E80E949B0938
:1033F00000D000D0EDB7FEB73196ADB7BEB712968C
:103400001C930E931197828313820E945D380F9054
:103410000F900F900F908BE190E80E949B0900D0D5
:1034200000D0EDB7FEB73196ADB7BEB712961C937C
:103430000E931197828313820E945D380F900F9034
:103440000F900F90C5010E946F381F910F91FF9050
:10345000EF90DF90BF90AF900895DF93CF93CDB7FB
:10346000DEB72C970FB6F894DEBF0FBECDBF80EA53
:1034700096E8A1E0B0E089839A83AB83BC83DE0148
:103480001596E8EAF6E088E001900D928150E1F7A8
:103490000E94930E89819A81AB81BC810197A10919
:1034A000B10989839A83AB83BC830196A11DB11DA9
:1034B0000097A105B10571F7BE016B5F7F4FCB018E
:1034C0000E948A0D882309F4FFCF2C960FB6F8943A
:1034D000DEBF0FBECDBFCF91DF9108950E943802AD
:1034E00000D081E896E0EDB7FEB7928381830E9419
:1034F0005D380F900F900E942D1A0E94951C0E941B
:10350000F72F0E94CC170E948E180E94A5050E94DA
:1035100098170E94832580E00E944D1881E00E9448
:10352000A71A8091310B882311F00E94F32F83E0BA
:103530000E94FE1084E00E94FE1085E00E94FE10B2
:1035400086E00E94FE1087E00E94FE10E4CFCF923A
:10355000DF92FF920F931F93DF93CF9300D000D0A1
:1035600000D0CDB7DEB7F82E8AE49EEB9A8389832C
:103570008F2D0E94550B882309F4A5C1823209F0D2
:10358000AAC18F2D0E94AC0CAB01161617060CF0C9
:10359000A2C16032710510F04FE150E083E0C82E07
:1035A000D12CCC0EDD1E8F2D68E37BE096018E01C1
:1035B0000F5F1F4F0E94D60789819A818A549E4BC4
:1035C00009F089C188E39BE060EB76E044E050E0DD
:1035D0000E94B437009739F5A8E3BBE0E9E1FBE0CE
:1035E0008FE101900D928150E1F786E699E6AEE613
:1035F000B4E68093380B9093390BA0933A0BB093B9
:103600003B0B8FEF8B838C838D838E8309811A8193
:103610008F2D68E37BE04FE150E09E012D5F3F4F2F
:103620000E94EE0658C188E39BE065EB76E044E03B
:1036300050E00E94B437009709F05BC090913E0BB8
:1036400080911F0B981709F046C190913F0B809114
:10365000200B981709F03FC19091400B8091210BEE
:10366000981709F038C19091410B8091220B98175F
:1036700009F031C19091420B8091230B981709F00A
:103680002AC19091430B8091240B981709F023C114
:1036900083E795E6A4E7B4E78093380B9093390B62
:1036A000A0933A0BB0933B0B8FEF8B838C838D836E
:1036B0008E838F2D68E37BE04FE150E096010AE4B2
:1036C0001EEB0E94EE0682E88093380B8093390B44
:1036D00080933A0B80933B0B88E39BE060E070E0C3
:1036E0004FE150E00E94F33A8F2D0E941B06F894A0
:1036F000E6C088E39BE06AEB76E044E050E00E949D
:10370000B4370097A9F590913E0B80911F0B981745
:1037100009F0E1C090913F0B8091200B981709F0C0
:10372000DAC09091400B8091210B981709F0D3C01B
:103730009091410B8091220B981709F0CCC0909189
:10374000420B8091230B981709F0C5C09091430B51
:103750008091240B981709F0BEC0F89485B781605A
:1037600085BF85B7826085BFE0E0F0EE0995B3C004
:1037700088E39BE06FEB76E044E050E00E94B437D2
:10378000009771F590913E0B80911F0B981709F0EF
:10379000A2C090913F0B8091200B981709F09BC01D
:1037A0009091400B8091210B981709F094C0909153
:1037B000410B8091220B981709F08DC09091420B1C
:1037C0008091230B981709F086C09091430B80914C
:1037D000240B981709F07FC081E08093350A7BC0E5
:1037E00088E39BE064EC76E044E050E00E94B4376C
:1037F000009709F070C09091510B80911F0B9817A2
:1038000009F069C09091520B8091200B981709F034
:1038100062C09091530B8091210B981709F05BC007
:103820009091540B8091220B981709F054C09091FD
:10383000550B8091230B981709F04DC09091560BB2
:103840008091240B981709F046C083E795E6A4E71A
:10385000B4E78093380B9093390BA0933A0BB09355
:103860003B0B8FEF8B838C838D838E8309811A8131
:103870008F2D68E37BE04FE150E09E012D5F3F4FCD
:103880000E94EE0682E88093380B8093390B809378
:103890003A0B80933B0B8091310B8093500B88E364
:1038A0009BE060E070E04FE150E00E94F33A89EC69
:1038B00096E00E946F388F2D0E941B06F894E0E07E
:1038C000F0E0099508C08F2D62E049E45EEB20E04E
:1038D00030E00E94270626960FB6F894DEBF0FBE92
:1038E000CDBFCF91DF911F910F91FF90DF90CF90CF
:1038F0000895A9E1BBE0E0EEF6E08FE101900D92C2
:103900008150E1F789E19BE060E070E04FE150E039
:103910000E94F33A84E090E061E00E94FD3A85E085
:1039200090E064E00E94FD3A089580E090E00E94FB
:10393000EB3A823819F00E94791C24C089E19BE09F
:1039400060E070E04FE150E00E94DB3A84E090E0FC
:103950000E94EB3A813031F485E090E00E94EB3A2E
:10396000843051F084E090E061E00E94FD3A85E00F
:1039700090E064E00E94FD3A81E080931D0B84E0BA
:1039800080931E0B85E29BE00E94330A8DE29BE050
:103990000E94FB0989E29BE00E94170A8FE19BE0ED
:1039A0000E94E3090895AF92BF92CF92DF92EF9207
:1039B000FF920F931F93A0E0B0E0BC01CD010E94E5
:1039C000D0345B016C012BEA3AEA4AEA5EE30E94DA
:1039D00046327B018C0120E030E040E85FE30E944A
:1039E0004C34882314F461E054C0C801B70120E0CE
:1039F00030E04FE753E40E94EC3318160CF045C05A
:103A0000C601B50120E030E04AE754E40E944033AB
:103A10005B016C0120E030E04AE753E40E9446324B
:103A20007B018C0120E030E040E85FE30E944C34F1
:103A300088231CF461E070E024C0C801B70120E0D5
:103A40003FEF4FE757E40E94EC331816B4F4C60179
:103A5000B50120E030E040E251E40E9446320E948D
:103A6000703089E190E005C0FC013197F1F76150B9
:103A7000704061157105C1F70EC0C801B7010E9401
:103A80007030CB010197F1F706C0C801B7010E9461
:103A900070306A95F1F71F910F91FF90EF90DF90D2
:103AA000CF90BF90AF900895CF93DF93EC0105C006
:103AB00088EE93E00E94D31C21972097C9F7DF91ED
:103AC000CF910895CF93DF93EC0105C08AE090E099
:103AD0000E94541D21972097C9F7DF91CF91089537
:103AE0001F920F920FB60F920BB60F9211242F93C5
:103AF0003F934F938F939F93EF93FF93E091620ACD
:103B0000F091630A8CB1EE5BF54F80834091660AB9
:103B10004423E1F0E091620AF091630AEE5BF54F15
:103B20008081833121F48091670A82600CC0E0912A
:103B3000620AF091630AEE5BF54F8081813131F4C6
:103B40008091670A8D7F8093670A09C08091620A1D
:103B50009091630A01969093630A8093620A209180
:103B6000620A3091630A8091640A9091650A28176D
:103B70003907A1F4442349F05D9BFECF83E18CB962
:103B80008091670A81608093670A8091620A9091B0
:103B9000630A01979093630A8093620A8091620A94
:103BA0009091630A8097ACF01092630A1092620AB7
:103BB0002091620A3091630A8091640A9091650AAB
:103BC0002817390731F480E290E09093630A8093DC
:103BD000620AFF91EF919F918F914F913F912F91A9
:103BE0000F900BBE0F900FBE0F901F90189588235B
:103BF00091F480919500886080939500662331F45C
:103C0000809195008D7F8093950008958091950017
:103C10008260809395000895882369F4662331F4C7
:103C200080919500877F80939500089580919500FD
:103C30008860809395000895882399F4662321F481
:103C4000809195008F7C05C0613031F480919500A2
:103C50008F7E809395000895809195008063809376
:103C600095000895882311F46093660A08958823C7
:103C700019F020E030E020C02091620A3091630A00
:103C80008091640A9091650A281739074CF02091B9
:103C9000620A3091630A8091640A9091650A0AC0B1
:103CA0002091620A3091630A8091640A9091650ABA
:103CB000205E3F4F281B390BC9010895982F809132
:103CC000670A282F30E0227030708091660A8823BE
:103CD00019F021153105E9F75D9BFECF9CB90895D8
:103CE0002091620A3091630A8091640A9091650A7A
:103CF00028173907A9F38091640A9091650AFC019D
:103D0000EE5BF54FE08101969093650A8093640A1B
:103D10008091660A882359F09091670A90FF07C046
:103D20005D9BFECF81E18CB99E7F9093670A809165
:103D3000640A9091650A809724F01092650A1092A7
:103D4000640A8E2F0895CF93DF93882361F4EB01EB
:103D500007C0E0916A0AF0916B0A60E070E0099593
:103D600089918823B1F7DF91CF9108957F928F9247
:103D70009F92AF92BF92CF92DF92EF92FF920F93FA
:103D80001F93CF93DF935B01742E4901882319F0B1
:103D9000CC24DD2498C07B0101E0CC24DD2481C04B
:103DA000002391F0113281F40AC00894E11CF11C47
:103DB000E0916A0AF0916B0A60E070E00995F70102
:103DC0008081882391F769C0183019F5AE14BF04BB
:103DD00009F447C0E0916A0AF0916B0A88E060E05C
:103DE00070E00995E0916A0AF0916B0A80E260E068
:103DF00070E00995E0916A0AF0916B0A88E060E052
:103E000070E009950894E108F1080894C108D10808
:103E100048C01B3131F5E70119C0E0916A0AF09101
:103E20006B0A88E060E070E00995E0916A0AF09121
:103E30006B0A80E260E070E00995E0916A0AF09117
:103E40006B0A88E060E070E009952197AC16BD062A
:103E500021F7C5018E199F09C80ED91E750101E011
:103E600020C0812F80528F3510F01930D1F4C81442
:103E7000D904BCF4772031F0E0916A0AF0916B0A22
:103E80008AE205C0E0916A0AF0916B0A812F60E036
:103E900070E00995F70111937F010894C11CD11CB2
:103EA00000E0E091680AF091690A80E090E00995ED
:103EB000182F8D3009F074CFF701108280E065E192
:103EC00077E00E94A31EC601DF91CF911F910F9151
:103ED000FF90EF90DF90CF90BF90AF909F908F902A
:103EE0007F900895882341F48091640A9091650A37
:103EF0009093630A8093620A0895662319F42FEC65
:103F000030E033C0613019F427E630E02EC0623073
:103F100019F423E330E029C0633019F422E230E0E1
:103F200024C0643019F429E130E01FC0653019F471
:103F300020E130E01AC0663019F42CE030E015C002
:103F4000673019F428E030E010C0683019F426E03A
:103F500030E00BC0693019F423E030E006C020E007
:103F600030E06A3011F421E030E0882321F583B19C
:103F7000836083B91098119A88E98AB910929000E9
:103F800029B960E77EE17093690A6093680A8EE55B
:103F90009EE190936B0A80936A0A0E9411381092F6
:103FA000630A1092620A1092650A1092640A1092D3
:103FB000660A1092670A0895282F30E02A303105EA
:103FC00010F4805D08952A5030402630310508F401
:103FD000895C0895982F80538A3068F08153863029
:103FE00010F4865F0895892F8154863010F0892F50
:103FF0000895892F87530895EF92FF920F931F938F
:10400000CF93DF93EC017B0120E030E00DC02E9DCB
:1040100080012F9D100D3E9D100D112421960E94B0
:10402000EA1F9801280F311D8881882311F0803202
:1040300071F7C901DF91CF911F910F91FF90EF9020
:104040000895CF92DF92EF92FF920F931F93CF9339
:10405000DF938C017B016A010097D1F0FC01808124
:104060008823B1F0E80107C00E94EA1F90E08E1596
:104070009F0574F4219688818823B1F7C801B701A0
:104080000E94FC1FF6019183808321E030E002C092
:1040900020E030E0C901DF91CF911F910F91FF9097
:1040A000EF90DF90CF9008951F93162FDC0140E032
:1040B00050E00AC0681729F0319680818823D1F733
:1040C0000BC04F5F5F4F11966C91662329F0812FD3
:1040D000972F9C01F901F1CFCA011F910895DC01CE
:1040E00009C0481711F49D010CC0319680818823C6
:1040F000C1F711964C91442311F0FB01F7CF20E05A
:1041000030E0C90108950F931F93CF93DF938B0184
:10411000009711F0EC0106C0C0918C0AD0918D0A75
:104120002097F9F0CE01B8010E945420C80FD91F82
:104130008881882339F410928D0A10928C0AC0E08D
:10414000D0E00FC0CE01B8010E946F20FC01DC015D
:10415000009719F0808181111D92B0938D0AA09370
:104160008C0ACE01DF91CF911F910F910895FC0130
:1041700004C0861709F44083319680818823C9F7EB
:104180000895582F40E0292F30E0242B352BC9010A
:104190000895EF92FF920F931F93562F44273327D2
:1041A0002227E92EFF2400271127E22AF32A042BD5
:1041B000152B272F30E040E050E0A90133272227BC
:1041C000E22AF32A042B152B672F782F892F9927A2
:1041D000607080709070E62AF72A082B192BB701BF
:1041E000C8011F910F91FF90EF9008950E94C92080
:1041F0000895582F40E0292F30E0242B352BC9019A
:104200000895782F60E0292F30E0262B372BB90155
:1042100080E090E008950E94C9200895CF92DF9237
:10422000EF92FF920F931F93CF93DF936C01EB01FB
:10423000D695C795F60140E050E0EE24FF248701B3
:1042400010C0308120E08181D901A80FB11DCD01BE
:10425000A0E0B0E0E80EF91E0A1F1B1F4F5F5F4F82
:1042600032964C175D0768F360FF0CC0CC0FDD1F62
:10427000CC0DDD1D988180E0A0E0B0E0E80EF91ED5
:104280000A1F1B1F9801442755272E0D3F1D2095FF
:104290003095C901DF91CF911F910F91FF90EF9061
:1042A000DF90CF900895EF92FF920F931F93CF93DB
:1042B000DF937B0190E0885F9D4F26E0880F991F78
:1042C0002A95E1F7EC012C968C010E5E1F4FCE0172
:1042D0000E949B09F70181937F012196C017D107A6
:1042E000B1F7DF91CF911F910F91FF90EF9008955B
:1042F0000F931F93CF93DF938C01C8E0D0E8CE01DA
:104300000E949B09F80181938F012196F0E8CE303D
:10431000DF07A9F7DF91CF911F910F910895EF92D9
:10432000FF920F931F93CF93DF9320E030E040E0A4
:1043300050E0C4E1D0E8EE24F22E032F142FCE017A
:104340000E949B09A8019701280F311D411D511D95
:10435000219680E8C831D80771F7B901CA01DF9109
:10436000CF911F910F91FF90EF900895EF92FF92E0
:104370000F931F93CF93DF9320E030E040E050E0B5
:10438000C0E1D0E8EE24F22E032F142FCE010E94BC
:104390009B09A8019701280F311D411D511D219630
:1043A00080E8C431D80771F7B901CA01DF91CF9114
:1043B0001F910F91FF90EF900895EF92FF920F934E
:1043C0001F93CF93DF9320E030E040E050E0C8E15E
:1043D000D0E8EE24F22E032F142FCE010E949B0969
:1043E000A8019701280F311D411D511D219680E81C
:1043F000CC31D80771F7B901CA01DF91CF911F9174
:104400000F91FF90EF9008958F929F92AF92BF927D
:10441000CF92DF92FF920F931F93DF93CF9300D041
:1044200000D0CDB7DEB769837A838B839C835E012E
:104430000894A11CB11CA4E1CA2EA0E8DA2EF5E074
:104440008F2E912C8C0E9D1EF5011081C6010E94AD
:104450009B09F82EC60104960E949B09082FC601ED
:104460000E949B091F210823101711F081E00AC048
:104470000894A11CB11C0894C11CD11CA814B90437
:1044800019F780E00F900F900F900F90CF91DF9170
:104490001F910F91FF90DF90CF90BF90AF909F90B2
:1044A0008F900895EF92FF920F931F93E82EFF24B1
:1044B00088E092E0E80EF91EB6E0EE0CFF1CBA951B
:1044C000E1F7C70142960E949B09182F00E0C7013F
:1044D00043960E949B09080F111DC8011F910F915F
:1044E000FF90EF900895CF92DF92EF92FF920F939B
:1044F0001F93CF93DF9390E0885F9D4F26E0880F56
:10450000991F2A95E1F7EC01649620E030E040E045
:1045100050E008E1C02ED12CC80ED91EEE24F22E98
:10452000032F142FCE010E949B09A8019701280F89
:10453000311D411D511D2196CC15DD0579F7B901BD
:10454000CA01DF91CF911F910F91FF90EF90DF9003
:10455000CF9008950F931F93082F643010F010E050
:1045600001C0162F812F0E94550B801721F01F5F6D
:104570001830C0F318E0812F1F910F910895EF922A
:10458000FF920F931F93DF93CF93CDB7DEB7E497DE
:104590000FB6F894DEBF0FBECDBFBC018E010D5F1C
:1045A0001F4FC8010E94F037EE24FF24C8018E017E
:1045B0000F5F1F4F68E177E00E948320FC010097A6
:1045C00021F18081803341F48181883729F4CF0142
:1045D000029660E170E003C0CF016AE070E0A801DC
:1045E0000E942120892B89F089819A818F3F910532
:1045F00009F058F40894E11CF11C80E090E024E0FC
:10460000E216F104B9F681E001C080E0E4960FB64D
:10461000F894DEBF0FBECDBFCF91DF911F910F91F8
:10462000FF90EF900895CF92DF92EF92FF920F9359
:104630001F93DF93CF93CDB7DEB76E970FB6F89485
:10464000DEBF0FBECDBF9C016B018E010F5F1F4F00
:10465000C801B9010E94F037EE24FF24C80168E1C7
:1046600077E00E948320FC018081803341F48181C6
:10467000883729F4CF01029660E170E003C0CF01D2
:104680006AE070E00E94FC1FF601EE0DFF1D8083C2
:104690000894E11CF11C80E090E024E0E216F104B3
:1046A000F1F66E960FB6F894DEBF0FBECDBFCF9178
:1046B000DF911F910F91FF90EF90DF90CF900895C1
:1046C0000F931F930CE61AE020E1D8011D922A9562
:1046D000E9F7EDB7FEB73C970FB6F894FEBF0FBEF3
:1046E000EDBF3196ADB7BEB712961C930E931197DE
:1046F0002AE137E033832283292F332744275527A4
:10470000358324839C0144275527307037832683C3
:10471000272F382F492F5527307031872087707009
:10472000738762870E94A438EDB7FEB73C960FB638
:10473000F894FEBF0FBEEDBFC8011F910F91089501
:104740000F931F930CE71AE020E1D8011D922A95E0
:10475000E9F7EDB7FEB73C970FB6F894FEBF0FBE72
:10476000EDBF3196ADB7BEB712961C930E9311975D
:104770002EE237E033832283292F3327442755271E
:10478000358324839C014427552730703783268343
:10479000272F382F492F5527307031872087707089
:1047A000738762870E94A438EDB7FEB73C960FB6B8
:1047B000F894FEBF0FBEEDBFC8011F910F91089581
:1047C0000F931F93DF93CF9300D000D000D0CDB7CD
:1047D000DEB78AE397E00E946F388EE697E00E948A
:1047E0006F380DE817E0C8010E946F38CE010196BE
:1047F0000E9478218DB79EB70E970FB6F8949EBF92
:104800000FBE8DBFEDB7FEB731968FEB97E0ADB71A
:10481000BEB712969C938E931197898182831382DF
:104820008A81848315828B81868317828C8180871D
:1048300011868D81828713868E81848715860E94DA
:104840005D38EDB7FEB73E960FB6F894FEBF0FBECB
:10485000EDBF0E948F210E94A02300D000D02EEF38
:1048600037E0ADB7BEB712963C932E9311971496CE
:104870009C938E9313970E945D380F900F900F902A
:104880000F900E94B6210E94A02300D000D026E104
:1048900038E0EDB7FEB732832183948383830E948F
:1048A0005D380F900F900F900F900E94DD210E94B5
:1048B000A02300D000D02EE238E0ADB7BEB71296EC
:1048C0003C932E93119714969C938E9313970E946A
:1048D0005D380F900F900F900F90C8010E946F38B5
:1048E00026960FB6F894DEBF0FBECDBFCF91DF91F5
:1048F0001F910F910895DF93CF9300D000D0CDB7D3
:10490000DEB79C011AC01A82198211C01C821B8258
:1049100005C08B819C8101969C838B838B819C81BC
:10492000892BB9F389819A8101969A838983898138
:104930009A81039758F3215030402115310519F71A
:104940000F900F900F900F90CF91DF910895DF930C
:10495000CF9300D000D000D0CDB7DEB788E790E08D
:104960001BC01A82198211C01C821B8205C08B8158
:104970009C8101969C838B838B819C81892BB9F3CD
:1049800089819A8101969A83898389819A81039783
:1049900058F38D819E8101979E838D838D819E81A9
:1049A000892BF9F681E026960FB6F894DEBF0FBE8C
:1049B000CDBFCF91DF9108951F93182F88E790E026
:1049C0000E947B241A981B9882B3912F907F8F703E
:1049D000982B92BB1F9A1F9882B31295107F8F70ED
:1049E000812B82BB1F9A1F981F9108950E94A724B4
:1049F00081E00E94DC2408951F93182F88E790E03F
:104A00000E947B241A9A1B9882B3912F907F8F70FB
:104A1000982B92BB1F9A1F9882B31295107F8F70AC
:104A2000812B82BB1F9A1F981F9108950F931F938C
:104A3000082F162F0E94A724113051F0113028F0B2
:104A4000123049F0133071F409C0802F805808C02B
:104A5000802F805405C0802F8C5602C0802F8C522E
:104A60000E94DC241F910F910895139A129A179AAD
:104A700081B3806F81BB1F981A981B988CE692E0D7
:104A80000E947B2488E20E94DC248CE10E94DC24CA
:104A90008CE00E94DC2481E00E94DC2482E00E9401
:104AA000DC2488E190E10E947B240E94F62480E0CF
:104AB00060E00E94162581E00895FF920F931F93F6
:104AC000CF93DF93EC01FF2407C00E94A724F801D5
:104AD00080810E94FC24F3948E010F0D111DF801BA
:104AE0008081882391F7CE01DF91CF911F910F91A3
:104AF000FF9008951F93182F0E94A724812F0E94D2
:104B0000FC241F910895B89AC09A0895EF92FF92DD
:104B10000F931F937C01C09880E090E00E94650293
:104B2000182F00E080E090E00E946502082B192B0E
:104B3000C09AC80123E0969587952A95E1F793706E
:104B4000F70191838083812F881F8827881F1F91F9
:104B50000F91FF90EF9008951F920F920FB60F9252
:104B60000BB60F9211242F933F934F935F936F9344
:104B70007F938F939F93AF93BF93EF93FF93809116
:104B80008E0A90918F0A019690938F0A80938E0AD5
:104B9000813491055CF010928F0A10928E0AE09198
:104BA000570BF091580B309709F0099587E884BDB1
:104BB000FF91EF91BF91AF919F918F917F916F91F5
:104BC0005F914F913F912F910F900BBE0F900FBEB1
:104BD0000F901F901895F8941092580B1092570B45
:104BE00087B78F7B87BF87E884BD85E085BD10923E
:104BF0008F0A10928E0A78940895FC01F89487B772
:104C0000806487BF6115710531F0EE0FFF1FE95A0F
:104C1000F44F7183608378940895FC01F894EE0F4B
:104C2000FF1FE95AF44F118210828091570B909127
:104C3000580B892B39F487B78F7B87BF10928F0A67
:104C400010928E0A789408958091AB0A9091AC0AE4
:104C5000A091AD0AB091AE0A0196A11DB11D80933D
:104C6000AB0A9093AC0AA093AD0AB093AE0A089534
:104C700008951F93182F88E796E5A4E3B2E1809387
:104C8000B30A9093B40AA093B50AB093B60A1092EF
:104C9000900A1092910A1092920A1092930A10921E
:104CA000590B10925A0B10925B0B10925C0B1092E6
:104CB0005D0B10925E0B10925F0B1092600B0E94C6
:104CC000930E80E99AE00E94330A81E69BE00E94FD
:104CD000E30985E590E065E570E00E948A0D812F8B
:104CE00062E044E450E020E030E00E9427061093A8
:104CF000B70A20E030E0882311F021E030E0C9015C
:104D00001F910895282F6115710539F483EA96E201
:104D10009093950A8093940A04C07093950A6093C7
:104D2000940A4115510539F488E396E29093970A65
:104D30008093960A04C05093970A4093960A822F54
:104D40000E9439260895DF93CF93CDB7DEB7289719
:104D50000FB6F894DEBF0FBECDBFDE011196EBE7B4
:104D6000F8E088E001900D928150E1F70E94930EE7
:104D700081E69BE00E94E30989E59BE00E94FB0934
:104D80008DE59BE00E94170A80E99AE00E94330AB1
:104D9000BE016F5F7F4FCB010E948A0D28960FB630
:104DA000F894DEBF0FBECDBFCF91DF910895DF92A3
:104DB000EF92FF920F931F93DF93CF9300D000D019
:104DC000CDB7DEB7D82E80E091E19093B90A8093F9
:104DD000B80A1092980A1092990A10929A0A1092A0
:104DE0009B0A10929C0A10929D0A10929E0A1092A1
:104DF0009F0AE0E0F091B90A84E292E0DF019C01B1
:104E00001D9221503040E1F7E091B80AF091B90AC3
:104E1000FF24F394F082E091B80AF091B90AF1828C
:104E2000E091B80AF091B90A86E0E82EE282E091BA
:104E3000B80AF091B90A13820091B80A1091B90A20
:104E40006091B30A7091B40A8091B50A9091B60A44
:104E50000E94F620D80114966D937D938D939C93B8
:104E600017970091B80A1091B90A80E090E00E946B
:104E7000F920F801918780870091B80A1091B90A4A
:104E800080E090E80E94F920D8011B969C938E93B5
:104E90001A972091610BE091B80AF091B90A248F1A
:104EA0003091620BE091B80AF091B90A358F4091C8
:104EB000630BE091B80AF091B90A468F5091640BE8
:104EC000E091B80AF091B90A578F6091650BE091B3
:104ED000B80AF091B90A60A37091660BE091B80A24
:104EE000F091B90A71A3E091B80AF091B90AE451BE
:104EF000FF4F93E69083E091B80AF091B90AE3512D
:104F0000FF4F82E88083E091B80AF091B90AE2513C
:104F1000FF4F83E58083E091B80AF091B90AE1512F
:104F2000FF4F9083E091B80AF091B90AE051FF4F2A
:104F300085E38083E091B80AF091B90AEF50FF4F02
:104F4000F082E091B80AF091B90AEE50FF4FF0827A
:104F5000E091B80AF091B90AED50FF4F8DE38083DC
:104F6000E091B80AF091B90AEC50FF4F87E08083D6
:104F7000E091B80AF091B90AEB50FF4FF082E0914E
:104F8000B80AF091B90AEA50FF4F2083E091B80ABD
:104F9000F091B90AE950FF4F3083E091B80AF091DF
:104FA000B90AE850FF4F4083E091B80AF091B90A7E
:104FB000E750FF4F5083E091B80AF091B90AE650EC
:104FC000FF4F6083E091B80AF091B90AE550FF4FB6
:104FD0007083E091B80AF091B90AE450FF4F8CE079
:104FE0008083E091B80AF091B90AE350FF4F89E05D
:104FF00080838091B80A9091B90A82509F4F66E4ED
:1050000078E00E94F037E091B80AF091B90AEC5FBD
:10501000FE4F8091640B8083E091B80AF091B90A49
:10502000EB5FFE4F8091650B8083E091B80AF091B1
:10503000B90AEA5FFE4F8091660B8083E091B80A5F
:10504000F091B90AE95FFE4F87E38083E091B80AE7
:10505000F091B90AE85FFE4FE082E091B80AF09162
:10506000B90AE75FFE4FF082E091B80AF091B90A01
:10507000E65FFE4F83E08083E091B80AF091B90AC1
:10508000E55FFE4FE082E091B80AF091B90AE45F73
:10509000FE4F8FE08083E091B80AF091B90AE35F98
:1050A000FE4F8AE38083E091B80AF091B90AE25F8B
:1050B000FE4F8BE38083E091B80AF091B90AE15F7B
:1050C000FE4F8FEF808389838A838B838C836091EB
:1050D000B80A7091B90A8D2D44E252E09E012F5F0B
:1050E0003F4F03E410E00E94EE06892B39F4E09173
:1050F000960AF091970A309709F009950F900F9052
:105100000F900F90CF91DF911F910F91FF90EF9033
:10511000DF900895FF920F931F93DF93CF9300D0FA
:1051200000D0CDB7DEB7F82EE0E0F1E1F093B90A98
:10513000E093B80A84E292E0DF019C011D922150C5
:105140003040E1F7E091B80AF091B90A81E080833C
:10515000E091B80AF091B90A8183E091B80AF09120
:10516000B90A86E08283E091B80AF091B90A138205
:105170000091B80A1091B90A6091B30A7091B40A0B
:105180008091B50A9091B60A0E94F620D801149633
:105190006D937D938D939C9317970091B80A10910E
:1051A000B90A80E090E00E94F920F8019187808799
:1051B0008091A40A0091B80A1091B90A833050F482
:1051C00080E090E80E94F920D8011B969C938E9372
:1051D0001A971BC0F801138612868091900A848763
:1051E000E091B80AF091B90A8091910A8587E0911F
:1051F000B80AF091B90A8091920A8687E091B80ABC
:10520000F091B90A8091930A87872091610BE09110
:10521000B80AF091B90A248F3091620BE091B80A74
:10522000F091B90A358F4091630BE091B80AF09183
:10523000B90A468F5091640BE091B80AF091B90A0F
:10524000578F6091650BE091B80AF091B90A60A39D
:105250007091660BE091B80AF091B90A71A3E091E0
:10526000B80AF091B90AE451FF4F93E69083E091B8
:10527000B80AF091B90AE351FF4F82E88083E091C8
:10528000B80AF091B90AE251FF4F83E58083E091BB
:10529000B80AF091B90AE151FF4F9083E091B80A42
:1052A000F091B90AE051FF4F85E38083E091B80A9D
:1052B000F091B90AEF50FF4F91E09083E091B80A66
:1052C000F091B90AEE50FF4F83E08083E091B80A75
:1052D000F091B90AED50FF4F8DE38083E091B80A59
:1052E000F091B90AEC50FF4F87E08083E091B80A53
:1052F000F091B90AEB50FF4F9083E091B80AF0911A
:10530000B90AEA50FF4F2083E091B80AF091B90A38
:10531000E950FF4F3083E091B80AF091B90AE850A4
:10532000FF4F4083E091B80AF091B90AE750FF4F70
:105330005083E091B80AF091B90AE650FF4F6083BC
:10534000E091B80AF091B90AE550FF4F708380915F
:10535000A40A833018F000E110E069C0E091B80AB7
:10536000F091B90AE450FF4F82E38083E091B80ADC
:10537000F091B90AE350FF4F94E09083E091B80AAE
:10538000F091B90AE250FF4F8091900A8083E0913A
:10539000B80AF091B90AE150FF4F8091910A8083D9
:1053A000E091B80AF091B90AE050FF4F8091920A5B
:1053B0008083E091B80AF091B90AEF5FFE4F8091C7
:1053C000930A8083E091B80AF091B90AEE5FFE4F2C
:1053D00086E38083E091B80AF091B90AED5FFE4F51
:1053E0009083E091B80AF091B90AEC5FFE4F80918A
:1053F000980A8083E091B80AF091B90AEB5FFE4FFA
:105400008091990A8083E091B80AF091B90AEA5F25
:10541000FE4F80919A0A8083E091B80AF091B90A10
:10542000E95FFE4F80919B0A80830CE110E0E091E0
:10543000B80AF091B90AE00FF11FE451FF4F8CE078
:105440008083E091B80AF091B90AE00FF11FE351AF
:10545000FF4F89E08083980122513F4F8091B80A25
:105460009091B90A820F931F66E478E00E94F037AA
:10547000E091B80AF091B90AE00FF11FEC50FF4F2C
:105480008091640B8083E091B80AF091B90AE00F33
:10549000F11FEB50FF4F8091650B8083E091B80ABC
:1054A000F091B90AE00FF11FEA50FF4F8091660BAF
:1054B0008083E091B80AF091B90AE00FF11FE9503A
:1054C000FF4F87E38083E091B80AF091B90AE00FBB
:1054D000F11FE850FF4F88E08083E091B80AF09117
:1054E000B90AE00FF11FE750FF4F81E08083E091A0
:1054F000B80AF091B90AE00FF11FE650FF4F83E0C0
:105500008083E091B80AF091B90AE00FF11FE550ED
:10551000FF4F86E08083E091B80AF091B90AE00F6E
:10552000F11FE450FF4F8FE08083E091B80AF091C3
:10553000B90AE00FF11FE350FF4F8AE38083E09147
:10554000B80AF091B90AE00FF11FE250FF4F8BE368
:105550008083E091B80AF091B90AE00FF11FE150A1
:10556000FF4F8FE1808398012C5E3F4FE091B80A96
:10557000F091B90AE20FF31FE451FF4F81E28083FB
:10558000E091B80AF091B90AE20FF31FE351FF4F1F
:105590009FEF90838091A40A833028F499839A83A3
:1055A0009B839C830CC08091980A89838091990A7F
:1055B0008A8380919A0A8B8380919B0A8C83609165
:1055C000B80A7091B90A8F2D44E252E09E012F5F14
:1055D0003F4F03E410E00E94EE06892B39F4E0917E
:1055E000960AF091970A309709F009950F900F905D
:1055F0000F900F90CF91DF911F910F91FF90089521
:105600001F936091A50A633008F03FC02091AF0A54
:105610003091B00A4091B10A5091B20A8091AB0A20
:105620009091AC0AA091AD0AB091AE0A2817390743
:105630004A075B0708F048C01092AB0A1092AC0A08
:105640001092AD0A1092AE0A85E090E0A0E0B0E0C2
:105650008093AF0A9093B00AA093B10AB093B20AB4
:105660006F5F6093A50A8091A40A823049F084306C
:1056700039F0813049F58091B70A0E94D72624C0BD
:105680008091B70A0E948A281FC01092AB0A10921C
:10569000AC0A1092AD0A1092AE0A85E090E0A0E04C
:1056A000B0E08093AF0A9093B00AA093B10AB09390
:1056B000B20A1092A50A11E01093A60A8091B70AC7
:1056C0000E94D7261093A40A1F9108954F925F92CB
:1056D0006F927F929F92AF92BF92CF92DF92EF92A2
:1056E000FF920F931F93DF93CF93CDB7DEB72C9725
:1056F0000FB6F894DEBF0FBECDBF982E27E0281757
:1057000008F44EC10E94550B882309F449C1892D24
:105710000E94AC0C9B01AC016115710509F448C1F4
:1057200080E099E19093B90A8093B80A47E0A42EEB
:10573000B12CAC0EBD1E892D60E079E1A901950167
:105740008E010F5F1F4F0E94D6076C010091B80AAF
:105750001091B90AD8018C91823009F029C1898150
:105760009A818334910509F023C1C8014C9661E602
:105770007BE046E050E00E94B437009709F018C182
:10578000F801E480F580068117816091B30A709179
:10579000B40A8091B50A9091B60A0E94F620E616E6
:1057A000F7060807190709F003C1E090980AF0907E
:1057B000990A00919A0A10919B0AE114F1040105DB
:1057C0001105C1F0D5012D913D914D915C918091D4
:1057D0009C0A90919D0AA0919E0AB0919F0A8217FF
:1057E0009307A407B50731F0E216F306040715077F
:1057F00009F0DEC0E091B80AF091B90A8089918978
:10580000A289B3898093900A9093910AA093920AF7
:10581000B093930ADF01A051BF4F3F016C0C7D1C78
:10582000BB24AA2427E0422E512C4C0E5D1EB3C08F
:105830008D010F5F1F4F8C91863009F440C0873077
:1058400048F48130D9F0813008F4A2C0833009F0E7
:105850009CC025C0853369F0863320F4833309F07A
:1058600094C03FC0863309F44EC08F3F09F08DC00D
:10587000A0C0F801B1908F01A0808AC0D801BD906E
:105880008D018D919D910D90BC91A02D80935D0B0C
:1058900090935E0BA0935F0BB093600B79C0F801FF
:1058A000B1908F0180819181A281B3818093590B46
:1058B00090935A0BA0935B0BB0935C0B69C011964D
:1058C000BC900F5F1F4FF80180819181A281B3814D
:1058D0008093770890937808A0937908B0937A081A
:1058E00057C0D801BD908D016D917D918D919C9196
:1058F0000E940B216093A70A7093A80A8093A90ABB
:105900009093AA0A45C0F801B1908F01C090980AFF
:10591000D090990AE0909A0AF0909B0AC114D104A1
:10592000E104F104B9F0D2012D913D914D915C91CA
:1059300080919C0A90919D0AA0919E0AB0919F0A25
:1059400082179307A407B50729F0C216D306E40609
:10595000F506F1F4F80180819181A281B3818093F1
:10596000980A9093990AA0939A0AB0939B0AF2011D
:1059700080819181A281B38180939C0A90939D0A3A
:10598000A0939E0AB0939F0A03C0D801BD908D01D9
:10599000D801AB0DB11DA615B70508F449CF08C055
:1059A000892D62E044E450E020E030E00E942706C8
:1059B000AA248091A40A823069F1833020F48130D6
:1059C00009F0BBC207C0833009F4D1C1843009F0AB
:1059D000B4C230C2B2E0AB1609F0A9C21092AB0A51
:1059E0001092AC0A1092AD0A1092AE0A85E090E0D7
:1059F000A0E0B0E08093AF0A9093B00AA093B10A00
:105A0000B093B20A1092A50A892D0E948A28A0920A
:105A1000A40A93C2E5E0AE1609F0A4C11092AB0A45
:105A20001092AC0A1092AD0A1092AE0A85E090E096
:105A3000A0E0B0E08093AF0A9093B00AA093B10ABF
:105A4000B093B20A1092A50A8091B70A6DE478E08B
:105A500041E150E020E93AE008E813E10E94EE0657
:105A6000892B09F47CC1E090B70AE0E0F1E1F09302
:105A7000B90AE093B80A84E292E0DF019C011D922A
:105A800021503040E1F7E091B80AF091B90AFF24C3
:105A9000F394F082E091B80AF091B90AF182E091B2
:105AA000B80AF091B90A86E08283E091B80AF091D1
:105AB000B90A13820091B80A1091B90A6091B30A29
:105AC0007091B40A8091B50A9091B60A0E94F620AE
:105AD000D80114966D937D938D939C9317970091A5
