:100000000C940A010C9427010C9427010C942701ED
:100010000C9427010C9427010C9427010C942701C0
:100020000C9427010C9427010C948C260C94270126
:100030000C9427010C9427010C9427010C942701A0
:100040000C9427010C9427010C943B1E0C9427015F
:100050000C9427010C9427010C9427010C94270180
:100060000C9427010C9427010C9427010C94270170
:100070000C9427010C9427010C9427010C94270160
:100080000C9427010C9427010C94270148545450D8
:100090002F312E3120323030204F4B0D0A436F6EFE
:1000A00074656E742D547970653A20746578742F78
:1000B00068746D6C0D0A436F6E74656E742D4C65BB
:1000C0006E6774683A2037380D0A0D0A3C48544D63
:1000D0004C3E0D0A3C424F44593E0D0A536F72721A
:1000E000792C20746865207061676520796F7520B0
:1000F00072657175657374656420776173206E6FC6
:100100007420666F756E642E0D0A3C2F424F445961
:100110003E0D0A3C2F48544D4C3E0D0A00004854F9
:1001200054502F312E3120323030204F4B0D0A43A6
:100130006F6E74656E742D547970653A20746578AD
:10014000742F68746D6C0D0A436F6E74656E742D38
:100150004C656E6774683A2035390D0A0D0A3C48C3
:10016000544D4C3E0D0A3C424F44593E0D0A434704
:100170004920636F6D6D616E6420697320636F6DDC
:10018000706C657465642E0D0A3C2F424F44593ED5
:100190000D0A3C2F48544D4C3E0D0A000048545463
:1001A000502F312E3120343030204F4B0D0A436F09
:1001B0006E74656E742D547970653A207465787428
:1001C0002F68746D6C0D0A436F6E74656E742D4CE0
:1001D000656E6774683A2035300D0A0D0A3C485444
:1001E0004D4C3E0D0A3C424F44593E0D0A496E7635
:1001F000616C696420726571756573742E0D0A3CBB
:100200002F424F44593E0D0A3C2F48544D4C3E0D51
:100210000A00000011241FBECFEFD0E1DEBFCDBF2A
:1002200019E0A0E0B1E0E0E2FAE700E00BBF02C0B5
:1002300007900D92A037B107D9F71AE0A0E7B9E00F
:1002400001C01D92A33EB107E1F70C94691B0C9409
:100250000000FF920F931F93CF93DF93F82EEB01D3
:1002600081E08F15B8F1FB0101900020E9F731978B
:10027000E61BF70B719770F581E1F89E8001112460
:100280000059164F40E150E060E270E0C8010E9462
:1002900059378F2D9927DC0124E0AA0FBB1F2A951F
:1002A000E1F7A80FB91FA059B64FFD01108AFE0152
:1002B00001900020E9F73197EC1BFD0BAF01BE0167
:1002C000CD010E944C376F2D80E00E94EB25C801C4
:1002D0000E943B26DF91CF911F910F91FF900895CF
:1002E00017B885E886B90895F89410926A001ABE86
:1002F00019BE18BE80EC85BF80E480936D007894B1
:10030000089583B1806683B982B18F7982B90895E7
:100310009927049621E030E002C0220F331F8A950E
:10032000E2F788B3822B88BB0895282F33272C5FF0
:100330003F4F81E090E002C0880F991F2A95E2F7B5
:10034000982F909588B3892388BB0895CF93DF9326
:1003500087B3806F87BBC0E0D0E080E00E94880157
:1003600081E00E94880182E00E94880183E00E946F
:1003700088018C2F0E94950188E290E00E942D1E3A
:100380002196C430D10548F380E00E94880181E0C5
:100390000E94880182E00E94880183E00E94880117
:1003A000DF91CF9108950E9470010E9474010E9414
:1003B000122660E071E080E00E94290161E171E0B5
:1003C00081E00E94290167E080E00E94CA1E0E942D
:1003D00081010E94A601089598B3292F33279927F8
:1003E000049602C0359527958A95E2F720FF03C051
:1003F00080E090E0089581E090E008951F93182F29
:100400000E94EC01212F3327813079F42C5F3F4F7C
:1004100081E090E002C0880F991F2A95E2F7982F9B
:10042000909588B3892388BB0CC02C5F3F4F81E037
:1004300090E002C0880F991F2A95E2F728B3282B75
:1004400028BB1F9108959927059641E050E09A0135
:1004500002C0220F331F8A95E2F781B1822320E088
:1004600030E009F09A01C9010895982F823038F4DC
:1004700081E1989FC00111248059964F089580E032
:1004800090E00895877087B9369A349BFECF84B187
:10049000282F332785B19927982F8827822B932BD4
:1004A00008950C9400000895B89AC09AB99AC19A18
:1004B000BA9ABB986E9A6C9A6B986A98709A8DB13A
:1004C0008C7F8DB908958FB9779BFECF8FB1992717
:1004D00008958FB9779BFECF08950F931F93CF9305
:1004E000DF93CDB7DEB768970FB6F894DEBF0FBEC7
:1004F000CDBF8E010F5F1F4F80E1E2E2F1E0D80136
:1005000001900D928A95E1F788E0A2E3B1E0FE0147
:1005100071960D9001928A95E1F7809165008F7E2A
:100520008093650087E50E94630280E00E94630279
:10053000282F3327C9018873907043E095958795DC
:100540004A95E1F7482F5527DA01A00FB11FFD01A9
:10055000808980932D0A440F551F400F511FDA01E7
:100560008D919C9190932F0A80932E0A8091650023
:10057000806180936500C90168960FB6F894DEBF6C
:100580000FBECDBFDF91CF911F910F910895809144
:100590006400806180936400809165008061809335
:1005A00065000E9454026B9A6A9A0E946D02089537
:1005B0001F93CF93DF93EB0110E0909165009F7E36
:1005C000909365008130A1F484E50E946302812F3D
:1005D0000E9463028D2F99270E9463028C2F0E9434
:1005E0006302812F0E946302812F0E946302182FF1
:1005F00080916500806180936500812F9927DF914C
:10060000CF911F9108951F93CF93DF93EB01142F88
:10061000909165009F7E90936500813081F484E81D
:100620000E94630280E00E9463028D2F99270E943E
:1006300063028C2F0E946302812F0E9463028091CB
:100640006500806180936500DF91CF911F910895CF
:10065000CF93DF93EB01909165009F7E90936500AF
:10066000813009F583E50E94630220912D0A80E123
:1006700090E0821B91099E0102C0369527958A95CC
:10068000E2F7C9010E94630280912D0A9927089719
:1006900002C0CC0FDD1F8A95E2F78C2F0E94630207
:1006A00080E00E9463028091650080618093650014
:1006B000809165008F7E809365000E946D02882383
:1006C000E4F780916500806180936500DF91CF91B0
:1006D0000895CF93DF93EB01909165009F7E9093F7
:1006E0006500813009F583E80E94630220912D0A9C
:1006F00080E190E0821B91099E0102C0369527950A
:100700008A95E2F7C9010E94630280912D0A992718
:10071000089702C0CC0FDD1F8A95E2F78C2F0E944C
:10072000630280E00E946302809165008061809393
:100730006500809165008F7E809365000E946D0248
:100740008823E4F780916500806180936500DF91E4
:10075000CF910895EF92FF920F931F93CF93DF9362
:10076000EB018A017901909165009F7E909365006D
:100770008130E9F484E50E94630280E00E94630214
:100780008D2F99270E9463028C2F0E94630280E0C4
:100790000E946302C0E0D0E0C017D10740F480E0BF
:1007A0000E946302F70181937F012196F5CF80912A
:1007B0006500806180936500DF91CF911F910F915B
:1007C000FF90EF900895CF93DF93EB019091650038
:1007D0009F7E90936500813069F484E80E946302F3
:1007E00080E00E9463028D2F99270E9463028C2F64
:1007F0000E94630280916500806180936500DF91B3
:10080000CF910895EF92FF920F931F93CF93DF93B1
:10081000EB018A017901909165009F7E90936500BC
:100820008130C9F484E80E94630280E00E94630280
:100830008D2F99270E9463028C2F0E946302C0E0D3
:10084000D0E0C017D10738F4F70181917F010E94F1
:1008500063022196F6CF80916500806180936500E8
:10086000DF91CF911F910F91FF90EF900895EF923C
:10087000FF920F931F938C017B01809165008F7E07
:100880008093650088E60E94630220912D0A80E132
:1008900090E0821B9109980102C0369527958A95B0
:1008A000E2F7C9010E94630280912D0A99270897F7
:1008B00002C0000F111F8A95E2F78F2D9927800F34
:1008C0000E9463028E2D0E94630280E00E946302F8
:1008D00080E00E94630280E00E94630280E00E9448
:1008E0006302809165008061809365001F910F9184
:1008F000FF90EF900895109295091092940910922C
:1009000093091092920908950E94C7020E947B04E5
:100910000895482F609194097091950981E00E9493
:1009200003038091940990919509019690939509FC
:100930008093940988509140C0F0109295091092CC
:100940009409609192097091930988E0603078076A
:1009500060F481E00E94690380919209909193096B
:10096000019690939309809392090895609192095A
:100970007091930981E00E94690308952F923F923C
:100980004F925F926F927F928F929F92AF92BF929F
:10099000CF92DF92EF92FF920F931F93CF93DF934B
:1009A0007B018C013A014901AA24BB2488E0482E2E
:1009B00081E0582EC901B2010E94853C1B01C8018B
:1009C000B70128E031E040E050E00E94993CE901A5
:1009D000C801B70128E031E040E050E00E94993CB6
:1009E000DC01CB016C01E114F1040105110511F4E6
:1009F000E5016501BE0181E00E9428035201AC18A7
:100A0000BD08A814B90408F054019301A501B6016A
:100A100081E00E94AA0385012196CC24DD24C21422
:100A2000D304D8F4CE012196BC0181E00E942803B2
:100A3000C301800F911F9C0148E051E060E070E02D
:100A400081E00E94AA03085F1E4F88E091E0A80E93
:100A5000B91E0894C11CD11CE2CFA814B90480F4BB
:100A60008A189B0869F0BE0181E00E942803060DE8
:100A7000171D9801A40160E070E081E00E94AA03C4
:100A8000DF91CF911F910F91FF90EF90DF90CF906A
:100A9000BF90AF909F908F907F906F905F904F909E
:100AA0003F902F9008959F92AF92BF92CF92DF9286
:100AB000EF92FF920F931F93CF93DF93CDB7DEB7E3
:100AC0006F970FB6F894DEBF0FBECDBF7C015B0100
:100AD0006A0191E0992E00E010E0C801AA27BB2727
:100AE0002FE130E0AE014F5F5F4FBC01CD010E94AE
:100AF000BE0489818F3F19F48A818F3F09F1BE01BD
:100B0000645F7F4FC7010E947A37892BA9F48981DE
:100B10009A81AB81BC81F60180839183A283B383E8
:100B20008D819E81AF81B885F50180839183A283F9
:100B3000B383892D992706C0015E1F4F9394CDCFB3
:100B400080E090E06F960FB6F894DEBF0FBECDBF89
:100B5000DF91CF911F910F91FF90EF90DF90CF9099
:100B6000BF90AF909F900895992726E0880F991F16
:100B70002A95E1F760E18D5F9D470E94F70908958E
:100B8000CF92DF92EF92FF920F931F93CF93082F94
:100B9000C62F7A016901862F8150843008F049C040
:100BA000802F0E94B405CC29C02EDD24860166E08A
:100BB000000F111F6A95E1F76C2FC8018F5F9D47E9
:100BC0000E94F7099801265F3D47055F1D47E11424
:100BD000F10441F08F2D9927682FC9010E94F70970
:100BE0006E2D11C08091400A9091410A0196909318
:100BF000410A8093400A892F9927682FC9010E94D2
:100C0000F7096091400AC8010E94F709C60136E061
:100C1000880F991F3A95E1F761E08D5F9D470E942B
:100C2000F70981E028E33AE0C20ED31EF601808383
:100C300001C080E09927CF911F910F91FF90EF9015
:100C4000DF90CF900895EF92FF920F931F93CF9371
:100C5000082F0E940A0D833171F4802F9927E6E056
:100C6000880F991FEA95E1F762E08D5F9D470E942A
:100C7000F709C1E001C0C0E01127780176E0EE0C71
:100C8000FF1C7A95E1F7C701865F9D470E94F30933
:100C900099279F938F931F930F938AE391E09F93DC
:100CA0008F930E94EF37C701855F9D470E94F3092C
:100CB00099279F938F931F930F9382E591E09F93C2
:100CC0008F930E94EF378DB79EB70C960FB6F894AE
:100CD0009EBF0FBE8DBF8C2F9927CF911F910F9173
:100CE000FF90EF900895EF92FF920F931F93CF9391
:100CF000DF93082FEB017A0188818F3F51F48981BE
:100D00008F3F91F48A818F3F79F48B818F3F79F007
:100D10000BC0882349F48981882331F48A81882390
:100D200019F48B81882319F0E114F10419F480E09F
:100D300090E034C01127A6E0000F111FAA95E1F73B
:100D40006881C8018C5E9D470E94F7096981C801CE
:100D50008B5E9D470E94F7096A81C8018A5E9D47A4
:100D60000E94F7096B81C801895E9D470E94F709BF
:100D70008F2D9927682FC8018E5E9D470E94F70925
:100D80006E2DC8018D5E9D470E94F70964E0C80181
:100D90008D5F9D470E94F70981E090E0DF91CF9140
:100DA0001F910F91FF90EF9008959927B6E0880F5B
:100DB000991FBA95E1F768E08D5F9D470E94F7099A
:100DC00008958F929F92AF92BF92CF92DF92EF924F
:100DD000FF920F931F93CF93C82F4B0179018A0184
:100DE0008C2F0E946011DC01CB018E159F05A0079E
:100DF000B10728F48C2F0E9460117B018C018C2F8D
:100E00000E94C80E5B016C018C2F0E940A0D873175
:100E100011F08C3191F5AE14BF04C006D10678F301
:100E2000D801C70181709070A070B070892B41F01B
:100E3000D801C7010196A11DB11D9C01AD0102C0E1
:100E4000A8019701B4018C2F0E94E010EC2FFF271E
:100E5000E85CF54F80818823A9F405C08C2F0E949F
:100E60000A0D882351F08C2F0E94F30C84FFF6CFDB
:100E700060E18C2F0E94FF0C06C020E030E040E0D3
:100E800050E011C01082B801A7018C2F0E949A0E69
:100E900060E28C2F0E94BD0C8C2F0E94F30C84FF0B
:100EA000FBCFA8019701CA01B901CF911F910F9102
:100EB000FF90EF90DF90CF90BF90AF909F908F907A
:100EC0000895CF92DF92FF920F931F93CF93DF93FA
:100ED000CDB7DEB722970FB6F894DEBF0FBECDBFF9
:100EE000F82E6B011A821982082F112766E0000F75
:100EF000111F6A95E1F7C8018F5F9D470E94F309B2
:100F000022E030E040E050E0BE016F5F7F4F8F2D68
:100F10000E94201189819A81382F2227892F9927B1
:100F2000282B392B3A832983C901AA27BB2720FF05
:100F300003C00196A11DB11D9C01AD01B6018F2D0D
:100F40000E94201160E4C8018D5F9D470E94F7094F
:100F500089819A81AA27BB27BC01CD0122960FB6B1
:100F6000F894DEBF0FBECDBFDF91CF911F910F91DF
:100F7000FF90DF90CF9008956F927F929F92AF92F3
:100F8000BF92CF92DF92EF92FF920F931F93CF9376
:100F9000DF93982E3B016A01E90158017A0100278D
:100FA00011270E946011DC01CB018E159F05A0075F
:100FB000B10738F4892D0E946011DC01CB017C015E
:100FC00001C076018881882351F48981882339F40E
:100FD0008A81882321F48B81882309F468C0A114B5
:100FE000B10409F464C0E114F10409F460C0092DEE
:100FF0001127E6E0000F111FEA95E1F76881C801AB
:101000008C5E9D470E94F7096981C8018B5E9D47F0
:101010000E94F7096A81C8018A5E9D470E94F7090C
:101020006B81C801895E9D470E94F7098B2D992726
:10103000682FC8018E5E9D470E94F7096A2DC8017E
:101040008D5E9D470E94F709C701AA27BB27AC0107
:10105000BD01892D0E949A0EC701817090708E0D7E
:101060009F1DAA27BB279C01AD01B301892D0E94BA
:10107000E01060E2C8018D5F9D470E94F70909C03A
:10108000892D0E940A0D882311F003FF02C07E0102
:101090000AC0892D0E94F30C082F1127E801C071A6
:1010A000D07004FFEDCF60E1892D0E94FF0CC701D5
:1010B000DF91CF911F910F91FF90EF90DF90CF9034
:1010C000BF90AF909F907F906F9008956F927F92A6
:1010D0009F92AF92BF92CF92DF92EF92FF920F93C7
:1010E0001F93CF93DF93CDB7DEB72C970FB6F8944D
:1010F000DEBF0FBECDBF982E6B017901580100E015
:1011000010E0452B09F4F3C0692C7724C30136E0C5
:10111000880F991F3A95E1F78F5F9D470E94F30969
:101120009927877090708330910571F18430910513
:101130001CF4029729F054C0049709F43FC050C032
:1011400028E030E040E050E0BE016F5F7F4F892D26
:101150000E9420118981F70180838A8181838B819C
:1011600082838C8183838D819927982F88272E8174
:10117000820F911DF501918380838F81082F1127A4
:10118000102F002788852AC026E030E040E050E09C
:10119000BE016F5F7F4F892D0E9420118981F70169
:1011A00080838A8181838B8182838C8183838D81FB
:1011B000082F1127102F00278E8110C022E030E069
:1011C00040E050E0BE016F5F7F4F892D0E942011EB
:1011D0008981082F1127102F00278A81080F111DE0
:1011E000C80181709070800F911FAA27BB279C01B6
:1011F000AD01B601892D0E9420117301F6E0EE0CBD
:10120000FF1CFA95E1F7C7018F5F9D470E94F30924
:10121000992787709070049709F063C08CE691E07D
:101220000E940438F601858199279F938F938481CA
:1012300099279F938F93838199279F938F9382817F
:1012400099279F938F93818199279F938F93808173
:1012500099279F938F9381E891E09F938F930E94AA
:10126000EF37F601838599279F938F93828599277E
:101270009F938F93818599279F938F93808599273B
:101280009F938F93878199279F938F938681992727
:101290009F938F938AEA91E09F938F930E94EF37F9
:1012A000F601858599279F938F93848599279F932E
:1012B0008F9383ED91E09F938F930E94EF378DB7CB
:1012C0009EB782960FB6F8949EBF0FBE8DBF24E0E6
:1012D00030E040E050E0BE01675F7F4F892D0E9403
:1012E000201160E4C7018D5F9D470E94F709C80186
:1012F0002C960FB6F894DEBF0FBECDBFDF91CF9115
:101300001F910F91FF90EF90DF90CF90BF90AF9023
:101310009F907F906F900895AF92BF92DF92EF926F
:10132000FF920F931F93CF93DF93D82E5B01EA01B7
:101330007A01002711270E946011DC01CB018E1574
:101340009F05A007B10738F48D2D0E946011DC01C4
:10135000CB017C0101C07E01E114F104C9F1C70198
:10136000AA27BB27AC01BD018D2D0E949A0EC70193
:10137000817090708E0D9F1DAA27BB279C01AD0127
:10138000B5018D2D0E94E0108D2D992746E0880F24
:10139000991F4A95E1F760E28D5F9D470E94F7092A
:1013A00009C08D2D0E940A0D882311F0C3FF02C0D1
:1013B00078010AC08D2D0E94F30CC82FDD278E0105
:1013C00000711070C4FFEDCF60E18D2D0E94FF0C05
:1013D000C701DF91CF911F910F91FF90EF90DF90A8
:1013E000BF90AF900895FC01808199270895FC017A
:1013F000608308950F931F9380E090E80E94F309A3
:101400009927182F002781E090E80E94F309992777
:10141000802B912B1F910F9108959C01892F992763
:10142000809300802093018008950F931F9382E0A2
:1014300090E80E94F3099927182F002783E090E88D
:101440000E94F3099927802B912B1F910F910895EA
:1014500060E082E090E80E94F70908950F931F93DF
:1014600084E090E80E94F3099927182F002785E06F
:1014700090E80E94F3099927802B912B1F910F91DF
:1014800008950F931F938C01892F9927682F84E06B
:1014900090E80E94F709602F85E090E80E94F70924
:1014A0001F910F9108950F931F938C0188E090E88E
:1014B0000E94F309F801808389E090E80E94F30913
:1014C000F80181838AE090E80E94F309F8018283A1
:1014D0008BE090E80E94F309F80183838CE090E8A8
:1014E0000E94F309F80184838DE090E80E94F309DB
:1014F000F80185831F910F910895FF920F931F9319
:10150000CF93DF938C01C0E0D0E0E5E0FE2EF80140
:1015100061918F01CE01885F9F470E94F709FA947D
:101520002196F7FEF4CFDF91CF911F910F91FF909D
:1015300008950F931F938C0180E190E80E94F309B6
:10154000F801808381E190E80E94F309F80181832A
:1015500082E190E80E94F309F801828383E190E838
:101560000E94F309F80183831F910F9108950F934F
:101570001F938C01FC01608180E190E80E94F709D3
:10158000F801618181E190E80E94F709F801628128
:1015900082E190E80E94F709F801638183E190E815
:1015A0000E94F7091F910F9108950F931F938C01CB
:1015B00084E190E80E94F309F801808385E190E8D6
:1015C0000E94F309F801818386E190E80E94F30903
:1015D000F801828387E190E80E94F309F801838390
:1015E0001F910F9108950F931F938C01FC0160814F
:1015F00084E190E80E94F709F801618185E190E8B3
:101600000E94F709F801628186E190E80E94F709DB
:10161000F801638187E190E80E94F7091F910F911B
:1016200008950F931F938C0188E190E80E94F309BD
:10163000F801808389E190E80E94F309F801818331
:101640008AE190E80E94F309F80182838BE190E837
:101650000E94F309F80183831F910F9108950F935E
:101660001F938C01FC01608188E190E80E94F709DA
:10167000F801618189E190E80E94F709F80162812F
:101680008AE190E80E94F709F80163818BE190E814
:101690000E94F7091F910F9108950F931F938CE1FA
:1016A00090E80E94F3099927182F00278DE190E810
:1016B0000E94F3099927802B912B1F910F91089578
:1016C0000F931F938C01892F9927682F8CE190E845
:1016D0000E94F709602F8DE190E80E94F7091F91A1
:1016E0000F9108958FE190E80E94F30999270895DA
:1016F000682F8FE190E80E94F70908950F931F93D8
:1017000082E390E80E94F3099927182F002783E3CA
:1017100090E80E94F3099927802B912B1F910F913C
:10172000089586E390E80E94F30999270895682FA9
:1017300086E390E80E94F709089588E390E80E9404
:10174000F30999270895682F88E390E80E94F70924
:1017500008950F931F938CE390E80E94F309992753
:10176000182F00278DE390E80E94F3099927802B1A
:10177000912B1F910F9108950F931F938C0180E47B
:1017800090E80E94F309F801108280E490E80E943A
:10179000F309F801818382E490E80E94F309F801DB
:1017A000128282E490E80E94F309F801838384E4C2
:1017B00090E80E94F309F801148284E490E80E9402
:1017C000F309F80185831F910F9108950F931F93DB
:1017D0008C0188E490E80E94F309F801108288E403
:1017E00090E80E94F309F80181838AE490E80E945E
:1017F000F309F80112828AE490E80E94F309F801E3
:1018000083831F910F9108950F931F938CE490E8A9
:101810000E94F3099927182F00278DE490E80E9471
:10182000F3099927802B912B1F910F9108950F9306
:101830001F938EE490E80E94F3099927182F002740
:101840008FE490E80E94F3099927802B912B1F9138
:101850000F9108959927880F991F880F991F805A13
:101860009F470E94F309992708959927880F991F88
:10187000880F991F805A9F470E94F7090895FF9289
:101880000F931F93082F1127000F111F000F111F17
:101890000E591F47902F88270E94F309F82EC80180
:1018A00001960E94F309F82A8F2D99271F910F9115
:1018B000FF900895EF92FF920F931F937B01272FC4
:1018C0003327082F1127000F111F000F111F622F40
:1018D000C8018E599F470E94F7096E2DC8018D5986
:1018E0009F470E94F7091F910F91FF90EF90089575
:1018F0000F931F938EEF90E80E94F3099927182FFA
:1019000000278FEF90E80E94F3099927802B912BF5
:101910001F910F910895FF920F931F93082F112786
:10192000B6E0000F111FBA95E1F7902F88270E94AB
:10193000F309F82EC8018F5F9D470E94F309F82A2A
:101940008F2D99271F910F91FF900895992736E0C9
:10195000880F991F3A95E1F78F5F9D470E94F7091D
:101960000895992746E0880F991F4A95E1F78D5F02
:101970009D470E94F30999270895CF93DF93262F5F
:10198000C82FDD27CE0166E0880F991F6A95E1F721
:10199000622F8D5F9D470E94F709CE0156E0880FA8
:1019A000991F5A95E1F78D5F9D470E94F30988239F
:1019B000A1F7DF91CF910895992776E0880F991FBD
:1019C0007A95E1F78B5F9D470E94F3099927089567
:1019D0009927E6E0880F991FEA95E1F78B5F9D470D
:1019E0000E94F70908959927F6E0880F991FFA9544
:1019F000E1F7895F9D470E94F30999270895992788
:101A0000A6E0880F991FAA95E1F7895F9D470E947C
:101A1000F70908950F931F93CF93082F1127C8013B
:101A2000C6E0880F991FCA95E1F7875F9D470E941E
:101A3000F309C82FC801B6E0880F991FBA95E1F7DE
:101A4000875F9D470E94F309C81799F78C2F992744
:101A5000CF911F910F910895CF92DF92EF92FF9255
:101A60000F931F936B01082F112726E0000F111F02
:101A70002A95E1F79CE0E92E92E8F92EE00EF11E9E
:101A8000C7010E94F309F6011082C7010E94F30901
:101A9000F60181838EE0E82E82E8F82EE00EF11E3A
:101AA000C7010E94F309F6011282C7010E94F309DF
:101AB000F6018383005F1D47C8010E94F309F60108
:101AC0001482C8010E94F309F60185831F910F91CA
:101AD000FF90EF90DF90CF900895EF92FF920F93D9
:101AE0001F937B01082F112736E0000F111F3A9535
:101AF000E1F7FB016181C801845F9D470E94F709FE
:101B0000F7016381C801825F9D470E94F709F701D1
:101B10006581C801805F9D470E94F7091F910F9161
:101B2000FF90EF900895EF92FF920F931F937B0128
:101B3000272F3327082F112746E0000F111F4A9542
:101B4000E1F7622FC8018E5E9D470E94F7096E2D56
:101B5000C8018D5E9D470E94F7091F910F91FF906C
:101B6000EF900895CF92DF92EF92FF920F931F9321
:101B70006B01082F112776E0000F111F7A95E1F70E
:101B800064E1E62E62E8F62EE00EF11EC7010E9427
:101B9000F309F6011082C7010E94F309F60181835F
:101BA0000A5E1D47C8010E94F309F6011282C801AE
:101BB0000E94F309F60183831F910F91FF90EF902C
:101BC000DF90CF900895EF92FF920F931F937B01C8
:101BD000082F1127E6E0000F111FEA95E1F7FB013E
:101BE0006181C8018C5E9D470E94F709F7016381FE
:101BF000C8018A5E9D470E94F7091F910F91FF90CF
:101C0000EF900895EF92FF920F931F93082F1127E3
:101C1000A6E0000F111FAA95E1F7C801885E9D4755
:101C20000E94F3099927F82EEE24C801875E9D478C
:101C30000E94F30999278E299F291F910F91FF90E8
:101C4000EF900895EF92FF920F931F937B01272F40
:101C50003327082F1127B6E0000F111FBA95E1F7BF
:101C6000622FC801885E9D470E94F7096E2DC8014A
:101C7000875E9D470E94F7091F910F91FF90EF909B
:101C80000895992726E0880F991F2A95E1F7855E28
:101C90009D470E94F30980E090E00895FF920F9322
:101CA0001F93F62E082F112756E0000F111F5A958B
:101CB000E1F7055E1D47C8010E94F3092F2D332768
:101CC000322F2227280F311D622FC8010E94F709E9
:101CD0001F910F91FF900895CF92DF92EF92FF92A4
:101CE0000F931F93C82EDD2466E0CC0CDD1C6A9593
:101CF000E1F7C601805E9D470E94F309182FC601D7
:101D00008F5D9D470E94F309082FC6018E5D9D4798
:101D10000E94F309F82EC6018D5D9D470E94F309CC
:101D2000E82EC801B7011F910F91FF90EF90DF904F
:101D3000CF900895CF92DF92EF92FF920F931F936F
:101D40007A018B01C82EDD2476E0CC0CDD1C7A955F
:101D5000E1F7612FC601805E9D470E94F709602F61
:101D6000C6018F5D9D470E94F7096F2DC6018E5DEC
:101D70009D470E94F7096E2DC6018D5D9D470E940B
:101D8000F7091F910F91FF90EF90DF90CF9008958A
:101D90008F929F92AF92BF92CF92DF92EF92FF927B
:101DA0000F931F93CF93C82F882499245401CC2ECE
:101DB000DD24B6E0CC0CDD1CBA95E1F7C6018C5DE4
:101DC0009D470E94F309682F772788279927EE24DB
:101DD000F62E072F182FC6018B5D9D470E94F30931
:101DE000E80EF11C011D111D102F0F2DFE2CEE24ED
:101DF000C6018A5D9D470E94F309E80EF11C011D92
:101E0000111D102F0F2DFE2CEE24C601895D9D475C
:101E10000E94F309E80EF11C011D111DC801B70154
:101E2000E814F9040A051B0519F047015801BFCF52
:101E3000CF911F910F91FF90EF90DF90CF90BF90C7
:101E4000AF909F908F9008958F929F92AF92BF9284
:101E5000CF92DF92EF92FF920F931F93CF93C82FF1
:101E600041E0842E912CA12CB12CCC2EDD2436E027
:101E7000CC0CDD1C3A95E1F7C601885D9D470E94B8
:101E8000F309682F772788279927EE24F62E072F46
:101E9000182FC601875D9D470E94F309E80EF11CCB
:101EA000011D111D102F0F2DFE2CEE24C601865D85
:101EB0009D470E94F309E80EF11C011D111D102F12
:101EC0000F2DFE2CEE24C601855D9D470E94F3096F
:101ED000E80EF11C011D111DC801B701E814F90439
:101EE0000A051B0519F047015801BFCFCF911F917B
:101EF0000F91FF90EF90DF90CF90BF90AF909F90A9
:101F00008F900895EF92FF920F931F937B012F2DD7
:101F10003327082F112756E0000F111F5A95E1F7BC
:101F2000622FC801825D9D470E94F7096E2DC8018E
:101F3000815D9D470E94F7091F910F91FF90EF90DF
:101F40000895EF92FF920F931F93082F1127E6E059
:101F5000000F111FEA95E1F7C801805D9D470E94BF
:101F6000F3099927F82EEE24C8018F5C9D470E9443
:101F7000F30999278E299F291F910F91FF90EF90C8
:101F800008959927F6E0880F991FFA95E1F7855E85
:101F90009D470E94F30999270895EF92FF921F939E
:101FA000162FE82EFF24A6E0EE0CFF1CAA95E1F701
:101FB0008BE192E8E80EF91EC7010E94F309812F18
:101FC0009927682FC7010E94F7091F91FF90EF9092
:101FD00008959927B6E0880F991FBA95E1F7845EB6
:101FE0009D470E94F30999270895992736E0880FA5
:101FF000991F3A95E1F7845E9D470E94F70908957D
:10200000992746E0880F991F4A95E1F7825E9D4720
:102010000E94F30999270895992756E0880F991F80
:102020005A95E1F7825E9D470E94F7090895992726
:1020300066E0880F991F6A95E1F7845D9D470E94CD
:10204000F30999270895992776E0880F991F7A95C3
:10205000E1F7845D9D470E94F709089580E8809329
:10206000018085E090E00E941F1E08956F927F928C
:102070008F929F92AF92BF92CF92DF92EF92FF9298
:102080000F931F93CF93DF938C015B01EE24FF240A
:1020900097016701E701AAE48A2EAAE09A2E6AE670
:1020A0007AE03501AC01DA018D91AD018134C8F5DA
:1020B000F30190819134A8F5E80EF11C290F311D30
:1020C0009927AA27BB27FAE0880F991FAA1FBB1FD1
:1020D000FA95D1F7FB0181939193A193B193BF013D
:1020E000D3018D913D019927AA27BB27EAE0880FEC
:1020F000991FAA1FBB1FEA95D1F7F4018193919311
:10210000A193B1934F012196C830D10560F2C70168
:1021100087709070892B29F42E0D3F1D20383105D2
:1021200019F080E090E03DC0C0E2D0E8D8016D91A8
:102130008D01CE010E94F7092196B0E8C832DB0775
:10214000A8F3C8E2D0E88501F80161918F01CE01C2
:102150000E94F7092196F0E8C033DF07A8F3C0E03A
:10216000D0E0C701A3E096958795AA95E1F7C81737
:10217000D90748F4CC0CDD1C21E030E0C22AD32A78
:10218000C20FD31FF4CF8D2D9927682F80E390E8DD
:102190000E94F7096C2D81E390E80E94F70981E025
:1021A00090E0DF91CF911F910F91FF90EF90DF9022
:1021B000CF90BF90AF909F908F907F906F90089539
:1021C000AF92BF92CF92DF92EF92FF920F931F9345
:1021D000CF93DF93EE24FF248701E216F306040772
:1021E000150708F59927E6E0880F991FEA95E1F7AA
:1021F000EC01C25DDD47DC01A15DBD47FB01EE0DD9
:10220000FF1D8081888381818C9382E0A82EB12C70
:10221000C12CD12CEA0CFB1C0C1D1D1DE216F30673
:102220000407150758F3CA01B901DF91CF911F9137
:102230000F91FF90EF90DF90CF90BF90AF900895F7
:10224000AF92BF92CF92DF92EF92FF920F931F93C4
:10225000CF93DF93EE24FF248701E216F3060407F1
:10226000150708F59927A6E0880F991FAA95E1F7A9
:10227000EC01C05DDD47DC01AF5CBD47FB01EE0D4D
:10228000FF1D888180838C918183F2E0AF2EB12C79
:10229000C12CD12CEA0CFB1C0C1D1D1DE216F306F3
:1022A0000407150758F3CA01B901DF91CF911F91B7
:1022B0000F91FF90EF90DF90CF90BF90AF90089577
:1022C000E82FFF27EE0FFF1FEE0FFF1FE659F54F18
:1022D00080819181A281B381BC01CD010895E82F55
:1022E000FF27EE0FFF1FEE0FFF1FE65BF54F80810C
:1022F0009181A281B381BC01CD010895AF92BF92BB
:10230000CF92DF92EF92FF920F931F93CF93DF93C1
:102310006C01AA24BB24FC018081882311F1760181
:10232000E6018881F7018083853289F489810E94E2
:10233000C220082F112784E0000F111F8A95E1F7B2
:102340008A810E94C220800FF70180832296089420
:10235000A11CB11C0894E11CF11C219688818823E2
:1023600001F7AC0CBD1CF5011082DF91CF911F91DC
:102370000F91FF90EF90DF90CF90BF90AF900895B6
:10238000CF92DF92EF92FF920F931F93CF93DF9341
:10239000CDB7DEB72A970FB6F894DEBF0FBECDBF1C
:1023A0006C01613029F4B7EEEB2EB1E0FB2E29C0B1
:1023B000623029F4A2E2EA2EA2E0FA2E22C06330B3
:1023C00029F4FDE5EF2EF2E0FF2E1BC0643029F466
:1023D000E9E9EE2EE2E0FE2E14C0653029F475ED39
:1023E000E72E72E0F72E0DC0663029F464E2E62E87
:1023F00063E0F62E06C0673021F490E6E92E93E004
:10240000F92E5F934F933F932F9381EA93E09F932D
:102410008F938E010F5F1F4F1F930F930E943A38C7
:10242000B701C6010E948437B801C6010E94633714
:1024300065EA73E0C6010E9463378DB79EB70896C0
:102440000FB6F8949EBF0FBE8DBF2A960FB6F894B4
:10245000DEBF0FBECDBFDF91CF911F910F91FF90D7
:10246000EF90DF90CF9008950F931F93CF93DF935A
:102470008C01EB016AEA73E0CE010E948B37892B55
:1024800009F079C06FEA73E0CE010E948B37892B87
:1024900011F082E071C064EB73E0CE010E948B37D3
:1024A000892B09F058C06AEB73E0CE010E948B378C
:1024B000892B09F050C06FEB73E0CE010E948B377F
:1024C000892B39F465EC73E0CE010E948B37892BA0
:1024D00011F084E051C06AEC73E0CE010E948B37AA
:1024E000892B11F085E048C06FEC73E0CE010E94AB
:1024F0008B37892B39F465ED73E0CE010E948B3761
:10250000892B11F086E038C06AED73E0CE010E949D
:102510008B37892B11F087E02FC06FED73E0CE0170
:102520000E948B37892B39F464EE73E0CE010E9450
:102530008B37892B11F088E01FC069EE73E0CE0164
:102540000E948B37892B39F46DEE73E0CE010E9427
:102550008B37892B11F083E00FC061EF73E0CE0160
:102560000E948B37892B39F466EF73E0CE010E940D
:102570008B37892B21F081E0F801808302C0F801BC
:102580001082DF91CF911F910F9108950F931F93A8
:10259000CF93DF938C01CB016BEF73E00E945F213F
:1025A000EC01009709F445C06DEF73E00E947A37A3
:1025B000892B39F061E074E0CE010E947A37892BD3
:1025C00011F481E00FC065E074E0CE010E947A371B
:1025D000892B39F06AE074E0CE010E947A37892BAA
:1025E00059F482E0F80180836BEF73E080E090E0C3
:1025F0000E945F21EC011BC06FE074E0CE010E94DD
:102600007A37892B39F064E174E0CE010E947A3781
:10261000892B59F469E174E080E090E00E945F2129
:10262000EC0183E0F801808302C0F801108220975A
:1026300019F4F801108205C0BE01C80102960E947B
:102640008437DF91CF911F910F910895EF92FF9200
:102650000F931F93CF93DF93CDB7DEB7CE5FD340F9
:102660000FB6F894DEBF0FBECDBF7B0100E010E0D7
:10267000009741F1672B31F1BC01CE0101960E9418
:102680008437B701CE0101960E948B378C010097E9
:10269000C9F0F70101900020E9F73197EE19FF0921
:1026A000E80FF91F6BE174E0CF0101960E945F21F2
:1026B0008C01009739F00E947E1140E26BE2C80164
:1026C0000E949121C801C250DC4F0FB6F894DEBFC2
:1026D0000FBECDBFDF91CF911F910F91FF90EF9073
:1026E00008950F931F93CF93DF93CDB7DEB7CE5FDF
:1026F000D3400FB6F894DEBF0FBECDBFBC01892B0F
:10270000A1F0CE0101960E94843762E274E0CE010E
:1027100001960E945F218C0165E274E00E947A3785
:10272000892B11F00F5F1F4FB801CB01C250DC4F56
:102730000FB6F894DEBF0FBECDBFDF91CF911F91D2
:102740000F9108950F931F93CF93DF93CDB7DEB70B
:102750002C970FB6F894DEBF0FBECDBF80EA96E887
:10276000A1E0B0E089839A83AB83BC838E010B5FC9
:102770001F4F88E0E7E2F4E0D80101900D928A95BE
:10278000E1F70E942E1089819A81AB81BC8101976B
:10279000A109B10989839A83AB83BC8389819A811A
:1027A000AB81BC818F5F9F4FAF4FBF4F61F7B801C7
:1027B000C8010E943610882309F4FFCF2C960FB66B
:1027C000F894DEBF0FBECDBFDF91CF911F910F9167
:1027D00008958FE294E00E9404380895EF92FF92EA
:1027E0001F93CF93DF930E94E91383E694E00E9446
:1027F00004380E94E91384E894E09F938F930E9429
:10280000EF378DE090E80E94F30999279F938F930B
:102810008CE090E80E94F30999279F938F938BE0B7
:1028200090E80E94F30999279F938F938AE090E89C
:102830000E94F30999279F938F9389E090E80E9463
:10284000F30999279F938F9388E090E80E94F309FA
:1028500099279F938F9388E994E09F938F930E9489
:10286000EF3786EB94E09F938F930E94EF378DB7FD
:102870009EB742960FB6F8949EBF0FBE8DBFC4E1BF
:10288000D0E813E0CE010E94F30999279F938F931C
:102890008CECE82E84E0F82EFF92EF920E94EF3746
:1028A0000F900F900F900F901150219617FFEACFC5
:1028B00080ED94E09F938F930E94EF370F900F90DD
:1028C000C0E1D0E813E0CE010E94F30999279F935D
:1028D0008F93FF92EF920E94EF370F900F900F901F
:1028E0000F901150219617FFEECF86EE94E09F9344
:1028F0008F930E94EF370F900F90C8E1D0E813E05C
:10290000CE010E94F30999279F938F93FF92EF9234
:102910000E94EF370F900F900F900F90115021965B
:1029200017FFEECF0E94E913DF91CF911F91FF9027
:10293000EF900895CF92DF92EF92FF920F931F9343
:10294000CF93DF936C017B0100E010E006171707BF
:1029500008F05DC0EC018091AE09882309F450C0F5
:102960008091A6099091A709A091A809B091A90901
:1029700083309105A105B10571F4F6018081918143
:10298000A281B3818093AA099093AB09A093AC096B
:10299000B093AD0907C00497A105B10518F088816F
:1029A0000E9489042091A6093091A7094091A809A5
:1029B0005091A9092F5F3F4F4F4F5F4F2093A609BA
:1029C0003093A7094093A8095093A9098091AA09B7
:1029D0009091AB09A091AC09B091AD090496A11DED
:1029E000B11D281739074A075B0751F40E94B60446
:1029F0001092AE0980E00E94D5060E94000007C038
:102A00000F5F1F4F21960E151F0508F4A4CFDF910D
:102A1000CF911F910F91FF90EF90DF90CF9008958D
:102A20001F93CF93DF93182F0E940A0DC82FDD2725
:102A3000C331D105D9F1C431D1051CF4209759F126
:102A400038C0C731D10519F06C9709F132C0812F18
:102A50000E94240FDC01CB019C01892B51F185E000
:102A6000253B380710F024EB35E0C901AA27BB2726
:102A70009C01AD0160E071E2812F0E946107DC01E1
:102A8000CB01BC0180E091E20E949A1412C0812F18
:102A90000E94D5060EC0812F0E94B4059E014BE412
:102AA0005EEB61E0812F0E94C00503C0812F0E9470
:102AB0002306DF91CF911F9108958091970A9091FD
:102AC000980AA091990AB0919A0ABC01CD010E947E
:102AD0004A23DC01CB01BC01CD010E941522BC01BF
:102AE00081E00E9429010895CF93DF93CDB7DEB72F
:102AF00024970FB6F894DEBF0FBECDBF1C821B8299
:102B00001A8219828CEF94E09F938F930E94EF3783
:102B1000AE014F5F5F4FBE016D5F7F4F85E195E076
:102B20000E9453050F900F90882319F080E295E0E2
:102B300002C085E295E00E94043824960FB6F8940E
:102B4000DEBF0FBECDBFDF91CF9108958091B20956
:102B50009091B3096CE275E002960E9426130097EB
:102B600021F067E97AE00E944C228091B2099091AD
:102B7000B30960E375E002960E942613009721F0E6
:102B80006FE97AE00E944C228091B2099091B309DA
:102B900065E375E002960E942613009721F06BE929
:102BA0007AE00E944C228091B2099091B30968E3C7
:102BB00075E002960E942613EBE8FAE0A0E0B0E090
:102BC0008FE1182E0E940B3DA4E0B0E081E0082EBA
:102BD0000E94FF3CA5E0B0E083E0082E0E94FF3C8D
:102BE0000895AF92BF92CF92DF92FF920F931F93FF
:102BF000CF93DF93CDB7DEB764970FB6F894DEBFFF
:102C00000FBECDBF5B016C011C8A1B8AE0C26CE366
:102C100075E0C8010E948B376C01892B51F56CE47B
:102C200075E0C8010E948B376C01892B49F08091B7
:102C30009F0A9091A00AA091A10AB091A20A21C076
:102C40006CE575E0C8010E948B376C01892B49F057
:102C500080919B0A90919C0AA0919D0AB0919E0A36
:102C600010C06CE675E0C8010E948B376C01892B9F
:102C7000F1F08091970A9091980AA091990AB091E9
:102C80009A0ABC01CD010E944A23DC01CB01BC01A0
:102C9000CD010E94DE212FE0D601FC0101900D92B2
:102CA0002A95E1F78FE090E0C80ED91E90C26CE73C
:102CB00075E0C8010E948B376C01892B09F44CC068
:102CC0008091920A99279F938F938091910A9927D7
:102CD0009F938F938EE895E09F938F938E010F5F64
:102CE0001F4F1F930F930E943A388091940A99279F
:102CF0009F938F938091930A99279F938F9389E94C
:102D000095E09F938F93CE0107969F938F930E9498
:102D10003A388091960A99279F938F938091950ACC
:102D200099279F938F9384EA95E09F938F93CE0189
:102D30000D969F938F930E943A3881E1D601F80156
:102D400001900D928A95E1F781E190E0C80ED91EBD
:102D5000ADB7BEB7589636C26EEA75E0C8010E949C
:102D60008B376C01009799F040E150E060E270E031
:102D70000E94593781E00E94350220E1F601DC0112
:102D80000D9001922A95E1F7E0E1F0E0E4C16FEBEC
:102D900075E0C8010E948B376C01009741F01AE082
:102DA000DC01E12F1D92EA95E9F780E02FC06AEC83
:102DB00075E0C8010E948B376C01009741F01AE062
:102DC000DC01E12F1D92EA95E9F781E01FC065ED76
:102DD00075E0C8010E948B376C01009741F01AE042
:102DE000DC01E12F1D92EA95E9F782E00FC060EE69
:102DF00075E0C8010E948B376C010097C1F01AE0A2
:102E0000DC01E12F1D92EA95E9F783E00E94EC01D5
:102E1000813019F4EBEEF5E002C0E6EFF5E0D60103
:102E200001900D921A95E1F7EAE0F0E094C161E0BB
:102E300076E0C8010E948B376C01009741F047E0B3
:102E400050E060E270E00E94593780E02FC069E0F6
:102E500076E0C8010E948B376C01009741F047E093
:102E600050E060E270E00E94593781E01FC061E1EC
:102E700076E0C8010E948B376C01009741F047E073
:102E800050E060E270E00E94593782E00FC069E1D3
:102E900076E0C8010E948B376C01009781F047E013
:102EA00050E060E270E00E94593783E00E94EC013C
:102EB000813009F04EC187E0E1E2F6E045C169E208
:102EC00076E0C8010E948B376C01892BA9F080E065
:102ED0000E94420220E034E0281B390B3C8B2B8BF4
:102EE00047E0F42ED601EF2D1D92EA95E9F78B8984
:102EF0009C89969587954CC161E376E0C8010E9454
:102F00008B376C01009741F019E0FC01812F119281
:102F10008A95E9F780E00FC06BE376E0C8010E9474
:102F20008B376C010097C1F019E0DC01E12F1D9295
:102F3000EA95E9F781E00E942302882319F0E5E48D
:102F4000F6E002C0EFE4F6E0D60101900D921A958A
:102F5000E1F7E9E0F0E0FFC069E576E0C8010E9432
:102F60008B376C01892B09F449C086E0D6011D928C
:102F70008A95E9F7CE0143960E946226882309F0DC
:102F8000E0C00B891C89005110401C8B0B8BC801C1
:102F9000AA2797FDA095BA2FBC01CD010E94A734A6
:102FA00017FF06C020E030E040E857E40E9484327A
:102FB00020E030E040E25FE30E94EA32DC01CB0136
:102FC000BC01CD010E943631DC01CB019C8B8B8B87
:102FD00023E0969587952A95E1F70A969F938F931C
:102FE00080E696E09F938F93CE0101969F938F93F7
:102FF0000E943A38EDB7FEB7369657C066E676E0DF
:10300000C8010E948B376C01892B09F4A7C086E0A8
:10301000D6011D928A95E9F7CE0143960E94622659
:103020002B893C89882309F446C000E010E1021B8B
:10303000130BC801AA2797FDA095BA2FBC01CD019B
:103040000E94A73417FF06C020E030E040E857E4B4
:103050000E94843220E030E040E25FE30E94EA32E6
:10306000DC01CB01BC01CD010E943631DC01CB017A
:103070009C8B8B8B6AE070E00E94853C9F938F93C2
:103080008B899C896AE070E00E94853C7F936F93F6
:103090008DE696E09F938F93CE0101969F938F9339
:1030A0000E943A38EDB7FEB738960FB6F894FEBFD7
:1030B0000FBEEDBF46C08901005110401C8B0B8B29
:1030C000C801AA2797FDA095BA2FBC01CD010E9487
:1030D000A73417FF06C020E030E040E857E40E9424
:1030E000843220E030E040E25FE30E94EA32DC011B
:1030F000CB01BC01CD010E943631DC01CB019C8BA0
:103100008B8B6AE070E00E94853C9F938F938B8944
:103110009C896AE070E00E94853C7F936F9386E70C
:1031200096E09F938F93CE0101969F938F930E9479
:103130003A388DB79EB708960FB6F8949EBF0FBE6B
:103140008DBF86E0FE013196D60101900D928A95E1
:10315000E1F7E7E0F0E0CE0EDF1E39C06EE776E083
:10316000C8010E948B376C01892BD1F180E00E944D
:10317000420220E034E0281B390B3C8B2B8B97E07C
:10318000F92ED601EF2D1D92EA95E9F78B899C89DE
:103190009F938F9386E896E09F938F938E010F5FA6
:1031A0001F4F1F930F930E943A38D601F8010190E8
:1031B0000D92FA94E1F787E090E0C80ED91EADB702
:1031C000BEB716960FB6F894BEBF0FBEADBF64E291
:1031D00070E0C6010E946E378C01892B09F017CD73
:1031E000C50164960FB6F894DEBF0FBECDBFDF9168
:1031F000CF911F910F91FF90DF90CF90BF90AF9034
:1032000008958F929F92BF92CF92DF92EF92FF929A
:103210000F931F93CF93DF93CDB7DEB728970FB6E9
:10322000F894DEBF0FBECDBFB82E8824992400E0ED
:1032300019E11093B3090093B2090E940A0D99276E
:103240008731910559F08831910524F4892B09F4CF
:1032500009C22DC24C9709F400C229C280918A0A82
:10326000813019F482E080938A0A8B2D0E94240F0A
:10327000DC01CB01FC01181619060CF018C28F5F97
:10328000934010F0EEEFF3E0CF01AA2797FDA09551
:10329000BA2F9C01AD016091B2097091B3098B2DD9
:1032A0000E946107DC01CB01FC018091B209909181
:1032B000B309E80FF91F10822091B2093091B309C8
:1032C0001D821E821F8218861093B1090093B009D7
:1032D00080E091E19093B3098093B209B9010E9413
:1032E000C612E091B209F091B30980819927009745
:1032F00021F004970CF09EC105C046E750E06DE94F
:1033000071E0EBC0CF0102960E9471136C016AE874
:1033100076E00E947A37892B41F48BE0E5E1F5E015
:10332000D60101900D928A95E1F78091B2099091B2
:10333000B309B60101960E9434120091B2091091AE
:10334000B309F8018181883009F0B8C06CE876E0F3
:10335000C6010E948B37892B81F067E976E0C801AE
:1033600002960E942613FC01009709F46BC0108A94
:10337000BC0181E00E94290165C06CE976E0C601CC
:103380000E948B37892B09F46EC067EA76E0C8018A
:1033900002960E942613009751F06CEA76E00E9494
:1033A0007A37892B21F480E00E94950103C080E0E8
:1033B0000E9488018091B2099091B3096FEA76E08A
:1033C00002960E942613009751F06CEA76E00E9464
:1033D0007A37892B21F481E00E94950103C081E0B6
:1033E0000E9488018091B2099091B30964EB76E064
:1033F00002960E942613009751F06CEA76E00E9434
:103400007A37892B21F482E00E94950103C082E083
:103410000E9488018091B2099091B30969EB76E02E
:1034200002960E942613009751F06CEA76E00E9403
:103430007A37892B21F483E00E94950103C083E051
:103440000E94880189E0EEEBF6E0D60101900D9232
:103450008A95E1F78091B2099091B309B60101967E
:103460000E9434122BC067EC76E0C6010E948B37B5
:10347000892B21F10E94A6154FE750E06EE171E023
:103480008091B0099091B1090E943237E091B00962
:10349000F091B109DF010D900020E9F71197AE1B03
:1034A000BF0B9D0144275527BF018B2D0E94E106CC
:1034B00080E00E94D5060E940000BCC0AE014F5FB4
:1034C0005F4FBE016B5F7F4FC6010E94530588238B
:1034D000E9F442E950E06CE870E08091B009909125
:1034E000B1090E943237E091B009F091B109DF01D2
:1034F0000D900020E9F71197AE1BBF0B9D014427EB
:103500005527BF018B2D0E94E10694C0E091B209BE
:10351000F091B30961816830E1F029813A814B81F2
:103520005C818091B0099091B1090E94C011E09135
:10353000B009F091B109DF010D900020E9F7119772
:10354000AE1BBF0B9D0144275527BF018B2D0E9449
:10355000E10689819A81AB81BC810097A105B10503
:1035600009F468C089819A81AB81BC818F5F9740E3
:10357000A040B04018F00FEF17E002C009811A8197
:1035800098014091B0095091B1096D817E818F8180
:1035900098850E94BE04E091B009F091B109E00F56
:1035A000F11F1182E091B209F091B309818181305C
:1035B00059F0883049F0833079F465ED76E0C60142
:1035C0000E948B37892B41F0B8018091B00990910E
:1035D000B1090E94F1158C01C801AA27BB277C0103
:1035E0008D019C01AD016091B0097091B1098B2DE5
:1035F0000E94E1068D819E81AF81B8858E0D9F1D51
:10360000A01FB11F8D839E83AF83B88789819A8164
:10361000AB81BC818E199F09A00BB10B89839A8362
:10362000AB83BC839ACFC4010894811C911C8D5D2F
:10363000954078F48B2D0E94C80E7B018C018B2D58
:103640000E946011DC01CB01E816F9060A071B078E
:1036500051F78B2D0E94D5062AC08B2D0E94D506CE
:1036600010928A0A80918A0A882389F48B2D9927DF
:103670009F938F9381EE96E09F938F930E94EF37F5
:1036800081E080938A0A0F900F900F900F9020E0B6
:1036900030E040E550E061E08B2D0E94C0058823BA
:1036A00019F480938A0A03C08B2D0E942306289662
:1036B0000FB6F894DEBF0FBECDBFDF91CF911F9143
:1036C0000F91FF90EF90DF90CF90BF909F908F90E1
:1036D0000895CFEFD0E1DEBFCDBF0E94D3018CEFC4
:1036E00096E09F938F930E94EF370E94A2130E944F
:1036F000C41B0E94B6300E945D150E94EE130E940A
:1037000084040E9474150E945F260F900F9080E041
:103710000E94101581E00E94071C8091A30A882353
:1037200011F00E94323183E00E94011984E00E946E
:10373000011985E00E94011986E00E94011987E0C5
:103740000E940119E4CFCF93DF93EBE8FAE08FE119
:10375000A3E2B7E0EF01982F0D9009929A95E1F757
:10376000A0E0B0E0182E0E940B3DA4E0B0E081E0A4
:10377000082E0E94FF3CA5E0B0E083E0082E0E94E6
:10378000FF3CDF91CF910895A0E0B0E00E94F23CB1
:10379000802D823819F00E94A31B28C0EBE8FAE0C4
:1037A000A0E0B0E08FE1182E0E94FA3CA4E0B0E067
:1037B0000E94F23C802D813039F4A5E0B0E00E94F7
:1037C000F23C802D833061F0A4E0B0E081E0082E6F
:1037D0000E94FF3CA5E0B0E083E0082E0E94FF3C81
:1037E00081E080938F0A83E08093900A87E99AE0D2
:1037F0000E942F0B8FE99AE00E94B70A8BE99AE0AA
:103800000E94F30A81E99AE00E947D0A0895BF921E
:10381000CF92DF92EF92FF920F931F93CF93DF939C
:10382000CDB7DEB726970FB6F894DEBF0FBECDBF7B
:10383000B82E8AE49EEB9A8389838B2D0E940A0D11
:10384000282F33272115310509F4A2C12232310571
:1038500009F0A4C18B2D0E94240FDC01CB01AC0127
:10386000181619060CF09AC1809710F04FE150E03D
:103870008E010F5F1F4F9E012D5F3F4F6AEA7AE076
:103880008B2D0E94660809811A818EEB0A34180775
:1038900009F084C144E050E068E577E08AEA9AE004
:1038A0000E943F37892B21F56AEA7AE08FE1EBE845
:1038B000FAE0DB0101900D928A95E1F786E699E640
:1038C000AEE6B4E68093AA0A9093AB0AA093AC0A42
:1038D000B093AD0A8FEF8B838C838D838E839E0193
:1038E0002D5F3F4F4FE150E08B2D0E94BC0756C12A
:1038F00044E050E06DE577E08AEA9AE00E943F37C5
:103900006C01892B09F05CC09091B00A8091910AFA
:10391000981709F043C19091B10A8091920A9817C3
:1039200009F03CC19091B20A8091930A981709F06E
:1039300035C19091B30A8091940A981709F02EC16D
:103940009091B40A8091950A981709F027C1909137
:10395000B50A8091960A981709F020C19AEAE92ED3
:103960009AE0F92E83E795E6A4E7B4E78093AA0AE4
:103970009093AB0AA093AC0AB093AD0A8FEF8B8300
:103980008C838D838E839E012D5F3F4F4FE150E0EE
:10399000B7018B2D0E94BC0782E88093AA0A80930E
:1039A000AB0A8093AC0A8093AD0A8FE1D601F70190
:1039B000182E0E940B3D8B2D0E94B405F894E5C093
:1039C00044E050E062E677E08AEA9AE00E943F37FE
:1039D000892BA1F59091B00A8091910A981709F06E
:1039E000DDC09091B10A8091920A981709F0D6C073
:1039F0009091B20A8091930A981709F0CFC09091E4
:103A0000B30A8091940A981709F0C8C09091B40A3B
:103A10008091950A981709F0C1C09091B50A8091DC
:103A2000960A981709F0BAC0F89485B7816085BFE7
:103A300085B7826085BFFF9500F0B0C044E050E0DC
:103A400067E677E08AEA9AE00E943F37892B71F5B2
:103A50009091B00A8091910A981709F09FC09091B7
:103A6000B10A8091920A981709F098C09091B20A11
:103A70008091930A981709F091C09091B30A8091B0
:103A8000940A981709F08AC09091B40A8091950A17
:103A9000981709F083C09091B50A8091960A9817FB
:103AA00009F07CC081E08093AE0978C044E050E02A
:103AB0006CE677E08AEA9AE00E943F376C01892B36
:103AC00009F06CC09091C30A8091910A981709F08F
:103AD00065C09091C40A8091920A981709F05EC05F
:103AE0009091C50A8091930A981709F057C0909158
:103AF000C60A8091940A981709F050C09091C70A9D
:103B00008091950A981709F049C09091C80A809150
:103B1000960A981709F042C08AEAE82E8AE0F82E41
:103B200083E795E6A4E7B4E78093AA0A9093AB0AEB
:103B3000A093AC0AB093AD0A8FEF8B838C838D83F7
:103B40008E839E012D5F3F4F4FE150E0B7018B2DDB
:103B50000E94BC0782E88093AA0A8093AB0A8093F4
:103B6000AC0A8093AD0A8091A30A8093C20A8FE1C8
:103B7000D601F701182E0E940B3D81E797E00E94C5
:103B800004388B2D0E94B405F8940E94000006C0F2
:103B900049E45EEB62E08B2D0E94C00526960FB6CD
:103BA000F894DEBF0FBECDBFDF91CF911F910F9173
:103BB000FF90EF90DF90CF90BF900895EF92FF922B
:103BC0000F931F938C01C801AA2797FDA095BA2FC8
:103BD000BC01CD010E94A73417FF06C020E030E0F1
:103BE00040E857E40E9484322BEA3AEA4AEA5EE36C
:103BF0000E94EA327B018C0120E030E040E85FE384
:103C00000E947134882314F481E012C020E030E077
:103C10004FE753E4C801B7010E940534181614F4A5
:103C200080E006C0C801B7010E943631DC01CB013B
:103C30008A95F1F71F910F91FF90EF900895CF9320
:103C4000DF93EC01892B31F088EE93E00E94DE1DBA
:103C50002197D1F7DF91CF910895CF93DF93EC01B6
:103C6000892B31F08AE090E00E941F1E2197D1F746
:103C7000DF91CF9108951F920F920FB60F921124EA
:103C80002F933F934F938F939F93EF93FF93809145
:103C9000D4099091D509E091D409F091D509EC545B
:103CA000F64F8CB180834091D809442321F1809153
:103CB000D4099091D509E091D409F091D509EC543B
:103CC000F64F8081833121F48091D909826010C040
:103CD0008091D4099091D509E091D409F091D5094A
:103CE000EC54F64F8081813131F48091D9098D7F78
:103CF0008093D90909C08091D4099091D509019682
:103D00009093D5098093D4092091D4093091D50995
:103D10008091D6099091D70928173907A1F4442337
:103D200049F05D9BFECF83E18CB98091D909816018
:103D30008093D9098091D4099091D50901979093E6
:103D4000D5098093D4098091D4099091D5098097A1
:103D5000ACF01092D5091092D4092091D409309179
:103D6000D5098091D6099091D7092817390731F4E0
:103D700080E290E09093D5098093D409FF91EF9170
:103D80009F918F914F913F912F910F900FBE0F9068
:103D90001F901895CF93C82F6623A1F1613079F158
:103DA000623051F1633029F1643001F16530D9F0AE
:103DB0006630B1F0673089F0683061F0693039F011
:103DC00020E030E06A3001F521E030E01DC023E062
:103DD00030E01AC026E030E017C028E030E014C020
:103DE0002CE030E011C020E130E00EC029E130E0ED
:103DF0000BC022E230E008C023E330E005C027E634
:103E000030E002C02FEC30E0CC2339F583B1836081
:103E100083B91098119A88E98AB9832F99278093DA
:103E2000900029B928EA3FE13093DB092093DA09B1
:103E300088E99FE19093DD098093DC09B9010E9434
:103E4000A8371092D5091092D4091092D709109270
:103E5000D609C093D809C093D909CF910895882372
:103E600091F480919500886080939500662331F4E9
:103E7000809195008D7F80939500089580919500A5
:103E80008260809395000895882369F4662331F455
:103E900080919500877F809395000895809195008B
:103EA0008860809395000895882399F4662321F40F
:103EB000809195008F7C05C0613031F48091950030
:103EC0008F7E809395000895809195008063809304
:103ED00095000895882311F46093D80908958823E4
:103EE00019F020E030E022C02091D4093091D509AA
:103EF0008091D6099091D709281739074CF0209165
:103F0000D4093091D5098091D6099091D7090CC078
:103F10008091D6099091D7092091D4093091D50983
:103F2000821B930B20E230E0281B390BC901089556
:103F3000382F2091D8098091D909992782709070E3
:103F4000222311F00097E1F75D9BFECF3CB9089565
:103F50002091D4093091D5098091D6099091D70943
:103F600028173907A9F38091D6099091D709FC0148
:103F7000EC54F64F01969093D7098093D609E081CF
:103F80008091D809882359F09091D90990FF07C0F2
:103F90005D9BFECF81E18CB99E7F9093D909809182
:103FA000D6099091D709809724F01092D7091092E2
:103FB000D6098E2F99270895CF93DF93FB0188238D
:103FC00089F48081882371F0EB0121972196E0919B
:103FD000DC09F091DD0960E070E088810995898154
:103FE0008823A1F7DF91CF9108959F92AF92BF925E
:103FF000CF92DF92EF92FF920F931F93CF93DF93B5
:10400000EB01942E59016B0101E0EE24FF2488237B
:1040100009F47DC08DC0002399F0113289F48881A4
:10402000882349F0E091DC09F091DD0960E070E05F
:1040300089910995F4CF00E00894E11CF11C67C058
:10404000183009F5CC16DD0609F441C0E091DC0911
:10405000F091DD0960E070E0812F0995E091DC09C5
:10406000F091DD0960E070E080E20995E091DC0903
:10407000F091DD0960E070E0812F099521970894A7
:10408000E108F10844C01B3111F5CC16DD06E9F05A
:10409000E091DC09F091DD0960E070E088E00995CD
:1040A000E091DC09F091DD0960E070E080E20995C3
:1040B000E091DC09F091DD0960E070E088E00995AD
:1040C00021970894E108F108E0CF01E020C0812F9A
:1040D00080528F3510F01930D1F4EA14FB04BCF48F
:1040E000992041F0E091DC09F091DD0960E070E099
:1040F0008AE207C0E091DC09F091DD0960E070E040
:10410000812F099519930894E11CF11C00E0E091BE
:10411000DA09F091DB0980E090E00995182F8D30E5
:1041200009F079CF188268E877E088810E94DC1F67
:10413000C701DF91CF911F910F91FF90EF90DF901A
:10414000CF90BF90AF909F900895882341F48091C5
:10415000D6099091D7099093D5098093D4090895F1
:10416000482F282F33272A30310510F4405D05C031
:10417000C9010A97069720F4495C842F992708956E
:10418000C9010895982F80538A3010F49927089513
:10419000892F8156863010F4975505C0892F815498
:1041A000863020F49753892F99270895892F9927CE
:1041B0000895EF92FF920F931F93CF93DF93EC013B
:1041C0007B0120E030E08881882371F02E9D800102
:1041D0002F9D100D3E9D100D112489910E94C2202B
:1041E0009801280F311DEFCFC901DF91CF911F91A9
:1041F0000F91FF90EF900895CF92DF92EF92FF9290
:104200000F931F93CF93DF938C017B016A01EC0125
:10421000892B51F08881882339F088810E94C2203F
:1042200099278E159F051CF080E090E00DC0219627
:104230008881882391F7B701C8010E94D920F6012F
:104240009183808381E090E0DF91CF911F910F9166
:10425000FF90EF90DF90CF90089520E030E0DC01F8
:104260008C91882399F0FB018081882341F09C91F7
:104270008081981721F0319680818823C9F7808149
:10428000882321F02F5F3F4F1196EACFC90108958F
:10429000DC018C91882381F0FB018081882351F01F
:1042A0009C918081981711F4CD01089531968081F9
:1042B0008823B9F71196EDCF80E090E008950F9331
:1042C0001F93CF93DF938B01EC01892B21F4C091D5
:1042D000DE09D091DF092097F1F0B801CE010E94EC
:1042E0002D21C80FD91F8881882339F41092DF0946
:1042F0001092DE0980E090E00FC0B801CE010E946C
:104300004821FC01892B19F0808181111192F093D1
:10431000DF09E093DE09CE01DF91CF911F910F916C
:104320000895FC018081882331F08081861709F48B
:1043300040833196F7CF0895382F2227892F992768
:10434000822B932B0895EF92FF920F931F937B0183
:104350008C01B62FAA27992788272F2D332744278A
:104360005527A90133272227822B932BA42BB52B6A
:10437000202F332744275527542F432F322F22270E
:10438000822B932BA42BB52B212F33274427552782
:10439000822B932BA42BB52BBC01CD011F910F9128
:1043A000FF90EF900895DC01CB01BC01CD010E948C
:1043B000A321DC01CB01BC01CD0108950F931F9314
:1043C0009B01AC0100EE19E080E1F80111928A95A1
:1043D000E9F7C90190709F938F93BB27A52F942F66
:1043E000832F90709F938F93CA01AA27BB27907049
:1043F0009F938F93852F9927AA27BB2790709F9310
:104400008F938BE897E09F938F931F930F930E9456
:104410003A388DB79EB70C960FB6F8949EBF0FBE74
:104420008DBFC8011F910F9108950F931F939B019A
:10443000AC0100EF19E080E1F80111928A95E9F7EB
:10444000C90190709F938F93BB27A52F942F832F23
:1044500090709F938F93CA01AA27BB2790709F9358
:104460008F93852F9927AA27BB2790709F938F93AF
:1044700087E997E09F938F931F930F930E943A3899
:104480008DB79EB70C960FB6F8949EBF0FBE8DBF2A
:10449000C8011F910F910895EF92FF920F931F9300
:1044A000CF93DF93CDB7DEB76E970FB6F894DEBF2C
:1044B0000FBECDBF8B01BC01CE0101960E94843797
:1044C000FE013196A3E0EA2EF12CE00EF11E6BEA1C
:1044D00077E0CF010E945F21FC018081803341F4AD
:1044E0008181883729F460E170E0CF01029603C032
:1044F0006AE070E0CF010E94D920F80181938F011A
:10450000E0E0F0E0E016F10614F76E960FB6F894CE
:10451000DEBF0FBECDBFDF91CF911F910F91FF90F6
:10452000EF900895EF92FF920F931F93CF93DF9335
:10453000CDB7DEB7E4970FB6F894DEBF0FBECDBFA0
:104540008E010F5F1F4FBC01C8010E948437EE240B
:10455000FF246BEA77E0C8010E945F218C0100977D
:1045600089F1FC018081803379F48181883761F49D
:10457000AE014D5C5F4F60E170E0C80102960E94A1
:10458000FC20009759F41EC0AE014D5C5F4F6AE0FD
:1045900070E0C8010E94FC200097A1F08BA99CA9A3
:1045A0008F3F910521F018F080E090E00BC000E013
:1045B00010E00894E11CF11CF4E0EF16F1044CF259
:1045C00081E090E0E4960FB6F894DEBF0FBECDBF59
:1045D000DF91CF911F910F91FF90EF900895DF929F
:1045E000EF92FF920F931F93CF93DF93D82EEE2479
:1045F000FF248701C0E0D0E0102F0F2DFE2CEE2409
:104600008D2D9927B6E0880F991FBA95E1F78C0F89
:104610009D1F8C5E9D470E94F309E80EF11C011D51
:10462000111D2196C430D1053CF3C801B701DF91BB
:10463000CF911F910F91FF90EF90DF900895EF922F
:10464000FF920F931F93E82EFF2426E0EE0CFF1C31
:104650002A95E1F7C7018E5E9D470E94F309082F56
:104660001127102F0027C7018D5E9D470E94F30977
:10467000080F111DC8011F910F91FF90EF90089531
:104680000E949C2108950E944023AA27BB27BC01B9
:10469000CD010895DC01CB01BC01CD010E94D321E5
:1046A000DC01CB01BC01CD010895AF92BF92CF9246
:1046B000DF92EF92FF920F931F93CF93DF93CDB7CB
:1046C000DEB724970FB6F894DEBF0FBECDBF698367
:1046D0007A838B839C83CC24DD245E010894A11C07
:1046E000B11C34E1E32E30E8F32EEC0CFD1CC701C5
:1046F0000E94F309F50101915F010823C601885E5C
:104700009F470E94F309182FC7010E94F30918233D
:10471000011719F081E090E009C00894C11CD11C78
:10472000F4E0CF16D104ECF280E090E024960FB6CE
:10473000F894DEBF0FBECDBFDF91CF911F910F91D7
:10474000FF90EF90DF90CF90BF90AF9008950F93C0
:104750001F93CF93DF93082F643008F060E0162F8B
:10476000683068F4C62FDD27812F0E940A0D80175C
:1047700011F4CE0106C01F5F21961830A8F388E01F
:1047800090E0DF91CF911F910F910895CF92DF922A
:10479000EF92FF920F931F93CF93DF936C017B01F6
:1047A0008B011695079540E050E060E070E0C0E0B6
:1047B000D0E0C017D107A8F4FC018081282F33274F
:1047C000322F22278181280F311DC901AA27BB273B
:1047D000480F591F6A1F7B1F21963296C017D107B9
:1047E00060F3E0FE0FC0CC0FDD1FCC0DDD1D888116
:1047F000282F3327922F8827AA27BB27480F591F16
:104800006A1F7B1F9A01CB01AA27BB27280F391FDC
:10481000C90180959095DF91CF911F910F91FF90E5
:10482000EF90DF90CF900895EF92FF920F931F9338
:10483000CF93DF93EE24FF248701C0E0D0E0102F58
:104840000F2DFE2CEE24CE01885E9F470E94F309B7
:10485000E80EF11C011D111D2196C430D1057CF319
:10486000C801B701DF91CF911F910F91FF90EF9099
:104870000895EF92FF920F931F93CF93DF93EE244F
:10488000FF248701C0E0D0E0102F0F2DFE2CEE2476
:10489000CE01805F9F470E94F309E80EF11C011DC5
:1048A000111D2196C430D1057CF3C801B701DF91F9
:1048B000CF911F910F91FF90EF900895EF92FF928B
:1048C0000F931F93CF93DF93EE24FF248701C0E063
:1048D000D0E0102F0F2DFE2CEE24CE018C5E9F47D2
:1048E0000E94F309E80EF11C011D111D2196C43030
:1048F000D1057CF3C801B701DF91CF911F910F91D2
:10490000FF90EF9008950F931F93CF93DF938C0147
:10491000C0E0D0E0CE01885F9F470E94F309F80114
:1049200081938F012196C630D105A4F3DF91CF91F9
:104930001F910F910895FF920F931F93CF93DF93D1
:10494000F82E8B01C0E0D0E08F2D992736E0880F3C
:10495000991F3A95E1F78C0F9D1F845F9D470E9438
:10496000F309F80181938F012196C630D10564F3D4
:10497000DF91CF911F910F91FF900895CF93DF9317
:10498000CDB7DEB726970FB6F894DEBF0FBECDBF0A
:104990008DEA97E00E94043881EE97E00E94043887
:1049A00080E098E00E940438CE0101960E948324A2
:1049B0008E8199279F938F938D8199279F938F93B2
:1049C0008C8199279F938F938B8199279F938F93A6
:1049D0008A8199279F938F93898199279F938F939A
:1049E00082E398E09F938F930E94EF370E945E24AA
:1049F0000E94DE219F938F9381E798E09F938F938E
:104A00000E94EF370E9439240E94DE219F938F93EA
:104A100089E898E09F938F930E94EF370E941424B7
:104A20000E94DE219F938F9381EA98E09F938F935A
:104A30000E94EF3780E098E00E9404388DB79EB75F
:104A40004A960FB6F8949EBF0FBE8DBF26960FB63E
:104A5000F894DEBF0FBECDBFDF91CF910895CF9305
:104A6000DF93CDB7DEB724970FB6F894DEBF0FBE45
:104A7000CDBF9C01892BD9F01A82198289819A8134
:104A8000039790F41C821B828B819C81892B31F4CB
:104A90008B819C8101969C838B83F6CF89819A813F
:104AA00001969A838983EACF2150304029F72496D2
:104AB0000FB6F894DEBF0FBECDBFDF91CF91089542
:104AC000CF93DF93CDB7DEB726970FB6F894DEBF4E
:104AD0000FBECDBF88E790E09E838D838D819E8140
:104AE000892BE1F01A82198289819A81039790F4C7
:104AF0001C821B828B819C81892B31F48B819C8150
:104B000001969C838B83F6CF89819A8101969A8343
:104B10008983EACF8D819E810197DECF81E090E08D
:104B200026960FB6F894DEBF0FBECDBFDF91CF91B2
:104B300008951F93182F88E790E00E942F251A9858
:104B40001B9882B38F7030EF912F9323892B82BBF8
:104B50001F9A4FE783B1842383B922B32F70812F2B
:104B6000992754E0880F991F5A95E1F73823232B92
:104B700022BB1F9A83B1842383B91F9108950E9499
:104B8000602581E00E94992508951F93182F88E7DA
:104B900090E00E942F251A9A1B9882B38F7030EFF5
:104BA000912F9323892B82BB1F9A4FE783B18423D4
:104BB00083B922B32F70812F992764E0880F991F42
:104BC0006A95E1F73823232B22BB1F9A83B18423F4
:104BD00083B91F9108951F93CF93C82F162F0E945A
:104BE0006025812F99278130910579F082309105D8
:104BF0001CF4892B39F013C08230910549F00397DA
:104C000051F00DC08C2F805808C08C2F805405C0E7
:104C10008C2F8C5602C08C2F8C520E949925CF91DC
:104C20001F910895139A129A179A81B3806F81BBCE
:104C30001F981A981B988CE692E00E942F2588E214
:104C40000E9499258CE10E9499258CE00E9499256B
:104C500081E00E94992582E00E94992588E190E1F7
:104C60000E942F250E94BF2560E0862F0E94EB2521
:104C700081E090E008951F93CF93DF93EC0110E063
:104C80008881882371F00E946025FE01E10FF11DEB
:104C900080810E94C5251F5FFE01E10FF11D80810B
:104CA000F0CFCE01DF91CF911F9108951F93182F60
:104CB0000E946025812F0E94C5251F910895B89AF2
:104CC000C09A0895EF92FF920F931F937C01C098B2
:104CD00080E090E00E946302182F002780E090E0BF
:104CE0000E946302082B192BC09AC80133E09695E5
:104CF00087953A95E1F79370F70191838083812F2F
:104D0000992787FD90958827990F881F99271F91CC
:104D10000F91FF90EF9008951F920F920FB60F9290
:104D200011242F933F934F935F936F937F938F93B0
:104D30009F93AF93BF93EF93FF938091000A90915D
:104D4000010A01969093010A8093000A813491052B
:104D50005CF01092010A1092000AE091C90AF091E9
:104D6000CA0A309709F0099587E884BDFF91EF9151
:104D7000BF91AF919F918F917F916F915F914F9173
:104D80003F912F910F900FBE0F901F901895F894A0
:104D90001092CA0A1092C90A87B78F7B87BF87E82B
:104DA00084BD85E085BD1092010A1092000A7894B6
:104DB0000895FC01F89487B7806487BF6115710579
:104DC00031F0EE0FFF1FE753F54F71836083789446
:104DD0000895FC01F894E80FF91FE753F54F11828D
:104DE00010822091C90A3091CA0A2115310539F47F
:104DF00087B78F7B87BF3093010A2093000A78948E
:104E0000089510921D0A10921E0A10921F0A109205
:104E1000200A85E090E0A0E0B0E08093210A909322
:104E2000220AA093230AB093240A1092170A089525
:104E3000BF92CF92DF92EF92FF920F931F93CF9387
:104E4000DF93CDB7DEB724970FB6F894DEBF0FBE61
:104E5000CDBFB82EE0E0F1E1F0932B0AE0932A0AEF
:104E600010920E0A10920F0A1092100A1092110A54
:104E700010920A0A10920B0A10920C0A10920D0A54
:104E800024E2C22E22E0D22EC60111920197E9F748
:104E9000E0912A0AF0912B0A91E0F92EF082E0913C
:104EA0002A0AF0912B0AF182E0912A0AF0912B0A4A
:104EB00086E0E82EE282E0912A0AF0912B0A138222
:104EC00000912A0A10912B0A8091250A9091260AB6
:104ED000A091270AB091280ABC01CD010E94D321DC
:104EE000DC01CB01F80184839583A683B78300910D
:104EF0002A0A10912B0A80E090E00E944023F801DA
:104F00009187808700912A0A10912B0A80E090E80F
:104F10000E944023F80193878287E0912A0AF0914A
:104F20002B0A8091D30A848FE0912A0AF0912B0AF0
:104F30008091D40A858FE0912A0AF0912B0A809102
:104F4000D50A868FE0912A0AF0912B0A8091D60A21
:104F5000878FE0912A0AF0912B0A8091D70A80A3CB
:104F6000E0912A0AF0912B0A8091D80A81A3E0915E
:104F70002A0AF0912B0AE451FF4F93E69083E091C7
:104F80002A0AF0912B0AE351FF4F82E88083E091D7
:104F90002A0AF0912B0AE251FF4F83E58083E091CA
:104FA0002A0AF0912B0AE151FF4F9083E0912A0ADF
:104FB000F0912B0AE051FF4F85E38083E0912A0AAC
:104FC000F0912B0AEF50FF4FF082E0912A0AF09106
:104FD0002B0AEE50FF4FF082E0912A0AF0912B0A43
:104FE000ED50FF4F8DE38083E0912A0AF0912B0A68
:104FF000EC50FF4F97E09083E0912A0AF0912B0A42
:10500000EB50FF4FF082E0912A0AF0912B0AEA5010
:10501000FF4F8091D30A8083E0912A0AF0912B0AF6
:10502000E950FF4F8091D40A8083E0912A0AF091E1
:105030002B0AE850FF4F8091D50A8083E0912A0A1D
:10504000F0912B0AE750FF4F8091D60A8083E091C0
:105050002A0AF0912B0AE650FF4F8091D70A8083ED
:10506000E0912A0AF0912B0AE550FF4F8091D80A6F
:105070008083E0912A0AF0912B0AE450FF4F8CE0E4
:105080008083E0912A0AF0912B0AE350FF4F89E0D8
:105090008083E0912A0AF0912B0AE250FF4FADEB9A
:1050A000B8E00D9001929A95E1F7E0912A0AF0910B
:1050B0002B0AEC5FFE4F8091D60A8083E0912A0A8A
:1050C000F0912B0AEB5FFE4F8091D70A8083E0912D
:1050D0002A0AF0912B0AEA5FFE4F8091D80A80835A
:1050E000E0912A0AF0912B0AE95FFE4F87E3808363
:1050F000E0912A0AF0912B0AE85FFE4FE082E091EE
:105100002A0AF0912B0AE75FFE4FF082E0912A0A0B
:10511000F0912B0AE65FFE4F83E08083E0912A0A3C
:10512000F0912B0AE55FFE4FE082E0912A0AF091B0
:105130002B0AE45FFE4F8FE08083E0912A0AF09112
:105140002B0AE35FFE4F8AE38083E0912A0AF09105
:105150002B0AE25FFE4F8BE38083E0912A0AF091F5
:105160002B0AE15FFE4F8FEF80838983FE0131962A
:1051700081838B838C8303E410E09F01A6016091FF
:105180002A0A70912B0A8B2D0E94BC07892B39F4B7
:10519000E091020AF091030A309709F009952496EC
:1051A0000FB6F894DEBF0FBECDBFDF91CF911F9138
:1051B0000F91FF90EF90DF90CF90BF900895DF9216
:1051C000EF92FF920F931F93CF93DF93CDB7DEB78C
:1051D00024970FB6F894DEBF0FBECDBFD82EEE24B5
:1051E000FF24E0E0F1E1F0932B0AE0932A0A84E245
:1051F00092E011920197E9F7E0912A0AF0912B0AC7
:1052000081E08083E0912A0AF0912B0A8183E0916A
:105210002A0AF0912B0A86E08283E0912A0AF09113
:105220002B0A138200912A0A10912B0A8091250AD9
:105230009091260AA091270AB091280ABC01CD01BD
:105240000E94D321DC01CB01F80184839583A683DE
:10525000B78300912A0A10912B0AC7010E944023AC
:10526000F801918780878091160A00912A0A10918F
:105270002B0A833040F480E090E80E944023F8013C
:10528000938782871BC0F801F386E2868091060A25
:105290008487E0912A0AF0912B0A8091070A85877A
:1052A000E0912A0AF0912B0A8091080A8687E09102
:1052B0002A0AF0912B0A8091090A8787E0912A0A2D
:1052C000F0912B0A8091D30A848FE0912A0AF09101
:1052D0002B0A8091D40A858FE0912A0AF0912B0A3B
:1052E0008091D50A868FE0912A0AF0912B0A80914D
:1052F000D60A878FE0912A0AF0912B0A8091D70A6B
:1053000080A3E0912A0AF0912B0A8091D80A81A308
:10531000E0912A0AF0912B0AE451FF4F93E6908323
:10532000E0912A0AF0912B0AE351FF4F82E8808333
:10533000E0912A0AF0912B0AE251FF4F83E5808326
:10534000E0912A0AF0912B0AE151FF4F9083E091FE
:105350002A0AF0912B0AE051FF4F85E38083E09108
:105360002A0AF0912B0AEF50FF4F21E02083E091B1
:105370002A0AF0912B0AEE50FF4F43E04083E09160
:105380002A0AF0912B0AED50FF4F8DE38083E091C4
:105390002A0AF0912B0AEC50FF4F37E03083E0915E
:1053A0002A0AF0912B0AEB50FF4F2083E0912A0A42
:1053B000F0912B0AEA50FF4F8091D30A8083E0914D
:1053C0002A0AF0912B0AE950FF4F8091D40A80837A
:1053D000E0912A0AF0912B0AE850FF4F8091D50AFC
:1053E0008083E0912A0AF0912B0AE750FF4F8091C9
:1053F000D60A8083E0912A0AF0912B0AE650FF4FEB
:105400008091D70A8083E0912A0AF0912B0AE55017
:10541000FF4F8091D80A808360E1E62EF12C8091C5
:10542000160A833008F06AC0E0912A0AF0912B0A2C
:10543000E450FF4F82E38083E0912A0AF0912B0A27
:10544000E350FF4F94E09083E0912A0AF0912B0AF9
:10545000E250FF4F8091060A8083E0912A0AF09182
:105460002B0AE150FF4F8091070A8083E0912A0ABE
:10547000F0912B0AE050FF4F8091080A8083E09161
:105480002A0AF0912B0AEF5FFE4F8091090A808370
:10549000E0912A0AF0912B0AEE5FFE4F86E38083AB
:1054A000E0912A0AF0912B0AED5FFE4F9083E09184
:1054B0002A0AF0912B0AEC5FFE4F80910E0A80833E
:1054C000E0912A0AF0912B0AEB5FFE4F80910F0AC0
:1054D0008083E0912A0AF0912B0AEA5FFE4F8091C7
:1054E000100A8083E0912A0AF0912B0AE95FFE4FAF
:1054F0008091110A80835CE1E52EF12CE0912A0A6B
:10550000F0912B0AEE0DFF1DE451FF4F8CE08083DC
:105510000894E11CF11CE0912A0AF0912B0AEE0D8F
:10552000FF1DE451FF4F89E080830894E11CF11CCA
:10553000E0912A0AF0912B0AEE0DFF1DE451FF4F76
:10554000ADEBB8E00D9001923A95E1F786E090E07E
:10555000E80EF91EE0912A0AF0912B0AEE0DFF1DCC
:10556000E451FF4F8091D60A80830894E11CF11C1E
:10557000E0912A0AF0912B0AEE0DFF1DE451FF4F36
:105580008091D70A80830894E11CF11CE0912A0ADB
:10559000F0912B0AEE0DFF1DE451FF4F8091D80AC8
:1055A00080830894E11CF11CE0912A0AF0912B0AF7
:1055B000EE0DFF1DE451FF4F87E380830894E11C4B
:1055C000F11CE0912A0AF0912B0AEE0DFF1DE45127
:1055D000FF4F88E080830894E11CF11CE0912A0AC7
:1055E000F0912B0AEE0DFF1DE451FF4F208308942C
:1055F000E11CF11CE0912A0AF0912B0AEE0DFF1D2F
:10560000E451FF4F40830894E11CF11CE0912A0A09
:10561000F0912B0AEE0DFF1DE451FF4F86E08083D1
:105620000894E11CF11CE0912A0AF0912B0AEE0D7E
:10563000FF1DE451FF4F8FE080830894E11CF11CB3
:10564000E0912A0AF0912B0AEE0DFF1DE451FF4F65
:105650008AE380830894E11CF11CE0912A0AF0910E
:105660002B0AEE0DFF1DE451FF4F8BE3808308945E
:10567000E11CF11CE0912A0AF0912B0AEE0DFF1DAE
:10568000E451FF4F8FE180830894E11CF11CE0910D
:105690002A0AF0912B0AEE0DFF1DE451FF4F81E223
:1056A0008083E0912A0AF0912B0AEE0DFF1DE35151
:1056B000FF4F9FEF90838091160AFE013196833051
:1056C00028F4998391839B839C830CC080910E0A5C
:1056D000898380910F0A81838091100A8B83809146
:1056E000110A8C8303E410E09E012F5F3F4F44E2D8
:1056F00052E060912A0A70912B0A8D2D0E94BC07FE
:10570000892B39F4E091020AF091030A309709F0ED
:10571000099524960FB6F894DEBF0FBECDBFDF917A
:10572000CF911F910F91FF90EF90DF9008951F93FD
:105730006091170A633008F045C02091210A30912A
:10574000220A4091230A5091240A80911D0A9091C7
:105750001E0AA0911F0AB091200A281739074A078C
:105760005B07D8F510921D0A10921E0A10921F0AAC
:105770001092200A85E090E0A0E0B0E08093210A3A
:105780009093220AA093230AB093240A6F5F609338
:10579000170A8091160A99278230910571F083309B
:1057A00091051CF4019721F018C0049731F015C041
:1057B0008091290A0E94182710C08091290A0E940E
:1057C000DF280BC00E94012711E01093180A809176
:1057D000290A0E9418271093160A1F9108950F9303
:1057E0001F93CF93DF93CDB7DEB728970FB6F8940A
:1057F000DEBF0FBECDBF8E010F5F1F4F88E0E4EC10
:10580000F8E0D80101900D928A95E1F70E942E10E0
:1058100083ED9AE00E947D0A8BEC9AE00E94B70A21
:105820008FEC9AE00E94F30A86E09AE00E942F0B28
:10583000B801C8010E94361028960FB6F894DEBF52
:105840000FBECDBFDF91CF911F910F9108957F9231
:105850008F929F92AF92BF92CF92DF92EF92FF9280
:105860000F931F93CF93DF93CDB7DEB72C970FB66F
:10587000F894DEBF0FBECDBFA82E10E087E08A15DA
:1058800008F44CC18A2D0E940A0D882309F446C1F0
:105890008A2D0E94240FAB01BC014115510509F46A
:1058A00045C180E099E190932B0A80932A0A8E01EA
:1058B000095F1F4F9E012F5F3F4FBC018A2D0E9441
:1058C00066084C0100912A0A10912B0AF801808188
:1058D000823009F01FC18F8198858334910509F0CA
:1058E00019C146E050E063ED7AE0C8014C960E9491
:1058F0003F376C01892B09F00DC18091250A9091E9
:10590000260AA091270AB091280ABC01CD010E9465
:10591000D3219B01AC01F80184819581A681B781D7
:1059200082179307A407B50709F0F4C0E0900E0AA8
:10593000F0900F0A0091100A1091110AE114F1047D
:1059400001051105C1F080910A0A90910B0AA091FE
:105950000C0AB0910D0A29813A814B815C81821732
:105960009307A407B50739F0E216F30604071507F5
:1059700011F0C601D1C0E0912A0AF0912B0A80896A
:105980009189A289B3898093060A9093070AA0930C
:10599000080AB093090A77248F0100511F4F8E0E19
:1059A0009F1E0815190508F0B5C0F80181918F01F7
:1059B00099278630910509F446C0873091056CF42B
:1059C0008130910511F18230910524F4892B09F47D
:1059D0009EC09AC0039741F197C08533910589F025
:1059E000863391051CF4C397E9F18EC08633910587
:1059F00009F44BC08F3F910509F086C0872D992788
:105A00008BC0B1908F01708082C0B1908F01808176
:105A10009181A281B3818093CF0A9093D00AA09301
:105A2000D10AB093D20A73C0B1908F018081918165
:105A3000A281B3818093CB0A9093CC0AA093CD0A24
:105A4000B093CE0A64C0B1908F0180819181A28110
:105A5000B3818093B9089093BA08A093BB08B09320
:105A6000BC0855C0B1908F016081718182819381A2
:105A70000E944A23DC01CB018093190A90931A0AF1
:105A8000A0931B0AB0931C0A42C0B1908F01C09032
:105A90000E0AD0900F0AE090100AF090110AC1147B
:105AA000D104E104F104B1F080910A0A90910B0A4B
:105AB000A0910C0AB0910D0A29813A814B815C8139
:105AC00082179307A407B50729F0C216D306E40688
:105AD000F506E9F4F80180819181A281B381809378
